{
	"Contracts/Error.sol": {
		"Error_Sol": {
			"abi": [
				{
					"inputs": [],
					"stateMutability": "nonpayable",
					"type": "constructor"
				},
				{
					"inputs": [],
					"name": "ChangName1",
					"outputs": [
						{
							"internalType": "string",
							"name": "",
							"type": "string"
						}
					],
					"stateMutability": "nonpayable",
					"type": "function"
				},
				{
					"inputs": [],
					"name": "ChangName2",
					"outputs": [
						{
							"internalType": "string",
							"name": "",
							"type": "string"
						}
					],
					"stateMutability": "nonpayable",
					"type": "function"
				},
				{
					"inputs": [],
					"name": "Check",
					"outputs": [
						{
							"internalType": "uint256",
							"name": "",
							"type": "uint256"
						}
					],
					"stateMutability": "view",
					"type": "function"
				},
				{
					"inputs": [],
					"name": "OwnerAddress",
					"outputs": [
						{
							"internalType": "address",
							"name": "",
							"type": "address"
						}
					],
					"stateMutability": "view",
					"type": "function"
				},
				{
					"inputs": [],
					"name": "name1",
					"outputs": [
						{
							"internalType": "string",
							"name": "",
							"type": "string"
						}
					],
					"stateMutability": "view",
					"type": "function"
				},
				{
					"inputs": [],
					"name": "name2",
					"outputs": [
						{
							"internalType": "string",
							"name": "",
							"type": "string"
						}
					],
					"stateMutability": "view",
					"type": "function"
				}
			],
			"devdoc": {
				"kind": "dev",
				"methods": {},
				"version": 1
			},
			"evm": {
				"assembly": "    /* \"Contracts/Error.sol\":62:884  contract Error_Sol{... */\n  mstore(0x40, 0x80)\n    /* \"Contracts/Error.sol\":123:155  string public name1 = \"Mohammad\" */\n  mload(0x40)\n  dup1\n  0x40\n  add\n  0x40\n  mstore\n  dup1\n  0x08\n  dup2\n  mstore\n  0x20\n  add\n  0x4d6f68616d6d6164000000000000000000000000000000000000000000000000\n  dup2\n  mstore\n  pop\n  0x01\n  swap1\n  dup2\n  tag_1\n  swap2\n  swap1\n  tag_2\n  jump\t// in\ntag_1:\n  pop\n    /* \"Contracts/Error.sol\":162:194  string public name2 = \"Ali Dash\" */\n  mload(0x40)\n  dup1\n  0x40\n  add\n  0x40\n  mstore\n  dup1\n  0x08\n  dup2\n  mstore\n  0x20\n  add\n  0x416c692044617368000000000000000000000000000000000000000000000000\n  dup2\n  mstore\n  pop\n  0x02\n  swap1\n  dup2\n  tag_3\n  swap2\n  swap1\n  tag_2\n  jump\t// in\ntag_3:\n  pop\n    /* \"Contracts/Error.sol\":212:214  10 */\n  0x0a\n    /* \"Contracts/Error.sol\":203:214  uint a = 10 */\n  0x03\n  sstore\n    /* \"Contracts/Error.sol\":230:232  30 */\n  0x1e\n    /* \"Contracts/Error.sol\":221:232  uint b = 30 */\n  0x04\n  sstore\n    /* \"Contracts/Error.sol\":243:300  constructor(){... */\n  callvalue\n  dup1\n  iszero\n  tag_4\n  jumpi\n  0x00\n  dup1\n  revert\ntag_4:\n  pop\n    /* \"Contracts/Error.sol\":282:292  msg.sender */\n  caller\n    /* \"Contracts/Error.sol\":267:279  OwnerAddress */\n  0x00\n  dup1\n    /* \"Contracts/Error.sol\":267:292  OwnerAddress = msg.sender */\n  0x0100\n  exp\n  dup2\n  sload\n  dup2\n  0xffffffffffffffffffffffffffffffffffffffff\n  mul\n  not\n  and\n  swap1\n  dup4\n  0xffffffffffffffffffffffffffffffffffffffff\n  and\n  mul\n  or\n  swap1\n  sstore\n  pop\n    /* \"Contracts/Error.sol\":62:884  contract Error_Sol{... */\n  jump(tag_7)\n    /* \"#utility.yul\":7:106   */\ntag_8:\n    /* \"#utility.yul\":59:65   */\n  0x00\n    /* \"#utility.yul\":93:98   */\n  dup2\n    /* \"#utility.yul\":87:99   */\n  mload\n    /* \"#utility.yul\":77:99   */\n  swap1\n  pop\n    /* \"#utility.yul\":7:106   */\n  swap2\n  swap1\n  pop\n  jump\t// out\n    /* \"#utility.yul\":112:292   */\ntag_9:\n    /* \"#utility.yul\":160:237   */\n  0x4e487b7100000000000000000000000000000000000000000000000000000000\n    /* \"#utility.yul\":157:158   */\n  0x00\n    /* \"#utility.yul\":150:238   */\n  mstore\n    /* \"#utility.yul\":257:261   */\n  0x41\n    /* \"#utility.yul\":254:255   */\n  0x04\n    /* \"#utility.yul\":247:262   */\n  mstore\n    /* \"#utility.yul\":281:285   */\n  0x24\n    /* \"#utility.yul\":278:279   */\n  0x00\n    /* \"#utility.yul\":271:286   */\n  revert\n    /* \"#utility.yul\":298:478   */\ntag_10:\n    /* \"#utility.yul\":346:423   */\n  0x4e487b7100000000000000000000000000000000000000000000000000000000\n    /* \"#utility.yul\":343:344   */\n  0x00\n    /* \"#utility.yul\":336:424   */\n  mstore\n    /* \"#utility.yul\":443:447   */\n  0x22\n    /* \"#utility.yul\":440:441   */\n  0x04\n    /* \"#utility.yul\":433:448   */\n  mstore\n    /* \"#utility.yul\":467:471   */\n  0x24\n    /* \"#utility.yul\":464:465   */\n  0x00\n    /* \"#utility.yul\":457:472   */\n  revert\n    /* \"#utility.yul\":484:804   */\ntag_11:\n    /* \"#utility.yul\":528:534   */\n  0x00\n    /* \"#utility.yul\":565:566   */\n  0x02\n    /* \"#utility.yul\":559:563   */\n  dup3\n    /* \"#utility.yul\":555:567   */\n  div\n    /* \"#utility.yul\":545:567   */\n  swap1\n  pop\n    /* \"#utility.yul\":612:613   */\n  0x01\n    /* \"#utility.yul\":606:610   */\n  dup3\n    /* \"#utility.yul\":602:614   */\n  and\n    /* \"#utility.yul\":633:651   */\n  dup1\n    /* \"#utility.yul\":623:704   */\n  tag_33\n  jumpi\n    /* \"#utility.yul\":689:693   */\n  0x7f\n    /* \"#utility.yul\":681:687   */\n  dup3\n    /* \"#utility.yul\":677:694   */\n  and\n    /* \"#utility.yul\":667:694   */\n  swap2\n  pop\n    /* \"#utility.yul\":623:704   */\ntag_33:\n    /* \"#utility.yul\":751:753   */\n  0x20\n    /* \"#utility.yul\":743:749   */\n  dup3\n    /* \"#utility.yul\":740:754   */\n  lt\n    /* \"#utility.yul\":720:738   */\n  dup2\n    /* \"#utility.yul\":717:755   */\n  sub\n    /* \"#utility.yul\":714:798   */\n  tag_34\n  jumpi\n    /* \"#utility.yul\":770:788   */\n  tag_35\n  tag_10\n  jump\t// in\ntag_35:\n    /* \"#utility.yul\":714:798   */\ntag_34:\n    /* \"#utility.yul\":535:804   */\n  pop\n    /* \"#utility.yul\":484:804   */\n  swap2\n  swap1\n  pop\n  jump\t// out\n    /* \"#utility.yul\":810:951   */\ntag_12:\n    /* \"#utility.yul\":859:863   */\n  0x00\n    /* \"#utility.yul\":882:885   */\n  dup2\n    /* \"#utility.yul\":874:885   */\n  swap1\n  pop\n    /* \"#utility.yul\":905:908   */\n  dup2\n    /* \"#utility.yul\":902:903   */\n  0x00\n    /* \"#utility.yul\":895:909   */\n  mstore\n    /* \"#utility.yul\":939:943   */\n  0x20\n    /* \"#utility.yul\":936:937   */\n  0x00\n    /* \"#utility.yul\":926:944   */\n  keccak256\n    /* \"#utility.yul\":918:944   */\n  swap1\n  pop\n    /* \"#utility.yul\":810:951   */\n  swap2\n  swap1\n  pop\n  jump\t// out\n    /* \"#utility.yul\":957:1050   */\ntag_13:\n    /* \"#utility.yul\":994:1000   */\n  0x00\n    /* \"#utility.yul\":1041:1043   */\n  0x20\n    /* \"#utility.yul\":1036:1038   */\n  0x1f\n    /* \"#utility.yul\":1029:1034   */\n  dup4\n    /* \"#utility.yul\":1025:1039   */\n  add\n    /* \"#utility.yul\":1021:1044   */\n  div\n    /* \"#utility.yul\":1011:1044   */\n  swap1\n  pop\n    /* \"#utility.yul\":957:1050   */\n  swap2\n  swap1\n  pop\n  jump\t// out\n    /* \"#utility.yul\":1056:1163   */\ntag_14:\n    /* \"#utility.yul\":1100:1108   */\n  0x00\n    /* \"#utility.yul\":1150:1155   */\n  dup3\n    /* \"#utility.yul\":1144:1148   */\n  dup3\n    /* \"#utility.yul\":1140:1156   */\n  shl\n    /* \"#utility.yul\":1119:1156   */\n  swap1\n  pop\n    /* \"#utility.yul\":1056:1163   */\n  swap3\n  swap2\n  pop\n  pop\n  jump\t// out\n    /* \"#utility.yul\":1169:1562   */\ntag_15:\n    /* \"#utility.yul\":1238:1244   */\n  0x00\n    /* \"#utility.yul\":1288:1289   */\n  0x08\n    /* \"#utility.yul\":1276:1286   */\n  dup4\n    /* \"#utility.yul\":1272:1290   */\n  mul\n    /* \"#utility.yul\":1311:1408   */\n  tag_40\n    /* \"#utility.yul\":1341:1407   */\n  0xffffffffffffffffffffffffffffffffffffffffffffffffffffffffffffffff\n    /* \"#utility.yul\":1330:1339   */\n  dup3\n    /* \"#utility.yul\":1311:1408   */\n  tag_14\n  jump\t// in\ntag_40:\n    /* \"#utility.yul\":1429:1468   */\n  tag_41\n    /* \"#utility.yul\":1459:1467   */\n  dup7\n    /* \"#utility.yul\":1448:1457   */\n  dup4\n    /* \"#utility.yul\":1429:1468   */\n  tag_14\n  jump\t// in\ntag_41:\n    /* \"#utility.yul\":1417:1468   */\n  swap6\n  pop\n    /* \"#utility.yul\":1501:1505   */\n  dup1\n    /* \"#utility.yul\":1497:1506   */\n  not\n    /* \"#utility.yul\":1490:1495   */\n  dup5\n    /* \"#utility.yul\":1486:1507   */\n  and\n    /* \"#utility.yul\":1477:1507   */\n  swap4\n  pop\n    /* \"#utility.yul\":1550:1554   */\n  dup1\n    /* \"#utility.yul\":1540:1548   */\n  dup7\n    /* \"#utility.yul\":1536:1555   */\n  and\n    /* \"#utility.yul\":1529:1534   */\n  dup5\n    /* \"#utility.yul\":1526:1556   */\n  or\n    /* \"#utility.yul\":1516:1556   */\n  swap3\n  pop\n    /* \"#utility.yul\":1245:1562   */\n  pop\n  pop\n    /* \"#utility.yul\":1169:1562   */\n  swap4\n  swap3\n  pop\n  pop\n  pop\n  jump\t// out\n    /* \"#utility.yul\":1568:1645   */\ntag_16:\n    /* \"#utility.yul\":1605:1612   */\n  0x00\n    /* \"#utility.yul\":1634:1639   */\n  dup2\n    /* \"#utility.yul\":1623:1639   */\n  swap1\n  pop\n    /* \"#utility.yul\":1568:1645   */\n  swap2\n  swap1\n  pop\n  jump\t// out\n    /* \"#utility.yul\":1651:1711   */\ntag_17:\n    /* \"#utility.yul\":1679:1682   */\n  0x00\n    /* \"#utility.yul\":1700:1705   */\n  dup2\n    /* \"#utility.yul\":1693:1705   */\n  swap1\n  pop\n    /* \"#utility.yul\":1651:1711   */\n  swap2\n  swap1\n  pop\n  jump\t// out\n    /* \"#utility.yul\":1717:1859   */\ntag_18:\n    /* \"#utility.yul\":1767:1776   */\n  0x00\n    /* \"#utility.yul\":1800:1853   */\n  tag_45\n    /* \"#utility.yul\":1818:1852   */\n  tag_46\n    /* \"#utility.yul\":1827:1851   */\n  tag_47\n    /* \"#utility.yul\":1845:1850   */\n  dup5\n    /* \"#utility.yul\":1827:1851   */\n  tag_16\n  jump\t// in\ntag_47:\n    /* \"#utility.yul\":1818:1852   */\n  tag_17\n  jump\t// in\ntag_46:\n    /* \"#utility.yul\":1800:1853   */\n  tag_16\n  jump\t// in\ntag_45:\n    /* \"#utility.yul\":1787:1853   */\n  swap1\n  pop\n    /* \"#utility.yul\":1717:1859   */\n  swap2\n  swap1\n  pop\n  jump\t// out\n    /* \"#utility.yul\":1865:1940   */\ntag_19:\n    /* \"#utility.yul\":1908:1911   */\n  0x00\n    /* \"#utility.yul\":1929:1934   */\n  dup2\n    /* \"#utility.yul\":1922:1934   */\n  swap1\n  pop\n    /* \"#utility.yul\":1865:1940   */\n  swap2\n  swap1\n  pop\n  jump\t// out\n    /* \"#utility.yul\":1946:2215   */\ntag_20:\n    /* \"#utility.yul\":2056:2095   */\n  tag_50\n    /* \"#utility.yul\":2087:2094   */\n  dup4\n    /* \"#utility.yul\":2056:2095   */\n  tag_18\n  jump\t// in\ntag_50:\n    /* \"#utility.yul\":2117:2208   */\n  tag_51\n    /* \"#utility.yul\":2166:2207   */\n  tag_52\n    /* \"#utility.yul\":2190:2206   */\n  dup3\n    /* \"#utility.yul\":2166:2207   */\n  tag_19\n  jump\t// in\ntag_52:\n    /* \"#utility.yul\":2158:2164   */\n  dup5\n    /* \"#utility.yul\":2151:2155   */\n  dup5\n    /* \"#utility.yul\":2145:2156   */\n  sload\n    /* \"#utility.yul\":2117:2208   */\n  tag_15\n  jump\t// in\ntag_51:\n    /* \"#utility.yul\":2111:2115   */\n  dup3\n    /* \"#utility.yul\":2104:2209   */\n  sstore\n    /* \"#utility.yul\":2022:2215   */\n  pop\n    /* \"#utility.yul\":1946:2215   */\n  pop\n  pop\n  pop\n  jump\t// out\n    /* \"#utility.yul\":2221:2294   */\ntag_21:\n    /* \"#utility.yul\":2266:2269   */\n  0x00\n    /* \"#utility.yul\":2221:2294   */\n  swap1\n  jump\t// out\n    /* \"#utility.yul\":2300:2489   */\ntag_22:\n    /* \"#utility.yul\":2377:2409   */\n  tag_55\n  tag_21\n  jump\t// in\ntag_55:\n    /* \"#utility.yul\":2418:2483   */\n  tag_56\n    /* \"#utility.yul\":2476:2482   */\n  dup2\n    /* \"#utility.yul\":2468:2474   */\n  dup5\n    /* \"#utility.yul\":2462:2466   */\n  dup5\n    /* \"#utility.yul\":2418:2483   */\n  tag_20\n  jump\t// in\ntag_56:\n    /* \"#utility.yul\":2353:2489   */\n  pop\n    /* \"#utility.yul\":2300:2489   */\n  pop\n  pop\n  jump\t// out\n    /* \"#utility.yul\":2495:2681   */\ntag_23:\n    /* \"#utility.yul\":2555:2675   */\ntag_58:\n    /* \"#utility.yul\":2572:2575   */\n  dup2\n    /* \"#utility.yul\":2565:2570   */\n  dup2\n    /* \"#utility.yul\":2562:2576   */\n  lt\n    /* \"#utility.yul\":2555:2675   */\n  iszero\n  tag_60\n  jumpi\n    /* \"#utility.yul\":2626:2665   */\n  tag_61\n    /* \"#utility.yul\":2663:2664   */\n  0x00\n    /* \"#utility.yul\":2656:2661   */\n  dup3\n    /* \"#utility.yul\":2626:2665   */\n  tag_22\n  jump\t// in\ntag_61:\n    /* \"#utility.yul\":2599:2600   */\n  0x01\n    /* \"#utility.yul\":2592:2597   */\n  dup2\n    /* \"#utility.yul\":2588:2601   */\n  add\n    /* \"#utility.yul\":2579:2601   */\n  swap1\n  pop\n    /* \"#utility.yul\":2555:2675   */\n  jump(tag_58)\ntag_60:\n    /* \"#utility.yul\":2495:2681   */\n  pop\n  pop\n  jump\t// out\n    /* \"#utility.yul\":2687:3230   */\ntag_24:\n    /* \"#utility.yul\":2788:2790   */\n  0x1f\n    /* \"#utility.yul\":2783:2786   */\n  dup3\n    /* \"#utility.yul\":2780:2791   */\n  gt\n    /* \"#utility.yul\":2777:3223   */\n  iszero\n  tag_63\n  jumpi\n    /* \"#utility.yul\":2822:2860   */\n  tag_64\n    /* \"#utility.yul\":2854:2859   */\n  dup2\n    /* \"#utility.yul\":2822:2860   */\n  tag_12\n  jump\t// in\ntag_64:\n    /* \"#utility.yul\":2906:2935   */\n  tag_65\n    /* \"#utility.yul\":2924:2934   */\n  dup5\n    /* \"#utility.yul\":2906:2935   */\n  tag_13\n  jump\t// in\ntag_65:\n    /* \"#utility.yul\":2896:2904   */\n  dup2\n    /* \"#utility.yul\":2892:2936   */\n  add\n    /* \"#utility.yul\":3089:3091   */\n  0x20\n    /* \"#utility.yul\":3077:3087   */\n  dup6\n    /* \"#utility.yul\":3074:3092   */\n  lt\n    /* \"#utility.yul\":3071:3120   */\n  iszero\n  tag_66\n  jumpi\n    /* \"#utility.yul\":3110:3118   */\n  dup2\n    /* \"#utility.yul\":3095:3118   */\n  swap1\n  pop\n    /* \"#utility.yul\":3071:3120   */\ntag_66:\n    /* \"#utility.yul\":3133:3213   */\n  tag_67\n    /* \"#utility.yul\":3189:3211   */\n  tag_68\n    /* \"#utility.yul\":3207:3210   */\n  dup6\n    /* \"#utility.yul\":3189:3211   */\n  tag_13\n  jump\t// in\ntag_68:\n    /* \"#utility.yul\":3179:3187   */\n  dup4\n    /* \"#utility.yul\":3175:3212   */\n  add\n    /* \"#utility.yul\":3162:3173   */\n  dup3\n    /* \"#utility.yul\":3133:3213   */\n  tag_23\n  jump\t// in\ntag_67:\n    /* \"#utility.yul\":2792:3223   */\n  pop\n  pop\n    /* \"#utility.yul\":2777:3223   */\ntag_63:\n    /* \"#utility.yul\":2687:3230   */\n  pop\n  pop\n  pop\n  jump\t// out\n    /* \"#utility.yul\":3236:3353   */\ntag_25:\n    /* \"#utility.yul\":3290:3298   */\n  0x00\n    /* \"#utility.yul\":3340:3345   */\n  dup3\n    /* \"#utility.yul\":3334:3338   */\n  dup3\n    /* \"#utility.yul\":3330:3346   */\n  shr\n    /* \"#utility.yul\":3309:3346   */\n  swap1\n  pop\n    /* \"#utility.yul\":3236:3353   */\n  swap3\n  swap2\n  pop\n  pop\n  jump\t// out\n    /* \"#utility.yul\":3359:3528   */\ntag_26:\n    /* \"#utility.yul\":3403:3409   */\n  0x00\n    /* \"#utility.yul\":3436:3487   */\n  tag_71\n    /* \"#utility.yul\":3484:3485   */\n  0x00\n    /* \"#utility.yul\":3480:3486   */\n  not\n    /* \"#utility.yul\":3472:3477   */\n  dup5\n    /* \"#utility.yul\":3469:3470   */\n  0x08\n    /* \"#utility.yul\":3465:3478   */\n  mul\n    /* \"#utility.yul\":3436:3487   */\n  tag_25\n  jump\t// in\ntag_71:\n    /* \"#utility.yul\":3432:3488   */\n  not\n    /* \"#utility.yul\":3517:3521   */\n  dup1\n    /* \"#utility.yul\":3511:3515   */\n  dup4\n    /* \"#utility.yul\":3507:3522   */\n  and\n    /* \"#utility.yul\":3497:3522   */\n  swap2\n  pop\n    /* \"#utility.yul\":3410:3528   */\n  pop\n    /* \"#utility.yul\":3359:3528   */\n  swap3\n  swap2\n  pop\n  pop\n  jump\t// out\n    /* \"#utility.yul\":3533:3828   */\ntag_27:\n    /* \"#utility.yul\":3609:3613   */\n  0x00\n    /* \"#utility.yul\":3755:3784   */\n  tag_73\n    /* \"#utility.yul\":3780:3783   */\n  dup4\n    /* \"#utility.yul\":3774:3778   */\n  dup4\n    /* \"#utility.yul\":3755:3784   */\n  tag_26\n  jump\t// in\ntag_73:\n    /* \"#utility.yul\":3747:3784   */\n  swap2\n  pop\n    /* \"#utility.yul\":3817:3820   */\n  dup3\n    /* \"#utility.yul\":3814:3815   */\n  0x02\n    /* \"#utility.yul\":3810:3821   */\n  mul\n    /* \"#utility.yul\":3804:3808   */\n  dup3\n    /* \"#utility.yul\":3801:3822   */\n  or\n    /* \"#utility.yul\":3793:3822   */\n  swap1\n  pop\n    /* \"#utility.yul\":3533:3828   */\n  swap3\n  swap2\n  pop\n  pop\n  jump\t// out\n    /* \"#utility.yul\":3833:5228   */\ntag_2:\n    /* \"#utility.yul\":3950:3987   */\n  tag_75\n    /* \"#utility.yul\":3983:3986   */\n  dup3\n    /* \"#utility.yul\":3950:3987   */\n  tag_8\n  jump\t// in\ntag_75:\n    /* \"#utility.yul\":4052:4070   */\n  0xffffffffffffffff\n    /* \"#utility.yul\":4044:4050   */\n  dup2\n    /* \"#utility.yul\":4041:4071   */\n  gt\n    /* \"#utility.yul\":4038:4094   */\n  iszero\n  tag_76\n  jumpi\n    /* \"#utility.yul\":4074:4092   */\n  tag_77\n  tag_9\n  jump\t// in\ntag_77:\n    /* \"#utility.yul\":4038:4094   */\ntag_76:\n    /* \"#utility.yul\":4118:4156   */\n  tag_78\n    /* \"#utility.yul\":4150:4154   */\n  dup3\n    /* \"#utility.yul\":4144:4155   */\n  sload\n    /* \"#utility.yul\":4118:4156   */\n  tag_11\n  jump\t// in\ntag_78:\n    /* \"#utility.yul\":4203:4270   */\n  tag_79\n    /* \"#utility.yul\":4263:4269   */\n  dup3\n    /* \"#utility.yul\":4255:4261   */\n  dup3\n    /* \"#utility.yul\":4249:4253   */\n  dup6\n    /* \"#utility.yul\":4203:4270   */\n  tag_24\n  jump\t// in\ntag_79:\n    /* \"#utility.yul\":4297:4298   */\n  0x00\n    /* \"#utility.yul\":4321:4325   */\n  0x20\n    /* \"#utility.yul\":4308:4325   */\n  swap1\n  pop\n    /* \"#utility.yul\":4353:4355   */\n  0x1f\n    /* \"#utility.yul\":4345:4351   */\n  dup4\n    /* \"#utility.yul\":4342:4356   */\n  gt\n    /* \"#utility.yul\":4370:4371   */\n  0x01\n    /* \"#utility.yul\":4365:4983   */\n  dup2\n  eq\n  tag_81\n  jumpi\n    /* \"#utility.yul\":5027:5028   */\n  0x00\n    /* \"#utility.yul\":5044:5050   */\n  dup5\n    /* \"#utility.yul\":5041:5118   */\n  iszero\n  tag_82\n  jumpi\n    /* \"#utility.yul\":5093:5102   */\n  dup3\n    /* \"#utility.yul\":5088:5091   */\n  dup8\n    /* \"#utility.yul\":5084:5103   */\n  add\n    /* \"#utility.yul\":5078:5104   */\n  mload\n    /* \"#utility.yul\":5069:5104   */\n  swap1\n  pop\n    /* \"#utility.yul\":5041:5118   */\ntag_82:\n    /* \"#utility.yul\":5144:5211   */\n  tag_83\n    /* \"#utility.yul\":5204:5210   */\n  dup6\n    /* \"#utility.yul\":5197:5202   */\n  dup3\n    /* \"#utility.yul\":5144:5211   */\n  tag_27\n  jump\t// in\ntag_83:\n    /* \"#utility.yul\":5138:5142   */\n  dup7\n    /* \"#utility.yul\":5131:5212   */\n  sstore\n    /* \"#utility.yul\":5000:5222   */\n  pop\n    /* \"#utility.yul\":4335:5222   */\n  jump(tag_80)\n    /* \"#utility.yul\":4365:4983   */\ntag_81:\n    /* \"#utility.yul\":4417:4421   */\n  0x1f\n    /* \"#utility.yul\":4413:4422   */\n  not\n    /* \"#utility.yul\":4405:4411   */\n  dup5\n    /* \"#utility.yul\":4401:4423   */\n  and\n    /* \"#utility.yul\":4451:4488   */\n  tag_84\n    /* \"#utility.yul\":4483:4487   */\n  dup7\n    /* \"#utility.yul\":4451:4488   */\n  tag_12\n  jump\t// in\ntag_84:\n    /* \"#utility.yul\":4510:4511   */\n  0x00\n    /* \"#utility.yul\":4524:4732   */\ntag_85:\n    /* \"#utility.yul\":4538:4545   */\n  dup3\n    /* \"#utility.yul\":4535:4536   */\n  dup2\n    /* \"#utility.yul\":4532:4546   */\n  lt\n    /* \"#utility.yul\":4524:4732   */\n  iszero\n  tag_87\n  jumpi\n    /* \"#utility.yul\":4617:4626   */\n  dup5\n    /* \"#utility.yul\":4612:4615   */\n  dup10\n    /* \"#utility.yul\":4608:4627   */\n  add\n    /* \"#utility.yul\":4602:4628   */\n  mload\n    /* \"#utility.yul\":4594:4600   */\n  dup3\n    /* \"#utility.yul\":4587:4629   */\n  sstore\n    /* \"#utility.yul\":4668:4669   */\n  0x01\n    /* \"#utility.yul\":4660:4666   */\n  dup3\n    /* \"#utility.yul\":4656:4670   */\n  add\n    /* \"#utility.yul\":4646:4670   */\n  swap2\n  pop\n    /* \"#utility.yul\":4715:4717   */\n  0x20\n    /* \"#utility.yul\":4704:4713   */\n  dup6\n    /* \"#utility.yul\":4700:4718   */\n  add\n    /* \"#utility.yul\":4687:4718   */\n  swap5\n  pop\n    /* \"#utility.yul\":4561:4565   */\n  0x20\n    /* \"#utility.yul\":4558:4559   */\n  dup2\n    /* \"#utility.yul\":4554:4566   */\n  add\n    /* \"#utility.yul\":4549:4566   */\n  swap1\n  pop\n    /* \"#utility.yul\":4524:4732   */\n  jump(tag_85)\ntag_87:\n    /* \"#utility.yul\":4760:4766   */\n  dup7\n    /* \"#utility.yul\":4751:4758   */\n  dup4\n    /* \"#utility.yul\":4748:4767   */\n  lt\n    /* \"#utility.yul\":4745:4924   */\n  iszero\n  tag_88\n  jumpi\n    /* \"#utility.yul\":4818:4827   */\n  dup5\n    /* \"#utility.yul\":4813:4816   */\n  dup10\n    /* \"#utility.yul\":4809:4828   */\n  add\n    /* \"#utility.yul\":4803:4829   */\n  mload\n    /* \"#utility.yul\":4861:4909   */\n  tag_89\n    /* \"#utility.yul\":4903:4907   */\n  0x1f\n    /* \"#utility.yul\":4895:4901   */\n  dup10\n    /* \"#utility.yul\":4891:4908   */\n  and\n    /* \"#utility.yul\":4880:4889   */\n  dup3\n    /* \"#utility.yul\":4861:4909   */\n  tag_26\n  jump\t// in\ntag_89:\n    /* \"#utility.yul\":4853:4859   */\n  dup4\n    /* \"#utility.yul\":4846:4910   */\n  sstore\n    /* \"#utility.yul\":4768:4924   */\n  pop\n    /* \"#utility.yul\":4745:4924   */\ntag_88:\n    /* \"#utility.yul\":4970:4971   */\n  0x01\n    /* \"#utility.yul\":4966:4967   */\n  0x02\n    /* \"#utility.yul\":4958:4964   */\n  dup9\n    /* \"#utility.yul\":4954:4968   */\n  mul\n    /* \"#utility.yul\":4950:4972   */\n  add\n    /* \"#utility.yul\":4944:4948   */\n  dup9\n    /* \"#utility.yul\":4937:4973   */\n  sstore\n    /* \"#utility.yul\":4372:4983   */\n  pop\n  pop\n  pop\n    /* \"#utility.yul\":4335:5222   */\ntag_80:\n  pop\n    /* \"#utility.yul\":3925:5228   */\n  pop\n  pop\n  pop\n    /* \"#utility.yul\":3833:5228   */\n  pop\n  pop\n  jump\t// out\n    /* \"Contracts/Error.sol\":62:884  contract Error_Sol{... */\ntag_7:\n  dataSize(sub_0)\n  dup1\n  dataOffset(sub_0)\n  0x00\n  codecopy\n  0x00\n  return\nstop\n\nsub_0: assembly {\n        /* \"Contracts/Error.sol\":62:884  contract Error_Sol{... */\n      mstore(0x40, 0x80)\n      callvalue\n      dup1\n      iszero\n      tag_1\n      jumpi\n      0x00\n      dup1\n      revert\n    tag_1:\n      pop\n      jumpi(tag_2, lt(calldatasize, 0x04))\n      shr(0xe0, calldataload(0x00))\n      dup1\n      0x2de4ca59\n      eq\n      tag_3\n      jumpi\n      dup1\n      0x47c8efa7\n      eq\n      tag_4\n      jumpi\n      dup1\n      0x4b67f6af\n      eq\n      tag_5\n      jumpi\n      dup1\n      0x515a1d9d\n      eq\n      tag_6\n      jumpi\n      dup1\n      0x7f17b05d\n      eq\n      tag_7\n      jumpi\n      dup1\n      0x8d674aef\n      eq\n      tag_8\n      jumpi\n    tag_2:\n      0x00\n      dup1\n      revert\n        /* \"Contracts/Error.sol\":765:881  function Check() public view returns(uint){... */\n    tag_3:\n      tag_9\n      tag_10\n      jump\t// in\n    tag_9:\n      mload(0x40)\n      tag_11\n      swap2\n      swap1\n      tag_12\n      jump\t// in\n    tag_11:\n      mload(0x40)\n      dup1\n      swap2\n      sub\n      swap1\n      return\n        /* \"Contracts/Error.sol\":123:155  string public name1 = \"Mohammad\" */\n    tag_4:\n      tag_13\n      tag_14\n      jump\t// in\n    tag_13:\n      mload(0x40)\n      tag_15\n      swap2\n      swap1\n      tag_16\n      jump\t// in\n    tag_15:\n      mload(0x40)\n      dup1\n      swap2\n      sub\n      swap1\n      return\n        /* \"Contracts/Error.sol\":162:194  string public name2 = \"Ali Dash\" */\n    tag_5:\n      tag_17\n      tag_18\n      jump\t// in\n    tag_17:\n      mload(0x40)\n      tag_19\n      swap2\n      swap1\n      tag_16\n      jump\t// in\n    tag_19:\n      mload(0x40)\n      dup1\n      swap2\n      sub\n      swap1\n      return\n        /* \"Contracts/Error.sol\":429:633  function ChangName1() public OwnerAddressCheck() returns(string memory){... */\n    tag_6:\n      tag_20\n      tag_21\n      jump\t// in\n    tag_20:\n      mload(0x40)\n      tag_22\n      swap2\n      swap1\n      tag_16\n      jump\t// in\n    tag_22:\n      mload(0x40)\n      dup1\n      swap2\n      sub\n      swap1\n      return\n        /* \"Contracts/Error.sol\":89:116  address public OwnerAddress */\n    tag_7:\n      tag_23\n      tag_24\n      jump\t// in\n    tag_23:\n      mload(0x40)\n      tag_25\n      swap2\n      swap1\n      tag_26\n      jump\t// in\n    tag_25:\n      mload(0x40)\n      dup1\n      swap2\n      sub\n      swap1\n      return\n        /* \"Contracts/Error.sol\":641:755  function ChangName2() public returns  (string memory){... */\n    tag_8:\n      tag_27\n      tag_28\n      jump\t// in\n    tag_27:\n      mload(0x40)\n      tag_29\n      swap2\n      swap1\n      tag_16\n      jump\t// in\n    tag_29:\n      mload(0x40)\n      dup1\n      swap2\n      sub\n      swap1\n      return\n        /* \"Contracts/Error.sol\":765:881  function Check() public view returns(uint){... */\n    tag_10:\n        /* \"Contracts/Error.sol\":802:806  uint */\n      0x00\n        /* \"Contracts/Error.sol\":818:824  uint c */\n      dup1\n        /* \"Contracts/Error.sol\":829:830  b */\n      sload(0x04)\n        /* \"Contracts/Error.sol\":827:828  a */\n      sload(0x03)\n        /* \"Contracts/Error.sol\":827:830  a+b */\n      tag_31\n      swap2\n      swap1\n      tag_32\n      jump\t// in\n    tag_31:\n        /* \"Contracts/Error.sol\":818:830  uint c = a+b */\n      swap1\n      pop\n        /* \"Contracts/Error.sol\":852:853  0 */\n      0x00\n        /* \"Contracts/Error.sol\":848:849  c */\n      dup2\n        /* \"Contracts/Error.sol\":848:853  c < 0 */\n      lt\n        /* \"Contracts/Error.sol\":841:854  assert(c < 0) */\n      tag_33\n      jumpi\n      tag_34\n      tag_35\n      jump\t// in\n    tag_34:\n    tag_33:\n        /* \"Contracts/Error.sol\":872:873  c */\n      dup1\n        /* \"Contracts/Error.sol\":865:873  return c */\n      swap2\n      pop\n      pop\n        /* \"Contracts/Error.sol\":765:881  function Check() public view returns(uint){... */\n      swap1\n      jump\t// out\n        /* \"Contracts/Error.sol\":123:155  string public name1 = \"Mohammad\" */\n    tag_14:\n      0x01\n      dup1\n      sload\n      tag_36\n      swap1\n      tag_37\n      jump\t// in\n    tag_36:\n      dup1\n      0x1f\n      add\n      0x20\n      dup1\n      swap2\n      div\n      mul\n      0x20\n      add\n      mload(0x40)\n      swap1\n      dup2\n      add\n      0x40\n      mstore\n      dup1\n      swap3\n      swap2\n      swap1\n      dup2\n      dup2\n      mstore\n      0x20\n      add\n      dup3\n      dup1\n      sload\n      tag_38\n      swap1\n      tag_37\n      jump\t// in\n    tag_38:\n      dup1\n      iszero\n      tag_39\n      jumpi\n      dup1\n      0x1f\n      lt\n      tag_40\n      jumpi\n      0x0100\n      dup1\n      dup4\n      sload\n      div\n      mul\n      dup4\n      mstore\n      swap2\n      0x20\n      add\n      swap2\n      jump(tag_39)\n    tag_40:\n      dup3\n      add\n      swap2\n      swap1\n      0x00\n      mstore\n      keccak256(0x00, 0x20)\n      swap1\n    tag_41:\n      dup2\n      sload\n      dup2\n      mstore\n      swap1\n      0x01\n      add\n      swap1\n      0x20\n      add\n      dup1\n      dup4\n      gt\n      tag_41\n      jumpi\n      dup3\n      swap1\n      sub\n      0x1f\n      and\n      dup3\n      add\n      swap2\n    tag_39:\n      pop\n      pop\n      pop\n      pop\n      pop\n      dup2\n      jump\t// out\n        /* \"Contracts/Error.sol\":162:194  string public name2 = \"Ali Dash\" */\n    tag_18:\n      0x02\n      dup1\n      sload\n      tag_42\n      swap1\n      tag_37\n      jump\t// in\n    tag_42:\n      dup1\n      0x1f\n      add\n      0x20\n      dup1\n      swap2\n      div\n      mul\n      0x20\n      add\n      mload(0x40)\n      swap1\n      dup2\n      add\n      0x40\n      mstore\n      dup1\n      swap3\n      swap2\n      swap1\n      dup2\n      dup2\n      mstore\n      0x20\n      add\n      dup3\n      dup1\n      sload\n      tag_43\n      swap1\n      tag_37\n      jump\t// in\n    tag_43:\n      dup1\n      iszero\n      tag_44\n      jumpi\n      dup1\n      0x1f\n      lt\n      tag_45\n      jumpi\n      0x0100\n      dup1\n      dup4\n      sload\n      div\n      mul\n      dup4\n      mstore\n      swap2\n      0x20\n      add\n      swap2\n      jump(tag_44)\n    tag_45:\n      dup3\n      add\n      swap2\n      swap1\n      0x00\n      mstore\n      keccak256(0x00, 0x20)\n      swap1\n    tag_46:\n      dup2\n      sload\n      dup2\n      mstore\n      swap1\n      0x01\n      add\n      swap1\n      0x20\n      add\n      dup1\n      dup4\n      gt\n      tag_46\n      jumpi\n      dup3\n      swap1\n      sub\n      0x1f\n      and\n      dup3\n      add\n      swap2\n    tag_44:\n      pop\n      pop\n      pop\n      pop\n      pop\n      dup2\n      jump\t// out\n        /* \"Contracts/Error.sol\":429:633  function ChangName1() public OwnerAddressCheck() returns(string memory){... */\n    tag_21:\n        /* \"Contracts/Error.sol\":486:499  string memory */\n      0x60\n        /* \"Contracts/Error.sol\":371:381  msg.sender */\n      caller\n        /* \"Contracts/Error.sol\":355:381  OwnerAddress == msg.sender */\n      0xffffffffffffffffffffffffffffffffffffffff\n      and\n        /* \"Contracts/Error.sol\":355:367  OwnerAddress */\n      0x00\n      dup1\n      sload\n      swap1\n      0x0100\n      exp\n      swap1\n      div\n      0xffffffffffffffffffffffffffffffffffffffff\n      and\n        /* \"Contracts/Error.sol\":355:381  OwnerAddress == msg.sender */\n      0xffffffffffffffffffffffffffffffffffffffff\n      and\n      eq\n        /* \"Contracts/Error.sol\":347:399  require(OwnerAddress == msg.sender, \"Only Owner...\") */\n      tag_48\n      jumpi\n      mload(0x40)\n      0x08c379a000000000000000000000000000000000000000000000000000000000\n      dup2\n      mstore\n      0x04\n      add\n      tag_49\n      swap1\n      tag_50\n      jump\t// in\n    tag_49:\n      mload(0x40)\n      dup1\n      swap2\n      sub\n      swap1\n      revert\n    tag_48:\n        /* \"Contracts/Error.sol\":577:601  name1 = \"Mohammad Fayzi\" */\n      mload(0x40)\n      dup1\n      0x40\n      add\n      0x40\n      mstore\n      dup1\n      0x0e\n      dup2\n      mstore\n      0x20\n      add\n      0x4d6f68616d6d6164204661797a69000000000000000000000000000000000000\n      dup2\n      mstore\n      pop\n        /* \"Contracts/Error.sol\":577:582  name1 */\n      0x01\n        /* \"Contracts/Error.sol\":577:601  name1 = \"Mohammad Fayzi\" */\n      swap1\n      dup2\n      tag_52\n      swap2\n      swap1\n      tag_53\n      jump\t// in\n    tag_52:\n      pop\n        /* \"Contracts/Error.sol\":620:625  name1 */\n      0x01\n        /* \"Contracts/Error.sol\":612:625  return  name1 */\n      dup1\n      sload\n      tag_54\n      swap1\n      tag_37\n      jump\t// in\n    tag_54:\n      dup1\n      0x1f\n      add\n      0x20\n      dup1\n      swap2\n      div\n      mul\n      0x20\n      add\n      mload(0x40)\n      swap1\n      dup2\n      add\n      0x40\n      mstore\n      dup1\n      swap3\n      swap2\n      swap1\n      dup2\n      dup2\n      mstore\n      0x20\n      add\n      dup3\n      dup1\n      sload\n      tag_55\n      swap1\n      tag_37\n      jump\t// in\n    tag_55:\n      dup1\n      iszero\n      tag_56\n      jumpi\n      dup1\n      0x1f\n      lt\n      tag_57\n      jumpi\n      0x0100\n      dup1\n      dup4\n      sload\n      div\n      mul\n      dup4\n      mstore\n      swap2\n      0x20\n      add\n      swap2\n      jump(tag_56)\n    tag_57:\n      dup3\n      add\n      swap2\n      swap1\n      0x00\n      mstore\n      keccak256(0x00, 0x20)\n      swap1\n    tag_58:\n      dup2\n      sload\n      dup2\n      mstore\n      swap1\n      0x01\n      add\n      swap1\n      0x20\n      add\n      dup1\n      dup4\n      gt\n      tag_58\n      jumpi\n      dup3\n      swap1\n      sub\n      0x1f\n      and\n      dup3\n      add\n      swap2\n    tag_56:\n      pop\n      pop\n      pop\n      pop\n      pop\n      swap1\n      pop\n        /* \"Contracts/Error.sol\":429:633  function ChangName1() public OwnerAddressCheck() returns(string memory){... */\n      swap1\n      jump\t// out\n        /* \"Contracts/Error.sol\":89:116  address public OwnerAddress */\n    tag_24:\n      0x00\n      dup1\n      sload\n      swap1\n      0x0100\n      exp\n      swap1\n      div\n      0xffffffffffffffffffffffffffffffffffffffff\n      and\n      dup2\n      jump\t// out\n        /* \"Contracts/Error.sol\":641:755  function ChangName2() public returns  (string memory){... */\n    tag_28:\n        /* \"Contracts/Error.sol\":680:693  string memory */\n      0x60\n        /* \"Contracts/Error.sol\":705:724  name2 = \"Ali Fayzi\" */\n      mload(0x40)\n      dup1\n      0x40\n      add\n      0x40\n      mstore\n      dup1\n      0x09\n      dup2\n      mstore\n      0x20\n      add\n      0x416c69204661797a690000000000000000000000000000000000000000000000\n      dup2\n      mstore\n      pop\n        /* \"Contracts/Error.sol\":705:710  name2 */\n      0x02\n        /* \"Contracts/Error.sol\":705:724  name2 = \"Ali Fayzi\" */\n      swap1\n      dup2\n      tag_60\n      swap2\n      swap1\n      tag_53\n      jump\t// in\n    tag_60:\n      pop\n        /* \"Contracts/Error.sol\":742:747  name2 */\n      0x02\n        /* \"Contracts/Error.sol\":735:747  return name2 */\n      dup1\n      sload\n      tag_61\n      swap1\n      tag_37\n      jump\t// in\n    tag_61:\n      dup1\n      0x1f\n      add\n      0x20\n      dup1\n      swap2\n      div\n      mul\n      0x20\n      add\n      mload(0x40)\n      swap1\n      dup2\n      add\n      0x40\n      mstore\n      dup1\n      swap3\n      swap2\n      swap1\n      dup2\n      dup2\n      mstore\n      0x20\n      add\n      dup3\n      dup1\n      sload\n      tag_62\n      swap1\n      tag_37\n      jump\t// in\n    tag_62:\n      dup1\n      iszero\n      tag_63\n      jumpi\n      dup1\n      0x1f\n      lt\n      tag_64\n      jumpi\n      0x0100\n      dup1\n      dup4\n      sload\n      div\n      mul\n      dup4\n      mstore\n      swap2\n      0x20\n      add\n      swap2\n      jump(tag_63)\n    tag_64:\n      dup3\n      add\n      swap2\n      swap1\n      0x00\n      mstore\n      keccak256(0x00, 0x20)\n      swap1\n    tag_65:\n      dup2\n      sload\n      dup2\n      mstore\n      swap1\n      0x01\n      add\n      swap1\n      0x20\n      add\n      dup1\n      dup4\n      gt\n      tag_65\n      jumpi\n      dup3\n      swap1\n      sub\n      0x1f\n      and\n      dup3\n      add\n      swap2\n    tag_63:\n      pop\n      pop\n      pop\n      pop\n      pop\n      swap1\n      pop\n        /* \"Contracts/Error.sol\":641:755  function ChangName2() public returns  (string memory){... */\n      swap1\n      jump\t// out\n        /* \"#utility.yul\":7:84   */\n    tag_66:\n        /* \"#utility.yul\":44:51   */\n      0x00\n        /* \"#utility.yul\":73:78   */\n      dup2\n        /* \"#utility.yul\":62:78   */\n      swap1\n      pop\n        /* \"#utility.yul\":7:84   */\n      swap2\n      swap1\n      pop\n      jump\t// out\n        /* \"#utility.yul\":90:208   */\n    tag_67:\n        /* \"#utility.yul\":177:201   */\n      tag_99\n        /* \"#utility.yul\":195:200   */\n      dup2\n        /* \"#utility.yul\":177:201   */\n      tag_66\n      jump\t// in\n    tag_99:\n        /* \"#utility.yul\":172:175   */\n      dup3\n        /* \"#utility.yul\":165:202   */\n      mstore\n        /* \"#utility.yul\":90:208   */\n      pop\n      pop\n      jump\t// out\n        /* \"#utility.yul\":214:436   */\n    tag_12:\n        /* \"#utility.yul\":307:311   */\n      0x00\n        /* \"#utility.yul\":345:347   */\n      0x20\n        /* \"#utility.yul\":334:343   */\n      dup3\n        /* \"#utility.yul\":330:348   */\n      add\n        /* \"#utility.yul\":322:348   */\n      swap1\n      pop\n        /* \"#utility.yul\":358:429   */\n      tag_101\n        /* \"#utility.yul\":426:427   */\n      0x00\n        /* \"#utility.yul\":415:424   */\n      dup4\n        /* \"#utility.yul\":411:428   */\n      add\n        /* \"#utility.yul\":402:408   */\n      dup5\n        /* \"#utility.yul\":358:429   */\n      tag_67\n      jump\t// in\n    tag_101:\n        /* \"#utility.yul\":214:436   */\n      swap3\n      swap2\n      pop\n      pop\n      jump\t// out\n        /* \"#utility.yul\":442:541   */\n    tag_68:\n        /* \"#utility.yul\":494:500   */\n      0x00\n        /* \"#utility.yul\":528:533   */\n      dup2\n        /* \"#utility.yul\":522:534   */\n      mload\n        /* \"#utility.yul\":512:534   */\n      swap1\n      pop\n        /* \"#utility.yul\":442:541   */\n      swap2\n      swap1\n      pop\n      jump\t// out\n        /* \"#utility.yul\":547:716   */\n    tag_69:\n        /* \"#utility.yul\":631:642   */\n      0x00\n        /* \"#utility.yul\":665:671   */\n      dup3\n        /* \"#utility.yul\":660:663   */\n      dup3\n        /* \"#utility.yul\":653:672   */\n      mstore\n        /* \"#utility.yul\":705:709   */\n      0x20\n        /* \"#utility.yul\":700:703   */\n      dup3\n        /* \"#utility.yul\":696:710   */\n      add\n        /* \"#utility.yul\":681:710   */\n      swap1\n      pop\n        /* \"#utility.yul\":547:716   */\n      swap3\n      swap2\n      pop\n      pop\n      jump\t// out\n        /* \"#utility.yul\":722:861   */\n    tag_70:\n        /* \"#utility.yul\":811:817   */\n      dup3\n        /* \"#utility.yul\":806:809   */\n      dup2\n        /* \"#utility.yul\":801:804   */\n      dup4\n        /* \"#utility.yul\":795:818   */\n      mcopy\n        /* \"#utility.yul\":852:853   */\n      0x00\n        /* \"#utility.yul\":843:849   */\n      dup4\n        /* \"#utility.yul\":838:841   */\n      dup4\n        /* \"#utility.yul\":834:850   */\n      add\n        /* \"#utility.yul\":827:854   */\n      mstore\n        /* \"#utility.yul\":722:861   */\n      pop\n      pop\n      pop\n      jump\t// out\n        /* \"#utility.yul\":867:969   */\n    tag_71:\n        /* \"#utility.yul\":908:914   */\n      0x00\n        /* \"#utility.yul\":959:961   */\n      0x1f\n        /* \"#utility.yul\":955:962   */\n      not\n        /* \"#utility.yul\":950:952   */\n      0x1f\n        /* \"#utility.yul\":943:948   */\n      dup4\n        /* \"#utility.yul\":939:953   */\n      add\n        /* \"#utility.yul\":935:963   */\n      and\n        /* \"#utility.yul\":925:963   */\n      swap1\n      pop\n        /* \"#utility.yul\":867:969   */\n      swap2\n      swap1\n      pop\n      jump\t// out\n        /* \"#utility.yul\":975:1352   */\n    tag_72:\n        /* \"#utility.yul\":1063:1066   */\n      0x00\n        /* \"#utility.yul\":1091:1130   */\n      tag_107\n        /* \"#utility.yul\":1124:1129   */\n      dup3\n        /* \"#utility.yul\":1091:1130   */\n      tag_68\n      jump\t// in\n    tag_107:\n        /* \"#utility.yul\":1146:1217   */\n      tag_108\n        /* \"#utility.yul\":1210:1216   */\n      dup2\n        /* \"#utility.yul\":1205:1208   */\n      dup6\n        /* \"#utility.yul\":1146:1217   */\n      tag_69\n      jump\t// in\n    tag_108:\n        /* \"#utility.yul\":1139:1217   */\n      swap4\n      pop\n        /* \"#utility.yul\":1226:1291   */\n      tag_109\n        /* \"#utility.yul\":1284:1290   */\n      dup2\n        /* \"#utility.yul\":1279:1282   */\n      dup6\n        /* \"#utility.yul\":1272:1276   */\n      0x20\n        /* \"#utility.yul\":1265:1270   */\n      dup7\n        /* \"#utility.yul\":1261:1277   */\n      add\n        /* \"#utility.yul\":1226:1291   */\n      tag_70\n      jump\t// in\n    tag_109:\n        /* \"#utility.yul\":1316:1345   */\n      tag_110\n        /* \"#utility.yul\":1338:1344   */\n      dup2\n        /* \"#utility.yul\":1316:1345   */\n      tag_71\n      jump\t// in\n    tag_110:\n        /* \"#utility.yul\":1311:1314   */\n      dup5\n        /* \"#utility.yul\":1307:1346   */\n      add\n        /* \"#utility.yul\":1300:1346   */\n      swap2\n      pop\n        /* \"#utility.yul\":1067:1352   */\n      pop\n        /* \"#utility.yul\":975:1352   */\n      swap3\n      swap2\n      pop\n      pop\n      jump\t// out\n        /* \"#utility.yul\":1358:1671   */\n    tag_16:\n        /* \"#utility.yul\":1471:1475   */\n      0x00\n        /* \"#utility.yul\":1509:1511   */\n      0x20\n        /* \"#utility.yul\":1498:1507   */\n      dup3\n        /* \"#utility.yul\":1494:1512   */\n      add\n        /* \"#utility.yul\":1486:1512   */\n      swap1\n      pop\n        /* \"#utility.yul\":1558:1567   */\n      dup2\n        /* \"#utility.yul\":1552:1556   */\n      dup2\n        /* \"#utility.yul\":1548:1568   */\n      sub\n        /* \"#utility.yul\":1544:1545   */\n      0x00\n        /* \"#utility.yul\":1533:1542   */\n      dup4\n        /* \"#utility.yul\":1529:1546   */\n      add\n        /* \"#utility.yul\":1522:1569   */\n      mstore\n        /* \"#utility.yul\":1586:1664   */\n      tag_112\n        /* \"#utility.yul\":1659:1663   */\n      dup2\n        /* \"#utility.yul\":1650:1656   */\n      dup5\n        /* \"#utility.yul\":1586:1664   */\n      tag_72\n      jump\t// in\n    tag_112:\n        /* \"#utility.yul\":1578:1664   */\n      swap1\n      pop\n        /* \"#utility.yul\":1358:1671   */\n      swap3\n      swap2\n      pop\n      pop\n      jump\t// out\n        /* \"#utility.yul\":1677:1803   */\n    tag_73:\n        /* \"#utility.yul\":1714:1721   */\n      0x00\n        /* \"#utility.yul\":1754:1796   */\n      0xffffffffffffffffffffffffffffffffffffffff\n        /* \"#utility.yul\":1747:1752   */\n      dup3\n        /* \"#utility.yul\":1743:1797   */\n      and\n        /* \"#utility.yul\":1732:1797   */\n      swap1\n      pop\n        /* \"#utility.yul\":1677:1803   */\n      swap2\n      swap1\n      pop\n      jump\t// out\n        /* \"#utility.yul\":1809:1905   */\n    tag_74:\n        /* \"#utility.yul\":1846:1853   */\n      0x00\n        /* \"#utility.yul\":1875:1899   */\n      tag_115\n        /* \"#utility.yul\":1893:1898   */\n      dup3\n        /* \"#utility.yul\":1875:1899   */\n      tag_73\n      jump\t// in\n    tag_115:\n        /* \"#utility.yul\":1864:1899   */\n      swap1\n      pop\n        /* \"#utility.yul\":1809:1905   */\n      swap2\n      swap1\n      pop\n      jump\t// out\n        /* \"#utility.yul\":1911:2029   */\n    tag_75:\n        /* \"#utility.yul\":1998:2022   */\n      tag_117\n        /* \"#utility.yul\":2016:2021   */\n      dup2\n        /* \"#utility.yul\":1998:2022   */\n      tag_74\n      jump\t// in\n    tag_117:\n        /* \"#utility.yul\":1993:1996   */\n      dup3\n        /* \"#utility.yul\":1986:2023   */\n      mstore\n        /* \"#utility.yul\":1911:2029   */\n      pop\n      pop\n      jump\t// out\n        /* \"#utility.yul\":2035:2257   */\n    tag_26:\n        /* \"#utility.yul\":2128:2132   */\n      0x00\n        /* \"#utility.yul\":2166:2168   */\n      0x20\n        /* \"#utility.yul\":2155:2164   */\n      dup3\n        /* \"#utility.yul\":2151:2169   */\n      add\n        /* \"#utility.yul\":2143:2169   */\n      swap1\n      pop\n        /* \"#utility.yul\":2179:2250   */\n      tag_119\n        /* \"#utility.yul\":2247:2248   */\n      0x00\n        /* \"#utility.yul\":2236:2245   */\n      dup4\n        /* \"#utility.yul\":2232:2249   */\n      add\n        /* \"#utility.yul\":2223:2229   */\n      dup5\n        /* \"#utility.yul\":2179:2250   */\n      tag_75\n      jump\t// in\n    tag_119:\n        /* \"#utility.yul\":2035:2257   */\n      swap3\n      swap2\n      pop\n      pop\n      jump\t// out\n        /* \"#utility.yul\":2263:2443   */\n    tag_76:\n        /* \"#utility.yul\":2311:2388   */\n      0x4e487b7100000000000000000000000000000000000000000000000000000000\n        /* \"#utility.yul\":2308:2309   */\n      0x00\n        /* \"#utility.yul\":2301:2389   */\n      mstore\n        /* \"#utility.yul\":2408:2412   */\n      0x11\n        /* \"#utility.yul\":2405:2406   */\n      0x04\n        /* \"#utility.yul\":2398:2413   */\n      mstore\n        /* \"#utility.yul\":2432:2436   */\n      0x24\n        /* \"#utility.yul\":2429:2430   */\n      0x00\n        /* \"#utility.yul\":2422:2437   */\n      revert\n        /* \"#utility.yul\":2449:2640   */\n    tag_32:\n        /* \"#utility.yul\":2489:2492   */\n      0x00\n        /* \"#utility.yul\":2508:2528   */\n      tag_122\n        /* \"#utility.yul\":2526:2527   */\n      dup3\n        /* \"#utility.yul\":2508:2528   */\n      tag_66\n      jump\t// in\n    tag_122:\n        /* \"#utility.yul\":2503:2528   */\n      swap2\n      pop\n        /* \"#utility.yul\":2542:2562   */\n      tag_123\n        /* \"#utility.yul\":2560:2561   */\n      dup4\n        /* \"#utility.yul\":2542:2562   */\n      tag_66\n      jump\t// in\n    tag_123:\n        /* \"#utility.yul\":2537:2562   */\n      swap3\n      pop\n        /* \"#utility.yul\":2585:2586   */\n      dup3\n        /* \"#utility.yul\":2582:2583   */\n      dup3\n        /* \"#utility.yul\":2578:2587   */\n      add\n        /* \"#utility.yul\":2571:2587   */\n      swap1\n      pop\n        /* \"#utility.yul\":2606:2609   */\n      dup1\n        /* \"#utility.yul\":2603:2604   */\n      dup3\n        /* \"#utility.yul\":2600:2610   */\n      gt\n        /* \"#utility.yul\":2597:2633   */\n      iszero\n      tag_124\n      jumpi\n        /* \"#utility.yul\":2613:2631   */\n      tag_125\n      tag_76\n      jump\t// in\n    tag_125:\n        /* \"#utility.yul\":2597:2633   */\n    tag_124:\n        /* \"#utility.yul\":2449:2640   */\n      swap3\n      swap2\n      pop\n      pop\n      jump\t// out\n        /* \"#utility.yul\":2646:2826   */\n    tag_35:\n        /* \"#utility.yul\":2694:2771   */\n      0x4e487b7100000000000000000000000000000000000000000000000000000000\n        /* \"#utility.yul\":2691:2692   */\n      0x00\n        /* \"#utility.yul\":2684:2772   */\n      mstore\n        /* \"#utility.yul\":2791:2795   */\n      0x01\n        /* \"#utility.yul\":2788:2789   */\n      0x04\n        /* \"#utility.yul\":2781:2796   */\n      mstore\n        /* \"#utility.yul\":2815:2819   */\n      0x24\n        /* \"#utility.yul\":2812:2813   */\n      0x00\n        /* \"#utility.yul\":2805:2820   */\n      revert\n        /* \"#utility.yul\":2832:3012   */\n    tag_77:\n        /* \"#utility.yul\":2880:2957   */\n      0x4e487b7100000000000000000000000000000000000000000000000000000000\n        /* \"#utility.yul\":2877:2878   */\n      0x00\n        /* \"#utility.yul\":2870:2958   */\n      mstore\n        /* \"#utility.yul\":2977:2981   */\n      0x22\n        /* \"#utility.yul\":2974:2975   */\n      0x04\n        /* \"#utility.yul\":2967:2982   */\n      mstore\n        /* \"#utility.yul\":3001:3005   */\n      0x24\n        /* \"#utility.yul\":2998:2999   */\n      0x00\n        /* \"#utility.yul\":2991:3006   */\n      revert\n        /* \"#utility.yul\":3018:3338   */\n    tag_37:\n        /* \"#utility.yul\":3062:3068   */\n      0x00\n        /* \"#utility.yul\":3099:3100   */\n      0x02\n        /* \"#utility.yul\":3093:3097   */\n      dup3\n        /* \"#utility.yul\":3089:3101   */\n      div\n        /* \"#utility.yul\":3079:3101   */\n      swap1\n      pop\n        /* \"#utility.yul\":3146:3147   */\n      0x01\n        /* \"#utility.yul\":3140:3144   */\n      dup3\n        /* \"#utility.yul\":3136:3148   */\n      and\n        /* \"#utility.yul\":3167:3185   */\n      dup1\n        /* \"#utility.yul\":3157:3238   */\n      tag_129\n      jumpi\n        /* \"#utility.yul\":3223:3227   */\n      0x7f\n        /* \"#utility.yul\":3215:3221   */\n      dup3\n        /* \"#utility.yul\":3211:3228   */\n      and\n        /* \"#utility.yul\":3201:3228   */\n      swap2\n      pop\n        /* \"#utility.yul\":3157:3238   */\n    tag_129:\n        /* \"#utility.yul\":3285:3287   */\n      0x20\n        /* \"#utility.yul\":3277:3283   */\n      dup3\n        /* \"#utility.yul\":3274:3288   */\n      lt\n        /* \"#utility.yul\":3254:3272   */\n      dup2\n        /* \"#utility.yul\":3251:3289   */\n      sub\n        /* \"#utility.yul\":3248:3332   */\n      tag_130\n      jumpi\n        /* \"#utility.yul\":3304:3322   */\n      tag_131\n      tag_77\n      jump\t// in\n    tag_131:\n        /* \"#utility.yul\":3248:3332   */\n    tag_130:\n        /* \"#utility.yul\":3069:3338   */\n      pop\n        /* \"#utility.yul\":3018:3338   */\n      swap2\n      swap1\n      pop\n      jump\t// out\n        /* \"#utility.yul\":3344:3507   */\n    tag_78:\n        /* \"#utility.yul\":3484:3499   */\n      0x4f6e6c79204f776e65722e2e2e00000000000000000000000000000000000000\n        /* \"#utility.yul\":3480:3481   */\n      0x00\n        /* \"#utility.yul\":3472:3478   */\n      dup3\n        /* \"#utility.yul\":3468:3482   */\n      add\n        /* \"#utility.yul\":3461:3500   */\n      mstore\n        /* \"#utility.yul\":3344:3507   */\n      pop\n      jump\t// out\n        /* \"#utility.yul\":3513:3879   */\n    tag_79:\n        /* \"#utility.yul\":3655:3658   */\n      0x00\n        /* \"#utility.yul\":3676:3743   */\n      tag_134\n        /* \"#utility.yul\":3740:3742   */\n      0x0d\n        /* \"#utility.yul\":3735:3738   */\n      dup4\n        /* \"#utility.yul\":3676:3743   */\n      tag_69\n      jump\t// in\n    tag_134:\n        /* \"#utility.yul\":3669:3743   */\n      swap2\n      pop\n        /* \"#utility.yul\":3752:3845   */\n      tag_135\n        /* \"#utility.yul\":3841:3844   */\n      dup3\n        /* \"#utility.yul\":3752:3845   */\n      tag_78\n      jump\t// in\n    tag_135:\n        /* \"#utility.yul\":3870:3872   */\n      0x20\n        /* \"#utility.yul\":3865:3868   */\n      dup3\n        /* \"#utility.yul\":3861:3873   */\n      add\n        /* \"#utility.yul\":3854:3873   */\n      swap1\n      pop\n        /* \"#utility.yul\":3513:3879   */\n      swap2\n      swap1\n      pop\n      jump\t// out\n        /* \"#utility.yul\":3885:4304   */\n    tag_50:\n        /* \"#utility.yul\":4051:4055   */\n      0x00\n        /* \"#utility.yul\":4089:4091   */\n      0x20\n        /* \"#utility.yul\":4078:4087   */\n      dup3\n        /* \"#utility.yul\":4074:4092   */\n      add\n        /* \"#utility.yul\":4066:4092   */\n      swap1\n      pop\n        /* \"#utility.yul\":4138:4147   */\n      dup2\n        /* \"#utility.yul\":4132:4136   */\n      dup2\n        /* \"#utility.yul\":4128:4148   */\n      sub\n        /* \"#utility.yul\":4124:4125   */\n      0x00\n        /* \"#utility.yul\":4113:4122   */\n      dup4\n        /* \"#utility.yul\":4109:4126   */\n      add\n        /* \"#utility.yul\":4102:4149   */\n      mstore\n        /* \"#utility.yul\":4166:4297   */\n      tag_137\n        /* \"#utility.yul\":4292:4296   */\n      dup2\n        /* \"#utility.yul\":4166:4297   */\n      tag_79\n      jump\t// in\n    tag_137:\n        /* \"#utility.yul\":4158:4297   */\n      swap1\n      pop\n        /* \"#utility.yul\":3885:4304   */\n      swap2\n      swap1\n      pop\n      jump\t// out\n        /* \"#utility.yul\":4310:4490   */\n    tag_80:\n        /* \"#utility.yul\":4358:4435   */\n      0x4e487b7100000000000000000000000000000000000000000000000000000000\n        /* \"#utility.yul\":4355:4356   */\n      0x00\n        /* \"#utility.yul\":4348:4436   */\n      mstore\n        /* \"#utility.yul\":4455:4459   */\n      0x41\n        /* \"#utility.yul\":4452:4453   */\n      0x04\n        /* \"#utility.yul\":4445:4460   */\n      mstore\n        /* \"#utility.yul\":4479:4483   */\n      0x24\n        /* \"#utility.yul\":4476:4477   */\n      0x00\n        /* \"#utility.yul\":4469:4484   */\n      revert\n        /* \"#utility.yul\":4496:4637   */\n    tag_81:\n        /* \"#utility.yul\":4545:4549   */\n      0x00\n        /* \"#utility.yul\":4568:4571   */\n      dup2\n        /* \"#utility.yul\":4560:4571   */\n      swap1\n      pop\n        /* \"#utility.yul\":4591:4594   */\n      dup2\n        /* \"#utility.yul\":4588:4589   */\n      0x00\n        /* \"#utility.yul\":4581:4595   */\n      mstore\n        /* \"#utility.yul\":4625:4629   */\n      0x20\n        /* \"#utility.yul\":4622:4623   */\n      0x00\n        /* \"#utility.yul\":4612:4630   */\n      keccak256\n        /* \"#utility.yul\":4604:4630   */\n      swap1\n      pop\n        /* \"#utility.yul\":4496:4637   */\n      swap2\n      swap1\n      pop\n      jump\t// out\n        /* \"#utility.yul\":4643:4736   */\n    tag_82:\n        /* \"#utility.yul\":4680:4686   */\n      0x00\n        /* \"#utility.yul\":4727:4729   */\n      0x20\n        /* \"#utility.yul\":4722:4724   */\n      0x1f\n        /* \"#utility.yul\":4715:4720   */\n      dup4\n        /* \"#utility.yul\":4711:4725   */\n      add\n        /* \"#utility.yul\":4707:4730   */\n      div\n        /* \"#utility.yul\":4697:4730   */\n      swap1\n      pop\n        /* \"#utility.yul\":4643:4736   */\n      swap2\n      swap1\n      pop\n      jump\t// out\n        /* \"#utility.yul\":4742:4849   */\n    tag_83:\n        /* \"#utility.yul\":4786:4794   */\n      0x00\n        /* \"#utility.yul\":4836:4841   */\n      dup3\n        /* \"#utility.yul\":4830:4834   */\n      dup3\n        /* \"#utility.yul\":4826:4842   */\n      shl\n        /* \"#utility.yul\":4805:4842   */\n      swap1\n      pop\n        /* \"#utility.yul\":4742:4849   */\n      swap3\n      swap2\n      pop\n      pop\n      jump\t// out\n        /* \"#utility.yul\":4855:5248   */\n    tag_84:\n        /* \"#utility.yul\":4924:4930   */\n      0x00\n        /* \"#utility.yul\":4974:4975   */\n      0x08\n        /* \"#utility.yul\":4962:4972   */\n      dup4\n        /* \"#utility.yul\":4958:4976   */\n      mul\n        /* \"#utility.yul\":4997:5094   */\n      tag_143\n        /* \"#utility.yul\":5027:5093   */\n      0xffffffffffffffffffffffffffffffffffffffffffffffffffffffffffffffff\n        /* \"#utility.yul\":5016:5025   */\n      dup3\n        /* \"#utility.yul\":4997:5094   */\n      tag_83\n      jump\t// in\n    tag_143:\n        /* \"#utility.yul\":5115:5154   */\n      tag_144\n        /* \"#utility.yul\":5145:5153   */\n      dup7\n        /* \"#utility.yul\":5134:5143   */\n      dup4\n        /* \"#utility.yul\":5115:5154   */\n      tag_83\n      jump\t// in\n    tag_144:\n        /* \"#utility.yul\":5103:5154   */\n      swap6\n      pop\n        /* \"#utility.yul\":5187:5191   */\n      dup1\n        /* \"#utility.yul\":5183:5192   */\n      not\n        /* \"#utility.yul\":5176:5181   */\n      dup5\n        /* \"#utility.yul\":5172:5193   */\n      and\n        /* \"#utility.yul\":5163:5193   */\n      swap4\n      pop\n        /* \"#utility.yul\":5236:5240   */\n      dup1\n        /* \"#utility.yul\":5226:5234   */\n      dup7\n        /* \"#utility.yul\":5222:5241   */\n      and\n        /* \"#utility.yul\":5215:5220   */\n      dup5\n        /* \"#utility.yul\":5212:5242   */\n      or\n        /* \"#utility.yul\":5202:5242   */\n      swap3\n      pop\n        /* \"#utility.yul\":4931:5248   */\n      pop\n      pop\n        /* \"#utility.yul\":4855:5248   */\n      swap4\n      swap3\n      pop\n      pop\n      pop\n      jump\t// out\n        /* \"#utility.yul\":5254:5314   */\n    tag_85:\n        /* \"#utility.yul\":5282:5285   */\n      0x00\n        /* \"#utility.yul\":5303:5308   */\n      dup2\n        /* \"#utility.yul\":5296:5308   */\n      swap1\n      pop\n        /* \"#utility.yul\":5254:5314   */\n      swap2\n      swap1\n      pop\n      jump\t// out\n        /* \"#utility.yul\":5320:5462   */\n    tag_86:\n        /* \"#utility.yul\":5370:5379   */\n      0x00\n        /* \"#utility.yul\":5403:5456   */\n      tag_147\n        /* \"#utility.yul\":5421:5455   */\n      tag_148\n        /* \"#utility.yul\":5430:5454   */\n      tag_149\n        /* \"#utility.yul\":5448:5453   */\n      dup5\n        /* \"#utility.yul\":5430:5454   */\n      tag_66\n      jump\t// in\n    tag_149:\n        /* \"#utility.yul\":5421:5455   */\n      tag_85\n      jump\t// in\n    tag_148:\n        /* \"#utility.yul\":5403:5456   */\n      tag_66\n      jump\t// in\n    tag_147:\n        /* \"#utility.yul\":5390:5456   */\n      swap1\n      pop\n        /* \"#utility.yul\":5320:5462   */\n      swap2\n      swap1\n      pop\n      jump\t// out\n        /* \"#utility.yul\":5468:5543   */\n    tag_87:\n        /* \"#utility.yul\":5511:5514   */\n      0x00\n        /* \"#utility.yul\":5532:5537   */\n      dup2\n        /* \"#utility.yul\":5525:5537   */\n      swap1\n      pop\n        /* \"#utility.yul\":5468:5543   */\n      swap2\n      swap1\n      pop\n      jump\t// out\n        /* \"#utility.yul\":5549:5818   */\n    tag_88:\n        /* \"#utility.yul\":5659:5698   */\n      tag_152\n        /* \"#utility.yul\":5690:5697   */\n      dup4\n        /* \"#utility.yul\":5659:5698   */\n      tag_86\n      jump\t// in\n    tag_152:\n        /* \"#utility.yul\":5720:5811   */\n      tag_153\n        /* \"#utility.yul\":5769:5810   */\n      tag_154\n        /* \"#utility.yul\":5793:5809   */\n      dup3\n        /* \"#utility.yul\":5769:5810   */\n      tag_87\n      jump\t// in\n    tag_154:\n        /* \"#utility.yul\":5761:5767   */\n      dup5\n        /* \"#utility.yul\":5754:5758   */\n      dup5\n        /* \"#utility.yul\":5748:5759   */\n      sload\n        /* \"#utility.yul\":5720:5811   */\n      tag_84\n      jump\t// in\n    tag_153:\n        /* \"#utility.yul\":5714:5718   */\n      dup3\n        /* \"#utility.yul\":5707:5812   */\n      sstore\n        /* \"#utility.yul\":5625:5818   */\n      pop\n        /* \"#utility.yul\":5549:5818   */\n      pop\n      pop\n      pop\n      jump\t// out\n        /* \"#utility.yul\":5824:5897   */\n    tag_89:\n        /* \"#utility.yul\":5869:5872   */\n      0x00\n        /* \"#utility.yul\":5824:5897   */\n      swap1\n      jump\t// out\n        /* \"#utility.yul\":5903:6092   */\n    tag_90:\n        /* \"#utility.yul\":5980:6012   */\n      tag_157\n      tag_89\n      jump\t// in\n    tag_157:\n        /* \"#utility.yul\":6021:6086   */\n      tag_158\n        /* \"#utility.yul\":6079:6085   */\n      dup2\n        /* \"#utility.yul\":6071:6077   */\n      dup5\n        /* \"#utility.yul\":6065:6069   */\n      dup5\n        /* \"#utility.yul\":6021:6086   */\n      tag_88\n      jump\t// in\n    tag_158:\n        /* \"#utility.yul\":5956:6092   */\n      pop\n        /* \"#utility.yul\":5903:6092   */\n      pop\n      pop\n      jump\t// out\n        /* \"#utility.yul\":6098:6284   */\n    tag_91:\n        /* \"#utility.yul\":6158:6278   */\n    tag_160:\n        /* \"#utility.yul\":6175:6178   */\n      dup2\n        /* \"#utility.yul\":6168:6173   */\n      dup2\n        /* \"#utility.yul\":6165:6179   */\n      lt\n        /* \"#utility.yul\":6158:6278   */\n      iszero\n      tag_162\n      jumpi\n        /* \"#utility.yul\":6229:6268   */\n      tag_163\n        /* \"#utility.yul\":6266:6267   */\n      0x00\n        /* \"#utility.yul\":6259:6264   */\n      dup3\n        /* \"#utility.yul\":6229:6268   */\n      tag_90\n      jump\t// in\n    tag_163:\n        /* \"#utility.yul\":6202:6203   */\n      0x01\n        /* \"#utility.yul\":6195:6200   */\n      dup2\n        /* \"#utility.yul\":6191:6204   */\n      add\n        /* \"#utility.yul\":6182:6204   */\n      swap1\n      pop\n        /* \"#utility.yul\":6158:6278   */\n      jump(tag_160)\n    tag_162:\n        /* \"#utility.yul\":6098:6284   */\n      pop\n      pop\n      jump\t// out\n        /* \"#utility.yul\":6290:6833   */\n    tag_92:\n        /* \"#utility.yul\":6391:6393   */\n      0x1f\n        /* \"#utility.yul\":6386:6389   */\n      dup3\n        /* \"#utility.yul\":6383:6394   */\n      gt\n        /* \"#utility.yul\":6380:6826   */\n      iszero\n      tag_165\n      jumpi\n        /* \"#utility.yul\":6425:6463   */\n      tag_166\n        /* \"#utility.yul\":6457:6462   */\n      dup2\n        /* \"#utility.yul\":6425:6463   */\n      tag_81\n      jump\t// in\n    tag_166:\n        /* \"#utility.yul\":6509:6538   */\n      tag_167\n        /* \"#utility.yul\":6527:6537   */\n      dup5\n        /* \"#utility.yul\":6509:6538   */\n      tag_82\n      jump\t// in\n    tag_167:\n        /* \"#utility.yul\":6499:6507   */\n      dup2\n        /* \"#utility.yul\":6495:6539   */\n      add\n        /* \"#utility.yul\":6692:6694   */\n      0x20\n        /* \"#utility.yul\":6680:6690   */\n      dup6\n        /* \"#utility.yul\":6677:6695   */\n      lt\n        /* \"#utility.yul\":6674:6723   */\n      iszero\n      tag_168\n      jumpi\n        /* \"#utility.yul\":6713:6721   */\n      dup2\n        /* \"#utility.yul\":6698:6721   */\n      swap1\n      pop\n        /* \"#utility.yul\":6674:6723   */\n    tag_168:\n        /* \"#utility.yul\":6736:6816   */\n      tag_169\n        /* \"#utility.yul\":6792:6814   */\n      tag_170\n        /* \"#utility.yul\":6810:6813   */\n      dup6\n        /* \"#utility.yul\":6792:6814   */\n      tag_82\n      jump\t// in\n    tag_170:\n        /* \"#utility.yul\":6782:6790   */\n      dup4\n        /* \"#utility.yul\":6778:6815   */\n      add\n        /* \"#utility.yul\":6765:6776   */\n      dup3\n        /* \"#utility.yul\":6736:6816   */\n      tag_91\n      jump\t// in\n    tag_169:\n        /* \"#utility.yul\":6395:6826   */\n      pop\n      pop\n        /* \"#utility.yul\":6380:6826   */\n    tag_165:\n        /* \"#utility.yul\":6290:6833   */\n      pop\n      pop\n      pop\n      jump\t// out\n        /* \"#utility.yul\":6839:6956   */\n    tag_93:\n        /* \"#utility.yul\":6893:6901   */\n      0x00\n        /* \"#utility.yul\":6943:6948   */\n      dup3\n        /* \"#utility.yul\":6937:6941   */\n      dup3\n        /* \"#utility.yul\":6933:6949   */\n      shr\n        /* \"#utility.yul\":6912:6949   */\n      swap1\n      pop\n        /* \"#utility.yul\":6839:6956   */\n      swap3\n      swap2\n      pop\n      pop\n      jump\t// out\n        /* \"#utility.yul\":6962:7131   */\n    tag_94:\n        /* \"#utility.yul\":7006:7012   */\n      0x00\n        /* \"#utility.yul\":7039:7090   */\n      tag_173\n        /* \"#utility.yul\":7087:7088   */\n      0x00\n        /* \"#utility.yul\":7083:7089   */\n      not\n        /* \"#utility.yul\":7075:7080   */\n      dup5\n        /* \"#utility.yul\":7072:7073   */\n      0x08\n        /* \"#utility.yul\":7068:7081   */\n      mul\n        /* \"#utility.yul\":7039:7090   */\n      tag_93\n      jump\t// in\n    tag_173:\n        /* \"#utility.yul\":7035:7091   */\n      not\n        /* \"#utility.yul\":7120:7124   */\n      dup1\n        /* \"#utility.yul\":7114:7118   */\n      dup4\n        /* \"#utility.yul\":7110:7125   */\n      and\n        /* \"#utility.yul\":7100:7125   */\n      swap2\n      pop\n        /* \"#utility.yul\":7013:7131   */\n      pop\n        /* \"#utility.yul\":6962:7131   */\n      swap3\n      swap2\n      pop\n      pop\n      jump\t// out\n        /* \"#utility.yul\":7136:7431   */\n    tag_95:\n        /* \"#utility.yul\":7212:7216   */\n      0x00\n        /* \"#utility.yul\":7358:7387   */\n      tag_175\n        /* \"#utility.yul\":7383:7386   */\n      dup4\n        /* \"#utility.yul\":7377:7381   */\n      dup4\n        /* \"#utility.yul\":7358:7387   */\n      tag_94\n      jump\t// in\n    tag_175:\n        /* \"#utility.yul\":7350:7387   */\n      swap2\n      pop\n        /* \"#utility.yul\":7420:7423   */\n      dup3\n        /* \"#utility.yul\":7417:7418   */\n      0x02\n        /* \"#utility.yul\":7413:7424   */\n      mul\n        /* \"#utility.yul\":7407:7411   */\n      dup3\n        /* \"#utility.yul\":7404:7425   */\n      or\n        /* \"#utility.yul\":7396:7425   */\n      swap1\n      pop\n        /* \"#utility.yul\":7136:7431   */\n      swap3\n      swap2\n      pop\n      pop\n      jump\t// out\n        /* \"#utility.yul\":7436:8831   */\n    tag_53:\n        /* \"#utility.yul\":7553:7590   */\n      tag_177\n        /* \"#utility.yul\":7586:7589   */\n      dup3\n        /* \"#utility.yul\":7553:7590   */\n      tag_68\n      jump\t// in\n    tag_177:\n        /* \"#utility.yul\":7655:7673   */\n      0xffffffffffffffff\n        /* \"#utility.yul\":7647:7653   */\n      dup2\n        /* \"#utility.yul\":7644:7674   */\n      gt\n        /* \"#utility.yul\":7641:7697   */\n      iszero\n      tag_178\n      jumpi\n        /* \"#utility.yul\":7677:7695   */\n      tag_179\n      tag_80\n      jump\t// in\n    tag_179:\n        /* \"#utility.yul\":7641:7697   */\n    tag_178:\n        /* \"#utility.yul\":7721:7759   */\n      tag_180\n        /* \"#utility.yul\":7753:7757   */\n      dup3\n        /* \"#utility.yul\":7747:7758   */\n      sload\n        /* \"#utility.yul\":7721:7759   */\n      tag_37\n      jump\t// in\n    tag_180:\n        /* \"#utility.yul\":7806:7873   */\n      tag_181\n        /* \"#utility.yul\":7866:7872   */\n      dup3\n        /* \"#utility.yul\":7858:7864   */\n      dup3\n        /* \"#utility.yul\":7852:7856   */\n      dup6\n        /* \"#utility.yul\":7806:7873   */\n      tag_92\n      jump\t// in\n    tag_181:\n        /* \"#utility.yul\":7900:7901   */\n      0x00\n        /* \"#utility.yul\":7924:7928   */\n      0x20\n        /* \"#utility.yul\":7911:7928   */\n      swap1\n      pop\n        /* \"#utility.yul\":7956:7958   */\n      0x1f\n        /* \"#utility.yul\":7948:7954   */\n      dup4\n        /* \"#utility.yul\":7945:7959   */\n      gt\n        /* \"#utility.yul\":7973:7974   */\n      0x01\n        /* \"#utility.yul\":7968:8586   */\n      dup2\n      eq\n      tag_183\n      jumpi\n        /* \"#utility.yul\":8630:8631   */\n      0x00\n        /* \"#utility.yul\":8647:8653   */\n      dup5\n        /* \"#utility.yul\":8644:8721   */\n      iszero\n      tag_184\n      jumpi\n        /* \"#utility.yul\":8696:8705   */\n      dup3\n        /* \"#utility.yul\":8691:8694   */\n      dup8\n        /* \"#utility.yul\":8687:8706   */\n      add\n        /* \"#utility.yul\":8681:8707   */\n      mload\n        /* \"#utility.yul\":8672:8707   */\n      swap1\n      pop\n        /* \"#utility.yul\":8644:8721   */\n    tag_184:\n        /* \"#utility.yul\":8747:8814   */\n      tag_185\n        /* \"#utility.yul\":8807:8813   */\n      dup6\n        /* \"#utility.yul\":8800:8805   */\n      dup3\n        /* \"#utility.yul\":8747:8814   */\n      tag_95\n      jump\t// in\n    tag_185:\n        /* \"#utility.yul\":8741:8745   */\n      dup7\n        /* \"#utility.yul\":8734:8815   */\n      sstore\n        /* \"#utility.yul\":8603:8825   */\n      pop\n        /* \"#utility.yul\":7938:8825   */\n      jump(tag_182)\n        /* \"#utility.yul\":7968:8586   */\n    tag_183:\n        /* \"#utility.yul\":8020:8024   */\n      0x1f\n        /* \"#utility.yul\":8016:8025   */\n      not\n        /* \"#utility.yul\":8008:8014   */\n      dup5\n        /* \"#utility.yul\":8004:8026   */\n      and\n        /* \"#utility.yul\":8054:8091   */\n      tag_186\n        /* \"#utility.yul\":8086:8090   */\n      dup7\n        /* \"#utility.yul\":8054:8091   */\n      tag_81\n      jump\t// in\n    tag_186:\n        /* \"#utility.yul\":8113:8114   */\n      0x00\n        /* \"#utility.yul\":8127:8335   */\n    tag_187:\n        /* \"#utility.yul\":8141:8148   */\n      dup3\n        /* \"#utility.yul\":8138:8139   */\n      dup2\n        /* \"#utility.yul\":8135:8149   */\n      lt\n        /* \"#utility.yul\":8127:8335   */\n      iszero\n      tag_189\n      jumpi\n        /* \"#utility.yul\":8220:8229   */\n      dup5\n        /* \"#utility.yul\":8215:8218   */\n      dup10\n        /* \"#utility.yul\":8211:8230   */\n      add\n        /* \"#utility.yul\":8205:8231   */\n      mload\n        /* \"#utility.yul\":8197:8203   */\n      dup3\n        /* \"#utility.yul\":8190:8232   */\n      sstore\n        /* \"#utility.yul\":8271:8272   */\n      0x01\n        /* \"#utility.yul\":8263:8269   */\n      dup3\n        /* \"#utility.yul\":8259:8273   */\n      add\n        /* \"#utility.yul\":8249:8273   */\n      swap2\n      pop\n        /* \"#utility.yul\":8318:8320   */\n      0x20\n        /* \"#utility.yul\":8307:8316   */\n      dup6\n        /* \"#utility.yul\":8303:8321   */\n      add\n        /* \"#utility.yul\":8290:8321   */\n      swap5\n      pop\n        /* \"#utility.yul\":8164:8168   */\n      0x20\n        /* \"#utility.yul\":8161:8162   */\n      dup2\n        /* \"#utility.yul\":8157:8169   */\n      add\n        /* \"#utility.yul\":8152:8169   */\n      swap1\n      pop\n        /* \"#utility.yul\":8127:8335   */\n      jump(tag_187)\n    tag_189:\n        /* \"#utility.yul\":8363:8369   */\n      dup7\n        /* \"#utility.yul\":8354:8361   */\n      dup4\n        /* \"#utility.yul\":8351:8370   */\n      lt\n        /* \"#utility.yul\":8348:8527   */\n      iszero\n      tag_190\n      jumpi\n        /* \"#utility.yul\":8421:8430   */\n      dup5\n        /* \"#utility.yul\":8416:8419   */\n      dup10\n        /* \"#utility.yul\":8412:8431   */\n      add\n        /* \"#utility.yul\":8406:8432   */\n      mload\n        /* \"#utility.yul\":8464:8512   */\n      tag_191\n        /* \"#utility.yul\":8506:8510   */\n      0x1f\n        /* \"#utility.yul\":8498:8504   */\n      dup10\n        /* \"#utility.yul\":8494:8511   */\n      and\n        /* \"#utility.yul\":8483:8492   */\n      dup3\n        /* \"#utility.yul\":8464:8512   */\n      tag_94\n      jump\t// in\n    tag_191:\n        /* \"#utility.yul\":8456:8462   */\n      dup4\n        /* \"#utility.yul\":8449:8513   */\n      sstore\n        /* \"#utility.yul\":8371:8527   */\n      pop\n        /* \"#utility.yul\":8348:8527   */\n    tag_190:\n        /* \"#utility.yul\":8573:8574   */\n      0x01\n        /* \"#utility.yul\":8569:8570   */\n      0x02\n        /* \"#utility.yul\":8561:8567   */\n      dup9\n        /* \"#utility.yul\":8557:8571   */\n      mul\n        /* \"#utility.yul\":8553:8575   */\n      add\n        /* \"#utility.yul\":8547:8551   */\n      dup9\n        /* \"#utility.yul\":8540:8576   */\n      sstore\n        /* \"#utility.yul\":7975:8586   */\n      pop\n      pop\n      pop\n        /* \"#utility.yul\":7938:8825   */\n    tag_182:\n      pop\n        /* \"#utility.yul\":7528:8831   */\n      pop\n      pop\n      pop\n        /* \"#utility.yul\":7436:8831   */\n      pop\n      pop\n      jump\t// out\n\n    auxdata: 0xa2646970667358221220a3f069cb094ba71c258920e7d360f1b367c99a2f78f6a01c9adbfcb6eb05b16564736f6c634300081a0033\n}\n",
				"bytecode": {
					"linkReferences": {},
					"object": "60806040526040518060400160405280600881526020017f4d6f68616d6d6164000000000000000000000000000000000000000000000000815250600190816100489190610322565b506040518060400160405280600881526020017f416c6920446173680000000000000000000000000000000000000000000000008152506002908161008d9190610322565b50600a600355601e6004553480156100a3575f80fd5b50335f806101000a81548173ffffffffffffffffffffffffffffffffffffffff021916908373ffffffffffffffffffffffffffffffffffffffff1602179055506103f1565b5f81519050919050565b7f4e487b71000000000000000000000000000000000000000000000000000000005f52604160045260245ffd5b7f4e487b71000000000000000000000000000000000000000000000000000000005f52602260045260245ffd5b5f600282049050600182168061016357607f821691505b6020821081036101765761017561011f565b5b50919050565b5f819050815f5260205f209050919050565b5f6020601f8301049050919050565b5f82821b905092915050565b5f600883026101d87fffffffffffffffffffffffffffffffffffffffffffffffffffffffffffffffff8261019d565b6101e2868361019d565b95508019841693508086168417925050509392505050565b5f819050919050565b5f819050919050565b5f61022661022161021c846101fa565b610203565b6101fa565b9050919050565b5f819050919050565b61023f8361020c565b61025361024b8261022d565b8484546101a9565b825550505050565b5f90565b61026761025b565b610272818484610236565b505050565b5b818110156102955761028a5f8261025f565b600181019050610278565b5050565b601f8211156102da576102ab8161017c565b6102b48461018e565b810160208510156102c3578190505b6102d76102cf8561018e565b830182610277565b50505b505050565b5f82821c905092915050565b5f6102fa5f19846008026102df565b1980831691505092915050565b5f61031283836102eb565b9150826002028217905092915050565b61032b826100e8565b67ffffffffffffffff811115610344576103436100f2565b5b61034e825461014c565b610359828285610299565b5f60209050601f83116001811461038a575f8415610378578287015190505b6103828582610307565b8655506103e9565b601f1984166103988661017c565b5f5b828110156103bf5784890151825560018201915060208501945060208101905061039a565b868310156103dc57848901516103d8601f8916826102eb565b8355505b6001600288020188555050505b505050505050565b6109ef806103fe5f395ff3fe608060405234801561000f575f80fd5b5060043610610060575f3560e01c80632de4ca591461006457806347c8efa7146100825780634b67f6af146100a0578063515a1d9d146100be5780637f17b05d146100dc5780638d674aef146100fa575b5f80fd5b61006c610118565b60405161007991906104cd565b60405180910390f35b61008a610143565b6040516100979190610556565b60405180910390f35b6100a86101cf565b6040516100b59190610556565b60405180910390f35b6100c661025b565b6040516100d39190610556565b60405180910390f35b6100e46103bd565b6040516100f191906105b5565b60405180910390f35b6101026103e0565b60405161010f9190610556565b60405180910390f35b5f8060045460035461012a91906105fb565b90505f811061013c5761013b61062e565b5b8091505090565b6001805461015090610688565b80601f016020809104026020016040519081016040528092919081815260200182805461017c90610688565b80156101c75780601f1061019e576101008083540402835291602001916101c7565b820191905f5260205f20905b8154815290600101906020018083116101aa57829003601f168201915b505050505081565b600280546101dc90610688565b80601f016020809104026020016040519081016040528092919081815260200182805461020890610688565b80156102535780601f1061022a57610100808354040283529160200191610253565b820191905f5260205f20905b81548152906001019060200180831161023657829003601f168201915b505050505081565b60603373ffffffffffffffffffffffffffffffffffffffff165f8054906101000a900473ffffffffffffffffffffffffffffffffffffffff1673ffffffffffffffffffffffffffffffffffffffff16146102ea576040517f08c379a00000000000000000000000000000000000000000000000000000000081526004016102e190610702565b60405180910390fd5b6040518060400160405280600e81526020017f4d6f68616d6d6164204661797a690000000000000000000000000000000000008152506001908161032e91906108ea565b506001805461033c90610688565b80601f016020809104026020016040519081016040528092919081815260200182805461036890610688565b80156103b35780601f1061038a576101008083540402835291602001916103b3565b820191905f5260205f20905b81548152906001019060200180831161039657829003601f168201915b5050505050905090565b5f8054906101000a900473ffffffffffffffffffffffffffffffffffffffff1681565b60606040518060400160405280600981526020017f416c69204661797a6900000000000000000000000000000000000000000000008152506002908161042691906108ea565b506002805461043490610688565b80601f016020809104026020016040519081016040528092919081815260200182805461046090610688565b80156104ab5780601f10610482576101008083540402835291602001916104ab565b820191905f5260205f20905b81548152906001019060200180831161048e57829003601f168201915b5050505050905090565b5f819050919050565b6104c7816104b5565b82525050565b5f6020820190506104e05f8301846104be565b92915050565b5f81519050919050565b5f82825260208201905092915050565b8281835e5f83830152505050565b5f601f19601f8301169050919050565b5f610528826104e6565b61053281856104f0565b9350610542818560208601610500565b61054b8161050e565b840191505092915050565b5f6020820190508181035f83015261056e818461051e565b905092915050565b5f73ffffffffffffffffffffffffffffffffffffffff82169050919050565b5f61059f82610576565b9050919050565b6105af81610595565b82525050565b5f6020820190506105c85f8301846105a6565b92915050565b7f4e487b71000000000000000000000000000000000000000000000000000000005f52601160045260245ffd5b5f610605826104b5565b9150610610836104b5565b9250828201905080821115610628576106276105ce565b5b92915050565b7f4e487b71000000000000000000000000000000000000000000000000000000005f52600160045260245ffd5b7f4e487b71000000000000000000000000000000000000000000000000000000005f52602260045260245ffd5b5f600282049050600182168061069f57607f821691505b6020821081036106b2576106b161065b565b5b50919050565b7f4f6e6c79204f776e65722e2e2e000000000000000000000000000000000000005f82015250565b5f6106ec600d836104f0565b91506106f7826106b8565b602082019050919050565b5f6020820190508181035f830152610719816106e0565b9050919050565b7f4e487b71000000000000000000000000000000000000000000000000000000005f52604160045260245ffd5b5f819050815f5260205f209050919050565b5f6020601f8301049050919050565b5f82821b905092915050565b5f600883026107a97fffffffffffffffffffffffffffffffffffffffffffffffffffffffffffffffff8261076e565b6107b3868361076e565b95508019841693508086168417925050509392505050565b5f819050919050565b5f6107ee6107e96107e4846104b5565b6107cb565b6104b5565b9050919050565b5f819050919050565b610807836107d4565b61081b610813826107f5565b84845461077a565b825550505050565b5f90565b61082f610823565b61083a8184846107fe565b505050565b5b8181101561085d576108525f82610827565b600181019050610840565b5050565b601f8211156108a2576108738161074d565b61087c8461075f565b8101602085101561088b578190505b61089f6108978561075f565b83018261083f565b50505b505050565b5f82821c905092915050565b5f6108c25f19846008026108a7565b1980831691505092915050565b5f6108da83836108b3565b9150826002028217905092915050565b6108f3826104e6565b67ffffffffffffffff81111561090c5761090b610720565b5b6109168254610688565b610921828285610861565b5f60209050601f831160018114610952575f8415610940578287015190505b61094a85826108cf565b8655506109b1565b601f1984166109608661074d565b5f5b8281101561098757848901518255600182019150602085019450602081019050610962565b868310156109a457848901516109a0601f8916826108b3565b8355505b6001600288020188555050505b50505050505056fea2646970667358221220a3f069cb094ba71c258920e7d360f1b367c99a2f78f6a01c9adbfcb6eb05b16564736f6c634300081a0033",
					"opcodes": "PUSH1 0x80 PUSH1 0x40 MSTORE PUSH1 0x40 MLOAD DUP1 PUSH1 0x40 ADD PUSH1 0x40 MSTORE DUP1 PUSH1 0x8 DUP2 MSTORE PUSH1 0x20 ADD PUSH32 0x4D6F68616D6D6164000000000000000000000000000000000000000000000000 DUP2 MSTORE POP PUSH1 0x1 SWAP1 DUP2 PUSH2 0x48 SWAP2 SWAP1 PUSH2 0x322 JUMP JUMPDEST POP PUSH1 0x40 MLOAD DUP1 PUSH1 0x40 ADD PUSH1 0x40 MSTORE DUP1 PUSH1 0x8 DUP2 MSTORE PUSH1 0x20 ADD PUSH32 0x416C692044617368000000000000000000000000000000000000000000000000 DUP2 MSTORE POP PUSH1 0x2 SWAP1 DUP2 PUSH2 0x8D SWAP2 SWAP1 PUSH2 0x322 JUMP JUMPDEST POP PUSH1 0xA PUSH1 0x3 SSTORE PUSH1 0x1E PUSH1 0x4 SSTORE CALLVALUE DUP1 ISZERO PUSH2 0xA3 JUMPI PUSH0 DUP1 REVERT JUMPDEST POP CALLER PUSH0 DUP1 PUSH2 0x100 EXP DUP2 SLOAD DUP2 PUSH20 0xFFFFFFFFFFFFFFFFFFFFFFFFFFFFFFFFFFFFFFFF MUL NOT AND SWAP1 DUP4 PUSH20 0xFFFFFFFFFFFFFFFFFFFFFFFFFFFFFFFFFFFFFFFF AND MUL OR SWAP1 SSTORE POP PUSH2 0x3F1 JUMP JUMPDEST PUSH0 DUP2 MLOAD SWAP1 POP SWAP2 SWAP1 POP JUMP JUMPDEST PUSH32 0x4E487B7100000000000000000000000000000000000000000000000000000000 PUSH0 MSTORE PUSH1 0x41 PUSH1 0x4 MSTORE PUSH1 0x24 PUSH0 REVERT JUMPDEST PUSH32 0x4E487B7100000000000000000000000000000000000000000000000000000000 PUSH0 MSTORE PUSH1 0x22 PUSH1 0x4 MSTORE PUSH1 0x24 PUSH0 REVERT JUMPDEST PUSH0 PUSH1 0x2 DUP3 DIV SWAP1 POP PUSH1 0x1 DUP3 AND DUP1 PUSH2 0x163 JUMPI PUSH1 0x7F DUP3 AND SWAP2 POP JUMPDEST PUSH1 0x20 DUP3 LT DUP2 SUB PUSH2 0x176 JUMPI PUSH2 0x175 PUSH2 0x11F JUMP JUMPDEST JUMPDEST POP SWAP2 SWAP1 POP JUMP JUMPDEST PUSH0 DUP2 SWAP1 POP DUP2 PUSH0 MSTORE PUSH1 0x20 PUSH0 KECCAK256 SWAP1 POP SWAP2 SWAP1 POP JUMP JUMPDEST PUSH0 PUSH1 0x20 PUSH1 0x1F DUP4 ADD DIV SWAP1 POP SWAP2 SWAP1 POP JUMP JUMPDEST PUSH0 DUP3 DUP3 SHL SWAP1 POP SWAP3 SWAP2 POP POP JUMP JUMPDEST PUSH0 PUSH1 0x8 DUP4 MUL PUSH2 0x1D8 PUSH32 0xFFFFFFFFFFFFFFFFFFFFFFFFFFFFFFFFFFFFFFFFFFFFFFFFFFFFFFFFFFFFFFFF DUP3 PUSH2 0x19D JUMP JUMPDEST PUSH2 0x1E2 DUP7 DUP4 PUSH2 0x19D JUMP JUMPDEST SWAP6 POP DUP1 NOT DUP5 AND SWAP4 POP DUP1 DUP7 AND DUP5 OR SWAP3 POP POP POP SWAP4 SWAP3 POP POP POP JUMP JUMPDEST PUSH0 DUP2 SWAP1 POP SWAP2 SWAP1 POP JUMP JUMPDEST PUSH0 DUP2 SWAP1 POP SWAP2 SWAP1 POP JUMP JUMPDEST PUSH0 PUSH2 0x226 PUSH2 0x221 PUSH2 0x21C DUP5 PUSH2 0x1FA JUMP JUMPDEST PUSH2 0x203 JUMP JUMPDEST PUSH2 0x1FA JUMP JUMPDEST SWAP1 POP SWAP2 SWAP1 POP JUMP JUMPDEST PUSH0 DUP2 SWAP1 POP SWAP2 SWAP1 POP JUMP JUMPDEST PUSH2 0x23F DUP4 PUSH2 0x20C JUMP JUMPDEST PUSH2 0x253 PUSH2 0x24B DUP3 PUSH2 0x22D JUMP JUMPDEST DUP5 DUP5 SLOAD PUSH2 0x1A9 JUMP JUMPDEST DUP3 SSTORE POP POP POP POP JUMP JUMPDEST PUSH0 SWAP1 JUMP JUMPDEST PUSH2 0x267 PUSH2 0x25B JUMP JUMPDEST PUSH2 0x272 DUP2 DUP5 DUP5 PUSH2 0x236 JUMP JUMPDEST POP POP POP JUMP JUMPDEST JUMPDEST DUP2 DUP2 LT ISZERO PUSH2 0x295 JUMPI PUSH2 0x28A PUSH0 DUP3 PUSH2 0x25F JUMP JUMPDEST PUSH1 0x1 DUP2 ADD SWAP1 POP PUSH2 0x278 JUMP JUMPDEST POP POP JUMP JUMPDEST PUSH1 0x1F DUP3 GT ISZERO PUSH2 0x2DA JUMPI PUSH2 0x2AB DUP2 PUSH2 0x17C JUMP JUMPDEST PUSH2 0x2B4 DUP5 PUSH2 0x18E JUMP JUMPDEST DUP2 ADD PUSH1 0x20 DUP6 LT ISZERO PUSH2 0x2C3 JUMPI DUP2 SWAP1 POP JUMPDEST PUSH2 0x2D7 PUSH2 0x2CF DUP6 PUSH2 0x18E JUMP JUMPDEST DUP4 ADD DUP3 PUSH2 0x277 JUMP JUMPDEST POP POP JUMPDEST POP POP POP JUMP JUMPDEST PUSH0 DUP3 DUP3 SHR SWAP1 POP SWAP3 SWAP2 POP POP JUMP JUMPDEST PUSH0 PUSH2 0x2FA PUSH0 NOT DUP5 PUSH1 0x8 MUL PUSH2 0x2DF JUMP JUMPDEST NOT DUP1 DUP4 AND SWAP2 POP POP SWAP3 SWAP2 POP POP JUMP JUMPDEST PUSH0 PUSH2 0x312 DUP4 DUP4 PUSH2 0x2EB JUMP JUMPDEST SWAP2 POP DUP3 PUSH1 0x2 MUL DUP3 OR SWAP1 POP SWAP3 SWAP2 POP POP JUMP JUMPDEST PUSH2 0x32B DUP3 PUSH2 0xE8 JUMP JUMPDEST PUSH8 0xFFFFFFFFFFFFFFFF DUP2 GT ISZERO PUSH2 0x344 JUMPI PUSH2 0x343 PUSH2 0xF2 JUMP JUMPDEST JUMPDEST PUSH2 0x34E DUP3 SLOAD PUSH2 0x14C JUMP JUMPDEST PUSH2 0x359 DUP3 DUP3 DUP6 PUSH2 0x299 JUMP JUMPDEST PUSH0 PUSH1 0x20 SWAP1 POP PUSH1 0x1F DUP4 GT PUSH1 0x1 DUP2 EQ PUSH2 0x38A JUMPI PUSH0 DUP5 ISZERO PUSH2 0x378 JUMPI DUP3 DUP8 ADD MLOAD SWAP1 POP JUMPDEST PUSH2 0x382 DUP6 DUP3 PUSH2 0x307 JUMP JUMPDEST DUP7 SSTORE POP PUSH2 0x3E9 JUMP JUMPDEST PUSH1 0x1F NOT DUP5 AND PUSH2 0x398 DUP7 PUSH2 0x17C JUMP JUMPDEST PUSH0 JUMPDEST DUP3 DUP2 LT ISZERO PUSH2 0x3BF JUMPI DUP5 DUP10 ADD MLOAD DUP3 SSTORE PUSH1 0x1 DUP3 ADD SWAP2 POP PUSH1 0x20 DUP6 ADD SWAP5 POP PUSH1 0x20 DUP2 ADD SWAP1 POP PUSH2 0x39A JUMP JUMPDEST DUP7 DUP4 LT ISZERO PUSH2 0x3DC JUMPI DUP5 DUP10 ADD MLOAD PUSH2 0x3D8 PUSH1 0x1F DUP10 AND DUP3 PUSH2 0x2EB JUMP JUMPDEST DUP4 SSTORE POP JUMPDEST PUSH1 0x1 PUSH1 0x2 DUP9 MUL ADD DUP9 SSTORE POP POP POP JUMPDEST POP POP POP POP POP POP JUMP JUMPDEST PUSH2 0x9EF DUP1 PUSH2 0x3FE PUSH0 CODECOPY PUSH0 RETURN INVALID PUSH1 0x80 PUSH1 0x40 MSTORE CALLVALUE DUP1 ISZERO PUSH2 0xF JUMPI PUSH0 DUP1 REVERT JUMPDEST POP PUSH1 0x4 CALLDATASIZE LT PUSH2 0x60 JUMPI PUSH0 CALLDATALOAD PUSH1 0xE0 SHR DUP1 PUSH4 0x2DE4CA59 EQ PUSH2 0x64 JUMPI DUP1 PUSH4 0x47C8EFA7 EQ PUSH2 0x82 JUMPI DUP1 PUSH4 0x4B67F6AF EQ PUSH2 0xA0 JUMPI DUP1 PUSH4 0x515A1D9D EQ PUSH2 0xBE JUMPI DUP1 PUSH4 0x7F17B05D EQ PUSH2 0xDC JUMPI DUP1 PUSH4 0x8D674AEF EQ PUSH2 0xFA JUMPI JUMPDEST PUSH0 DUP1 REVERT JUMPDEST PUSH2 0x6C PUSH2 0x118 JUMP JUMPDEST PUSH1 0x40 MLOAD PUSH2 0x79 SWAP2 SWAP1 PUSH2 0x4CD JUMP JUMPDEST PUSH1 0x40 MLOAD DUP1 SWAP2 SUB SWAP1 RETURN JUMPDEST PUSH2 0x8A PUSH2 0x143 JUMP JUMPDEST PUSH1 0x40 MLOAD PUSH2 0x97 SWAP2 SWAP1 PUSH2 0x556 JUMP JUMPDEST PUSH1 0x40 MLOAD DUP1 SWAP2 SUB SWAP1 RETURN JUMPDEST PUSH2 0xA8 PUSH2 0x1CF JUMP JUMPDEST PUSH1 0x40 MLOAD PUSH2 0xB5 SWAP2 SWAP1 PUSH2 0x556 JUMP JUMPDEST PUSH1 0x40 MLOAD DUP1 SWAP2 SUB SWAP1 RETURN JUMPDEST PUSH2 0xC6 PUSH2 0x25B JUMP JUMPDEST PUSH1 0x40 MLOAD PUSH2 0xD3 SWAP2 SWAP1 PUSH2 0x556 JUMP JUMPDEST PUSH1 0x40 MLOAD DUP1 SWAP2 SUB SWAP1 RETURN JUMPDEST PUSH2 0xE4 PUSH2 0x3BD JUMP JUMPDEST PUSH1 0x40 MLOAD PUSH2 0xF1 SWAP2 SWAP1 PUSH2 0x5B5 JUMP JUMPDEST PUSH1 0x40 MLOAD DUP1 SWAP2 SUB SWAP1 RETURN JUMPDEST PUSH2 0x102 PUSH2 0x3E0 JUMP JUMPDEST PUSH1 0x40 MLOAD PUSH2 0x10F SWAP2 SWAP1 PUSH2 0x556 JUMP JUMPDEST PUSH1 0x40 MLOAD DUP1 SWAP2 SUB SWAP1 RETURN JUMPDEST PUSH0 DUP1 PUSH1 0x4 SLOAD PUSH1 0x3 SLOAD PUSH2 0x12A SWAP2 SWAP1 PUSH2 0x5FB JUMP JUMPDEST SWAP1 POP PUSH0 DUP2 LT PUSH2 0x13C JUMPI PUSH2 0x13B PUSH2 0x62E JUMP JUMPDEST JUMPDEST DUP1 SWAP2 POP POP SWAP1 JUMP JUMPDEST PUSH1 0x1 DUP1 SLOAD PUSH2 0x150 SWAP1 PUSH2 0x688 JUMP JUMPDEST DUP1 PUSH1 0x1F ADD PUSH1 0x20 DUP1 SWAP2 DIV MUL PUSH1 0x20 ADD PUSH1 0x40 MLOAD SWAP1 DUP2 ADD PUSH1 0x40 MSTORE DUP1 SWAP3 SWAP2 SWAP1 DUP2 DUP2 MSTORE PUSH1 0x20 ADD DUP3 DUP1 SLOAD PUSH2 0x17C SWAP1 PUSH2 0x688 JUMP JUMPDEST DUP1 ISZERO PUSH2 0x1C7 JUMPI DUP1 PUSH1 0x1F LT PUSH2 0x19E JUMPI PUSH2 0x100 DUP1 DUP4 SLOAD DIV MUL DUP4 MSTORE SWAP2 PUSH1 0x20 ADD SWAP2 PUSH2 0x1C7 JUMP JUMPDEST DUP3 ADD SWAP2 SWAP1 PUSH0 MSTORE PUSH1 0x20 PUSH0 KECCAK256 SWAP1 JUMPDEST DUP2 SLOAD DUP2 MSTORE SWAP1 PUSH1 0x1 ADD SWAP1 PUSH1 0x20 ADD DUP1 DUP4 GT PUSH2 0x1AA JUMPI DUP3 SWAP1 SUB PUSH1 0x1F AND DUP3 ADD SWAP2 JUMPDEST POP POP POP POP POP DUP2 JUMP JUMPDEST PUSH1 0x2 DUP1 SLOAD PUSH2 0x1DC SWAP1 PUSH2 0x688 JUMP JUMPDEST DUP1 PUSH1 0x1F ADD PUSH1 0x20 DUP1 SWAP2 DIV MUL PUSH1 0x20 ADD PUSH1 0x40 MLOAD SWAP1 DUP2 ADD PUSH1 0x40 MSTORE DUP1 SWAP3 SWAP2 SWAP1 DUP2 DUP2 MSTORE PUSH1 0x20 ADD DUP3 DUP1 SLOAD PUSH2 0x208 SWAP1 PUSH2 0x688 JUMP JUMPDEST DUP1 ISZERO PUSH2 0x253 JUMPI DUP1 PUSH1 0x1F LT PUSH2 0x22A JUMPI PUSH2 0x100 DUP1 DUP4 SLOAD DIV MUL DUP4 MSTORE SWAP2 PUSH1 0x20 ADD SWAP2 PUSH2 0x253 JUMP JUMPDEST DUP3 ADD SWAP2 SWAP1 PUSH0 MSTORE PUSH1 0x20 PUSH0 KECCAK256 SWAP1 JUMPDEST DUP2 SLOAD DUP2 MSTORE SWAP1 PUSH1 0x1 ADD SWAP1 PUSH1 0x20 ADD DUP1 DUP4 GT PUSH2 0x236 JUMPI DUP3 SWAP1 SUB PUSH1 0x1F AND DUP3 ADD SWAP2 JUMPDEST POP POP POP POP POP DUP2 JUMP JUMPDEST PUSH1 0x60 CALLER PUSH20 0xFFFFFFFFFFFFFFFFFFFFFFFFFFFFFFFFFFFFFFFF AND PUSH0 DUP1 SLOAD SWAP1 PUSH2 0x100 EXP SWAP1 DIV PUSH20 0xFFFFFFFFFFFFFFFFFFFFFFFFFFFFFFFFFFFFFFFF AND PUSH20 0xFFFFFFFFFFFFFFFFFFFFFFFFFFFFFFFFFFFFFFFF AND EQ PUSH2 0x2EA JUMPI PUSH1 0x40 MLOAD PUSH32 0x8C379A000000000000000000000000000000000000000000000000000000000 DUP2 MSTORE PUSH1 0x4 ADD PUSH2 0x2E1 SWAP1 PUSH2 0x702 JUMP JUMPDEST PUSH1 0x40 MLOAD DUP1 SWAP2 SUB SWAP1 REVERT JUMPDEST PUSH1 0x40 MLOAD DUP1 PUSH1 0x40 ADD PUSH1 0x40 MSTORE DUP1 PUSH1 0xE DUP2 MSTORE PUSH1 0x20 ADD PUSH32 0x4D6F68616D6D6164204661797A69000000000000000000000000000000000000 DUP2 MSTORE POP PUSH1 0x1 SWAP1 DUP2 PUSH2 0x32E SWAP2 SWAP1 PUSH2 0x8EA JUMP JUMPDEST POP PUSH1 0x1 DUP1 SLOAD PUSH2 0x33C SWAP1 PUSH2 0x688 JUMP JUMPDEST DUP1 PUSH1 0x1F ADD PUSH1 0x20 DUP1 SWAP2 DIV MUL PUSH1 0x20 ADD PUSH1 0x40 MLOAD SWAP1 DUP2 ADD PUSH1 0x40 MSTORE DUP1 SWAP3 SWAP2 SWAP1 DUP2 DUP2 MSTORE PUSH1 0x20 ADD DUP3 DUP1 SLOAD PUSH2 0x368 SWAP1 PUSH2 0x688 JUMP JUMPDEST DUP1 ISZERO PUSH2 0x3B3 JUMPI DUP1 PUSH1 0x1F LT PUSH2 0x38A JUMPI PUSH2 0x100 DUP1 DUP4 SLOAD DIV MUL DUP4 MSTORE SWAP2 PUSH1 0x20 ADD SWAP2 PUSH2 0x3B3 JUMP JUMPDEST DUP3 ADD SWAP2 SWAP1 PUSH0 MSTORE PUSH1 0x20 PUSH0 KECCAK256 SWAP1 JUMPDEST DUP2 SLOAD DUP2 MSTORE SWAP1 PUSH1 0x1 ADD SWAP1 PUSH1 0x20 ADD DUP1 DUP4 GT PUSH2 0x396 JUMPI DUP3 SWAP1 SUB PUSH1 0x1F AND DUP3 ADD SWAP2 JUMPDEST POP POP POP POP POP SWAP1 POP SWAP1 JUMP JUMPDEST PUSH0 DUP1 SLOAD SWAP1 PUSH2 0x100 EXP SWAP1 DIV PUSH20 0xFFFFFFFFFFFFFFFFFFFFFFFFFFFFFFFFFFFFFFFF AND DUP2 JUMP JUMPDEST PUSH1 0x60 PUSH1 0x40 MLOAD DUP1 PUSH1 0x40 ADD PUSH1 0x40 MSTORE DUP1 PUSH1 0x9 DUP2 MSTORE PUSH1 0x20 ADD PUSH32 0x416C69204661797A690000000000000000000000000000000000000000000000 DUP2 MSTORE POP PUSH1 0x2 SWAP1 DUP2 PUSH2 0x426 SWAP2 SWAP1 PUSH2 0x8EA JUMP JUMPDEST POP PUSH1 0x2 DUP1 SLOAD PUSH2 0x434 SWAP1 PUSH2 0x688 JUMP JUMPDEST DUP1 PUSH1 0x1F ADD PUSH1 0x20 DUP1 SWAP2 DIV MUL PUSH1 0x20 ADD PUSH1 0x40 MLOAD SWAP1 DUP2 ADD PUSH1 0x40 MSTORE DUP1 SWAP3 SWAP2 SWAP1 DUP2 DUP2 MSTORE PUSH1 0x20 ADD DUP3 DUP1 SLOAD PUSH2 0x460 SWAP1 PUSH2 0x688 JUMP JUMPDEST DUP1 ISZERO PUSH2 0x4AB JUMPI DUP1 PUSH1 0x1F LT PUSH2 0x482 JUMPI PUSH2 0x100 DUP1 DUP4 SLOAD DIV MUL DUP4 MSTORE SWAP2 PUSH1 0x20 ADD SWAP2 PUSH2 0x4AB JUMP JUMPDEST DUP3 ADD SWAP2 SWAP1 PUSH0 MSTORE PUSH1 0x20 PUSH0 KECCAK256 SWAP1 JUMPDEST DUP2 SLOAD DUP2 MSTORE SWAP1 PUSH1 0x1 ADD SWAP1 PUSH1 0x20 ADD DUP1 DUP4 GT PUSH2 0x48E JUMPI DUP3 SWAP1 SUB PUSH1 0x1F AND DUP3 ADD SWAP2 JUMPDEST POP POP POP POP POP SWAP1 POP SWAP1 JUMP JUMPDEST PUSH0 DUP2 SWAP1 POP SWAP2 SWAP1 POP JUMP JUMPDEST PUSH2 0x4C7 DUP2 PUSH2 0x4B5 JUMP JUMPDEST DUP3 MSTORE POP POP JUMP JUMPDEST PUSH0 PUSH1 0x20 DUP3 ADD SWAP1 POP PUSH2 0x4E0 PUSH0 DUP4 ADD DUP5 PUSH2 0x4BE JUMP JUMPDEST SWAP3 SWAP2 POP POP JUMP JUMPDEST PUSH0 DUP2 MLOAD SWAP1 POP SWAP2 SWAP1 POP JUMP JUMPDEST PUSH0 DUP3 DUP3 MSTORE PUSH1 0x20 DUP3 ADD SWAP1 POP SWAP3 SWAP2 POP POP JUMP JUMPDEST DUP3 DUP2 DUP4 MCOPY PUSH0 DUP4 DUP4 ADD MSTORE POP POP POP JUMP JUMPDEST PUSH0 PUSH1 0x1F NOT PUSH1 0x1F DUP4 ADD AND SWAP1 POP SWAP2 SWAP1 POP JUMP JUMPDEST PUSH0 PUSH2 0x528 DUP3 PUSH2 0x4E6 JUMP JUMPDEST PUSH2 0x532 DUP2 DUP6 PUSH2 0x4F0 JUMP JUMPDEST SWAP4 POP PUSH2 0x542 DUP2 DUP6 PUSH1 0x20 DUP7 ADD PUSH2 0x500 JUMP JUMPDEST PUSH2 0x54B DUP2 PUSH2 0x50E JUMP JUMPDEST DUP5 ADD SWAP2 POP POP SWAP3 SWAP2 POP POP JUMP JUMPDEST PUSH0 PUSH1 0x20 DUP3 ADD SWAP1 POP DUP2 DUP2 SUB PUSH0 DUP4 ADD MSTORE PUSH2 0x56E DUP2 DUP5 PUSH2 0x51E JUMP JUMPDEST SWAP1 POP SWAP3 SWAP2 POP POP JUMP JUMPDEST PUSH0 PUSH20 0xFFFFFFFFFFFFFFFFFFFFFFFFFFFFFFFFFFFFFFFF DUP3 AND SWAP1 POP SWAP2 SWAP1 POP JUMP JUMPDEST PUSH0 PUSH2 0x59F DUP3 PUSH2 0x576 JUMP JUMPDEST SWAP1 POP SWAP2 SWAP1 POP JUMP JUMPDEST PUSH2 0x5AF DUP2 PUSH2 0x595 JUMP JUMPDEST DUP3 MSTORE POP POP JUMP JUMPDEST PUSH0 PUSH1 0x20 DUP3 ADD SWAP1 POP PUSH2 0x5C8 PUSH0 DUP4 ADD DUP5 PUSH2 0x5A6 JUMP JUMPDEST SWAP3 SWAP2 POP POP JUMP JUMPDEST PUSH32 0x4E487B7100000000000000000000000000000000000000000000000000000000 PUSH0 MSTORE PUSH1 0x11 PUSH1 0x4 MSTORE PUSH1 0x24 PUSH0 REVERT JUMPDEST PUSH0 PUSH2 0x605 DUP3 PUSH2 0x4B5 JUMP JUMPDEST SWAP2 POP PUSH2 0x610 DUP4 PUSH2 0x4B5 JUMP JUMPDEST SWAP3 POP DUP3 DUP3 ADD SWAP1 POP DUP1 DUP3 GT ISZERO PUSH2 0x628 JUMPI PUSH2 0x627 PUSH2 0x5CE JUMP JUMPDEST JUMPDEST SWAP3 SWAP2 POP POP JUMP JUMPDEST PUSH32 0x4E487B7100000000000000000000000000000000000000000000000000000000 PUSH0 MSTORE PUSH1 0x1 PUSH1 0x4 MSTORE PUSH1 0x24 PUSH0 REVERT JUMPDEST PUSH32 0x4E487B7100000000000000000000000000000000000000000000000000000000 PUSH0 MSTORE PUSH1 0x22 PUSH1 0x4 MSTORE PUSH1 0x24 PUSH0 REVERT JUMPDEST PUSH0 PUSH1 0x2 DUP3 DIV SWAP1 POP PUSH1 0x1 DUP3 AND DUP1 PUSH2 0x69F JUMPI PUSH1 0x7F DUP3 AND SWAP2 POP JUMPDEST PUSH1 0x20 DUP3 LT DUP2 SUB PUSH2 0x6B2 JUMPI PUSH2 0x6B1 PUSH2 0x65B JUMP JUMPDEST JUMPDEST POP SWAP2 SWAP1 POP JUMP JUMPDEST PUSH32 0x4F6E6C79204F776E65722E2E2E00000000000000000000000000000000000000 PUSH0 DUP3 ADD MSTORE POP JUMP JUMPDEST PUSH0 PUSH2 0x6EC PUSH1 0xD DUP4 PUSH2 0x4F0 JUMP JUMPDEST SWAP2 POP PUSH2 0x6F7 DUP3 PUSH2 0x6B8 JUMP JUMPDEST PUSH1 0x20 DUP3 ADD SWAP1 POP SWAP2 SWAP1 POP JUMP JUMPDEST PUSH0 PUSH1 0x20 DUP3 ADD SWAP1 POP DUP2 DUP2 SUB PUSH0 DUP4 ADD MSTORE PUSH2 0x719 DUP2 PUSH2 0x6E0 JUMP JUMPDEST SWAP1 POP SWAP2 SWAP1 POP JUMP JUMPDEST PUSH32 0x4E487B7100000000000000000000000000000000000000000000000000000000 PUSH0 MSTORE PUSH1 0x41 PUSH1 0x4 MSTORE PUSH1 0x24 PUSH0 REVERT JUMPDEST PUSH0 DUP2 SWAP1 POP DUP2 PUSH0 MSTORE PUSH1 0x20 PUSH0 KECCAK256 SWAP1 POP SWAP2 SWAP1 POP JUMP JUMPDEST PUSH0 PUSH1 0x20 PUSH1 0x1F DUP4 ADD DIV SWAP1 POP SWAP2 SWAP1 POP JUMP JUMPDEST PUSH0 DUP3 DUP3 SHL SWAP1 POP SWAP3 SWAP2 POP POP JUMP JUMPDEST PUSH0 PUSH1 0x8 DUP4 MUL PUSH2 0x7A9 PUSH32 0xFFFFFFFFFFFFFFFFFFFFFFFFFFFFFFFFFFFFFFFFFFFFFFFFFFFFFFFFFFFFFFFF DUP3 PUSH2 0x76E JUMP JUMPDEST PUSH2 0x7B3 DUP7 DUP4 PUSH2 0x76E JUMP JUMPDEST SWAP6 POP DUP1 NOT DUP5 AND SWAP4 POP DUP1 DUP7 AND DUP5 OR SWAP3 POP POP POP SWAP4 SWAP3 POP POP POP JUMP JUMPDEST PUSH0 DUP2 SWAP1 POP SWAP2 SWAP1 POP JUMP JUMPDEST PUSH0 PUSH2 0x7EE PUSH2 0x7E9 PUSH2 0x7E4 DUP5 PUSH2 0x4B5 JUMP JUMPDEST PUSH2 0x7CB JUMP JUMPDEST PUSH2 0x4B5 JUMP JUMPDEST SWAP1 POP SWAP2 SWAP1 POP JUMP JUMPDEST PUSH0 DUP2 SWAP1 POP SWAP2 SWAP1 POP JUMP JUMPDEST PUSH2 0x807 DUP4 PUSH2 0x7D4 JUMP JUMPDEST PUSH2 0x81B PUSH2 0x813 DUP3 PUSH2 0x7F5 JUMP JUMPDEST DUP5 DUP5 SLOAD PUSH2 0x77A JUMP JUMPDEST DUP3 SSTORE POP POP POP POP JUMP JUMPDEST PUSH0 SWAP1 JUMP JUMPDEST PUSH2 0x82F PUSH2 0x823 JUMP JUMPDEST PUSH2 0x83A DUP2 DUP5 DUP5 PUSH2 0x7FE JUMP JUMPDEST POP POP POP JUMP JUMPDEST JUMPDEST DUP2 DUP2 LT ISZERO PUSH2 0x85D JUMPI PUSH2 0x852 PUSH0 DUP3 PUSH2 0x827 JUMP JUMPDEST PUSH1 0x1 DUP2 ADD SWAP1 POP PUSH2 0x840 JUMP JUMPDEST POP POP JUMP JUMPDEST PUSH1 0x1F DUP3 GT ISZERO PUSH2 0x8A2 JUMPI PUSH2 0x873 DUP2 PUSH2 0x74D JUMP JUMPDEST PUSH2 0x87C DUP5 PUSH2 0x75F JUMP JUMPDEST DUP2 ADD PUSH1 0x20 DUP6 LT ISZERO PUSH2 0x88B JUMPI DUP2 SWAP1 POP JUMPDEST PUSH2 0x89F PUSH2 0x897 DUP6 PUSH2 0x75F JUMP JUMPDEST DUP4 ADD DUP3 PUSH2 0x83F JUMP JUMPDEST POP POP JUMPDEST POP POP POP JUMP JUMPDEST PUSH0 DUP3 DUP3 SHR SWAP1 POP SWAP3 SWAP2 POP POP JUMP JUMPDEST PUSH0 PUSH2 0x8C2 PUSH0 NOT DUP5 PUSH1 0x8 MUL PUSH2 0x8A7 JUMP JUMPDEST NOT DUP1 DUP4 AND SWAP2 POP POP SWAP3 SWAP2 POP POP JUMP JUMPDEST PUSH0 PUSH2 0x8DA DUP4 DUP4 PUSH2 0x8B3 JUMP JUMPDEST SWAP2 POP DUP3 PUSH1 0x2 MUL DUP3 OR SWAP1 POP SWAP3 SWAP2 POP POP JUMP JUMPDEST PUSH2 0x8F3 DUP3 PUSH2 0x4E6 JUMP JUMPDEST PUSH8 0xFFFFFFFFFFFFFFFF DUP2 GT ISZERO PUSH2 0x90C JUMPI PUSH2 0x90B PUSH2 0x720 JUMP JUMPDEST JUMPDEST PUSH2 0x916 DUP3 SLOAD PUSH2 0x688 JUMP JUMPDEST PUSH2 0x921 DUP3 DUP3 DUP6 PUSH2 0x861 JUMP JUMPDEST PUSH0 PUSH1 0x20 SWAP1 POP PUSH1 0x1F DUP4 GT PUSH1 0x1 DUP2 EQ PUSH2 0x952 JUMPI PUSH0 DUP5 ISZERO PUSH2 0x940 JUMPI DUP3 DUP8 ADD MLOAD SWAP1 POP JUMPDEST PUSH2 0x94A DUP6 DUP3 PUSH2 0x8CF JUMP JUMPDEST DUP7 SSTORE POP PUSH2 0x9B1 JUMP JUMPDEST PUSH1 0x1F NOT DUP5 AND PUSH2 0x960 DUP7 PUSH2 0x74D JUMP JUMPDEST PUSH0 JUMPDEST DUP3 DUP2 LT ISZERO PUSH2 0x987 JUMPI DUP5 DUP10 ADD MLOAD DUP3 SSTORE PUSH1 0x1 DUP3 ADD SWAP2 POP PUSH1 0x20 DUP6 ADD SWAP5 POP PUSH1 0x20 DUP2 ADD SWAP1 POP PUSH2 0x962 JUMP JUMPDEST DUP7 DUP4 LT ISZERO PUSH2 0x9A4 JUMPI DUP5 DUP10 ADD MLOAD PUSH2 0x9A0 PUSH1 0x1F DUP10 AND DUP3 PUSH2 0x8B3 JUMP JUMPDEST DUP4 SSTORE POP JUMPDEST PUSH1 0x1 PUSH1 0x2 DUP9 MUL ADD DUP9 SSTORE POP POP POP JUMPDEST POP POP POP POP POP POP JUMP INVALID LOG2 PUSH5 0x6970667358 0x22 SLT KECCAK256 LOG3 CREATE PUSH10 0xCB094BA71C258920E7D3 PUSH1 0xF1 0xB3 PUSH8 0xC99A2F78F6A01C9A 0xDB 0xFC 0xB6 0xEB SDIV 0xB1 PUSH6 0x64736F6C6343 STOP ADDMOD BYTE STOP CALLER "
				},
				"gasEstimates": {
					"creation": {
						"codeDepositCost": "508600",
						"executionCost": "infinite",
						"totalCost": "infinite"
					},
					"external": {
						"ChangName1()": "infinite",
						"ChangName2()": "infinite",
						"Check()": "infinite",
						"OwnerAddress()": "2571",
						"name1()": "infinite",
						"name2()": "infinite"
					}
				},
				"methodIdentifiers": {
					"ChangName1()": "515a1d9d",
					"ChangName2()": "8d674aef",
					"Check()": "2de4ca59",
					"OwnerAddress()": "7f17b05d",
					"name1()": "47c8efa7",
					"name2()": "4b67f6af"
				}
			},
			"storageLayout": {
				"storage": [
					{
						"astId": 3,
						"contract": "Contracts/Error.sol:Error_Sol",
						"label": "OwnerAddress",
						"offset": 0,
						"slot": "0",
						"type": "t_address"
					},
					{
						"astId": 6,
						"contract": "Contracts/Error.sol:Error_Sol",
						"label": "name1",
						"offset": 0,
						"slot": "1",
						"type": "t_string_storage"
					},
					{
						"astId": 9,
						"contract": "Contracts/Error.sol:Error_Sol",
						"label": "name2",
						"offset": 0,
						"slot": "2",
						"type": "t_string_storage"
					},
					{
						"astId": 12,
						"contract": "Contracts/Error.sol:Error_Sol",
						"label": "a",
						"offset": 0,
						"slot": "3",
						"type": "t_uint256"
					},
					{
						"astId": 15,
						"contract": "Contracts/Error.sol:Error_Sol",
						"label": "b",
						"offset": 0,
						"slot": "4",
						"type": "t_uint256"
					}
				],
				"types": {
					"t_address": {
						"encoding": "inplace",
						"label": "address",
						"numberOfBytes": "20"
					},
					"t_string_storage": {
						"encoding": "bytes",
						"label": "string",
						"numberOfBytes": "32"
					},
					"t_uint256": {
						"encoding": "inplace",
						"label": "uint256",
						"numberOfBytes": "32"
					}
				}
			},
			"userdoc": {
				"kind": "user",
				"methods": {},
				"version": 1
			}
		}
	}
}