{
	"Contracts/Arrays.sol": {
		"Arrays": {
			"abi": [
				{
					"inputs": [
						{
							"internalType": "address",
							"name": "",
							"type": "address"
						}
					],
					"name": "Amount",
					"outputs": [
						{
							"internalType": "uint256",
							"name": "",
							"type": "uint256"
						}
					],
					"stateMutability": "view",
					"type": "function"
				},
				{
					"inputs": [
						{
							"internalType": "uint256",
							"name": "",
							"type": "uint256"
						}
					],
					"name": "Array1",
					"outputs": [
						{
							"internalType": "uint256",
							"name": "",
							"type": "uint256"
						}
					],
					"stateMutability": "view",
					"type": "function"
				},
				{
					"inputs": [
						{
							"internalType": "uint256",
							"name": "",
							"type": "uint256"
						},
						{
							"internalType": "uint256",
							"name": "",
							"type": "uint256"
						}
					],
					"name": "Array2",
					"outputs": [
						{
							"internalType": "uint256",
							"name": "",
							"type": "uint256"
						}
					],
					"stateMutability": "view",
					"type": "function"
				},
				{
					"inputs": [],
					"name": "GetTestArray1",
					"outputs": [
						{
							"internalType": "uint256[]",
							"name": "",
							"type": "uint256[]"
						}
					],
					"stateMutability": "view",
					"type": "function"
				},
				{
					"inputs": [],
					"name": "GetTestArray1Length",
					"outputs": [
						{
							"internalType": "uint256",
							"name": "",
							"type": "uint256"
						}
					],
					"stateMutability": "view",
					"type": "function"
				},
				{
					"inputs": [],
					"name": "GetTestArray1Pop",
					"outputs": [
						{
							"internalType": "uint256[]",
							"name": "",
							"type": "uint256[]"
						}
					],
					"stateMutability": "nonpayable",
					"type": "function"
				},
				{
					"inputs": [],
					"name": "GetTestArray1Push",
					"outputs": [
						{
							"internalType": "uint256[]",
							"name": "",
							"type": "uint256[]"
						}
					],
					"stateMutability": "nonpayable",
					"type": "function"
				},
				{
					"inputs": [],
					"name": "GetTestArray2",
					"outputs": [
						{
							"internalType": "uint256[][]",
							"name": "",
							"type": "uint256[][]"
						}
					],
					"stateMutability": "view",
					"type": "function"
				},
				{
					"inputs": [
						{
							"internalType": "uint256",
							"name": "Token",
							"type": "uint256"
						}
					],
					"name": "SetMapping",
					"outputs": [],
					"stateMutability": "nonpayable",
					"type": "function"
				}
			],
			"devdoc": {
				"kind": "dev",
				"methods": {},
				"version": 1
			},
			"evm": {
				"assembly": "    /* \"Contracts/Arrays.sol\":60:881  contract Arrays{... */\n  mstore(0x40, 0x80)\n    /* \"Contracts/Arrays.sol\":82:118  uint[] public Array1 = [1,2,3,4,5,6] */\n  mload(0x40)\n  dup1\n  0xc0\n  add\n  0x40\n  mstore\n  dup1\n    /* \"Contracts/Arrays.sol\":106:107  1 */\n  0x01\n    /* \"Contracts/Arrays.sol\":82:118  uint[] public Array1 = [1,2,3,4,5,6] */\n  0xff\n  and\n  dup2\n  mstore\n  0x20\n  add\n    /* \"Contracts/Arrays.sol\":108:109  2 */\n  0x02\n    /* \"Contracts/Arrays.sol\":82:118  uint[] public Array1 = [1,2,3,4,5,6] */\n  0xff\n  and\n  dup2\n  mstore\n  0x20\n  add\n    /* \"Contracts/Arrays.sol\":110:111  3 */\n  0x03\n    /* \"Contracts/Arrays.sol\":82:118  uint[] public Array1 = [1,2,3,4,5,6] */\n  0xff\n  and\n  dup2\n  mstore\n  0x20\n  add\n    /* \"Contracts/Arrays.sol\":112:113  4 */\n  0x04\n    /* \"Contracts/Arrays.sol\":82:118  uint[] public Array1 = [1,2,3,4,5,6] */\n  0xff\n  and\n  dup2\n  mstore\n  0x20\n  add\n    /* \"Contracts/Arrays.sol\":114:115  5 */\n  0x05\n    /* \"Contracts/Arrays.sol\":82:118  uint[] public Array1 = [1,2,3,4,5,6] */\n  0xff\n  and\n  dup2\n  mstore\n  0x20\n  add\n    /* \"Contracts/Arrays.sol\":116:117  6 */\n  0x06\n    /* \"Contracts/Arrays.sol\":82:118  uint[] public Array1 = [1,2,3,4,5,6] */\n  0xff\n  and\n  dup2\n  mstore\n  pop\n  0x00\n  swap1\n  0x06\n  tag_1\n  swap3\n  swap2\n  swap1\n  tag_2\n  jump\t// in\ntag_1:\n  pop\n    /* \"Contracts/Arrays.sol\":125:168  uint[][] public Array2 = [[1,2,3], [4,5,6]] */\n  mload(0x40)\n  dup1\n  0x40\n  add\n  0x40\n  mstore\n  dup1\n  mload(0x40)\n  dup1\n  0x60\n  add\n  0x40\n  mstore\n  dup1\n    /* \"Contracts/Arrays.sol\":152:153  1 */\n  0x01\n    /* \"Contracts/Arrays.sol\":125:168  uint[][] public Array2 = [[1,2,3], [4,5,6]] */\n  0xff\n  and\n  dup2\n  mstore\n  0x20\n  add\n    /* \"Contracts/Arrays.sol\":154:155  2 */\n  0x02\n    /* \"Contracts/Arrays.sol\":125:168  uint[][] public Array2 = [[1,2,3], [4,5,6]] */\n  0xff\n  and\n  dup2\n  mstore\n  0x20\n  add\n    /* \"Contracts/Arrays.sol\":156:157  3 */\n  0x03\n    /* \"Contracts/Arrays.sol\":125:168  uint[][] public Array2 = [[1,2,3], [4,5,6]] */\n  0xff\n  and\n  dup2\n  mstore\n  pop\n  dup2\n  mstore\n  0x20\n  add\n  mload(0x40)\n  dup1\n  0x60\n  add\n  0x40\n  mstore\n  dup1\n    /* \"Contracts/Arrays.sol\":161:162  4 */\n  0x04\n    /* \"Contracts/Arrays.sol\":125:168  uint[][] public Array2 = [[1,2,3], [4,5,6]] */\n  0xff\n  and\n  dup2\n  mstore\n  0x20\n  add\n    /* \"Contracts/Arrays.sol\":163:164  5 */\n  0x05\n    /* \"Contracts/Arrays.sol\":125:168  uint[][] public Array2 = [[1,2,3], [4,5,6]] */\n  0xff\n  and\n  dup2\n  mstore\n  0x20\n  add\n    /* \"Contracts/Arrays.sol\":165:166  6 */\n  0x06\n    /* \"Contracts/Arrays.sol\":125:168  uint[][] public Array2 = [[1,2,3], [4,5,6]] */\n  0xff\n  and\n  dup2\n  mstore\n  pop\n  dup2\n  mstore\n  pop\n  0x01\n  swap1\n  0x02\n  tag_3\n  swap3\n  swap2\n  swap1\n  tag_4\n  jump\t// in\ntag_3:\n  pop\n    /* \"Contracts/Arrays.sol\":60:881  contract Arrays{... */\n  callvalue\n  dup1\n  iszero\n  tag_5\n  jumpi\n  0x00\n  dup1\n  revert\ntag_5:\n  pop\n  jump(tag_6)\ntag_2:\n  dup3\n  dup1\n  sload\n  dup3\n  dup3\n  sstore\n  swap1\n  0x00\n  mstore\n  keccak256(0x00, 0x20)\n  swap1\n  dup2\n  add\n  swap3\n  dup3\n  iszero\n  tag_7\n  jumpi\n  swap2\n  0x20\n  mul\n  dup3\n  add\ntag_8:\n  dup3\n  dup2\n  gt\n  iszero\n  tag_9\n  jumpi\n  dup3\n  mload\n  dup3\n  swap1\n  0xff\n  and\n  swap1\n  sstore\n  swap2\n  0x20\n  add\n  swap2\n  swap1\n  0x01\n  add\n  swap1\n  jump(tag_8)\ntag_9:\ntag_7:\n  pop\n  swap1\n  pop\n  tag_10\n  swap2\n  swap1\n  tag_11\n  jump\t// in\ntag_10:\n  pop\n  swap1\n  jump\t// out\ntag_4:\n  dup3\n  dup1\n  sload\n  dup3\n  dup3\n  sstore\n  swap1\n  0x00\n  mstore\n  keccak256(0x00, 0x20)\n  swap1\n  dup2\n  add\n  swap3\n  dup3\n  iszero\n  tag_12\n  jumpi\n  swap2\n  0x20\n  mul\n  dup3\n  add\ntag_13:\n  dup3\n  dup2\n  gt\n  iszero\n  tag_14\n  jumpi\n  dup3\n  mload\n  dup3\n  swap1\n  0x03\n  tag_15\n  swap3\n  swap2\n  swap1\n  tag_16\n  jump\t// in\ntag_15:\n  pop\n  swap2\n  0x20\n  add\n  swap2\n  swap1\n  0x01\n  add\n  swap1\n  jump(tag_13)\ntag_14:\ntag_12:\n  pop\n  swap1\n  pop\n  tag_17\n  swap2\n  swap1\n  tag_18\n  jump\t// in\ntag_17:\n  pop\n  swap1\n  jump\t// out\ntag_11:\ntag_19:\n  dup1\n  dup3\n  gt\n  iszero\n  tag_20\n  jumpi\n  0x00\n  dup2\n  0x00\n  swap1\n  sstore\n  pop\n  0x01\n  add\n  jump(tag_19)\ntag_20:\n  pop\n  swap1\n  jump\t// out\ntag_16:\n  dup3\n  dup1\n  sload\n  dup3\n  dup3\n  sstore\n  swap1\n  0x00\n  mstore\n  keccak256(0x00, 0x20)\n  swap1\n  dup2\n  add\n  swap3\n  dup3\n  iszero\n  tag_21\n  jumpi\n  swap2\n  0x20\n  mul\n  dup3\n  add\ntag_22:\n  dup3\n  dup2\n  gt\n  iszero\n  tag_23\n  jumpi\n  dup3\n  mload\n  dup3\n  swap1\n  0xff\n  and\n  swap1\n  sstore\n  swap2\n  0x20\n  add\n  swap2\n  swap1\n  0x01\n  add\n  swap1\n  jump(tag_22)\ntag_23:\ntag_21:\n  pop\n  swap1\n  pop\n  tag_24\n  swap2\n  swap1\n  tag_11\n  jump\t// in\ntag_24:\n  pop\n  swap1\n  jump\t// out\ntag_18:\ntag_25:\n  dup1\n  dup3\n  gt\n  iszero\n  tag_26\n  jumpi\n  0x00\n  dup2\n  dup2\n  tag_27\n  swap2\n  swap1\n  tag_28\n  jump\t// in\ntag_27:\n  pop\n  0x01\n  add\n  jump(tag_25)\ntag_26:\n  pop\n  swap1\n  jump\t// out\ntag_28:\n  pop\n  dup1\n  sload\n  0x00\n  dup3\n  sstore\n  swap1\n  0x00\n  mstore\n  keccak256(0x00, 0x20)\n  swap1\n  dup2\n  add\n  swap1\n  tag_30\n  swap2\n  swap1\n  tag_11\n  jump\t// in\ntag_30:\n  pop\n  jump\t// out\ntag_6:\n  dataSize(sub_0)\n  dup1\n  dataOffset(sub_0)\n  0x00\n  codecopy\n  0x00\n  return\nstop\n\nsub_0: assembly {\n        /* \"Contracts/Arrays.sol\":60:881  contract Arrays{... */\n      mstore(0x40, 0x80)\n      callvalue\n      dup1\n      iszero\n      tag_1\n      jumpi\n      0x00\n      dup1\n      revert\n    tag_1:\n      pop\n      jumpi(tag_2, lt(calldatasize, 0x04))\n      shr(0xe0, calldataload(0x00))\n      dup1\n      0x5761edc3\n      gt\n      tag_12\n      jumpi\n      dup1\n      0x5761edc3\n      eq\n      tag_7\n      jumpi\n      dup1\n      0x600a6ef6\n      eq\n      tag_8\n      jumpi\n      dup1\n      0xb74f3ac1\n      eq\n      tag_9\n      jumpi\n      dup1\n      0xcbc321e2\n      eq\n      tag_10\n      jumpi\n      dup1\n      0xce19c0c8\n      eq\n      tag_11\n      jumpi\n      jump(tag_2)\n    tag_12:\n      dup1\n      0x11f4d567\n      eq\n      tag_3\n      jumpi\n      dup1\n      0x1de5fe09\n      eq\n      tag_4\n      jumpi\n      dup1\n      0x27362653\n      eq\n      tag_5\n      jumpi\n      dup1\n      0x35834738\n      eq\n      tag_6\n      jumpi\n    tag_2:\n      0x00\n      dup1\n      revert\n        /* \"Contracts/Arrays.sol\":792:874  function SetMapping(uint Token) public {... */\n    tag_3:\n      tag_13\n      0x04\n      dup1\n      calldatasize\n      sub\n      dup2\n      add\n      swap1\n      tag_14\n      swap2\n      swap1\n      tag_15\n      jump\t// in\n    tag_14:\n      tag_16\n      jump\t// in\n    tag_13:\n      stop\n        /* \"Contracts/Arrays.sol\":82:118  uint[] public Array1 = [1,2,3,4,5,6] */\n    tag_4:\n      tag_17\n      0x04\n      dup1\n      calldatasize\n      sub\n      dup2\n      add\n      swap1\n      tag_18\n      swap2\n      swap1\n      tag_15\n      jump\t// in\n    tag_18:\n      tag_19\n      jump\t// in\n    tag_17:\n      mload(0x40)\n      tag_20\n      swap2\n      swap1\n      tag_21\n      jump\t// in\n    tag_20:\n      mload(0x40)\n      dup1\n      swap2\n      sub\n      swap1\n      return\n        /* \"Contracts/Arrays.sol\":280:375  function GetTestArray2() public  view returns (uint[][] memory){... */\n    tag_5:\n      tag_22\n      tag_23\n      jump\t// in\n    tag_22:\n      mload(0x40)\n      tag_24\n      swap2\n      swap1\n      tag_25\n      jump\t// in\n    tag_24:\n      mload(0x40)\n      dup1\n      swap2\n      sub\n      swap1\n      return\n        /* \"Contracts/Arrays.sol\":617:730  function GetTestArray1Pop() public returns (uint[] memory){... */\n    tag_6:\n      tag_26\n      tag_27\n      jump\t// in\n    tag_26:\n      mload(0x40)\n      tag_28\n      swap2\n      swap1\n      tag_29\n      jump\t// in\n    tag_28:\n      mload(0x40)\n      dup1\n      swap2\n      sub\n      swap1\n      return\n        /* \"Contracts/Arrays.sol\":389:485  function GetTestArray1Length() public  view returns(uint){... */\n    tag_7:\n      tag_30\n      tag_31\n      jump\t// in\n    tag_30:\n      mload(0x40)\n      tag_32\n      swap2\n      swap1\n      tag_21\n      jump\t// in\n    tag_32:\n      mload(0x40)\n      dup1\n      swap2\n      sub\n      swap1\n      return\n        /* \"Contracts/Arrays.sol\":740:783  mapping (address => uint256) public  Amount */\n    tag_8:\n      tag_33\n      0x04\n      dup1\n      calldatasize\n      sub\n      dup2\n      add\n      swap1\n      tag_34\n      swap2\n      swap1\n      tag_35\n      jump\t// in\n    tag_34:\n      tag_36\n      jump\t// in\n    tag_33:\n      mload(0x40)\n      tag_37\n      swap2\n      swap1\n      tag_21\n      jump\t// in\n    tag_37:\n      mload(0x40)\n      dup1\n      swap2\n      sub\n      swap1\n      return\n        /* \"Contracts/Arrays.sol\":125:168  uint[][] public Array2 = [[1,2,3], [4,5,6]] */\n    tag_9:\n      tag_38\n      0x04\n      dup1\n      calldatasize\n      sub\n      dup2\n      add\n      swap1\n      tag_39\n      swap2\n      swap1\n      tag_40\n      jump\t// in\n    tag_39:\n      tag_41\n      jump\t// in\n    tag_38:\n      mload(0x40)\n      tag_42\n      swap2\n      swap1\n      tag_21\n      jump\t// in\n    tag_42:\n      mload(0x40)\n      dup1\n      swap2\n      sub\n      swap1\n      return\n        /* \"Contracts/Arrays.sol\":179:272  function GetTestArray1() public  view  returns(uint[] memory){... */\n    tag_10:\n      tag_43\n      tag_44\n      jump\t// in\n    tag_43:\n      mload(0x40)\n      tag_45\n      swap2\n      swap1\n      tag_29\n      jump\t// in\n    tag_45:\n      mload(0x40)\n      dup1\n      swap2\n      sub\n      swap1\n      return\n        /* \"Contracts/Arrays.sol\":493:609  function GetTestArray1Push() public  returns(uint[] memory){... */\n    tag_11:\n      tag_46\n      tag_47\n      jump\t// in\n    tag_46:\n      mload(0x40)\n      tag_48\n      swap2\n      swap1\n      tag_29\n      jump\t// in\n    tag_48:\n      mload(0x40)\n      dup1\n      swap2\n      sub\n      swap1\n      return\n        /* \"Contracts/Arrays.sol\":792:874  function SetMapping(uint Token) public {... */\n    tag_16:\n        /* \"Contracts/Arrays.sol\":861:866  Token */\n      dup1\n        /* \"Contracts/Arrays.sol\":842:848  Amount */\n      0x02\n        /* \"Contracts/Arrays.sol\":842:860  Amount[msg.sender] */\n      0x00\n        /* \"Contracts/Arrays.sol\":849:859  msg.sender */\n      caller\n        /* \"Contracts/Arrays.sol\":842:860  Amount[msg.sender] */\n      0xffffffffffffffffffffffffffffffffffffffff\n      and\n      0xffffffffffffffffffffffffffffffffffffffff\n      and\n      dup2\n      mstore\n      0x20\n      add\n      swap1\n      dup2\n      mstore\n      0x20\n      add\n      0x00\n      keccak256\n        /* \"Contracts/Arrays.sol\":842:866  Amount[msg.sender]=Token */\n      dup2\n      swap1\n      sstore\n      pop\n        /* \"Contracts/Arrays.sol\":792:874  function SetMapping(uint Token) public {... */\n      pop\n      jump\t// out\n        /* \"Contracts/Arrays.sol\":82:118  uint[] public Array1 = [1,2,3,4,5,6] */\n    tag_19:\n      0x00\n      dup2\n      dup2\n      sload\n      dup2\n      lt\n      tag_50\n      jumpi\n      0x00\n      dup1\n      revert\n    tag_50:\n      swap1\n      0x00\n      mstore\n      keccak256(0x00, 0x20)\n      add\n      0x00\n      swap2\n      pop\n      swap1\n      pop\n      sload\n      dup2\n      jump\t// out\n        /* \"Contracts/Arrays.sol\":280:375  function GetTestArray2() public  view returns (uint[][] memory){... */\n    tag_23:\n        /* \"Contracts/Arrays.sol\":327:342  uint[][] memory */\n      0x60\n        /* \"Contracts/Arrays.sol\":361:367  Array2 */\n      0x01\n        /* \"Contracts/Arrays.sol\":354:367  return Array2 */\n      dup1\n      sload\n      dup1\n      0x20\n      mul\n      0x20\n      add\n      mload(0x40)\n      swap1\n      dup2\n      add\n      0x40\n      mstore\n      dup1\n      swap3\n      swap2\n      swap1\n      dup2\n      dup2\n      mstore\n      0x20\n      add\n      0x00\n      swap1\n    tag_53:\n      dup3\n      dup3\n      lt\n      iszero\n      tag_54\n      jumpi\n      dup4\n      dup3\n      swap1\n      0x00\n      mstore\n      keccak256(0x00, 0x20)\n      add\n      dup1\n      sload\n      dup1\n      0x20\n      mul\n      0x20\n      add\n      mload(0x40)\n      swap1\n      dup2\n      add\n      0x40\n      mstore\n      dup1\n      swap3\n      swap2\n      swap1\n      dup2\n      dup2\n      mstore\n      0x20\n      add\n      dup3\n      dup1\n      sload\n      dup1\n      iszero\n      tag_56\n      jumpi\n      0x20\n      mul\n      dup3\n      add\n      swap2\n      swap1\n      0x00\n      mstore\n      keccak256(0x00, 0x20)\n      swap1\n    tag_57:\n      dup2\n      sload\n      dup2\n      mstore\n      0x20\n      add\n      swap1\n      0x01\n      add\n      swap1\n      dup1\n      dup4\n      gt\n      tag_57\n      jumpi\n    tag_56:\n      pop\n      pop\n      pop\n      pop\n      pop\n      dup2\n      mstore\n      0x20\n      add\n      swap1\n      0x01\n      add\n      swap1\n      jump(tag_53)\n    tag_54:\n      pop\n      pop\n      pop\n      pop\n      swap1\n      pop\n        /* \"Contracts/Arrays.sol\":280:375  function GetTestArray2() public  view returns (uint[][] memory){... */\n      swap1\n      jump\t// out\n        /* \"Contracts/Arrays.sol\":617:730  function GetTestArray1Pop() public returns (uint[] memory){... */\n    tag_27:\n        /* \"Contracts/Arrays.sol\":661:674  uint[] memory */\n      0x60\n        /* \"Contracts/Arrays.sol\":686:692  Array1 */\n      0x00\n        /* \"Contracts/Arrays.sol\":686:698  Array1.pop() */\n      dup1\n      sload\n      dup1\n      tag_59\n      jumpi\n      tag_60\n      tag_61\n      jump\t// in\n    tag_60:\n    tag_59:\n      0x01\n      swap1\n      sub\n      dup2\n      dup2\n      swap1\n      0x00\n      mstore\n      keccak256(0x00, 0x20)\n      add\n      0x00\n      swap1\n      sstore\n      swap1\n      sstore\n        /* \"Contracts/Arrays.sol\":716:722  Array1 */\n      0x00\n        /* \"Contracts/Arrays.sol\":709:722  return Array1 */\n      dup1\n      sload\n      dup1\n      0x20\n      mul\n      0x20\n      add\n      mload(0x40)\n      swap1\n      dup2\n      add\n      0x40\n      mstore\n      dup1\n      swap3\n      swap2\n      swap1\n      dup2\n      dup2\n      mstore\n      0x20\n      add\n      dup3\n      dup1\n      sload\n      dup1\n      iszero\n      tag_63\n      jumpi\n      0x20\n      mul\n      dup3\n      add\n      swap2\n      swap1\n      0x00\n      mstore\n      keccak256(0x00, 0x20)\n      swap1\n    tag_64:\n      dup2\n      sload\n      dup2\n      mstore\n      0x20\n      add\n      swap1\n      0x01\n      add\n      swap1\n      dup1\n      dup4\n      gt\n      tag_64\n      jumpi\n    tag_63:\n      pop\n      pop\n      pop\n      pop\n      pop\n      swap1\n      pop\n        /* \"Contracts/Arrays.sol\":617:730  function GetTestArray1Pop() public returns (uint[] memory){... */\n      swap1\n      jump\t// out\n        /* \"Contracts/Arrays.sol\":389:485  function GetTestArray1Length() public  view returns(uint){... */\n    tag_31:\n        /* \"Contracts/Arrays.sol\":441:445  uint */\n      0x00\n        /* \"Contracts/Arrays.sol\":464:470  Array1 */\n      dup1\n        /* \"Contracts/Arrays.sol\":464:477  Array1.length */\n      dup1\n      sload\n      swap1\n      pop\n        /* \"Contracts/Arrays.sol\":457:477  return Array1.length */\n      swap1\n      pop\n        /* \"Contracts/Arrays.sol\":389:485  function GetTestArray1Length() public  view returns(uint){... */\n      swap1\n      jump\t// out\n        /* \"Contracts/Arrays.sol\":740:783  mapping (address => uint256) public  Amount */\n    tag_36:\n      mstore(0x20, 0x02)\n      dup1\n      0x00\n      mstore\n      keccak256(0x00, 0x40)\n      0x00\n      swap2\n      pop\n      swap1\n      pop\n      sload\n      dup2\n      jump\t// out\n        /* \"Contracts/Arrays.sol\":125:168  uint[][] public Array2 = [[1,2,3], [4,5,6]] */\n    tag_41:\n      0x01\n      dup3\n      dup2\n      sload\n      dup2\n      lt\n      tag_66\n      jumpi\n      0x00\n      dup1\n      revert\n    tag_66:\n      swap1\n      0x00\n      mstore\n      keccak256(0x00, 0x20)\n      add\n      dup2\n      dup2\n      sload\n      dup2\n      lt\n      tag_68\n      jumpi\n      0x00\n      dup1\n      revert\n    tag_68:\n      swap1\n      0x00\n      mstore\n      keccak256(0x00, 0x20)\n      add\n      0x00\n      swap2\n      pop\n      swap2\n      pop\n      pop\n      sload\n      dup2\n      jump\t// out\n        /* \"Contracts/Arrays.sol\":179:272  function GetTestArray1() public  view  returns(uint[] memory){... */\n    tag_44:\n        /* \"Contracts/Arrays.sol\":226:239  uint[] memory */\n      0x60\n        /* \"Contracts/Arrays.sol\":258:264  Array1 */\n      0x00\n        /* \"Contracts/Arrays.sol\":251:264  return Array1 */\n      dup1\n      sload\n      dup1\n      0x20\n      mul\n      0x20\n      add\n      mload(0x40)\n      swap1\n      dup2\n      add\n      0x40\n      mstore\n      dup1\n      swap3\n      swap2\n      swap1\n      dup2\n      dup2\n      mstore\n      0x20\n      add\n      dup3\n      dup1\n      sload\n      dup1\n      iszero\n      tag_71\n      jumpi\n      0x20\n      mul\n      dup3\n      add\n      swap2\n      swap1\n      0x00\n      mstore\n      keccak256(0x00, 0x20)\n      swap1\n    tag_72:\n      dup2\n      sload\n      dup2\n      mstore\n      0x20\n      add\n      swap1\n      0x01\n      add\n      swap1\n      dup1\n      dup4\n      gt\n      tag_72\n      jumpi\n    tag_71:\n      pop\n      pop\n      pop\n      pop\n      pop\n      swap1\n      pop\n        /* \"Contracts/Arrays.sol\":179:272  function GetTestArray1() public  view  returns(uint[] memory){... */\n      swap1\n      jump\t// out\n        /* \"Contracts/Arrays.sol\":493:609  function GetTestArray1Push() public  returns(uint[] memory){... */\n    tag_47:\n        /* \"Contracts/Arrays.sol\":538:551  uint[] memory */\n      0x60\n        /* \"Contracts/Arrays.sol\":563:569  Array1 */\n      0x00\n        /* \"Contracts/Arrays.sol\":575:576  7 */\n      0x07\n        /* \"Contracts/Arrays.sol\":563:577  Array1.push(7) */\n      swap1\n      dup1\n      0x01\n      dup2\n      sload\n      add\n      dup1\n      dup3\n      sstore\n      dup1\n      swap2\n      pop\n      pop\n      0x01\n      swap1\n      sub\n      swap1\n      0x00\n      mstore\n      keccak256(0x00, 0x20)\n      add\n      0x00\n      swap1\n      swap2\n      swap1\n      swap2\n      swap1\n      swap2\n      pop\n      sstore\n        /* \"Contracts/Arrays.sol\":595:601  Array1 */\n      0x00\n        /* \"Contracts/Arrays.sol\":588:601  return Array1 */\n      dup1\n      sload\n      dup1\n      0x20\n      mul\n      0x20\n      add\n      mload(0x40)\n      swap1\n      dup2\n      add\n      0x40\n      mstore\n      dup1\n      swap3\n      swap2\n      swap1\n      dup2\n      dup2\n      mstore\n      0x20\n      add\n      dup3\n      dup1\n      sload\n      dup1\n      iszero\n      tag_75\n      jumpi\n      0x20\n      mul\n      dup3\n      add\n      swap2\n      swap1\n      0x00\n      mstore\n      keccak256(0x00, 0x20)\n      swap1\n    tag_76:\n      dup2\n      sload\n      dup2\n      mstore\n      0x20\n      add\n      swap1\n      0x01\n      add\n      swap1\n      dup1\n      dup4\n      gt\n      tag_76\n      jumpi\n    tag_75:\n      pop\n      pop\n      pop\n      pop\n      pop\n      swap1\n      pop\n        /* \"Contracts/Arrays.sol\":493:609  function GetTestArray1Push() public  returns(uint[] memory){... */\n      swap1\n      jump\t// out\n        /* \"#utility.yul\":88:205   */\n    tag_78:\n        /* \"#utility.yul\":197:198   */\n      0x00\n        /* \"#utility.yul\":194:195   */\n      dup1\n        /* \"#utility.yul\":187:199   */\n      revert\n        /* \"#utility.yul\":334:411   */\n    tag_80:\n        /* \"#utility.yul\":371:378   */\n      0x00\n        /* \"#utility.yul\":400:405   */\n      dup2\n        /* \"#utility.yul\":389:405   */\n      swap1\n      pop\n        /* \"#utility.yul\":334:411   */\n      swap2\n      swap1\n      pop\n      jump\t// out\n        /* \"#utility.yul\":417:539   */\n    tag_81:\n        /* \"#utility.yul\":490:514   */\n      tag_109\n        /* \"#utility.yul\":508:513   */\n      dup2\n        /* \"#utility.yul\":490:514   */\n      tag_80\n      jump\t// in\n    tag_109:\n        /* \"#utility.yul\":483:488   */\n      dup2\n        /* \"#utility.yul\":480:515   */\n      eq\n        /* \"#utility.yul\":470:533   */\n      tag_110\n      jumpi\n        /* \"#utility.yul\":529:530   */\n      0x00\n        /* \"#utility.yul\":526:527   */\n      dup1\n        /* \"#utility.yul\":519:531   */\n      revert\n        /* \"#utility.yul\":470:533   */\n    tag_110:\n        /* \"#utility.yul\":417:539   */\n      pop\n      jump\t// out\n        /* \"#utility.yul\":545:684   */\n    tag_82:\n        /* \"#utility.yul\":591:596   */\n      0x00\n        /* \"#utility.yul\":629:635   */\n      dup2\n        /* \"#utility.yul\":616:636   */\n      calldataload\n        /* \"#utility.yul\":607:636   */\n      swap1\n      pop\n        /* \"#utility.yul\":645:678   */\n      tag_112\n        /* \"#utility.yul\":672:677   */\n      dup2\n        /* \"#utility.yul\":645:678   */\n      tag_81\n      jump\t// in\n    tag_112:\n        /* \"#utility.yul\":545:684   */\n      swap3\n      swap2\n      pop\n      pop\n      jump\t// out\n        /* \"#utility.yul\":690:1019   */\n    tag_15:\n        /* \"#utility.yul\":749:755   */\n      0x00\n        /* \"#utility.yul\":798:800   */\n      0x20\n        /* \"#utility.yul\":786:795   */\n      dup3\n        /* \"#utility.yul\":777:784   */\n      dup5\n        /* \"#utility.yul\":773:796   */\n      sub\n        /* \"#utility.yul\":769:801   */\n      slt\n        /* \"#utility.yul\":766:885   */\n      iszero\n      tag_114\n      jumpi\n        /* \"#utility.yul\":804:883   */\n      tag_115\n      tag_78\n      jump\t// in\n    tag_115:\n        /* \"#utility.yul\":766:885   */\n    tag_114:\n        /* \"#utility.yul\":924:925   */\n      0x00\n        /* \"#utility.yul\":949:1002   */\n      tag_116\n        /* \"#utility.yul\":994:1001   */\n      dup5\n        /* \"#utility.yul\":985:991   */\n      dup3\n        /* \"#utility.yul\":974:983   */\n      dup6\n        /* \"#utility.yul\":970:992   */\n      add\n        /* \"#utility.yul\":949:1002   */\n      tag_82\n      jump\t// in\n    tag_116:\n        /* \"#utility.yul\":939:1002   */\n      swap2\n      pop\n        /* \"#utility.yul\":895:1012   */\n      pop\n        /* \"#utility.yul\":690:1019   */\n      swap3\n      swap2\n      pop\n      pop\n      jump\t// out\n        /* \"#utility.yul\":1025:1143   */\n    tag_83:\n        /* \"#utility.yul\":1112:1136   */\n      tag_118\n        /* \"#utility.yul\":1130:1135   */\n      dup2\n        /* \"#utility.yul\":1112:1136   */\n      tag_80\n      jump\t// in\n    tag_118:\n        /* \"#utility.yul\":1107:1110   */\n      dup3\n        /* \"#utility.yul\":1100:1137   */\n      mstore\n        /* \"#utility.yul\":1025:1143   */\n      pop\n      pop\n      jump\t// out\n        /* \"#utility.yul\":1149:1371   */\n    tag_21:\n        /* \"#utility.yul\":1242:1246   */\n      0x00\n        /* \"#utility.yul\":1280:1282   */\n      0x20\n        /* \"#utility.yul\":1269:1278   */\n      dup3\n        /* \"#utility.yul\":1265:1283   */\n      add\n        /* \"#utility.yul\":1257:1283   */\n      swap1\n      pop\n        /* \"#utility.yul\":1293:1364   */\n      tag_120\n        /* \"#utility.yul\":1361:1362   */\n      0x00\n        /* \"#utility.yul\":1350:1359   */\n      dup4\n        /* \"#utility.yul\":1346:1363   */\n      add\n        /* \"#utility.yul\":1337:1343   */\n      dup5\n        /* \"#utility.yul\":1293:1364   */\n      tag_83\n      jump\t// in\n    tag_120:\n        /* \"#utility.yul\":1149:1371   */\n      swap3\n      swap2\n      pop\n      pop\n      jump\t// out\n        /* \"#utility.yul\":1377:1516   */\n    tag_84:\n        /* \"#utility.yul\":1469:1475   */\n      0x00\n        /* \"#utility.yul\":1503:1508   */\n      dup2\n        /* \"#utility.yul\":1497:1509   */\n      mload\n        /* \"#utility.yul\":1487:1509   */\n      swap1\n      pop\n        /* \"#utility.yul\":1377:1516   */\n      swap2\n      swap1\n      pop\n      jump\t// out\n        /* \"#utility.yul\":1522:1731   */\n    tag_85:\n        /* \"#utility.yul\":1646:1657   */\n      0x00\n        /* \"#utility.yul\":1680:1686   */\n      dup3\n        /* \"#utility.yul\":1675:1678   */\n      dup3\n        /* \"#utility.yul\":1668:1687   */\n      mstore\n        /* \"#utility.yul\":1720:1724   */\n      0x20\n        /* \"#utility.yul\":1715:1718   */\n      dup3\n        /* \"#utility.yul\":1711:1725   */\n      add\n        /* \"#utility.yul\":1696:1725   */\n      swap1\n      pop\n        /* \"#utility.yul\":1522:1731   */\n      swap3\n      swap2\n      pop\n      pop\n      jump\t// out\n        /* \"#utility.yul\":1737:1894   */\n    tag_86:\n        /* \"#utility.yul\":1829:1833   */\n      0x00\n        /* \"#utility.yul\":1852:1855   */\n      dup2\n        /* \"#utility.yul\":1844:1855   */\n      swap1\n      pop\n        /* \"#utility.yul\":1882:1886   */\n      0x20\n        /* \"#utility.yul\":1877:1880   */\n      dup3\n        /* \"#utility.yul\":1873:1887   */\n      add\n        /* \"#utility.yul\":1865:1887   */\n      swap1\n      pop\n        /* \"#utility.yul\":1737:1894   */\n      swap2\n      swap1\n      pop\n      jump\t// out\n        /* \"#utility.yul\":1900:2014   */\n    tag_87:\n        /* \"#utility.yul\":1967:1973   */\n      0x00\n        /* \"#utility.yul\":2001:2006   */\n      dup2\n        /* \"#utility.yul\":1995:2007   */\n      mload\n        /* \"#utility.yul\":1985:2007   */\n      swap1\n      pop\n        /* \"#utility.yul\":1900:2014   */\n      swap2\n      swap1\n      pop\n      jump\t// out\n        /* \"#utility.yul\":2020:2194   */\n    tag_88:\n        /* \"#utility.yul\":2109:2120   */\n      0x00\n        /* \"#utility.yul\":2143:2149   */\n      dup3\n        /* \"#utility.yul\":2138:2141   */\n      dup3\n        /* \"#utility.yul\":2131:2150   */\n      mstore\n        /* \"#utility.yul\":2183:2187   */\n      0x20\n        /* \"#utility.yul\":2178:2181   */\n      dup3\n        /* \"#utility.yul\":2174:2188   */\n      add\n        /* \"#utility.yul\":2159:2188   */\n      swap1\n      pop\n        /* \"#utility.yul\":2020:2194   */\n      swap3\n      swap2\n      pop\n      pop\n      jump\t// out\n        /* \"#utility.yul\":2200:2332   */\n    tag_89:\n        /* \"#utility.yul\":2267:2271   */\n      0x00\n        /* \"#utility.yul\":2290:2293   */\n      dup2\n        /* \"#utility.yul\":2282:2293   */\n      swap1\n      pop\n        /* \"#utility.yul\":2320:2324   */\n      0x20\n        /* \"#utility.yul\":2315:2318   */\n      dup3\n        /* \"#utility.yul\":2311:2325   */\n      add\n        /* \"#utility.yul\":2303:2325   */\n      swap1\n      pop\n        /* \"#utility.yul\":2200:2332   */\n      swap2\n      swap1\n      pop\n      jump\t// out\n        /* \"#utility.yul\":2338:2446   */\n    tag_90:\n        /* \"#utility.yul\":2415:2439   */\n      tag_128\n        /* \"#utility.yul\":2433:2438   */\n      dup2\n        /* \"#utility.yul\":2415:2439   */\n      tag_80\n      jump\t// in\n    tag_128:\n        /* \"#utility.yul\":2410:2413   */\n      dup3\n        /* \"#utility.yul\":2403:2440   */\n      mstore\n        /* \"#utility.yul\":2338:2446   */\n      pop\n      pop\n      jump\t// out\n        /* \"#utility.yul\":2452:2631   */\n    tag_91:\n        /* \"#utility.yul\":2521:2531   */\n      0x00\n        /* \"#utility.yul\":2542:2588   */\n      tag_130\n        /* \"#utility.yul\":2584:2587   */\n      dup4\n        /* \"#utility.yul\":2576:2582   */\n      dup4\n        /* \"#utility.yul\":2542:2588   */\n      tag_90\n      jump\t// in\n    tag_130:\n        /* \"#utility.yul\":2620:2624   */\n      0x20\n        /* \"#utility.yul\":2615:2618   */\n      dup4\n        /* \"#utility.yul\":2611:2625   */\n      add\n        /* \"#utility.yul\":2597:2625   */\n      swap1\n      pop\n        /* \"#utility.yul\":2452:2631   */\n      swap3\n      swap2\n      pop\n      pop\n      jump\t// out\n        /* \"#utility.yul\":2637:2750   */\n    tag_92:\n        /* \"#utility.yul\":2707:2711   */\n      0x00\n        /* \"#utility.yul\":2739:2743   */\n      0x20\n        /* \"#utility.yul\":2734:2737   */\n      dup3\n        /* \"#utility.yul\":2730:2744   */\n      add\n        /* \"#utility.yul\":2722:2744   */\n      swap1\n      pop\n        /* \"#utility.yul\":2637:2750   */\n      swap2\n      swap1\n      pop\n      jump\t// out\n        /* \"#utility.yul\":2786:3498   */\n    tag_93:\n        /* \"#utility.yul\":2895:2898   */\n      0x00\n        /* \"#utility.yul\":2924:2978   */\n      tag_133\n        /* \"#utility.yul\":2972:2977   */\n      dup3\n        /* \"#utility.yul\":2924:2978   */\n      tag_87\n      jump\t// in\n    tag_133:\n        /* \"#utility.yul\":2994:3070   */\n      tag_134\n        /* \"#utility.yul\":3063:3069   */\n      dup2\n        /* \"#utility.yul\":3058:3061   */\n      dup6\n        /* \"#utility.yul\":2994:3070   */\n      tag_88\n      jump\t// in\n    tag_134:\n        /* \"#utility.yul\":2987:3070   */\n      swap4\n      pop\n        /* \"#utility.yul\":3094:3150   */\n      tag_135\n        /* \"#utility.yul\":3144:3149   */\n      dup4\n        /* \"#utility.yul\":3094:3150   */\n      tag_89\n      jump\t// in\n    tag_135:\n        /* \"#utility.yul\":3173:3180   */\n      dup1\n        /* \"#utility.yul\":3204:3205   */\n      0x00\n        /* \"#utility.yul\":3189:3473   */\n    tag_136:\n        /* \"#utility.yul\":3214:3220   */\n      dup4\n        /* \"#utility.yul\":3211:3212   */\n      dup2\n        /* \"#utility.yul\":3208:3221   */\n      lt\n        /* \"#utility.yul\":3189:3473   */\n      iszero\n      tag_138\n      jumpi\n        /* \"#utility.yul\":3290:3296   */\n      dup2\n        /* \"#utility.yul\":3284:3297   */\n      mload\n        /* \"#utility.yul\":3317:3380   */\n      tag_139\n        /* \"#utility.yul\":3376:3379   */\n      dup9\n        /* \"#utility.yul\":3361:3374   */\n      dup3\n        /* \"#utility.yul\":3317:3380   */\n      tag_91\n      jump\t// in\n    tag_139:\n        /* \"#utility.yul\":3310:3380   */\n      swap8\n      pop\n        /* \"#utility.yul\":3403:3463   */\n      tag_140\n        /* \"#utility.yul\":3456:3462   */\n      dup4\n        /* \"#utility.yul\":3403:3463   */\n      tag_92\n      jump\t// in\n    tag_140:\n        /* \"#utility.yul\":3393:3463   */\n      swap3\n      pop\n        /* \"#utility.yul\":3249:3473   */\n      pop\n        /* \"#utility.yul\":3236:3237   */\n      0x01\n        /* \"#utility.yul\":3233:3234   */\n      dup2\n        /* \"#utility.yul\":3229:3238   */\n      add\n        /* \"#utility.yul\":3224:3238   */\n      swap1\n      pop\n        /* \"#utility.yul\":3189:3473   */\n      jump(tag_136)\n    tag_138:\n        /* \"#utility.yul\":3193:3207   */\n      pop\n        /* \"#utility.yul\":3489:3492   */\n      dup6\n        /* \"#utility.yul\":3482:3492   */\n      swap4\n      pop\n        /* \"#utility.yul\":2900:3498   */\n      pop\n      pop\n      pop\n        /* \"#utility.yul\":2786:3498   */\n      swap3\n      swap2\n      pop\n      pop\n      jump\t// out\n        /* \"#utility.yul\":3504:3760   */\n    tag_94:\n        /* \"#utility.yul\":3623:3633   */\n      0x00\n        /* \"#utility.yul\":3658:3754   */\n      tag_142\n        /* \"#utility.yul\":3750:3753   */\n      dup4\n        /* \"#utility.yul\":3742:3748   */\n      dup4\n        /* \"#utility.yul\":3658:3754   */\n      tag_93\n      jump\t// in\n    tag_142:\n        /* \"#utility.yul\":3644:3754   */\n      swap1\n      pop\n        /* \"#utility.yul\":3504:3760   */\n      swap3\n      swap2\n      pop\n      pop\n      jump\t// out\n        /* \"#utility.yul\":3766:3904   */\n    tag_95:\n        /* \"#utility.yul\":3861:3865   */\n      0x00\n        /* \"#utility.yul\":3893:3897   */\n      0x20\n        /* \"#utility.yul\":3888:3891   */\n      dup3\n        /* \"#utility.yul\":3884:3898   */\n      add\n        /* \"#utility.yul\":3876:3898   */\n      swap1\n      pop\n        /* \"#utility.yul\":3766:3904   */\n      swap2\n      swap1\n      pop\n      jump\t// out\n        /* \"#utility.yul\":3944:5055   */\n    tag_96:\n        /* \"#utility.yul\":4113:4116   */\n      0x00\n        /* \"#utility.yul\":4142:4221   */\n      tag_145\n        /* \"#utility.yul\":4215:4220   */\n      dup3\n        /* \"#utility.yul\":4142:4221   */\n      tag_84\n      jump\t// in\n    tag_145:\n        /* \"#utility.yul\":4237:4348   */\n      tag_146\n        /* \"#utility.yul\":4341:4347   */\n      dup2\n        /* \"#utility.yul\":4336:4339   */\n      dup6\n        /* \"#utility.yul\":4237:4348   */\n      tag_85\n      jump\t// in\n    tag_146:\n        /* \"#utility.yul\":4230:4348   */\n      swap4\n      pop\n        /* \"#utility.yul\":4374:4377   */\n      dup4\n        /* \"#utility.yul\":4419:4423   */\n      0x20\n        /* \"#utility.yul\":4411:4417   */\n      dup3\n        /* \"#utility.yul\":4407:4424   */\n      mul\n        /* \"#utility.yul\":4402:4405   */\n      dup6\n        /* \"#utility.yul\":4398:4425   */\n      add\n        /* \"#utility.yul\":4449:4530   */\n      tag_147\n        /* \"#utility.yul\":4524:4529   */\n      dup6\n        /* \"#utility.yul\":4449:4530   */\n      tag_86\n      jump\t// in\n    tag_147:\n        /* \"#utility.yul\":4553:4560   */\n      dup1\n        /* \"#utility.yul\":4584:4585   */\n      0x00\n        /* \"#utility.yul\":4569:5010   */\n    tag_148:\n        /* \"#utility.yul\":4594:4600   */\n      dup6\n        /* \"#utility.yul\":4591:4592   */\n      dup2\n        /* \"#utility.yul\":4588:4601   */\n      lt\n        /* \"#utility.yul\":4569:5010   */\n      iszero\n      tag_150\n      jumpi\n        /* \"#utility.yul\":4665:4674   */\n      dup5\n        /* \"#utility.yul\":4659:4663   */\n      dup5\n        /* \"#utility.yul\":4655:4675   */\n      sub\n        /* \"#utility.yul\":4650:4653   */\n      dup10\n        /* \"#utility.yul\":4643:4676   */\n      mstore\n        /* \"#utility.yul\":4716:4722   */\n      dup2\n        /* \"#utility.yul\":4710:4723   */\n      mload\n        /* \"#utility.yul\":4744:4858   */\n      tag_151\n        /* \"#utility.yul\":4853:4857   */\n      dup6\n        /* \"#utility.yul\":4838:4851   */\n      dup3\n        /* \"#utility.yul\":4744:4858   */\n      tag_94\n      jump\t// in\n    tag_151:\n        /* \"#utility.yul\":4736:4858   */\n      swap5\n      pop\n        /* \"#utility.yul\":4881:4966   */\n      tag_152\n        /* \"#utility.yul\":4959:4965   */\n      dup4\n        /* \"#utility.yul\":4881:4966   */\n      tag_95\n      jump\t// in\n    tag_152:\n        /* \"#utility.yul\":4871:4966   */\n      swap3\n      pop\n        /* \"#utility.yul\":4995:4999   */\n      0x20\n        /* \"#utility.yul\":4990:4993   */\n      dup11\n        /* \"#utility.yul\":4986:5000   */\n      add\n        /* \"#utility.yul\":4979:5000   */\n      swap10\n      pop\n        /* \"#utility.yul\":4629:5010   */\n      pop\n        /* \"#utility.yul\":4616:4617   */\n      0x01\n        /* \"#utility.yul\":4613:4614   */\n      dup2\n        /* \"#utility.yul\":4609:4618   */\n      add\n        /* \"#utility.yul\":4604:4618   */\n      swap1\n      pop\n        /* \"#utility.yul\":4569:5010   */\n      jump(tag_148)\n    tag_150:\n        /* \"#utility.yul\":4573:4587   */\n      pop\n        /* \"#utility.yul\":5026:5030   */\n      dup3\n        /* \"#utility.yul\":5019:5030   */\n      swap8\n      pop\n        /* \"#utility.yul\":5046:5049   */\n      dup8\n        /* \"#utility.yul\":5039:5049   */\n      swap6\n      pop\n        /* \"#utility.yul\":4118:5055   */\n      pop\n      pop\n      pop\n      pop\n      pop\n        /* \"#utility.yul\":3944:5055   */\n      swap3\n      swap2\n      pop\n      pop\n      jump\t// out\n        /* \"#utility.yul\":5061:5534   */\n    tag_25:\n        /* \"#utility.yul\":5254:5258   */\n      0x00\n        /* \"#utility.yul\":5292:5294   */\n      0x20\n        /* \"#utility.yul\":5281:5290   */\n      dup3\n        /* \"#utility.yul\":5277:5295   */\n      add\n        /* \"#utility.yul\":5269:5295   */\n      swap1\n      pop\n        /* \"#utility.yul\":5341:5350   */\n      dup2\n        /* \"#utility.yul\":5335:5339   */\n      dup2\n        /* \"#utility.yul\":5331:5351   */\n      sub\n        /* \"#utility.yul\":5327:5328   */\n      0x00\n        /* \"#utility.yul\":5316:5325   */\n      dup4\n        /* \"#utility.yul\":5312:5329   */\n      add\n        /* \"#utility.yul\":5305:5352   */\n      mstore\n        /* \"#utility.yul\":5369:5527   */\n      tag_154\n        /* \"#utility.yul\":5522:5526   */\n      dup2\n        /* \"#utility.yul\":5513:5519   */\n      dup5\n        /* \"#utility.yul\":5369:5527   */\n      tag_96\n      jump\t// in\n    tag_154:\n        /* \"#utility.yul\":5361:5527   */\n      swap1\n      pop\n        /* \"#utility.yul\":5061:5534   */\n      swap3\n      swap2\n      pop\n      pop\n      jump\t// out\n        /* \"#utility.yul\":5540:5724   */\n    tag_97:\n        /* \"#utility.yul\":5639:5650   */\n      0x00\n        /* \"#utility.yul\":5673:5679   */\n      dup3\n        /* \"#utility.yul\":5668:5671   */\n      dup3\n        /* \"#utility.yul\":5661:5680   */\n      mstore\n        /* \"#utility.yul\":5713:5717   */\n      0x20\n        /* \"#utility.yul\":5708:5711   */\n      dup3\n        /* \"#utility.yul\":5704:5718   */\n      add\n        /* \"#utility.yul\":5689:5718   */\n      swap1\n      pop\n        /* \"#utility.yul\":5540:5724   */\n      swap3\n      swap2\n      pop\n      pop\n      jump\t// out\n        /* \"#utility.yul\":5760:6492   */\n    tag_98:\n        /* \"#utility.yul\":5879:5882   */\n      0x00\n        /* \"#utility.yul\":5908:5962   */\n      tag_157\n        /* \"#utility.yul\":5956:5961   */\n      dup3\n        /* \"#utility.yul\":5908:5962   */\n      tag_87\n      jump\t// in\n    tag_157:\n        /* \"#utility.yul\":5978:6064   */\n      tag_158\n        /* \"#utility.yul\":6057:6063   */\n      dup2\n        /* \"#utility.yul\":6052:6055   */\n      dup6\n        /* \"#utility.yul\":5978:6064   */\n      tag_97\n      jump\t// in\n    tag_158:\n        /* \"#utility.yul\":5971:6064   */\n      swap4\n      pop\n        /* \"#utility.yul\":6088:6144   */\n      tag_159\n        /* \"#utility.yul\":6138:6143   */\n      dup4\n        /* \"#utility.yul\":6088:6144   */\n      tag_89\n      jump\t// in\n    tag_159:\n        /* \"#utility.yul\":6167:6174   */\n      dup1\n        /* \"#utility.yul\":6198:6199   */\n      0x00\n        /* \"#utility.yul\":6183:6467   */\n    tag_160:\n        /* \"#utility.yul\":6208:6214   */\n      dup4\n        /* \"#utility.yul\":6205:6206   */\n      dup2\n        /* \"#utility.yul\":6202:6215   */\n      lt\n        /* \"#utility.yul\":6183:6467   */\n      iszero\n      tag_162\n      jumpi\n        /* \"#utility.yul\":6284:6290   */\n      dup2\n        /* \"#utility.yul\":6278:6291   */\n      mload\n        /* \"#utility.yul\":6311:6374   */\n      tag_163\n        /* \"#utility.yul\":6370:6373   */\n      dup9\n        /* \"#utility.yul\":6355:6368   */\n      dup3\n        /* \"#utility.yul\":6311:6374   */\n      tag_91\n      jump\t// in\n    tag_163:\n        /* \"#utility.yul\":6304:6374   */\n      swap8\n      pop\n        /* \"#utility.yul\":6397:6457   */\n      tag_164\n        /* \"#utility.yul\":6450:6456   */\n      dup4\n        /* \"#utility.yul\":6397:6457   */\n      tag_92\n      jump\t// in\n    tag_164:\n        /* \"#utility.yul\":6387:6457   */\n      swap3\n      pop\n        /* \"#utility.yul\":6243:6467   */\n      pop\n        /* \"#utility.yul\":6230:6231   */\n      0x01\n        /* \"#utility.yul\":6227:6228   */\n      dup2\n        /* \"#utility.yul\":6223:6232   */\n      add\n        /* \"#utility.yul\":6218:6232   */\n      swap1\n      pop\n        /* \"#utility.yul\":6183:6467   */\n      jump(tag_160)\n    tag_162:\n        /* \"#utility.yul\":6187:6201   */\n      pop\n        /* \"#utility.yul\":6483:6486   */\n      dup6\n        /* \"#utility.yul\":6476:6486   */\n      swap4\n      pop\n        /* \"#utility.yul\":5884:6492   */\n      pop\n      pop\n      pop\n        /* \"#utility.yul\":5760:6492   */\n      swap3\n      swap2\n      pop\n      pop\n      jump\t// out\n        /* \"#utility.yul\":6498:6871   */\n    tag_29:\n        /* \"#utility.yul\":6641:6645   */\n      0x00\n        /* \"#utility.yul\":6679:6681   */\n      0x20\n        /* \"#utility.yul\":6668:6677   */\n      dup3\n        /* \"#utility.yul\":6664:6682   */\n      add\n        /* \"#utility.yul\":6656:6682   */\n      swap1\n      pop\n        /* \"#utility.yul\":6728:6737   */\n      dup2\n        /* \"#utility.yul\":6722:6726   */\n      dup2\n        /* \"#utility.yul\":6718:6738   */\n      sub\n        /* \"#utility.yul\":6714:6715   */\n      0x00\n        /* \"#utility.yul\":6703:6712   */\n      dup4\n        /* \"#utility.yul\":6699:6716   */\n      add\n        /* \"#utility.yul\":6692:6739   */\n      mstore\n        /* \"#utility.yul\":6756:6864   */\n      tag_166\n        /* \"#utility.yul\":6859:6863   */\n      dup2\n        /* \"#utility.yul\":6850:6856   */\n      dup5\n        /* \"#utility.yul\":6756:6864   */\n      tag_98\n      jump\t// in\n    tag_166:\n        /* \"#utility.yul\":6748:6864   */\n      swap1\n      pop\n        /* \"#utility.yul\":6498:6871   */\n      swap3\n      swap2\n      pop\n      pop\n      jump\t// out\n        /* \"#utility.yul\":6877:7003   */\n    tag_99:\n        /* \"#utility.yul\":6914:6921   */\n      0x00\n        /* \"#utility.yul\":6954:6996   */\n      0xffffffffffffffffffffffffffffffffffffffff\n        /* \"#utility.yul\":6947:6952   */\n      dup3\n        /* \"#utility.yul\":6943:6997   */\n      and\n        /* \"#utility.yul\":6932:6997   */\n      swap1\n      pop\n        /* \"#utility.yul\":6877:7003   */\n      swap2\n      swap1\n      pop\n      jump\t// out\n        /* \"#utility.yul\":7009:7105   */\n    tag_100:\n        /* \"#utility.yul\":7046:7053   */\n      0x00\n        /* \"#utility.yul\":7075:7099   */\n      tag_169\n        /* \"#utility.yul\":7093:7098   */\n      dup3\n        /* \"#utility.yul\":7075:7099   */\n      tag_99\n      jump\t// in\n    tag_169:\n        /* \"#utility.yul\":7064:7099   */\n      swap1\n      pop\n        /* \"#utility.yul\":7009:7105   */\n      swap2\n      swap1\n      pop\n      jump\t// out\n        /* \"#utility.yul\":7111:7233   */\n    tag_101:\n        /* \"#utility.yul\":7184:7208   */\n      tag_171\n        /* \"#utility.yul\":7202:7207   */\n      dup2\n        /* \"#utility.yul\":7184:7208   */\n      tag_100\n      jump\t// in\n    tag_171:\n        /* \"#utility.yul\":7177:7182   */\n      dup2\n        /* \"#utility.yul\":7174:7209   */\n      eq\n        /* \"#utility.yul\":7164:7227   */\n      tag_172\n      jumpi\n        /* \"#utility.yul\":7223:7224   */\n      0x00\n        /* \"#utility.yul\":7220:7221   */\n      dup1\n        /* \"#utility.yul\":7213:7225   */\n      revert\n        /* \"#utility.yul\":7164:7227   */\n    tag_172:\n        /* \"#utility.yul\":7111:7233   */\n      pop\n      jump\t// out\n        /* \"#utility.yul\":7239:7378   */\n    tag_102:\n        /* \"#utility.yul\":7285:7290   */\n      0x00\n        /* \"#utility.yul\":7323:7329   */\n      dup2\n        /* \"#utility.yul\":7310:7330   */\n      calldataload\n        /* \"#utility.yul\":7301:7330   */\n      swap1\n      pop\n        /* \"#utility.yul\":7339:7372   */\n      tag_174\n        /* \"#utility.yul\":7366:7371   */\n      dup2\n        /* \"#utility.yul\":7339:7372   */\n      tag_101\n      jump\t// in\n    tag_174:\n        /* \"#utility.yul\":7239:7378   */\n      swap3\n      swap2\n      pop\n      pop\n      jump\t// out\n        /* \"#utility.yul\":7384:7713   */\n    tag_35:\n        /* \"#utility.yul\":7443:7449   */\n      0x00\n        /* \"#utility.yul\":7492:7494   */\n      0x20\n        /* \"#utility.yul\":7480:7489   */\n      dup3\n        /* \"#utility.yul\":7471:7478   */\n      dup5\n        /* \"#utility.yul\":7467:7490   */\n      sub\n        /* \"#utility.yul\":7463:7495   */\n      slt\n        /* \"#utility.yul\":7460:7579   */\n      iszero\n      tag_176\n      jumpi\n        /* \"#utility.yul\":7498:7577   */\n      tag_177\n      tag_78\n      jump\t// in\n    tag_177:\n        /* \"#utility.yul\":7460:7579   */\n    tag_176:\n        /* \"#utility.yul\":7618:7619   */\n      0x00\n        /* \"#utility.yul\":7643:7696   */\n      tag_178\n        /* \"#utility.yul\":7688:7695   */\n      dup5\n        /* \"#utility.yul\":7679:7685   */\n      dup3\n        /* \"#utility.yul\":7668:7677   */\n      dup6\n        /* \"#utility.yul\":7664:7686   */\n      add\n        /* \"#utility.yul\":7643:7696   */\n      tag_102\n      jump\t// in\n    tag_178:\n        /* \"#utility.yul\":7633:7696   */\n      swap2\n      pop\n        /* \"#utility.yul\":7589:7706   */\n      pop\n        /* \"#utility.yul\":7384:7713   */\n      swap3\n      swap2\n      pop\n      pop\n      jump\t// out\n        /* \"#utility.yul\":7719:8193   */\n    tag_40:\n        /* \"#utility.yul\":7787:7793   */\n      0x00\n        /* \"#utility.yul\":7795:7801   */\n      dup1\n        /* \"#utility.yul\":7844:7846   */\n      0x40\n        /* \"#utility.yul\":7832:7841   */\n      dup4\n        /* \"#utility.yul\":7823:7830   */\n      dup6\n        /* \"#utility.yul\":7819:7842   */\n      sub\n        /* \"#utility.yul\":7815:7847   */\n      slt\n        /* \"#utility.yul\":7812:7931   */\n      iszero\n      tag_180\n      jumpi\n        /* \"#utility.yul\":7850:7929   */\n      tag_181\n      tag_78\n      jump\t// in\n    tag_181:\n        /* \"#utility.yul\":7812:7931   */\n    tag_180:\n        /* \"#utility.yul\":7970:7971   */\n      0x00\n        /* \"#utility.yul\":7995:8048   */\n      tag_182\n        /* \"#utility.yul\":8040:8047   */\n      dup6\n        /* \"#utility.yul\":8031:8037   */\n      dup3\n        /* \"#utility.yul\":8020:8029   */\n      dup7\n        /* \"#utility.yul\":8016:8038   */\n      add\n        /* \"#utility.yul\":7995:8048   */\n      tag_82\n      jump\t// in\n    tag_182:\n        /* \"#utility.yul\":7985:8048   */\n      swap3\n      pop\n        /* \"#utility.yul\":7941:8058   */\n      pop\n        /* \"#utility.yul\":8097:8099   */\n      0x20\n        /* \"#utility.yul\":8123:8176   */\n      tag_183\n        /* \"#utility.yul\":8168:8175   */\n      dup6\n        /* \"#utility.yul\":8159:8165   */\n      dup3\n        /* \"#utility.yul\":8148:8157   */\n      dup7\n        /* \"#utility.yul\":8144:8166   */\n      add\n        /* \"#utility.yul\":8123:8176   */\n      tag_82\n      jump\t// in\n    tag_183:\n        /* \"#utility.yul\":8113:8176   */\n      swap2\n      pop\n        /* \"#utility.yul\":8068:8186   */\n      pop\n        /* \"#utility.yul\":7719:8193   */\n      swap3\n      pop\n      swap3\n      swap1\n      pop\n      jump\t// out\n        /* \"#utility.yul\":8199:8379   */\n    tag_61:\n        /* \"#utility.yul\":8247:8324   */\n      0x4e487b7100000000000000000000000000000000000000000000000000000000\n        /* \"#utility.yul\":8244:8245   */\n      0x00\n        /* \"#utility.yul\":8237:8325   */\n      mstore\n        /* \"#utility.yul\":8344:8348   */\n      0x31\n        /* \"#utility.yul\":8341:8342   */\n      0x04\n        /* \"#utility.yul\":8334:8349   */\n      mstore\n        /* \"#utility.yul\":8368:8372   */\n      0x24\n        /* \"#utility.yul\":8365:8366   */\n      0x00\n        /* \"#utility.yul\":8358:8373   */\n      revert\n\n    auxdata: 0xa264697066735822122026d820d484c26a43321ba23266bde6074df17c65ce11a7224ec976f7fc156ba464736f6c634300081a0033\n}\n",
				"bytecode": {
					"linkReferences": {},
					"object": "60806040526040518060c00160405280600160ff168152602001600260ff168152602001600360ff168152602001600460ff168152602001600560ff168152602001600660ff168152505f9060066100589291906100dc565b5060405180604001604052806040518060600160405280600160ff168152602001600260ff168152602001600360ff1681525081526020016040518060600160405280600460ff168152602001600560ff168152602001600660ff1681525081525060019060026100ca92919061012c565b503480156100d6575f80fd5b50610231565b828054828255905f5260205f2090810192821561011b579160200282015b8281111561011a578251829060ff169055916020019190600101906100fa565b5b5090506101289190610185565b5090565b828054828255905f5260205f20908101928215610174579160200282015b82811115610173578251829060036101639291906101a0565b509160200191906001019061014a565b5b50905061018191906101f0565b5090565b5b8082111561019c575f815f905550600101610186565b5090565b828054828255905f5260205f209081019282156101df579160200282015b828111156101de578251829060ff169055916020019190600101906101be565b5b5090506101ec9190610185565b5090565b5b8082111561020f575f81816102069190610213565b506001016101f1565b5090565b5080545f8255905f5260205f209081019061022e9190610185565b50565b6108428061023e5f395ff3fe608060405234801561000f575f80fd5b5060043610610091575f3560e01c80635761edc3116100645780635761edc31461011d578063600a6ef61461013b578063b74f3ac11461016b578063cbc321e21461019b578063ce19c0c8146101b957610091565b806311f4d567146100955780631de5fe09146100b157806327362653146100e157806335834738146100ff575b5f80fd5b6100af60048036038101906100aa91906104ab565b6101d7565b005b6100cb60048036038101906100c691906104ab565b61021c565b6040516100d891906104e5565b60405180910390f35b6100e961023b565b6040516100f69190610670565b60405180910390f35b6101076102d5565b60405161011491906106fc565b60405180910390f35b61012561034e565b60405161013291906104e5565b60405180910390f35b61015560048036038101906101509190610776565b610359565b60405161016291906104e5565b60405180910390f35b610185600480360381019061018091906107a1565b61036e565b60405161019291906104e5565b60405180910390f35b6101a36103a4565b6040516101b091906106fc565b60405180910390f35b6101c16103f9565b6040516101ce91906106fc565b60405180910390f35b8060025f3373ffffffffffffffffffffffffffffffffffffffff1673ffffffffffffffffffffffffffffffffffffffff1681526020019081526020015f208190555050565b5f818154811061022a575f80fd5b905f5260205f20015f915090505481565b60606001805480602002602001604051908101604052809291908181526020015f905b828210156102cc578382905f5260205f20018054806020026020016040519081016040528092919081815260200182805480156102b857602002820191905f5260205f20905b8154815260200190600101908083116102a4575b50505050508152602001906001019061025e565b50505050905090565b60605f8054806102e8576102e76107df565b5b600190038181905f5260205f20015f905590555f80548060200260200160405190810160405280929190818152602001828054801561034457602002820191905f5260205f20905b815481526020019060010190808311610330575b5050505050905090565b5f8080549050905090565b6002602052805f5260405f205f915090505481565b6001828154811061037d575f80fd5b905f5260205f20018181548110610392575f80fd5b905f5260205f20015f91509150505481565b60605f8054806020026020016040519081016040528092919081815260200182805480156103ef57602002820191905f5260205f20905b8154815260200190600101908083116103db575b5050505050905090565b60605f6007908060018154018082558091505060019003905f5260205f20015f90919091909150555f80548060200260200160405190810160405280929190818152602001828054801561046a57602002820191905f5260205f20905b815481526020019060010190808311610456575b5050505050905090565b5f80fd5b5f819050919050565b61048a81610478565b8114610494575f80fd5b50565b5f813590506104a581610481565b92915050565b5f602082840312156104c0576104bf610474565b5b5f6104cd84828501610497565b91505092915050565b6104df81610478565b82525050565b5f6020820190506104f85f8301846104d6565b92915050565b5f81519050919050565b5f82825260208201905092915050565b5f819050602082019050919050565b5f81519050919050565b5f82825260208201905092915050565b5f819050602082019050919050565b61055981610478565b82525050565b5f61056a8383610550565b60208301905092915050565b5f602082019050919050565b5f61058c82610527565b6105968185610531565b93506105a183610541565b805f5b838110156105d15781516105b8888261055f565b97506105c383610576565b9250506001810190506105a4565b5085935050505092915050565b5f6105e98383610582565b905092915050565b5f602082019050919050565b5f610607826104fe565b6106118185610508565b93508360208202850161062385610518565b805f5b8581101561065e578484038952815161063f85826105de565b945061064a836105f1565b925060208a01995050600181019050610626565b50829750879550505050505092915050565b5f6020820190508181035f83015261068881846105fd565b905092915050565b5f82825260208201905092915050565b5f6106aa82610527565b6106b48185610690565b93506106bf83610541565b805f5b838110156106ef5781516106d6888261055f565b97506106e183610576565b9250506001810190506106c2565b5085935050505092915050565b5f6020820190508181035f83015261071481846106a0565b905092915050565b5f73ffffffffffffffffffffffffffffffffffffffff82169050919050565b5f6107458261071c565b9050919050565b6107558161073b565b811461075f575f80fd5b50565b5f813590506107708161074c565b92915050565b5f6020828403121561078b5761078a610474565b5b5f61079884828501610762565b91505092915050565b5f80604083850312156107b7576107b6610474565b5b5f6107c485828601610497565b92505060206107d585828601610497565b9150509250929050565b7f4e487b71000000000000000000000000000000000000000000000000000000005f52603160045260245ffdfea264697066735822122026d820d484c26a43321ba23266bde6074df17c65ce11a7224ec976f7fc156ba464736f6c634300081a0033",
					"opcodes": "PUSH1 0x80 PUSH1 0x40 MSTORE PUSH1 0x40 MLOAD DUP1 PUSH1 0xC0 ADD PUSH1 0x40 MSTORE DUP1 PUSH1 0x1 PUSH1 0xFF AND DUP2 MSTORE PUSH1 0x20 ADD PUSH1 0x2 PUSH1 0xFF AND DUP2 MSTORE PUSH1 0x20 ADD PUSH1 0x3 PUSH1 0xFF AND DUP2 MSTORE PUSH1 0x20 ADD PUSH1 0x4 PUSH1 0xFF AND DUP2 MSTORE PUSH1 0x20 ADD PUSH1 0x5 PUSH1 0xFF AND DUP2 MSTORE PUSH1 0x20 ADD PUSH1 0x6 PUSH1 0xFF AND DUP2 MSTORE POP PUSH0 SWAP1 PUSH1 0x6 PUSH2 0x58 SWAP3 SWAP2 SWAP1 PUSH2 0xDC JUMP JUMPDEST POP PUSH1 0x40 MLOAD DUP1 PUSH1 0x40 ADD PUSH1 0x40 MSTORE DUP1 PUSH1 0x40 MLOAD DUP1 PUSH1 0x60 ADD PUSH1 0x40 MSTORE DUP1 PUSH1 0x1 PUSH1 0xFF AND DUP2 MSTORE PUSH1 0x20 ADD PUSH1 0x2 PUSH1 0xFF AND DUP2 MSTORE PUSH1 0x20 ADD PUSH1 0x3 PUSH1 0xFF AND DUP2 MSTORE POP DUP2 MSTORE PUSH1 0x20 ADD PUSH1 0x40 MLOAD DUP1 PUSH1 0x60 ADD PUSH1 0x40 MSTORE DUP1 PUSH1 0x4 PUSH1 0xFF AND DUP2 MSTORE PUSH1 0x20 ADD PUSH1 0x5 PUSH1 0xFF AND DUP2 MSTORE PUSH1 0x20 ADD PUSH1 0x6 PUSH1 0xFF AND DUP2 MSTORE POP DUP2 MSTORE POP PUSH1 0x1 SWAP1 PUSH1 0x2 PUSH2 0xCA SWAP3 SWAP2 SWAP1 PUSH2 0x12C JUMP JUMPDEST POP CALLVALUE DUP1 ISZERO PUSH2 0xD6 JUMPI PUSH0 DUP1 REVERT JUMPDEST POP PUSH2 0x231 JUMP JUMPDEST DUP3 DUP1 SLOAD DUP3 DUP3 SSTORE SWAP1 PUSH0 MSTORE PUSH1 0x20 PUSH0 KECCAK256 SWAP1 DUP2 ADD SWAP3 DUP3 ISZERO PUSH2 0x11B JUMPI SWAP2 PUSH1 0x20 MUL DUP3 ADD JUMPDEST DUP3 DUP2 GT ISZERO PUSH2 0x11A JUMPI DUP3 MLOAD DUP3 SWAP1 PUSH1 0xFF AND SWAP1 SSTORE SWAP2 PUSH1 0x20 ADD SWAP2 SWAP1 PUSH1 0x1 ADD SWAP1 PUSH2 0xFA JUMP JUMPDEST JUMPDEST POP SWAP1 POP PUSH2 0x128 SWAP2 SWAP1 PUSH2 0x185 JUMP JUMPDEST POP SWAP1 JUMP JUMPDEST DUP3 DUP1 SLOAD DUP3 DUP3 SSTORE SWAP1 PUSH0 MSTORE PUSH1 0x20 PUSH0 KECCAK256 SWAP1 DUP2 ADD SWAP3 DUP3 ISZERO PUSH2 0x174 JUMPI SWAP2 PUSH1 0x20 MUL DUP3 ADD JUMPDEST DUP3 DUP2 GT ISZERO PUSH2 0x173 JUMPI DUP3 MLOAD DUP3 SWAP1 PUSH1 0x3 PUSH2 0x163 SWAP3 SWAP2 SWAP1 PUSH2 0x1A0 JUMP JUMPDEST POP SWAP2 PUSH1 0x20 ADD SWAP2 SWAP1 PUSH1 0x1 ADD SWAP1 PUSH2 0x14A JUMP JUMPDEST JUMPDEST POP SWAP1 POP PUSH2 0x181 SWAP2 SWAP1 PUSH2 0x1F0 JUMP JUMPDEST POP SWAP1 JUMP JUMPDEST JUMPDEST DUP1 DUP3 GT ISZERO PUSH2 0x19C JUMPI PUSH0 DUP2 PUSH0 SWAP1 SSTORE POP PUSH1 0x1 ADD PUSH2 0x186 JUMP JUMPDEST POP SWAP1 JUMP JUMPDEST DUP3 DUP1 SLOAD DUP3 DUP3 SSTORE SWAP1 PUSH0 MSTORE PUSH1 0x20 PUSH0 KECCAK256 SWAP1 DUP2 ADD SWAP3 DUP3 ISZERO PUSH2 0x1DF JUMPI SWAP2 PUSH1 0x20 MUL DUP3 ADD JUMPDEST DUP3 DUP2 GT ISZERO PUSH2 0x1DE JUMPI DUP3 MLOAD DUP3 SWAP1 PUSH1 0xFF AND SWAP1 SSTORE SWAP2 PUSH1 0x20 ADD SWAP2 SWAP1 PUSH1 0x1 ADD SWAP1 PUSH2 0x1BE JUMP JUMPDEST JUMPDEST POP SWAP1 POP PUSH2 0x1EC SWAP2 SWAP1 PUSH2 0x185 JUMP JUMPDEST POP SWAP1 JUMP JUMPDEST JUMPDEST DUP1 DUP3 GT ISZERO PUSH2 0x20F JUMPI PUSH0 DUP2 DUP2 PUSH2 0x206 SWAP2 SWAP1 PUSH2 0x213 JUMP JUMPDEST POP PUSH1 0x1 ADD PUSH2 0x1F1 JUMP JUMPDEST POP SWAP1 JUMP JUMPDEST POP DUP1 SLOAD PUSH0 DUP3 SSTORE SWAP1 PUSH0 MSTORE PUSH1 0x20 PUSH0 KECCAK256 SWAP1 DUP2 ADD SWAP1 PUSH2 0x22E SWAP2 SWAP1 PUSH2 0x185 JUMP JUMPDEST POP JUMP JUMPDEST PUSH2 0x842 DUP1 PUSH2 0x23E PUSH0 CODECOPY PUSH0 RETURN INVALID PUSH1 0x80 PUSH1 0x40 MSTORE CALLVALUE DUP1 ISZERO PUSH2 0xF JUMPI PUSH0 DUP1 REVERT JUMPDEST POP PUSH1 0x4 CALLDATASIZE LT PUSH2 0x91 JUMPI PUSH0 CALLDATALOAD PUSH1 0xE0 SHR DUP1 PUSH4 0x5761EDC3 GT PUSH2 0x64 JUMPI DUP1 PUSH4 0x5761EDC3 EQ PUSH2 0x11D JUMPI DUP1 PUSH4 0x600A6EF6 EQ PUSH2 0x13B JUMPI DUP1 PUSH4 0xB74F3AC1 EQ PUSH2 0x16B JUMPI DUP1 PUSH4 0xCBC321E2 EQ PUSH2 0x19B JUMPI DUP1 PUSH4 0xCE19C0C8 EQ PUSH2 0x1B9 JUMPI PUSH2 0x91 JUMP JUMPDEST DUP1 PUSH4 0x11F4D567 EQ PUSH2 0x95 JUMPI DUP1 PUSH4 0x1DE5FE09 EQ PUSH2 0xB1 JUMPI DUP1 PUSH4 0x27362653 EQ PUSH2 0xE1 JUMPI DUP1 PUSH4 0x35834738 EQ PUSH2 0xFF JUMPI JUMPDEST PUSH0 DUP1 REVERT JUMPDEST PUSH2 0xAF PUSH1 0x4 DUP1 CALLDATASIZE SUB DUP2 ADD SWAP1 PUSH2 0xAA SWAP2 SWAP1 PUSH2 0x4AB JUMP JUMPDEST PUSH2 0x1D7 JUMP JUMPDEST STOP JUMPDEST PUSH2 0xCB PUSH1 0x4 DUP1 CALLDATASIZE SUB DUP2 ADD SWAP1 PUSH2 0xC6 SWAP2 SWAP1 PUSH2 0x4AB JUMP JUMPDEST PUSH2 0x21C JUMP JUMPDEST PUSH1 0x40 MLOAD PUSH2 0xD8 SWAP2 SWAP1 PUSH2 0x4E5 JUMP JUMPDEST PUSH1 0x40 MLOAD DUP1 SWAP2 SUB SWAP1 RETURN JUMPDEST PUSH2 0xE9 PUSH2 0x23B JUMP JUMPDEST PUSH1 0x40 MLOAD PUSH2 0xF6 SWAP2 SWAP1 PUSH2 0x670 JUMP JUMPDEST PUSH1 0x40 MLOAD DUP1 SWAP2 SUB SWAP1 RETURN JUMPDEST PUSH2 0x107 PUSH2 0x2D5 JUMP JUMPDEST PUSH1 0x40 MLOAD PUSH2 0x114 SWAP2 SWAP1 PUSH2 0x6FC JUMP JUMPDEST PUSH1 0x40 MLOAD DUP1 SWAP2 SUB SWAP1 RETURN JUMPDEST PUSH2 0x125 PUSH2 0x34E JUMP JUMPDEST PUSH1 0x40 MLOAD PUSH2 0x132 SWAP2 SWAP1 PUSH2 0x4E5 JUMP JUMPDEST PUSH1 0x40 MLOAD DUP1 SWAP2 SUB SWAP1 RETURN JUMPDEST PUSH2 0x155 PUSH1 0x4 DUP1 CALLDATASIZE SUB DUP2 ADD SWAP1 PUSH2 0x150 SWAP2 SWAP1 PUSH2 0x776 JUMP JUMPDEST PUSH2 0x359 JUMP JUMPDEST PUSH1 0x40 MLOAD PUSH2 0x162 SWAP2 SWAP1 PUSH2 0x4E5 JUMP JUMPDEST PUSH1 0x40 MLOAD DUP1 SWAP2 SUB SWAP1 RETURN JUMPDEST PUSH2 0x185 PUSH1 0x4 DUP1 CALLDATASIZE SUB DUP2 ADD SWAP1 PUSH2 0x180 SWAP2 SWAP1 PUSH2 0x7A1 JUMP JUMPDEST PUSH2 0x36E JUMP JUMPDEST PUSH1 0x40 MLOAD PUSH2 0x192 SWAP2 SWAP1 PUSH2 0x4E5 JUMP JUMPDEST PUSH1 0x40 MLOAD DUP1 SWAP2 SUB SWAP1 RETURN JUMPDEST PUSH2 0x1A3 PUSH2 0x3A4 JUMP JUMPDEST PUSH1 0x40 MLOAD PUSH2 0x1B0 SWAP2 SWAP1 PUSH2 0x6FC JUMP JUMPDEST PUSH1 0x40 MLOAD DUP1 SWAP2 SUB SWAP1 RETURN JUMPDEST PUSH2 0x1C1 PUSH2 0x3F9 JUMP JUMPDEST PUSH1 0x40 MLOAD PUSH2 0x1CE SWAP2 SWAP1 PUSH2 0x6FC JUMP JUMPDEST PUSH1 0x40 MLOAD DUP1 SWAP2 SUB SWAP1 RETURN JUMPDEST DUP1 PUSH1 0x2 PUSH0 CALLER PUSH20 0xFFFFFFFFFFFFFFFFFFFFFFFFFFFFFFFFFFFFFFFF AND PUSH20 0xFFFFFFFFFFFFFFFFFFFFFFFFFFFFFFFFFFFFFFFF AND DUP2 MSTORE PUSH1 0x20 ADD SWAP1 DUP2 MSTORE PUSH1 0x20 ADD PUSH0 KECCAK256 DUP2 SWAP1 SSTORE POP POP JUMP JUMPDEST PUSH0 DUP2 DUP2 SLOAD DUP2 LT PUSH2 0x22A JUMPI PUSH0 DUP1 REVERT JUMPDEST SWAP1 PUSH0 MSTORE PUSH1 0x20 PUSH0 KECCAK256 ADD PUSH0 SWAP2 POP SWAP1 POP SLOAD DUP2 JUMP JUMPDEST PUSH1 0x60 PUSH1 0x1 DUP1 SLOAD DUP1 PUSH1 0x20 MUL PUSH1 0x20 ADD PUSH1 0x40 MLOAD SWAP1 DUP2 ADD PUSH1 0x40 MSTORE DUP1 SWAP3 SWAP2 SWAP1 DUP2 DUP2 MSTORE PUSH1 0x20 ADD PUSH0 SWAP1 JUMPDEST DUP3 DUP3 LT ISZERO PUSH2 0x2CC JUMPI DUP4 DUP3 SWAP1 PUSH0 MSTORE PUSH1 0x20 PUSH0 KECCAK256 ADD DUP1 SLOAD DUP1 PUSH1 0x20 MUL PUSH1 0x20 ADD PUSH1 0x40 MLOAD SWAP1 DUP2 ADD PUSH1 0x40 MSTORE DUP1 SWAP3 SWAP2 SWAP1 DUP2 DUP2 MSTORE PUSH1 0x20 ADD DUP3 DUP1 SLOAD DUP1 ISZERO PUSH2 0x2B8 JUMPI PUSH1 0x20 MUL DUP3 ADD SWAP2 SWAP1 PUSH0 MSTORE PUSH1 0x20 PUSH0 KECCAK256 SWAP1 JUMPDEST DUP2 SLOAD DUP2 MSTORE PUSH1 0x20 ADD SWAP1 PUSH1 0x1 ADD SWAP1 DUP1 DUP4 GT PUSH2 0x2A4 JUMPI JUMPDEST POP POP POP POP POP DUP2 MSTORE PUSH1 0x20 ADD SWAP1 PUSH1 0x1 ADD SWAP1 PUSH2 0x25E JUMP JUMPDEST POP POP POP POP SWAP1 POP SWAP1 JUMP JUMPDEST PUSH1 0x60 PUSH0 DUP1 SLOAD DUP1 PUSH2 0x2E8 JUMPI PUSH2 0x2E7 PUSH2 0x7DF JUMP JUMPDEST JUMPDEST PUSH1 0x1 SWAP1 SUB DUP2 DUP2 SWAP1 PUSH0 MSTORE PUSH1 0x20 PUSH0 KECCAK256 ADD PUSH0 SWAP1 SSTORE SWAP1 SSTORE PUSH0 DUP1 SLOAD DUP1 PUSH1 0x20 MUL PUSH1 0x20 ADD PUSH1 0x40 MLOAD SWAP1 DUP2 ADD PUSH1 0x40 MSTORE DUP1 SWAP3 SWAP2 SWAP1 DUP2 DUP2 MSTORE PUSH1 0x20 ADD DUP3 DUP1 SLOAD DUP1 ISZERO PUSH2 0x344 JUMPI PUSH1 0x20 MUL DUP3 ADD SWAP2 SWAP1 PUSH0 MSTORE PUSH1 0x20 PUSH0 KECCAK256 SWAP1 JUMPDEST DUP2 SLOAD DUP2 MSTORE PUSH1 0x20 ADD SWAP1 PUSH1 0x1 ADD SWAP1 DUP1 DUP4 GT PUSH2 0x330 JUMPI JUMPDEST POP POP POP POP POP SWAP1 POP SWAP1 JUMP JUMPDEST PUSH0 DUP1 DUP1 SLOAD SWAP1 POP SWAP1 POP SWAP1 JUMP JUMPDEST PUSH1 0x2 PUSH1 0x20 MSTORE DUP1 PUSH0 MSTORE PUSH1 0x40 PUSH0 KECCAK256 PUSH0 SWAP2 POP SWAP1 POP SLOAD DUP2 JUMP JUMPDEST PUSH1 0x1 DUP3 DUP2 SLOAD DUP2 LT PUSH2 0x37D JUMPI PUSH0 DUP1 REVERT JUMPDEST SWAP1 PUSH0 MSTORE PUSH1 0x20 PUSH0 KECCAK256 ADD DUP2 DUP2 SLOAD DUP2 LT PUSH2 0x392 JUMPI PUSH0 DUP1 REVERT JUMPDEST SWAP1 PUSH0 MSTORE PUSH1 0x20 PUSH0 KECCAK256 ADD PUSH0 SWAP2 POP SWAP2 POP POP SLOAD DUP2 JUMP JUMPDEST PUSH1 0x60 PUSH0 DUP1 SLOAD DUP1 PUSH1 0x20 MUL PUSH1 0x20 ADD PUSH1 0x40 MLOAD SWAP1 DUP2 ADD PUSH1 0x40 MSTORE DUP1 SWAP3 SWAP2 SWAP1 DUP2 DUP2 MSTORE PUSH1 0x20 ADD DUP3 DUP1 SLOAD DUP1 ISZERO PUSH2 0x3EF JUMPI PUSH1 0x20 MUL DUP3 ADD SWAP2 SWAP1 PUSH0 MSTORE PUSH1 0x20 PUSH0 KECCAK256 SWAP1 JUMPDEST DUP2 SLOAD DUP2 MSTORE PUSH1 0x20 ADD SWAP1 PUSH1 0x1 ADD SWAP1 DUP1 DUP4 GT PUSH2 0x3DB JUMPI JUMPDEST POP POP POP POP POP SWAP1 POP SWAP1 JUMP JUMPDEST PUSH1 0x60 PUSH0 PUSH1 0x7 SWAP1 DUP1 PUSH1 0x1 DUP2 SLOAD ADD DUP1 DUP3 SSTORE DUP1 SWAP2 POP POP PUSH1 0x1 SWAP1 SUB SWAP1 PUSH0 MSTORE PUSH1 0x20 PUSH0 KECCAK256 ADD PUSH0 SWAP1 SWAP2 SWAP1 SWAP2 SWAP1 SWAP2 POP SSTORE PUSH0 DUP1 SLOAD DUP1 PUSH1 0x20 MUL PUSH1 0x20 ADD PUSH1 0x40 MLOAD SWAP1 DUP2 ADD PUSH1 0x40 MSTORE DUP1 SWAP3 SWAP2 SWAP1 DUP2 DUP2 MSTORE PUSH1 0x20 ADD DUP3 DUP1 SLOAD DUP1 ISZERO PUSH2 0x46A JUMPI PUSH1 0x20 MUL DUP3 ADD SWAP2 SWAP1 PUSH0 MSTORE PUSH1 0x20 PUSH0 KECCAK256 SWAP1 JUMPDEST DUP2 SLOAD DUP2 MSTORE PUSH1 0x20 ADD SWAP1 PUSH1 0x1 ADD SWAP1 DUP1 DUP4 GT PUSH2 0x456 JUMPI JUMPDEST POP POP POP POP POP SWAP1 POP SWAP1 JUMP JUMPDEST PUSH0 DUP1 REVERT JUMPDEST PUSH0 DUP2 SWAP1 POP SWAP2 SWAP1 POP JUMP JUMPDEST PUSH2 0x48A DUP2 PUSH2 0x478 JUMP JUMPDEST DUP2 EQ PUSH2 0x494 JUMPI PUSH0 DUP1 REVERT JUMPDEST POP JUMP JUMPDEST PUSH0 DUP2 CALLDATALOAD SWAP1 POP PUSH2 0x4A5 DUP2 PUSH2 0x481 JUMP JUMPDEST SWAP3 SWAP2 POP POP JUMP JUMPDEST PUSH0 PUSH1 0x20 DUP3 DUP5 SUB SLT ISZERO PUSH2 0x4C0 JUMPI PUSH2 0x4BF PUSH2 0x474 JUMP JUMPDEST JUMPDEST PUSH0 PUSH2 0x4CD DUP5 DUP3 DUP6 ADD PUSH2 0x497 JUMP JUMPDEST SWAP2 POP POP SWAP3 SWAP2 POP POP JUMP JUMPDEST PUSH2 0x4DF DUP2 PUSH2 0x478 JUMP JUMPDEST DUP3 MSTORE POP POP JUMP JUMPDEST PUSH0 PUSH1 0x20 DUP3 ADD SWAP1 POP PUSH2 0x4F8 PUSH0 DUP4 ADD DUP5 PUSH2 0x4D6 JUMP JUMPDEST SWAP3 SWAP2 POP POP JUMP JUMPDEST PUSH0 DUP2 MLOAD SWAP1 POP SWAP2 SWAP1 POP JUMP JUMPDEST PUSH0 DUP3 DUP3 MSTORE PUSH1 0x20 DUP3 ADD SWAP1 POP SWAP3 SWAP2 POP POP JUMP JUMPDEST PUSH0 DUP2 SWAP1 POP PUSH1 0x20 DUP3 ADD SWAP1 POP SWAP2 SWAP1 POP JUMP JUMPDEST PUSH0 DUP2 MLOAD SWAP1 POP SWAP2 SWAP1 POP JUMP JUMPDEST PUSH0 DUP3 DUP3 MSTORE PUSH1 0x20 DUP3 ADD SWAP1 POP SWAP3 SWAP2 POP POP JUMP JUMPDEST PUSH0 DUP2 SWAP1 POP PUSH1 0x20 DUP3 ADD SWAP1 POP SWAP2 SWAP1 POP JUMP JUMPDEST PUSH2 0x559 DUP2 PUSH2 0x478 JUMP JUMPDEST DUP3 MSTORE POP POP JUMP JUMPDEST PUSH0 PUSH2 0x56A DUP4 DUP4 PUSH2 0x550 JUMP JUMPDEST PUSH1 0x20 DUP4 ADD SWAP1 POP SWAP3 SWAP2 POP POP JUMP JUMPDEST PUSH0 PUSH1 0x20 DUP3 ADD SWAP1 POP SWAP2 SWAP1 POP JUMP JUMPDEST PUSH0 PUSH2 0x58C DUP3 PUSH2 0x527 JUMP JUMPDEST PUSH2 0x596 DUP2 DUP6 PUSH2 0x531 JUMP JUMPDEST SWAP4 POP PUSH2 0x5A1 DUP4 PUSH2 0x541 JUMP JUMPDEST DUP1 PUSH0 JUMPDEST DUP4 DUP2 LT ISZERO PUSH2 0x5D1 JUMPI DUP2 MLOAD PUSH2 0x5B8 DUP9 DUP3 PUSH2 0x55F JUMP JUMPDEST SWAP8 POP PUSH2 0x5C3 DUP4 PUSH2 0x576 JUMP JUMPDEST SWAP3 POP POP PUSH1 0x1 DUP2 ADD SWAP1 POP PUSH2 0x5A4 JUMP JUMPDEST POP DUP6 SWAP4 POP POP POP POP SWAP3 SWAP2 POP POP JUMP JUMPDEST PUSH0 PUSH2 0x5E9 DUP4 DUP4 PUSH2 0x582 JUMP JUMPDEST SWAP1 POP SWAP3 SWAP2 POP POP JUMP JUMPDEST PUSH0 PUSH1 0x20 DUP3 ADD SWAP1 POP SWAP2 SWAP1 POP JUMP JUMPDEST PUSH0 PUSH2 0x607 DUP3 PUSH2 0x4FE JUMP JUMPDEST PUSH2 0x611 DUP2 DUP6 PUSH2 0x508 JUMP JUMPDEST SWAP4 POP DUP4 PUSH1 0x20 DUP3 MUL DUP6 ADD PUSH2 0x623 DUP6 PUSH2 0x518 JUMP JUMPDEST DUP1 PUSH0 JUMPDEST DUP6 DUP2 LT ISZERO PUSH2 0x65E JUMPI DUP5 DUP5 SUB DUP10 MSTORE DUP2 MLOAD PUSH2 0x63F DUP6 DUP3 PUSH2 0x5DE JUMP JUMPDEST SWAP5 POP PUSH2 0x64A DUP4 PUSH2 0x5F1 JUMP JUMPDEST SWAP3 POP PUSH1 0x20 DUP11 ADD SWAP10 POP POP PUSH1 0x1 DUP2 ADD SWAP1 POP PUSH2 0x626 JUMP JUMPDEST POP DUP3 SWAP8 POP DUP8 SWAP6 POP POP POP POP POP POP SWAP3 SWAP2 POP POP JUMP JUMPDEST PUSH0 PUSH1 0x20 DUP3 ADD SWAP1 POP DUP2 DUP2 SUB PUSH0 DUP4 ADD MSTORE PUSH2 0x688 DUP2 DUP5 PUSH2 0x5FD JUMP JUMPDEST SWAP1 POP SWAP3 SWAP2 POP POP JUMP JUMPDEST PUSH0 DUP3 DUP3 MSTORE PUSH1 0x20 DUP3 ADD SWAP1 POP SWAP3 SWAP2 POP POP JUMP JUMPDEST PUSH0 PUSH2 0x6AA DUP3 PUSH2 0x527 JUMP JUMPDEST PUSH2 0x6B4 DUP2 DUP6 PUSH2 0x690 JUMP JUMPDEST SWAP4 POP PUSH2 0x6BF DUP4 PUSH2 0x541 JUMP JUMPDEST DUP1 PUSH0 JUMPDEST DUP4 DUP2 LT ISZERO PUSH2 0x6EF JUMPI DUP2 MLOAD PUSH2 0x6D6 DUP9 DUP3 PUSH2 0x55F JUMP JUMPDEST SWAP8 POP PUSH2 0x6E1 DUP4 PUSH2 0x576 JUMP JUMPDEST SWAP3 POP POP PUSH1 0x1 DUP2 ADD SWAP1 POP PUSH2 0x6C2 JUMP JUMPDEST POP DUP6 SWAP4 POP POP POP POP SWAP3 SWAP2 POP POP JUMP JUMPDEST PUSH0 PUSH1 0x20 DUP3 ADD SWAP1 POP DUP2 DUP2 SUB PUSH0 DUP4 ADD MSTORE PUSH2 0x714 DUP2 DUP5 PUSH2 0x6A0 JUMP JUMPDEST SWAP1 POP SWAP3 SWAP2 POP POP JUMP JUMPDEST PUSH0 PUSH20 0xFFFFFFFFFFFFFFFFFFFFFFFFFFFFFFFFFFFFFFFF DUP3 AND SWAP1 POP SWAP2 SWAP1 POP JUMP JUMPDEST PUSH0 PUSH2 0x745 DUP3 PUSH2 0x71C JUMP JUMPDEST SWAP1 POP SWAP2 SWAP1 POP JUMP JUMPDEST PUSH2 0x755 DUP2 PUSH2 0x73B JUMP JUMPDEST DUP2 EQ PUSH2 0x75F JUMPI PUSH0 DUP1 REVERT JUMPDEST POP JUMP JUMPDEST PUSH0 DUP2 CALLDATALOAD SWAP1 POP PUSH2 0x770 DUP2 PUSH2 0x74C JUMP JUMPDEST SWAP3 SWAP2 POP POP JUMP JUMPDEST PUSH0 PUSH1 0x20 DUP3 DUP5 SUB SLT ISZERO PUSH2 0x78B JUMPI PUSH2 0x78A PUSH2 0x474 JUMP JUMPDEST JUMPDEST PUSH0 PUSH2 0x798 DUP5 DUP3 DUP6 ADD PUSH2 0x762 JUMP JUMPDEST SWAP2 POP POP SWAP3 SWAP2 POP POP JUMP JUMPDEST PUSH0 DUP1 PUSH1 0x40 DUP4 DUP6 SUB SLT ISZERO PUSH2 0x7B7 JUMPI PUSH2 0x7B6 PUSH2 0x474 JUMP JUMPDEST JUMPDEST PUSH0 PUSH2 0x7C4 DUP6 DUP3 DUP7 ADD PUSH2 0x497 JUMP JUMPDEST SWAP3 POP POP PUSH1 0x20 PUSH2 0x7D5 DUP6 DUP3 DUP7 ADD PUSH2 0x497 JUMP JUMPDEST SWAP2 POP POP SWAP3 POP SWAP3 SWAP1 POP JUMP JUMPDEST PUSH32 0x4E487B7100000000000000000000000000000000000000000000000000000000 PUSH0 MSTORE PUSH1 0x31 PUSH1 0x4 MSTORE PUSH1 0x24 PUSH0 REVERT INVALID LOG2 PUSH5 0x6970667358 0x22 SLT KECCAK256 0x26 0xD8 KECCAK256 0xD4 DUP5 0xC2 PUSH11 0x43321BA23266BDE6074DF1 PUSH29 0x65CE11A7224EC976F7FC156BA464736F6C634300081A00330000000000 "
				},
				"gasEstimates": {
					"creation": {
						"codeDepositCost": "422800",
						"executionCost": "infinite",
						"totalCost": "infinite"
					},
					"external": {
						"Amount(address)": "2824",
						"Array1(uint256)": "infinite",
						"Array2(uint256,uint256)": "infinite",
						"GetTestArray1()": "infinite",
						"GetTestArray1Length()": "2440",
						"GetTestArray1Pop()": "infinite",
						"GetTestArray1Push()": "infinite",
						"GetTestArray2()": "infinite",
						"SetMapping(uint256)": "22603"
					}
				},
				"methodIdentifiers": {
					"Amount(address)": "600a6ef6",
					"Array1(uint256)": "1de5fe09",
					"Array2(uint256,uint256)": "b74f3ac1",
					"GetTestArray1()": "cbc321e2",
					"GetTestArray1Length()": "5761edc3",
					"GetTestArray1Pop()": "35834738",
					"GetTestArray1Push()": "ce19c0c8",
					"GetTestArray2()": "27362653",
					"SetMapping(uint256)": "11f4d567"
				}
			},
			"storageLayout": {
				"storage": [
					{
						"astId": 11,
						"contract": "Contracts/Arrays.sol:Arrays",
						"label": "Array1",
						"offset": 0,
						"slot": "0",
						"type": "t_array(t_uint256)dyn_storage"
					},
					{
						"astId": 24,
						"contract": "Contracts/Arrays.sol:Arrays",
						"label": "Array2",
						"offset": 0,
						"slot": "1",
						"type": "t_array(t_array(t_uint256)dyn_storage)dyn_storage"
					},
					{
						"astId": 85,
						"contract": "Contracts/Arrays.sol:Arrays",
						"label": "Amount",
						"offset": 0,
						"slot": "2",
						"type": "t_mapping(t_address,t_uint256)"
					}
				],
				"types": {
					"t_address": {
						"encoding": "inplace",
						"label": "address",
						"numberOfBytes": "20"
					},
					"t_array(t_array(t_uint256)dyn_storage)dyn_storage": {
						"base": "t_array(t_uint256)dyn_storage",
						"encoding": "dynamic_array",
						"label": "uint256[][]",
						"numberOfBytes": "32"
					},
					"t_array(t_uint256)dyn_storage": {
						"base": "t_uint256",
						"encoding": "dynamic_array",
						"label": "uint256[]",
						"numberOfBytes": "32"
					},
					"t_mapping(t_address,t_uint256)": {
						"encoding": "mapping",
						"key": "t_address",
						"label": "mapping(address => uint256)",
						"numberOfBytes": "32",
						"value": "t_uint256"
					},
					"t_uint256": {
						"encoding": "inplace",
						"label": "uint256",
						"numberOfBytes": "32"
					}
				}
			},
			"userdoc": {
				"kind": "user",
				"methods": {},
				"version": 1
			}
		}
	}
}