{
	"Contracts/Object2.sol": {
		"Object2": {
			"abi": [
				{
					"inputs": [
						{
							"internalType": "address",
							"name": "ContractAddress",
							"type": "address"
						}
					],
					"name": "GetNameTest",
					"outputs": [
						{
							"internalType": "string",
							"name": "",
							"type": "string"
						}
					],
					"stateMutability": "nonpayable",
					"type": "function"
				},
				{
					"inputs": [],
					"name": "Name_Test",
					"outputs": [
						{
							"internalType": "string",
							"name": "",
							"type": "string"
						}
					],
					"stateMutability": "view",
					"type": "function"
				}
			],
			"devdoc": {
				"kind": "dev",
				"methods": {},
				"version": 1
			},
			"evm": {
				"assembly": "    /* \"Contracts/Object2.sol\":87:396  contract Object2{... */\n  mstore(0x40, 0x80)\n  callvalue\n  dup1\n  iszero\n  tag_1\n  jumpi\n  0x00\n  dup1\n  revert\ntag_1:\n  pop\n  dataSize(sub_0)\n  dup1\n  dataOffset(sub_0)\n  0x00\n  codecopy\n  0x00\n  return\nstop\n\nsub_0: assembly {\n        /* \"Contracts/Object2.sol\":87:396  contract Object2{... */\n      mstore(0x40, 0x80)\n      callvalue\n      dup1\n      iszero\n      tag_1\n      jumpi\n      0x00\n      dup1\n      revert\n    tag_1:\n      pop\n      jumpi(tag_2, lt(calldatasize, 0x04))\n      shr(0xe0, calldataload(0x00))\n      dup1\n      0x2083061a\n      eq\n      tag_3\n      jumpi\n      dup1\n      0x41fef47f\n      eq\n      tag_4\n      jumpi\n    tag_2:\n      0x00\n      dup1\n      revert\n        /* \"Contracts/Object2.sol\":142:393  function GetNameTest(address ContractAddress) public returns(string memory){... */\n    tag_3:\n      tag_5\n      0x04\n      dup1\n      calldatasize\n      sub\n      dup2\n      add\n      swap1\n      tag_6\n      swap2\n      swap1\n      tag_7\n      jump\t// in\n    tag_6:\n      tag_8\n      jump\t// in\n    tag_5:\n      mload(0x40)\n      tag_9\n      swap2\n      swap1\n      tag_10\n      jump\t// in\n    tag_9:\n      mload(0x40)\n      dup1\n      swap2\n      sub\n      swap1\n      return\n        /* \"Contracts/Object2.sol\":110:133  string public Name_Test */\n    tag_4:\n      tag_11\n      tag_12\n      jump\t// in\n    tag_11:\n      mload(0x40)\n      tag_13\n      swap2\n      swap1\n      tag_10\n      jump\t// in\n    tag_13:\n      mload(0x40)\n      dup1\n      swap2\n      sub\n      swap1\n      return\n        /* \"Contracts/Object2.sol\":142:393  function GetNameTest(address ContractAddress) public returns(string memory){... */\n    tag_8:\n        /* \"Contracts/Object2.sol\":203:216  string memory */\n      0x60\n        /* \"Contracts/Object2.sol\":228:245  Object1 NewObject */\n      0x00\n        /* \"Contracts/Object2.sol\":256:271  ContractAddress */\n      dup3\n        /* \"Contracts/Object2.sol\":228:272  Object1 NewObject = Object1(ContractAddress) */\n      swap1\n      pop\n        /* \"Contracts/Object2.sol\":339:348  NewObject */\n      dup1\n        /* \"Contracts/Object2.sol\":339:356  NewObject.GetName */\n      0xffffffffffffffffffffffffffffffffffffffff\n      and\n      0xfe704a9d\n        /* \"Contracts/Object2.sol\":339:358  NewObject.GetName() */\n      mload(0x40)\n      dup2\n      0xffffffff\n      and\n      0xe0\n      shl\n      dup2\n      mstore\n      0x04\n      add\n      0x00\n      mload(0x40)\n      dup1\n      dup4\n      sub\n      dup2\n      dup7\n      gas\n      staticcall\n      iszero\n      dup1\n      iszero\n      tag_16\n      jumpi\n      returndatasize\n      0x00\n      dup1\n      returndatacopy\n      revert(0x00, returndatasize)\n    tag_16:\n      pop\n      pop\n      pop\n      pop\n      mload(0x40)\n      returndatasize\n      0x00\n      dup3\n      returndatacopy\n      returndatasize\n      not(0x1f)\n      0x1f\n      dup3\n      add\n      and\n      dup3\n      add\n      dup1\n      0x40\n      mstore\n      pop\n      dup2\n      add\n      swap1\n      tag_17\n      swap2\n      swap1\n      tag_18\n      jump\t// in\n    tag_17:\n        /* \"Contracts/Object2.sol\":327:336  Name_Test */\n      0x00\n        /* \"Contracts/Object2.sol\":327:358  Name_Test = NewObject.GetName() */\n      swap1\n      dup2\n      tag_19\n      swap2\n      swap1\n      tag_20\n      jump\t// in\n    tag_19:\n      pop\n        /* \"Contracts/Object2.sol\":376:385  Name_Test */\n      0x00\n        /* \"Contracts/Object2.sol\":369:385  return Name_Test */\n      dup1\n      sload\n      tag_21\n      swap1\n      tag_22\n      jump\t// in\n    tag_21:\n      dup1\n      0x1f\n      add\n      0x20\n      dup1\n      swap2\n      div\n      mul\n      0x20\n      add\n      mload(0x40)\n      swap1\n      dup2\n      add\n      0x40\n      mstore\n      dup1\n      swap3\n      swap2\n      swap1\n      dup2\n      dup2\n      mstore\n      0x20\n      add\n      dup3\n      dup1\n      sload\n      tag_23\n      swap1\n      tag_22\n      jump\t// in\n    tag_23:\n      dup1\n      iszero\n      tag_24\n      jumpi\n      dup1\n      0x1f\n      lt\n      tag_25\n      jumpi\n      0x0100\n      dup1\n      dup4\n      sload\n      div\n      mul\n      dup4\n      mstore\n      swap2\n      0x20\n      add\n      swap2\n      jump(tag_24)\n    tag_25:\n      dup3\n      add\n      swap2\n      swap1\n      0x00\n      mstore\n      keccak256(0x00, 0x20)\n      swap1\n    tag_26:\n      dup2\n      sload\n      dup2\n      mstore\n      swap1\n      0x01\n      add\n      swap1\n      0x20\n      add\n      dup1\n      dup4\n      gt\n      tag_26\n      jumpi\n      dup3\n      swap1\n      sub\n      0x1f\n      and\n      dup3\n      add\n      swap2\n    tag_24:\n      pop\n      pop\n      pop\n      pop\n      pop\n      swap2\n      pop\n      pop\n        /* \"Contracts/Object2.sol\":142:393  function GetNameTest(address ContractAddress) public returns(string memory){... */\n      swap2\n      swap1\n      pop\n      jump\t// out\n        /* \"Contracts/Object2.sol\":110:133  string public Name_Test */\n    tag_12:\n      0x00\n      dup1\n      sload\n      tag_27\n      swap1\n      tag_22\n      jump\t// in\n    tag_27:\n      dup1\n      0x1f\n      add\n      0x20\n      dup1\n      swap2\n      div\n      mul\n      0x20\n      add\n      mload(0x40)\n      swap1\n      dup2\n      add\n      0x40\n      mstore\n      dup1\n      swap3\n      swap2\n      swap1\n      dup2\n      dup2\n      mstore\n      0x20\n      add\n      dup3\n      dup1\n      sload\n      tag_28\n      swap1\n      tag_22\n      jump\t// in\n    tag_28:\n      dup1\n      iszero\n      tag_29\n      jumpi\n      dup1\n      0x1f\n      lt\n      tag_30\n      jumpi\n      0x0100\n      dup1\n      dup4\n      sload\n      div\n      mul\n      dup4\n      mstore\n      swap2\n      0x20\n      add\n      swap2\n      jump(tag_29)\n    tag_30:\n      dup3\n      add\n      swap2\n      swap1\n      0x00\n      mstore\n      keccak256(0x00, 0x20)\n      swap1\n    tag_31:\n      dup2\n      sload\n      dup2\n      mstore\n      swap1\n      0x01\n      add\n      swap1\n      0x20\n      add\n      dup1\n      dup4\n      gt\n      tag_31\n      jumpi\n      dup3\n      swap1\n      sub\n      0x1f\n      and\n      dup3\n      add\n      swap2\n    tag_29:\n      pop\n      pop\n      pop\n      pop\n      pop\n      dup2\n      jump\t// out\n        /* \"#utility.yul\":7:82   */\n    tag_32:\n        /* \"#utility.yul\":40:46   */\n      0x00\n        /* \"#utility.yul\":73:75   */\n      0x40\n        /* \"#utility.yul\":67:76   */\n      mload\n        /* \"#utility.yul\":57:76   */\n      swap1\n      pop\n        /* \"#utility.yul\":7:82   */\n      swap1\n      jump\t// out\n        /* \"#utility.yul\":88:205   */\n    tag_33:\n        /* \"#utility.yul\":197:198   */\n      0x00\n        /* \"#utility.yul\":194:195   */\n      dup1\n        /* \"#utility.yul\":187:199   */\n      revert\n        /* \"#utility.yul\":211:328   */\n    tag_34:\n        /* \"#utility.yul\":320:321   */\n      0x00\n        /* \"#utility.yul\":317:318   */\n      dup1\n        /* \"#utility.yul\":310:322   */\n      revert\n        /* \"#utility.yul\":334:460   */\n    tag_35:\n        /* \"#utility.yul\":371:378   */\n      0x00\n        /* \"#utility.yul\":411:453   */\n      0xffffffffffffffffffffffffffffffffffffffff\n        /* \"#utility.yul\":404:409   */\n      dup3\n        /* \"#utility.yul\":400:454   */\n      and\n        /* \"#utility.yul\":389:454   */\n      swap1\n      pop\n        /* \"#utility.yul\":334:460   */\n      swap2\n      swap1\n      pop\n      jump\t// out\n        /* \"#utility.yul\":466:562   */\n    tag_36:\n        /* \"#utility.yul\":503:510   */\n      0x00\n        /* \"#utility.yul\":532:556   */\n      tag_75\n        /* \"#utility.yul\":550:555   */\n      dup3\n        /* \"#utility.yul\":532:556   */\n      tag_35\n      jump\t// in\n    tag_75:\n        /* \"#utility.yul\":521:556   */\n      swap1\n      pop\n        /* \"#utility.yul\":466:562   */\n      swap2\n      swap1\n      pop\n      jump\t// out\n        /* \"#utility.yul\":568:690   */\n    tag_37:\n        /* \"#utility.yul\":641:665   */\n      tag_77\n        /* \"#utility.yul\":659:664   */\n      dup2\n        /* \"#utility.yul\":641:665   */\n      tag_36\n      jump\t// in\n    tag_77:\n        /* \"#utility.yul\":634:639   */\n      dup2\n        /* \"#utility.yul\":631:666   */\n      eq\n        /* \"#utility.yul\":621:684   */\n      tag_78\n      jumpi\n        /* \"#utility.yul\":680:681   */\n      0x00\n        /* \"#utility.yul\":677:678   */\n      dup1\n        /* \"#utility.yul\":670:682   */\n      revert\n        /* \"#utility.yul\":621:684   */\n    tag_78:\n        /* \"#utility.yul\":568:690   */\n      pop\n      jump\t// out\n        /* \"#utility.yul\":696:835   */\n    tag_38:\n        /* \"#utility.yul\":742:747   */\n      0x00\n        /* \"#utility.yul\":780:786   */\n      dup2\n        /* \"#utility.yul\":767:787   */\n      calldataload\n        /* \"#utility.yul\":758:787   */\n      swap1\n      pop\n        /* \"#utility.yul\":796:829   */\n      tag_80\n        /* \"#utility.yul\":823:828   */\n      dup2\n        /* \"#utility.yul\":796:829   */\n      tag_37\n      jump\t// in\n    tag_80:\n        /* \"#utility.yul\":696:835   */\n      swap3\n      swap2\n      pop\n      pop\n      jump\t// out\n        /* \"#utility.yul\":841:1170   */\n    tag_7:\n        /* \"#utility.yul\":900:906   */\n      0x00\n        /* \"#utility.yul\":949:951   */\n      0x20\n        /* \"#utility.yul\":937:946   */\n      dup3\n        /* \"#utility.yul\":928:935   */\n      dup5\n        /* \"#utility.yul\":924:947   */\n      sub\n        /* \"#utility.yul\":920:952   */\n      slt\n        /* \"#utility.yul\":917:1036   */\n      iszero\n      tag_82\n      jumpi\n        /* \"#utility.yul\":955:1034   */\n      tag_83\n      tag_33\n      jump\t// in\n    tag_83:\n        /* \"#utility.yul\":917:1036   */\n    tag_82:\n        /* \"#utility.yul\":1075:1076   */\n      0x00\n        /* \"#utility.yul\":1100:1153   */\n      tag_84\n        /* \"#utility.yul\":1145:1152   */\n      dup5\n        /* \"#utility.yul\":1136:1142   */\n      dup3\n        /* \"#utility.yul\":1125:1134   */\n      dup6\n        /* \"#utility.yul\":1121:1143   */\n      add\n        /* \"#utility.yul\":1100:1153   */\n      tag_38\n      jump\t// in\n    tag_84:\n        /* \"#utility.yul\":1090:1153   */\n      swap2\n      pop\n        /* \"#utility.yul\":1046:1163   */\n      pop\n        /* \"#utility.yul\":841:1170   */\n      swap3\n      swap2\n      pop\n      pop\n      jump\t// out\n        /* \"#utility.yul\":1176:1275   */\n    tag_39:\n        /* \"#utility.yul\":1228:1234   */\n      0x00\n        /* \"#utility.yul\":1262:1267   */\n      dup2\n        /* \"#utility.yul\":1256:1268   */\n      mload\n        /* \"#utility.yul\":1246:1268   */\n      swap1\n      pop\n        /* \"#utility.yul\":1176:1275   */\n      swap2\n      swap1\n      pop\n      jump\t// out\n        /* \"#utility.yul\":1281:1450   */\n    tag_40:\n        /* \"#utility.yul\":1365:1376   */\n      0x00\n        /* \"#utility.yul\":1399:1405   */\n      dup3\n        /* \"#utility.yul\":1394:1397   */\n      dup3\n        /* \"#utility.yul\":1387:1406   */\n      mstore\n        /* \"#utility.yul\":1439:1443   */\n      0x20\n        /* \"#utility.yul\":1434:1437   */\n      dup3\n        /* \"#utility.yul\":1430:1444   */\n      add\n        /* \"#utility.yul\":1415:1444   */\n      swap1\n      pop\n        /* \"#utility.yul\":1281:1450   */\n      swap3\n      swap2\n      pop\n      pop\n      jump\t// out\n        /* \"#utility.yul\":1456:1595   */\n    tag_41:\n        /* \"#utility.yul\":1545:1551   */\n      dup3\n        /* \"#utility.yul\":1540:1543   */\n      dup2\n        /* \"#utility.yul\":1535:1538   */\n      dup4\n        /* \"#utility.yul\":1529:1552   */\n      mcopy\n        /* \"#utility.yul\":1586:1587   */\n      0x00\n        /* \"#utility.yul\":1577:1583   */\n      dup4\n        /* \"#utility.yul\":1572:1575   */\n      dup4\n        /* \"#utility.yul\":1568:1584   */\n      add\n        /* \"#utility.yul\":1561:1588   */\n      mstore\n        /* \"#utility.yul\":1456:1595   */\n      pop\n      pop\n      pop\n      jump\t// out\n        /* \"#utility.yul\":1601:1703   */\n    tag_42:\n        /* \"#utility.yul\":1642:1648   */\n      0x00\n        /* \"#utility.yul\":1693:1695   */\n      0x1f\n        /* \"#utility.yul\":1689:1696   */\n      not\n        /* \"#utility.yul\":1684:1686   */\n      0x1f\n        /* \"#utility.yul\":1677:1682   */\n      dup4\n        /* \"#utility.yul\":1673:1687   */\n      add\n        /* \"#utility.yul\":1669:1697   */\n      and\n        /* \"#utility.yul\":1659:1697   */\n      swap1\n      pop\n        /* \"#utility.yul\":1601:1703   */\n      swap2\n      swap1\n      pop\n      jump\t// out\n        /* \"#utility.yul\":1709:2086   */\n    tag_43:\n        /* \"#utility.yul\":1797:1800   */\n      0x00\n        /* \"#utility.yul\":1825:1864   */\n      tag_90\n        /* \"#utility.yul\":1858:1863   */\n      dup3\n        /* \"#utility.yul\":1825:1864   */\n      tag_39\n      jump\t// in\n    tag_90:\n        /* \"#utility.yul\":1880:1951   */\n      tag_91\n        /* \"#utility.yul\":1944:1950   */\n      dup2\n        /* \"#utility.yul\":1939:1942   */\n      dup6\n        /* \"#utility.yul\":1880:1951   */\n      tag_40\n      jump\t// in\n    tag_91:\n        /* \"#utility.yul\":1873:1951   */\n      swap4\n      pop\n        /* \"#utility.yul\":1960:2025   */\n      tag_92\n        /* \"#utility.yul\":2018:2024   */\n      dup2\n        /* \"#utility.yul\":2013:2016   */\n      dup6\n        /* \"#utility.yul\":2006:2010   */\n      0x20\n        /* \"#utility.yul\":1999:2004   */\n      dup7\n        /* \"#utility.yul\":1995:2011   */\n      add\n        /* \"#utility.yul\":1960:2025   */\n      tag_41\n      jump\t// in\n    tag_92:\n        /* \"#utility.yul\":2050:2079   */\n      tag_93\n        /* \"#utility.yul\":2072:2078   */\n      dup2\n        /* \"#utility.yul\":2050:2079   */\n      tag_42\n      jump\t// in\n    tag_93:\n        /* \"#utility.yul\":2045:2048   */\n      dup5\n        /* \"#utility.yul\":2041:2080   */\n      add\n        /* \"#utility.yul\":2034:2080   */\n      swap2\n      pop\n        /* \"#utility.yul\":1801:2086   */\n      pop\n        /* \"#utility.yul\":1709:2086   */\n      swap3\n      swap2\n      pop\n      pop\n      jump\t// out\n        /* \"#utility.yul\":2092:2405   */\n    tag_10:\n        /* \"#utility.yul\":2205:2209   */\n      0x00\n        /* \"#utility.yul\":2243:2245   */\n      0x20\n        /* \"#utility.yul\":2232:2241   */\n      dup3\n        /* \"#utility.yul\":2228:2246   */\n      add\n        /* \"#utility.yul\":2220:2246   */\n      swap1\n      pop\n        /* \"#utility.yul\":2292:2301   */\n      dup2\n        /* \"#utility.yul\":2286:2290   */\n      dup2\n        /* \"#utility.yul\":2282:2302   */\n      sub\n        /* \"#utility.yul\":2278:2279   */\n      0x00\n        /* \"#utility.yul\":2267:2276   */\n      dup4\n        /* \"#utility.yul\":2263:2280   */\n      add\n        /* \"#utility.yul\":2256:2303   */\n      mstore\n        /* \"#utility.yul\":2320:2398   */\n      tag_95\n        /* \"#utility.yul\":2393:2397   */\n      dup2\n        /* \"#utility.yul\":2384:2390   */\n      dup5\n        /* \"#utility.yul\":2320:2398   */\n      tag_43\n      jump\t// in\n    tag_95:\n        /* \"#utility.yul\":2312:2398   */\n      swap1\n      pop\n        /* \"#utility.yul\":2092:2405   */\n      swap3\n      swap2\n      pop\n      pop\n      jump\t// out\n        /* \"#utility.yul\":2411:2528   */\n    tag_44:\n        /* \"#utility.yul\":2520:2521   */\n      0x00\n        /* \"#utility.yul\":2517:2518   */\n      dup1\n        /* \"#utility.yul\":2510:2522   */\n      revert\n        /* \"#utility.yul\":2534:2651   */\n    tag_45:\n        /* \"#utility.yul\":2643:2644   */\n      0x00\n        /* \"#utility.yul\":2640:2641   */\n      dup1\n        /* \"#utility.yul\":2633:2645   */\n      revert\n        /* \"#utility.yul\":2657:2837   */\n    tag_46:\n        /* \"#utility.yul\":2705:2782   */\n      0x4e487b7100000000000000000000000000000000000000000000000000000000\n        /* \"#utility.yul\":2702:2703   */\n      0x00\n        /* \"#utility.yul\":2695:2783   */\n      mstore\n        /* \"#utility.yul\":2802:2806   */\n      0x41\n        /* \"#utility.yul\":2799:2800   */\n      0x04\n        /* \"#utility.yul\":2792:2807   */\n      mstore\n        /* \"#utility.yul\":2826:2830   */\n      0x24\n        /* \"#utility.yul\":2823:2824   */\n      0x00\n        /* \"#utility.yul\":2816:2831   */\n      revert\n        /* \"#utility.yul\":2843:3124   */\n    tag_47:\n        /* \"#utility.yul\":2926:2953   */\n      tag_100\n        /* \"#utility.yul\":2948:2952   */\n      dup3\n        /* \"#utility.yul\":2926:2953   */\n      tag_42\n      jump\t// in\n    tag_100:\n        /* \"#utility.yul\":2918:2924   */\n      dup2\n        /* \"#utility.yul\":2914:2954   */\n      add\n        /* \"#utility.yul\":3056:3062   */\n      dup2\n        /* \"#utility.yul\":3044:3054   */\n      dup2\n        /* \"#utility.yul\":3041:3063   */\n      lt\n        /* \"#utility.yul\":3020:3038   */\n      0xffffffffffffffff\n        /* \"#utility.yul\":3008:3018   */\n      dup3\n        /* \"#utility.yul\":3005:3039   */\n      gt\n        /* \"#utility.yul\":3002:3064   */\n      or\n        /* \"#utility.yul\":2999:3087   */\n      iszero\n      tag_101\n      jumpi\n        /* \"#utility.yul\":3067:3085   */\n      tag_102\n      tag_46\n      jump\t// in\n    tag_102:\n        /* \"#utility.yul\":2999:3087   */\n    tag_101:\n        /* \"#utility.yul\":3107:3117   */\n      dup1\n        /* \"#utility.yul\":3103:3105   */\n      0x40\n        /* \"#utility.yul\":3096:3118   */\n      mstore\n        /* \"#utility.yul\":2886:3124   */\n      pop\n        /* \"#utility.yul\":2843:3124   */\n      pop\n      pop\n      jump\t// out\n        /* \"#utility.yul\":3130:3259   */\n    tag_48:\n        /* \"#utility.yul\":3164:3170   */\n      0x00\n        /* \"#utility.yul\":3191:3211   */\n      tag_104\n      tag_32\n      jump\t// in\n    tag_104:\n        /* \"#utility.yul\":3181:3211   */\n      swap1\n      pop\n        /* \"#utility.yul\":3220:3253   */\n      tag_105\n        /* \"#utility.yul\":3248:3252   */\n      dup3\n        /* \"#utility.yul\":3240:3246   */\n      dup3\n        /* \"#utility.yul\":3220:3253   */\n      tag_47\n      jump\t// in\n    tag_105:\n        /* \"#utility.yul\":3130:3259   */\n      swap2\n      swap1\n      pop\n      jump\t// out\n        /* \"#utility.yul\":3265:3573   */\n    tag_49:\n        /* \"#utility.yul\":3327:3331   */\n      0x00\n        /* \"#utility.yul\":3417:3435   */\n      0xffffffffffffffff\n        /* \"#utility.yul\":3409:3415   */\n      dup3\n        /* \"#utility.yul\":3406:3436   */\n      gt\n        /* \"#utility.yul\":3403:3459   */\n      iszero\n      tag_107\n      jumpi\n        /* \"#utility.yul\":3439:3457   */\n      tag_108\n      tag_46\n      jump\t// in\n    tag_108:\n        /* \"#utility.yul\":3403:3459   */\n    tag_107:\n        /* \"#utility.yul\":3477:3506   */\n      tag_109\n        /* \"#utility.yul\":3499:3505   */\n      dup3\n        /* \"#utility.yul\":3477:3506   */\n      tag_42\n      jump\t// in\n    tag_109:\n        /* \"#utility.yul\":3469:3506   */\n      swap1\n      pop\n        /* \"#utility.yul\":3561:3565   */\n      0x20\n        /* \"#utility.yul\":3555:3559   */\n      dup2\n        /* \"#utility.yul\":3551:3566   */\n      add\n        /* \"#utility.yul\":3543:3566   */\n      swap1\n      pop\n        /* \"#utility.yul\":3265:3573   */\n      swap2\n      swap1\n      pop\n      jump\t// out\n        /* \"#utility.yul\":3579:4013   */\n    tag_50:\n        /* \"#utility.yul\":3668:3673   */\n      0x00\n        /* \"#utility.yul\":3693:3759   */\n      tag_111\n        /* \"#utility.yul\":3709:3758   */\n      tag_112\n        /* \"#utility.yul\":3751:3757   */\n      dup5\n        /* \"#utility.yul\":3709:3758   */\n      tag_49\n      jump\t// in\n    tag_112:\n        /* \"#utility.yul\":3693:3759   */\n      tag_48\n      jump\t// in\n    tag_111:\n        /* \"#utility.yul\":3684:3759   */\n      swap1\n      pop\n        /* \"#utility.yul\":3782:3788   */\n      dup3\n        /* \"#utility.yul\":3775:3780   */\n      dup2\n        /* \"#utility.yul\":3768:3789   */\n      mstore\n        /* \"#utility.yul\":3820:3824   */\n      0x20\n        /* \"#utility.yul\":3813:3818   */\n      dup2\n        /* \"#utility.yul\":3809:3825   */\n      add\n        /* \"#utility.yul\":3858:3861   */\n      dup5\n        /* \"#utility.yul\":3849:3855   */\n      dup5\n        /* \"#utility.yul\":3844:3847   */\n      dup5\n        /* \"#utility.yul\":3840:3856   */\n      add\n        /* \"#utility.yul\":3837:3862   */\n      gt\n        /* \"#utility.yul\":3834:3946   */\n      iszero\n      tag_113\n      jumpi\n        /* \"#utility.yul\":3865:3944   */\n      tag_114\n      tag_45\n      jump\t// in\n    tag_114:\n        /* \"#utility.yul\":3834:3946   */\n    tag_113:\n        /* \"#utility.yul\":3955:4007   */\n      tag_115\n        /* \"#utility.yul\":4000:4006   */\n      dup5\n        /* \"#utility.yul\":3995:3998   */\n      dup3\n        /* \"#utility.yul\":3990:3993   */\n      dup6\n        /* \"#utility.yul\":3955:4007   */\n      tag_41\n      jump\t// in\n    tag_115:\n        /* \"#utility.yul\":3674:4013   */\n      pop\n        /* \"#utility.yul\":3579:4013   */\n      swap4\n      swap3\n      pop\n      pop\n      pop\n      jump\t// out\n        /* \"#utility.yul\":4033:4388   */\n    tag_51:\n        /* \"#utility.yul\":4100:4105   */\n      0x00\n        /* \"#utility.yul\":4149:4152   */\n      dup3\n        /* \"#utility.yul\":4142:4146   */\n      0x1f\n        /* \"#utility.yul\":4134:4140   */\n      dup4\n        /* \"#utility.yul\":4130:4147   */\n      add\n        /* \"#utility.yul\":4126:4153   */\n      slt\n        /* \"#utility.yul\":4116:4238   */\n      tag_117\n      jumpi\n        /* \"#utility.yul\":4157:4236   */\n      tag_118\n      tag_44\n      jump\t// in\n    tag_118:\n        /* \"#utility.yul\":4116:4238   */\n    tag_117:\n        /* \"#utility.yul\":4267:4273   */\n      dup2\n        /* \"#utility.yul\":4261:4274   */\n      mload\n        /* \"#utility.yul\":4292:4382   */\n      tag_119\n        /* \"#utility.yul\":4378:4381   */\n      dup5\n        /* \"#utility.yul\":4370:4376   */\n      dup3\n        /* \"#utility.yul\":4363:4367   */\n      0x20\n        /* \"#utility.yul\":4355:4361   */\n      dup7\n        /* \"#utility.yul\":4351:4368   */\n      add\n        /* \"#utility.yul\":4292:4382   */\n      tag_50\n      jump\t// in\n    tag_119:\n        /* \"#utility.yul\":4283:4382   */\n      swap2\n      pop\n        /* \"#utility.yul\":4106:4388   */\n      pop\n        /* \"#utility.yul\":4033:4388   */\n      swap3\n      swap2\n      pop\n      pop\n      jump\t// out\n        /* \"#utility.yul\":4394:4918   */\n    tag_18:\n        /* \"#utility.yul\":4474:4480   */\n      0x00\n        /* \"#utility.yul\":4523:4525   */\n      0x20\n        /* \"#utility.yul\":4511:4520   */\n      dup3\n        /* \"#utility.yul\":4502:4509   */\n      dup5\n        /* \"#utility.yul\":4498:4521   */\n      sub\n        /* \"#utility.yul\":4494:4526   */\n      slt\n        /* \"#utility.yul\":4491:4610   */\n      iszero\n      tag_121\n      jumpi\n        /* \"#utility.yul\":4529:4608   */\n      tag_122\n      tag_33\n      jump\t// in\n    tag_122:\n        /* \"#utility.yul\":4491:4610   */\n    tag_121:\n        /* \"#utility.yul\":4670:4671   */\n      0x00\n        /* \"#utility.yul\":4659:4668   */\n      dup3\n        /* \"#utility.yul\":4655:4672   */\n      add\n        /* \"#utility.yul\":4649:4673   */\n      mload\n        /* \"#utility.yul\":4700:4718   */\n      0xffffffffffffffff\n        /* \"#utility.yul\":4692:4698   */\n      dup2\n        /* \"#utility.yul\":4689:4719   */\n      gt\n        /* \"#utility.yul\":4686:4803   */\n      iszero\n      tag_123\n      jumpi\n        /* \"#utility.yul\":4722:4801   */\n      tag_124\n      tag_34\n      jump\t// in\n    tag_124:\n        /* \"#utility.yul\":4686:4803   */\n    tag_123:\n        /* \"#utility.yul\":4827:4901   */\n      tag_125\n        /* \"#utility.yul\":4893:4900   */\n      dup5\n        /* \"#utility.yul\":4884:4890   */\n      dup3\n        /* \"#utility.yul\":4873:4882   */\n      dup6\n        /* \"#utility.yul\":4869:4891   */\n      add\n        /* \"#utility.yul\":4827:4901   */\n      tag_51\n      jump\t// in\n    tag_125:\n        /* \"#utility.yul\":4817:4901   */\n      swap2\n      pop\n        /* \"#utility.yul\":4620:4911   */\n      pop\n        /* \"#utility.yul\":4394:4918   */\n      swap3\n      swap2\n      pop\n      pop\n      jump\t// out\n        /* \"#utility.yul\":4924:5104   */\n    tag_52:\n        /* \"#utility.yul\":4972:5049   */\n      0x4e487b7100000000000000000000000000000000000000000000000000000000\n        /* \"#utility.yul\":4969:4970   */\n      0x00\n        /* \"#utility.yul\":4962:5050   */\n      mstore\n        /* \"#utility.yul\":5069:5073   */\n      0x22\n        /* \"#utility.yul\":5066:5067   */\n      0x04\n        /* \"#utility.yul\":5059:5074   */\n      mstore\n        /* \"#utility.yul\":5093:5097   */\n      0x24\n        /* \"#utility.yul\":5090:5091   */\n      0x00\n        /* \"#utility.yul\":5083:5098   */\n      revert\n        /* \"#utility.yul\":5110:5430   */\n    tag_22:\n        /* \"#utility.yul\":5154:5160   */\n      0x00\n        /* \"#utility.yul\":5191:5192   */\n      0x02\n        /* \"#utility.yul\":5185:5189   */\n      dup3\n        /* \"#utility.yul\":5181:5193   */\n      div\n        /* \"#utility.yul\":5171:5193   */\n      swap1\n      pop\n        /* \"#utility.yul\":5238:5239   */\n      0x01\n        /* \"#utility.yul\":5232:5236   */\n      dup3\n        /* \"#utility.yul\":5228:5240   */\n      and\n        /* \"#utility.yul\":5259:5277   */\n      dup1\n        /* \"#utility.yul\":5249:5330   */\n      tag_128\n      jumpi\n        /* \"#utility.yul\":5315:5319   */\n      0x7f\n        /* \"#utility.yul\":5307:5313   */\n      dup3\n        /* \"#utility.yul\":5303:5320   */\n      and\n        /* \"#utility.yul\":5293:5320   */\n      swap2\n      pop\n        /* \"#utility.yul\":5249:5330   */\n    tag_128:\n        /* \"#utility.yul\":5377:5379   */\n      0x20\n        /* \"#utility.yul\":5369:5375   */\n      dup3\n        /* \"#utility.yul\":5366:5380   */\n      lt\n        /* \"#utility.yul\":5346:5364   */\n      dup2\n        /* \"#utility.yul\":5343:5381   */\n      sub\n        /* \"#utility.yul\":5340:5424   */\n      tag_129\n      jumpi\n        /* \"#utility.yul\":5396:5414   */\n      tag_130\n      tag_52\n      jump\t// in\n    tag_130:\n        /* \"#utility.yul\":5340:5424   */\n    tag_129:\n        /* \"#utility.yul\":5161:5430   */\n      pop\n        /* \"#utility.yul\":5110:5430   */\n      swap2\n      swap1\n      pop\n      jump\t// out\n        /* \"#utility.yul\":5436:5577   */\n    tag_53:\n        /* \"#utility.yul\":5485:5489   */\n      0x00\n        /* \"#utility.yul\":5508:5511   */\n      dup2\n        /* \"#utility.yul\":5500:5511   */\n      swap1\n      pop\n        /* \"#utility.yul\":5531:5534   */\n      dup2\n        /* \"#utility.yul\":5528:5529   */\n      0x00\n        /* \"#utility.yul\":5521:5535   */\n      mstore\n        /* \"#utility.yul\":5565:5569   */\n      0x20\n        /* \"#utility.yul\":5562:5563   */\n      0x00\n        /* \"#utility.yul\":5552:5570   */\n      keccak256\n        /* \"#utility.yul\":5544:5570   */\n      swap1\n      pop\n        /* \"#utility.yul\":5436:5577   */\n      swap2\n      swap1\n      pop\n      jump\t// out\n        /* \"#utility.yul\":5583:5676   */\n    tag_54:\n        /* \"#utility.yul\":5620:5626   */\n      0x00\n        /* \"#utility.yul\":5667:5669   */\n      0x20\n        /* \"#utility.yul\":5662:5664   */\n      0x1f\n        /* \"#utility.yul\":5655:5660   */\n      dup4\n        /* \"#utility.yul\":5651:5665   */\n      add\n        /* \"#utility.yul\":5647:5670   */\n      div\n        /* \"#utility.yul\":5637:5670   */\n      swap1\n      pop\n        /* \"#utility.yul\":5583:5676   */\n      swap2\n      swap1\n      pop\n      jump\t// out\n        /* \"#utility.yul\":5682:5789   */\n    tag_55:\n        /* \"#utility.yul\":5726:5734   */\n      0x00\n        /* \"#utility.yul\":5776:5781   */\n      dup3\n        /* \"#utility.yul\":5770:5774   */\n      dup3\n        /* \"#utility.yul\":5766:5782   */\n      shl\n        /* \"#utility.yul\":5745:5782   */\n      swap1\n      pop\n        /* \"#utility.yul\":5682:5789   */\n      swap3\n      swap2\n      pop\n      pop\n      jump\t// out\n        /* \"#utility.yul\":5795:6188   */\n    tag_56:\n        /* \"#utility.yul\":5864:5870   */\n      0x00\n        /* \"#utility.yul\":5914:5915   */\n      0x08\n        /* \"#utility.yul\":5902:5912   */\n      dup4\n        /* \"#utility.yul\":5898:5916   */\n      mul\n        /* \"#utility.yul\":5937:6034   */\n      tag_135\n        /* \"#utility.yul\":5967:6033   */\n      0xffffffffffffffffffffffffffffffffffffffffffffffffffffffffffffffff\n        /* \"#utility.yul\":5956:5965   */\n      dup3\n        /* \"#utility.yul\":5937:6034   */\n      tag_55\n      jump\t// in\n    tag_135:\n        /* \"#utility.yul\":6055:6094   */\n      tag_136\n        /* \"#utility.yul\":6085:6093   */\n      dup7\n        /* \"#utility.yul\":6074:6083   */\n      dup4\n        /* \"#utility.yul\":6055:6094   */\n      tag_55\n      jump\t// in\n    tag_136:\n        /* \"#utility.yul\":6043:6094   */\n      swap6\n      pop\n        /* \"#utility.yul\":6127:6131   */\n      dup1\n        /* \"#utility.yul\":6123:6132   */\n      not\n        /* \"#utility.yul\":6116:6121   */\n      dup5\n        /* \"#utility.yul\":6112:6133   */\n      and\n        /* \"#utility.yul\":6103:6133   */\n      swap4\n      pop\n        /* \"#utility.yul\":6176:6180   */\n      dup1\n        /* \"#utility.yul\":6166:6174   */\n      dup7\n        /* \"#utility.yul\":6162:6181   */\n      and\n        /* \"#utility.yul\":6155:6160   */\n      dup5\n        /* \"#utility.yul\":6152:6182   */\n      or\n        /* \"#utility.yul\":6142:6182   */\n      swap3\n      pop\n        /* \"#utility.yul\":5871:6188   */\n      pop\n      pop\n        /* \"#utility.yul\":5795:6188   */\n      swap4\n      swap3\n      pop\n      pop\n      pop\n      jump\t// out\n        /* \"#utility.yul\":6194:6271   */\n    tag_57:\n        /* \"#utility.yul\":6231:6238   */\n      0x00\n        /* \"#utility.yul\":6260:6265   */\n      dup2\n        /* \"#utility.yul\":6249:6265   */\n      swap1\n      pop\n        /* \"#utility.yul\":6194:6271   */\n      swap2\n      swap1\n      pop\n      jump\t// out\n        /* \"#utility.yul\":6277:6337   */\n    tag_58:\n        /* \"#utility.yul\":6305:6308   */\n      0x00\n        /* \"#utility.yul\":6326:6331   */\n      dup2\n        /* \"#utility.yul\":6319:6331   */\n      swap1\n      pop\n        /* \"#utility.yul\":6277:6337   */\n      swap2\n      swap1\n      pop\n      jump\t// out\n        /* \"#utility.yul\":6343:6485   */\n    tag_59:\n        /* \"#utility.yul\":6393:6402   */\n      0x00\n        /* \"#utility.yul\":6426:6479   */\n      tag_140\n        /* \"#utility.yul\":6444:6478   */\n      tag_141\n        /* \"#utility.yul\":6453:6477   */\n      tag_142\n        /* \"#utility.yul\":6471:6476   */\n      dup5\n        /* \"#utility.yul\":6453:6477   */\n      tag_57\n      jump\t// in\n    tag_142:\n        /* \"#utility.yul\":6444:6478   */\n      tag_58\n      jump\t// in\n    tag_141:\n        /* \"#utility.yul\":6426:6479   */\n      tag_57\n      jump\t// in\n    tag_140:\n        /* \"#utility.yul\":6413:6479   */\n      swap1\n      pop\n        /* \"#utility.yul\":6343:6485   */\n      swap2\n      swap1\n      pop\n      jump\t// out\n        /* \"#utility.yul\":6491:6566   */\n    tag_60:\n        /* \"#utility.yul\":6534:6537   */\n      0x00\n        /* \"#utility.yul\":6555:6560   */\n      dup2\n        /* \"#utility.yul\":6548:6560   */\n      swap1\n      pop\n        /* \"#utility.yul\":6491:6566   */\n      swap2\n      swap1\n      pop\n      jump\t// out\n        /* \"#utility.yul\":6572:6841   */\n    tag_61:\n        /* \"#utility.yul\":6682:6721   */\n      tag_145\n        /* \"#utility.yul\":6713:6720   */\n      dup4\n        /* \"#utility.yul\":6682:6721   */\n      tag_59\n      jump\t// in\n    tag_145:\n        /* \"#utility.yul\":6743:6834   */\n      tag_146\n        /* \"#utility.yul\":6792:6833   */\n      tag_147\n        /* \"#utility.yul\":6816:6832   */\n      dup3\n        /* \"#utility.yul\":6792:6833   */\n      tag_60\n      jump\t// in\n    tag_147:\n        /* \"#utility.yul\":6784:6790   */\n      dup5\n        /* \"#utility.yul\":6777:6781   */\n      dup5\n        /* \"#utility.yul\":6771:6782   */\n      sload\n        /* \"#utility.yul\":6743:6834   */\n      tag_56\n      jump\t// in\n    tag_146:\n        /* \"#utility.yul\":6737:6741   */\n      dup3\n        /* \"#utility.yul\":6730:6835   */\n      sstore\n        /* \"#utility.yul\":6648:6841   */\n      pop\n        /* \"#utility.yul\":6572:6841   */\n      pop\n      pop\n      pop\n      jump\t// out\n        /* \"#utility.yul\":6847:6920   */\n    tag_62:\n        /* \"#utility.yul\":6892:6895   */\n      0x00\n        /* \"#utility.yul\":6847:6920   */\n      swap1\n      jump\t// out\n        /* \"#utility.yul\":6926:7115   */\n    tag_63:\n        /* \"#utility.yul\":7003:7035   */\n      tag_150\n      tag_62\n      jump\t// in\n    tag_150:\n        /* \"#utility.yul\":7044:7109   */\n      tag_151\n        /* \"#utility.yul\":7102:7108   */\n      dup2\n        /* \"#utility.yul\":7094:7100   */\n      dup5\n        /* \"#utility.yul\":7088:7092   */\n      dup5\n        /* \"#utility.yul\":7044:7109   */\n      tag_61\n      jump\t// in\n    tag_151:\n        /* \"#utility.yul\":6979:7115   */\n      pop\n        /* \"#utility.yul\":6926:7115   */\n      pop\n      pop\n      jump\t// out\n        /* \"#utility.yul\":7121:7307   */\n    tag_64:\n        /* \"#utility.yul\":7181:7301   */\n    tag_153:\n        /* \"#utility.yul\":7198:7201   */\n      dup2\n        /* \"#utility.yul\":7191:7196   */\n      dup2\n        /* \"#utility.yul\":7188:7202   */\n      lt\n        /* \"#utility.yul\":7181:7301   */\n      iszero\n      tag_155\n      jumpi\n        /* \"#utility.yul\":7252:7291   */\n      tag_156\n        /* \"#utility.yul\":7289:7290   */\n      0x00\n        /* \"#utility.yul\":7282:7287   */\n      dup3\n        /* \"#utility.yul\":7252:7291   */\n      tag_63\n      jump\t// in\n    tag_156:\n        /* \"#utility.yul\":7225:7226   */\n      0x01\n        /* \"#utility.yul\":7218:7223   */\n      dup2\n        /* \"#utility.yul\":7214:7227   */\n      add\n        /* \"#utility.yul\":7205:7227   */\n      swap1\n      pop\n        /* \"#utility.yul\":7181:7301   */\n      jump(tag_153)\n    tag_155:\n        /* \"#utility.yul\":7121:7307   */\n      pop\n      pop\n      jump\t// out\n        /* \"#utility.yul\":7313:7856   */\n    tag_65:\n        /* \"#utility.yul\":7414:7416   */\n      0x1f\n        /* \"#utility.yul\":7409:7412   */\n      dup3\n        /* \"#utility.yul\":7406:7417   */\n      gt\n        /* \"#utility.yul\":7403:7849   */\n      iszero\n      tag_158\n      jumpi\n        /* \"#utility.yul\":7448:7486   */\n      tag_159\n        /* \"#utility.yul\":7480:7485   */\n      dup2\n        /* \"#utility.yul\":7448:7486   */\n      tag_53\n      jump\t// in\n    tag_159:\n        /* \"#utility.yul\":7532:7561   */\n      tag_160\n        /* \"#utility.yul\":7550:7560   */\n      dup5\n        /* \"#utility.yul\":7532:7561   */\n      tag_54\n      jump\t// in\n    tag_160:\n        /* \"#utility.yul\":7522:7530   */\n      dup2\n        /* \"#utility.yul\":7518:7562   */\n      add\n        /* \"#utility.yul\":7715:7717   */\n      0x20\n        /* \"#utility.yul\":7703:7713   */\n      dup6\n        /* \"#utility.yul\":7700:7718   */\n      lt\n        /* \"#utility.yul\":7697:7746   */\n      iszero\n      tag_161\n      jumpi\n        /* \"#utility.yul\":7736:7744   */\n      dup2\n        /* \"#utility.yul\":7721:7744   */\n      swap1\n      pop\n        /* \"#utility.yul\":7697:7746   */\n    tag_161:\n        /* \"#utility.yul\":7759:7839   */\n      tag_162\n        /* \"#utility.yul\":7815:7837   */\n      tag_163\n        /* \"#utility.yul\":7833:7836   */\n      dup6\n        /* \"#utility.yul\":7815:7837   */\n      tag_54\n      jump\t// in\n    tag_163:\n        /* \"#utility.yul\":7805:7813   */\n      dup4\n        /* \"#utility.yul\":7801:7838   */\n      add\n        /* \"#utility.yul\":7788:7799   */\n      dup3\n        /* \"#utility.yul\":7759:7839   */\n      tag_64\n      jump\t// in\n    tag_162:\n        /* \"#utility.yul\":7418:7849   */\n      pop\n      pop\n        /* \"#utility.yul\":7403:7849   */\n    tag_158:\n        /* \"#utility.yul\":7313:7856   */\n      pop\n      pop\n      pop\n      jump\t// out\n        /* \"#utility.yul\":7862:7979   */\n    tag_66:\n        /* \"#utility.yul\":7916:7924   */\n      0x00\n        /* \"#utility.yul\":7966:7971   */\n      dup3\n        /* \"#utility.yul\":7960:7964   */\n      dup3\n        /* \"#utility.yul\":7956:7972   */\n      shr\n        /* \"#utility.yul\":7935:7972   */\n      swap1\n      pop\n        /* \"#utility.yul\":7862:7979   */\n      swap3\n      swap2\n      pop\n      pop\n      jump\t// out\n        /* \"#utility.yul\":7985:8154   */\n    tag_67:\n        /* \"#utility.yul\":8029:8035   */\n      0x00\n        /* \"#utility.yul\":8062:8113   */\n      tag_166\n        /* \"#utility.yul\":8110:8111   */\n      0x00\n        /* \"#utility.yul\":8106:8112   */\n      not\n        /* \"#utility.yul\":8098:8103   */\n      dup5\n        /* \"#utility.yul\":8095:8096   */\n      0x08\n        /* \"#utility.yul\":8091:8104   */\n      mul\n        /* \"#utility.yul\":8062:8113   */\n      tag_66\n      jump\t// in\n    tag_166:\n        /* \"#utility.yul\":8058:8114   */\n      not\n        /* \"#utility.yul\":8143:8147   */\n      dup1\n        /* \"#utility.yul\":8137:8141   */\n      dup4\n        /* \"#utility.yul\":8133:8148   */\n      and\n        /* \"#utility.yul\":8123:8148   */\n      swap2\n      pop\n        /* \"#utility.yul\":8036:8154   */\n      pop\n        /* \"#utility.yul\":7985:8154   */\n      swap3\n      swap2\n      pop\n      pop\n      jump\t// out\n        /* \"#utility.yul\":8159:8454   */\n    tag_68:\n        /* \"#utility.yul\":8235:8239   */\n      0x00\n        /* \"#utility.yul\":8381:8410   */\n      tag_168\n        /* \"#utility.yul\":8406:8409   */\n      dup4\n        /* \"#utility.yul\":8400:8404   */\n      dup4\n        /* \"#utility.yul\":8381:8410   */\n      tag_67\n      jump\t// in\n    tag_168:\n        /* \"#utility.yul\":8373:8410   */\n      swap2\n      pop\n        /* \"#utility.yul\":8443:8446   */\n      dup3\n        /* \"#utility.yul\":8440:8441   */\n      0x02\n        /* \"#utility.yul\":8436:8447   */\n      mul\n        /* \"#utility.yul\":8430:8434   */\n      dup3\n        /* \"#utility.yul\":8427:8448   */\n      or\n        /* \"#utility.yul\":8419:8448   */\n      swap1\n      pop\n        /* \"#utility.yul\":8159:8454   */\n      swap3\n      swap2\n      pop\n      pop\n      jump\t// out\n        /* \"#utility.yul\":8459:9854   */\n    tag_20:\n        /* \"#utility.yul\":8576:8613   */\n      tag_170\n        /* \"#utility.yul\":8609:8612   */\n      dup3\n        /* \"#utility.yul\":8576:8613   */\n      tag_39\n      jump\t// in\n    tag_170:\n        /* \"#utility.yul\":8678:8696   */\n      0xffffffffffffffff\n        /* \"#utility.yul\":8670:8676   */\n      dup2\n        /* \"#utility.yul\":8667:8697   */\n      gt\n        /* \"#utility.yul\":8664:8720   */\n      iszero\n      tag_171\n      jumpi\n        /* \"#utility.yul\":8700:8718   */\n      tag_172\n      tag_46\n      jump\t// in\n    tag_172:\n        /* \"#utility.yul\":8664:8720   */\n    tag_171:\n        /* \"#utility.yul\":8744:8782   */\n      tag_173\n        /* \"#utility.yul\":8776:8780   */\n      dup3\n        /* \"#utility.yul\":8770:8781   */\n      sload\n        /* \"#utility.yul\":8744:8782   */\n      tag_22\n      jump\t// in\n    tag_173:\n        /* \"#utility.yul\":8829:8896   */\n      tag_174\n        /* \"#utility.yul\":8889:8895   */\n      dup3\n        /* \"#utility.yul\":8881:8887   */\n      dup3\n        /* \"#utility.yul\":8875:8879   */\n      dup6\n        /* \"#utility.yul\":8829:8896   */\n      tag_65\n      jump\t// in\n    tag_174:\n        /* \"#utility.yul\":8923:8924   */\n      0x00\n        /* \"#utility.yul\":8947:8951   */\n      0x20\n        /* \"#utility.yul\":8934:8951   */\n      swap1\n      pop\n        /* \"#utility.yul\":8979:8981   */\n      0x1f\n        /* \"#utility.yul\":8971:8977   */\n      dup4\n        /* \"#utility.yul\":8968:8982   */\n      gt\n        /* \"#utility.yul\":8996:8997   */\n      0x01\n        /* \"#utility.yul\":8991:9609   */\n      dup2\n      eq\n      tag_176\n      jumpi\n        /* \"#utility.yul\":9653:9654   */\n      0x00\n        /* \"#utility.yul\":9670:9676   */\n      dup5\n        /* \"#utility.yul\":9667:9744   */\n      iszero\n      tag_177\n      jumpi\n        /* \"#utility.yul\":9719:9728   */\n      dup3\n        /* \"#utility.yul\":9714:9717   */\n      dup8\n        /* \"#utility.yul\":9710:9729   */\n      add\n        /* \"#utility.yul\":9704:9730   */\n      mload\n        /* \"#utility.yul\":9695:9730   */\n      swap1\n      pop\n        /* \"#utility.yul\":9667:9744   */\n    tag_177:\n        /* \"#utility.yul\":9770:9837   */\n      tag_178\n        /* \"#utility.yul\":9830:9836   */\n      dup6\n        /* \"#utility.yul\":9823:9828   */\n      dup3\n        /* \"#utility.yul\":9770:9837   */\n      tag_68\n      jump\t// in\n    tag_178:\n        /* \"#utility.yul\":9764:9768   */\n      dup7\n        /* \"#utility.yul\":9757:9838   */\n      sstore\n        /* \"#utility.yul\":9626:9848   */\n      pop\n        /* \"#utility.yul\":8961:9848   */\n      jump(tag_175)\n        /* \"#utility.yul\":8991:9609   */\n    tag_176:\n        /* \"#utility.yul\":9043:9047   */\n      0x1f\n        /* \"#utility.yul\":9039:9048   */\n      not\n        /* \"#utility.yul\":9031:9037   */\n      dup5\n        /* \"#utility.yul\":9027:9049   */\n      and\n        /* \"#utility.yul\":9077:9114   */\n      tag_179\n        /* \"#utility.yul\":9109:9113   */\n      dup7\n        /* \"#utility.yul\":9077:9114   */\n      tag_53\n      jump\t// in\n    tag_179:\n        /* \"#utility.yul\":9136:9137   */\n      0x00\n        /* \"#utility.yul\":9150:9358   */\n    tag_180:\n        /* \"#utility.yul\":9164:9171   */\n      dup3\n        /* \"#utility.yul\":9161:9162   */\n      dup2\n        /* \"#utility.yul\":9158:9172   */\n      lt\n        /* \"#utility.yul\":9150:9358   */\n      iszero\n      tag_182\n      jumpi\n        /* \"#utility.yul\":9243:9252   */\n      dup5\n        /* \"#utility.yul\":9238:9241   */\n      dup10\n        /* \"#utility.yul\":9234:9253   */\n      add\n        /* \"#utility.yul\":9228:9254   */\n      mload\n        /* \"#utility.yul\":9220:9226   */\n      dup3\n        /* \"#utility.yul\":9213:9255   */\n      sstore\n        /* \"#utility.yul\":9294:9295   */\n      0x01\n        /* \"#utility.yul\":9286:9292   */\n      dup3\n        /* \"#utility.yul\":9282:9296   */\n      add\n        /* \"#utility.yul\":9272:9296   */\n      swap2\n      pop\n        /* \"#utility.yul\":9341:9343   */\n      0x20\n        /* \"#utility.yul\":9330:9339   */\n      dup6\n        /* \"#utility.yul\":9326:9344   */\n      add\n        /* \"#utility.yul\":9313:9344   */\n      swap5\n      pop\n        /* \"#utility.yul\":9187:9191   */\n      0x20\n        /* \"#utility.yul\":9184:9185   */\n      dup2\n        /* \"#utility.yul\":9180:9192   */\n      add\n        /* \"#utility.yul\":9175:9192   */\n      swap1\n      pop\n        /* \"#utility.yul\":9150:9358   */\n      jump(tag_180)\n    tag_182:\n        /* \"#utility.yul\":9386:9392   */\n      dup7\n        /* \"#utility.yul\":9377:9384   */\n      dup4\n        /* \"#utility.yul\":9374:9393   */\n      lt\n        /* \"#utility.yul\":9371:9550   */\n      iszero\n      tag_183\n      jumpi\n        /* \"#utility.yul\":9444:9453   */\n      dup5\n        /* \"#utility.yul\":9439:9442   */\n      dup10\n        /* \"#utility.yul\":9435:9454   */\n      add\n        /* \"#utility.yul\":9429:9455   */\n      mload\n        /* \"#utility.yul\":9487:9535   */\n      tag_184\n        /* \"#utility.yul\":9529:9533   */\n      0x1f\n        /* \"#utility.yul\":9521:9527   */\n      dup10\n        /* \"#utility.yul\":9517:9534   */\n      and\n        /* \"#utility.yul\":9506:9515   */\n      dup3\n        /* \"#utility.yul\":9487:9535   */\n      tag_67\n      jump\t// in\n    tag_184:\n        /* \"#utility.yul\":9479:9485   */\n      dup4\n        /* \"#utility.yul\":9472:9536   */\n      sstore\n        /* \"#utility.yul\":9394:9550   */\n      pop\n        /* \"#utility.yul\":9371:9550   */\n    tag_183:\n        /* \"#utility.yul\":9596:9597   */\n      0x01\n        /* \"#utility.yul\":9592:9593   */\n      0x02\n        /* \"#utility.yul\":9584:9590   */\n      dup9\n        /* \"#utility.yul\":9580:9594   */\n      mul\n        /* \"#utility.yul\":9576:9598   */\n      add\n        /* \"#utility.yul\":9570:9574   */\n      dup9\n        /* \"#utility.yul\":9563:9599   */\n      sstore\n        /* \"#utility.yul\":8998:9609   */\n      pop\n      pop\n      pop\n        /* \"#utility.yul\":8961:9848   */\n    tag_175:\n      pop\n        /* \"#utility.yul\":8551:9854   */\n      pop\n      pop\n      pop\n        /* \"#utility.yul\":8459:9854   */\n      pop\n      pop\n      jump\t// out\n\n    auxdata: 0xa2646970667358221220e6adb16fae8f8914a8877ed5ed9f8a989b8f73b6042198abba4ad2e9f0db39f464736f6c634300081a0033\n}\n",
				"bytecode": {
					"linkReferences": {},
					"object": "6080604052348015600e575f80fd5b506107b88061001c5f395ff3fe608060405234801561000f575f80fd5b5060043610610034575f3560e01c80632083061a1461003857806341fef47f14610068575b5f80fd5b610052600480360381019061004d9190610290565b610086565b60405161005f919061032b565b60405180910390f35b61007061019a565b60405161007d919061032b565b60405180910390f35b60605f8290508073ffffffffffffffffffffffffffffffffffffffff1663fe704a9d6040518163ffffffff1660e01b81526004015f60405180830381865afa1580156100d4573d5f803e3d5ffd5b505050506040513d5f823e3d601f19601f820116820180604052508101906100fc9190610469565b5f908161010991906106b3565b505f8054610116906104dd565b80601f0160208091040260200160405190810160405280929190818152602001828054610142906104dd565b801561018d5780601f106101645761010080835404028352916020019161018d565b820191905f5260205f20905b81548152906001019060200180831161017057829003601f168201915b5050505050915050919050565b5f80546101a6906104dd565b80601f01602080910402602001604051908101604052809291908181526020018280546101d2906104dd565b801561021d5780601f106101f45761010080835404028352916020019161021d565b820191905f5260205f20905b81548152906001019060200180831161020057829003601f168201915b505050505081565b5f604051905090565b5f80fd5b5f80fd5b5f73ffffffffffffffffffffffffffffffffffffffff82169050919050565b5f61025f82610236565b9050919050565b61026f81610255565b8114610279575f80fd5b50565b5f8135905061028a81610266565b92915050565b5f602082840312156102a5576102a461022e565b5b5f6102b28482850161027c565b91505092915050565b5f81519050919050565b5f82825260208201905092915050565b8281835e5f83830152505050565b5f601f19601f8301169050919050565b5f6102fd826102bb565b61030781856102c5565b93506103178185602086016102d5565b610320816102e3565b840191505092915050565b5f6020820190508181035f83015261034381846102f3565b905092915050565b5f80fd5b5f80fd5b7f4e487b71000000000000000000000000000000000000000000000000000000005f52604160045260245ffd5b610389826102e3565b810181811067ffffffffffffffff821117156103a8576103a7610353565b5b80604052505050565b5f6103ba610225565b90506103c68282610380565b919050565b5f67ffffffffffffffff8211156103e5576103e4610353565b5b6103ee826102e3565b9050602081019050919050565b5f61040d610408846103cb565b6103b1565b9050828152602081018484840111156104295761042861034f565b5b6104348482856102d5565b509392505050565b5f82601f8301126104505761044f61034b565b5b81516104608482602086016103fb565b91505092915050565b5f6020828403121561047e5761047d61022e565b5b5f82015167ffffffffffffffff81111561049b5761049a610232565b5b6104a78482850161043c565b91505092915050565b7f4e487b71000000000000000000000000000000000000000000000000000000005f52602260045260245ffd5b5f60028204905060018216806104f457607f821691505b602082108103610507576105066104b0565b5b50919050565b5f819050815f5260205f209050919050565b5f6020601f8301049050919050565b5f82821b905092915050565b5f600883026105697fffffffffffffffffffffffffffffffffffffffffffffffffffffffffffffffff8261052e565b610573868361052e565b95508019841693508086168417925050509392505050565b5f819050919050565b5f819050919050565b5f6105b76105b26105ad8461058b565b610594565b61058b565b9050919050565b5f819050919050565b6105d08361059d565b6105e46105dc826105be565b84845461053a565b825550505050565b5f90565b6105f86105ec565b6106038184846105c7565b505050565b5b818110156106265761061b5f826105f0565b600181019050610609565b5050565b601f82111561066b5761063c8161050d565b6106458461051f565b81016020851015610654578190505b6106686106608561051f565b830182610608565b50505b505050565b5f82821c905092915050565b5f61068b5f1984600802610670565b1980831691505092915050565b5f6106a3838361067c565b9150826002028217905092915050565b6106bc826102bb565b67ffffffffffffffff8111156106d5576106d4610353565b5b6106df82546104dd565b6106ea82828561062a565b5f60209050601f83116001811461071b575f8415610709578287015190505b6107138582610698565b86555061077a565b601f1984166107298661050d565b5f5b828110156107505784890151825560018201915060208501945060208101905061072b565b8683101561076d5784890151610769601f89168261067c565b8355505b6001600288020188555050505b50505050505056fea2646970667358221220e6adb16fae8f8914a8877ed5ed9f8a989b8f73b6042198abba4ad2e9f0db39f464736f6c634300081a0033",
					"opcodes": "PUSH1 0x80 PUSH1 0x40 MSTORE CALLVALUE DUP1 ISZERO PUSH1 0xE JUMPI PUSH0 DUP1 REVERT JUMPDEST POP PUSH2 0x7B8 DUP1 PUSH2 0x1C PUSH0 CODECOPY PUSH0 RETURN INVALID PUSH1 0x80 PUSH1 0x40 MSTORE CALLVALUE DUP1 ISZERO PUSH2 0xF JUMPI PUSH0 DUP1 REVERT JUMPDEST POP PUSH1 0x4 CALLDATASIZE LT PUSH2 0x34 JUMPI PUSH0 CALLDATALOAD PUSH1 0xE0 SHR DUP1 PUSH4 0x2083061A EQ PUSH2 0x38 JUMPI DUP1 PUSH4 0x41FEF47F EQ PUSH2 0x68 JUMPI JUMPDEST PUSH0 DUP1 REVERT JUMPDEST PUSH2 0x52 PUSH1 0x4 DUP1 CALLDATASIZE SUB DUP2 ADD SWAP1 PUSH2 0x4D SWAP2 SWAP1 PUSH2 0x290 JUMP JUMPDEST PUSH2 0x86 JUMP JUMPDEST PUSH1 0x40 MLOAD PUSH2 0x5F SWAP2 SWAP1 PUSH2 0x32B JUMP JUMPDEST PUSH1 0x40 MLOAD DUP1 SWAP2 SUB SWAP1 RETURN JUMPDEST PUSH2 0x70 PUSH2 0x19A JUMP JUMPDEST PUSH1 0x40 MLOAD PUSH2 0x7D SWAP2 SWAP1 PUSH2 0x32B JUMP JUMPDEST PUSH1 0x40 MLOAD DUP1 SWAP2 SUB SWAP1 RETURN JUMPDEST PUSH1 0x60 PUSH0 DUP3 SWAP1 POP DUP1 PUSH20 0xFFFFFFFFFFFFFFFFFFFFFFFFFFFFFFFFFFFFFFFF AND PUSH4 0xFE704A9D PUSH1 0x40 MLOAD DUP2 PUSH4 0xFFFFFFFF AND PUSH1 0xE0 SHL DUP2 MSTORE PUSH1 0x4 ADD PUSH0 PUSH1 0x40 MLOAD DUP1 DUP4 SUB DUP2 DUP7 GAS STATICCALL ISZERO DUP1 ISZERO PUSH2 0xD4 JUMPI RETURNDATASIZE PUSH0 DUP1 RETURNDATACOPY RETURNDATASIZE PUSH0 REVERT JUMPDEST POP POP POP POP PUSH1 0x40 MLOAD RETURNDATASIZE PUSH0 DUP3 RETURNDATACOPY RETURNDATASIZE PUSH1 0x1F NOT PUSH1 0x1F DUP3 ADD AND DUP3 ADD DUP1 PUSH1 0x40 MSTORE POP DUP2 ADD SWAP1 PUSH2 0xFC SWAP2 SWAP1 PUSH2 0x469 JUMP JUMPDEST PUSH0 SWAP1 DUP2 PUSH2 0x109 SWAP2 SWAP1 PUSH2 0x6B3 JUMP JUMPDEST POP PUSH0 DUP1 SLOAD PUSH2 0x116 SWAP1 PUSH2 0x4DD JUMP JUMPDEST DUP1 PUSH1 0x1F ADD PUSH1 0x20 DUP1 SWAP2 DIV MUL PUSH1 0x20 ADD PUSH1 0x40 MLOAD SWAP1 DUP2 ADD PUSH1 0x40 MSTORE DUP1 SWAP3 SWAP2 SWAP1 DUP2 DUP2 MSTORE PUSH1 0x20 ADD DUP3 DUP1 SLOAD PUSH2 0x142 SWAP1 PUSH2 0x4DD JUMP JUMPDEST DUP1 ISZERO PUSH2 0x18D JUMPI DUP1 PUSH1 0x1F LT PUSH2 0x164 JUMPI PUSH2 0x100 DUP1 DUP4 SLOAD DIV MUL DUP4 MSTORE SWAP2 PUSH1 0x20 ADD SWAP2 PUSH2 0x18D JUMP JUMPDEST DUP3 ADD SWAP2 SWAP1 PUSH0 MSTORE PUSH1 0x20 PUSH0 KECCAK256 SWAP1 JUMPDEST DUP2 SLOAD DUP2 MSTORE SWAP1 PUSH1 0x1 ADD SWAP1 PUSH1 0x20 ADD DUP1 DUP4 GT PUSH2 0x170 JUMPI DUP3 SWAP1 SUB PUSH1 0x1F AND DUP3 ADD SWAP2 JUMPDEST POP POP POP POP POP SWAP2 POP POP SWAP2 SWAP1 POP JUMP JUMPDEST PUSH0 DUP1 SLOAD PUSH2 0x1A6 SWAP1 PUSH2 0x4DD JUMP JUMPDEST DUP1 PUSH1 0x1F ADD PUSH1 0x20 DUP1 SWAP2 DIV MUL PUSH1 0x20 ADD PUSH1 0x40 MLOAD SWAP1 DUP2 ADD PUSH1 0x40 MSTORE DUP1 SWAP3 SWAP2 SWAP1 DUP2 DUP2 MSTORE PUSH1 0x20 ADD DUP3 DUP1 SLOAD PUSH2 0x1D2 SWAP1 PUSH2 0x4DD JUMP JUMPDEST DUP1 ISZERO PUSH2 0x21D JUMPI DUP1 PUSH1 0x1F LT PUSH2 0x1F4 JUMPI PUSH2 0x100 DUP1 DUP4 SLOAD DIV MUL DUP4 MSTORE SWAP2 PUSH1 0x20 ADD SWAP2 PUSH2 0x21D JUMP JUMPDEST DUP3 ADD SWAP2 SWAP1 PUSH0 MSTORE PUSH1 0x20 PUSH0 KECCAK256 SWAP1 JUMPDEST DUP2 SLOAD DUP2 MSTORE SWAP1 PUSH1 0x1 ADD SWAP1 PUSH1 0x20 ADD DUP1 DUP4 GT PUSH2 0x200 JUMPI DUP3 SWAP1 SUB PUSH1 0x1F AND DUP3 ADD SWAP2 JUMPDEST POP POP POP POP POP DUP2 JUMP JUMPDEST PUSH0 PUSH1 0x40 MLOAD SWAP1 POP SWAP1 JUMP JUMPDEST PUSH0 DUP1 REVERT JUMPDEST PUSH0 DUP1 REVERT JUMPDEST PUSH0 PUSH20 0xFFFFFFFFFFFFFFFFFFFFFFFFFFFFFFFFFFFFFFFF DUP3 AND SWAP1 POP SWAP2 SWAP1 POP JUMP JUMPDEST PUSH0 PUSH2 0x25F DUP3 PUSH2 0x236 JUMP JUMPDEST SWAP1 POP SWAP2 SWAP1 POP JUMP JUMPDEST PUSH2 0x26F DUP2 PUSH2 0x255 JUMP JUMPDEST DUP2 EQ PUSH2 0x279 JUMPI PUSH0 DUP1 REVERT JUMPDEST POP JUMP JUMPDEST PUSH0 DUP2 CALLDATALOAD SWAP1 POP PUSH2 0x28A DUP2 PUSH2 0x266 JUMP JUMPDEST SWAP3 SWAP2 POP POP JUMP JUMPDEST PUSH0 PUSH1 0x20 DUP3 DUP5 SUB SLT ISZERO PUSH2 0x2A5 JUMPI PUSH2 0x2A4 PUSH2 0x22E JUMP JUMPDEST JUMPDEST PUSH0 PUSH2 0x2B2 DUP5 DUP3 DUP6 ADD PUSH2 0x27C JUMP JUMPDEST SWAP2 POP POP SWAP3 SWAP2 POP POP JUMP JUMPDEST PUSH0 DUP2 MLOAD SWAP1 POP SWAP2 SWAP1 POP JUMP JUMPDEST PUSH0 DUP3 DUP3 MSTORE PUSH1 0x20 DUP3 ADD SWAP1 POP SWAP3 SWAP2 POP POP JUMP JUMPDEST DUP3 DUP2 DUP4 MCOPY PUSH0 DUP4 DUP4 ADD MSTORE POP POP POP JUMP JUMPDEST PUSH0 PUSH1 0x1F NOT PUSH1 0x1F DUP4 ADD AND SWAP1 POP SWAP2 SWAP1 POP JUMP JUMPDEST PUSH0 PUSH2 0x2FD DUP3 PUSH2 0x2BB JUMP JUMPDEST PUSH2 0x307 DUP2 DUP6 PUSH2 0x2C5 JUMP JUMPDEST SWAP4 POP PUSH2 0x317 DUP2 DUP6 PUSH1 0x20 DUP7 ADD PUSH2 0x2D5 JUMP JUMPDEST PUSH2 0x320 DUP2 PUSH2 0x2E3 JUMP JUMPDEST DUP5 ADD SWAP2 POP POP SWAP3 SWAP2 POP POP JUMP JUMPDEST PUSH0 PUSH1 0x20 DUP3 ADD SWAP1 POP DUP2 DUP2 SUB PUSH0 DUP4 ADD MSTORE PUSH2 0x343 DUP2 DUP5 PUSH2 0x2F3 JUMP JUMPDEST SWAP1 POP SWAP3 SWAP2 POP POP JUMP JUMPDEST PUSH0 DUP1 REVERT JUMPDEST PUSH0 DUP1 REVERT JUMPDEST PUSH32 0x4E487B7100000000000000000000000000000000000000000000000000000000 PUSH0 MSTORE PUSH1 0x41 PUSH1 0x4 MSTORE PUSH1 0x24 PUSH0 REVERT JUMPDEST PUSH2 0x389 DUP3 PUSH2 0x2E3 JUMP JUMPDEST DUP2 ADD DUP2 DUP2 LT PUSH8 0xFFFFFFFFFFFFFFFF DUP3 GT OR ISZERO PUSH2 0x3A8 JUMPI PUSH2 0x3A7 PUSH2 0x353 JUMP JUMPDEST JUMPDEST DUP1 PUSH1 0x40 MSTORE POP POP POP JUMP JUMPDEST PUSH0 PUSH2 0x3BA PUSH2 0x225 JUMP JUMPDEST SWAP1 POP PUSH2 0x3C6 DUP3 DUP3 PUSH2 0x380 JUMP JUMPDEST SWAP2 SWAP1 POP JUMP JUMPDEST PUSH0 PUSH8 0xFFFFFFFFFFFFFFFF DUP3 GT ISZERO PUSH2 0x3E5 JUMPI PUSH2 0x3E4 PUSH2 0x353 JUMP JUMPDEST JUMPDEST PUSH2 0x3EE DUP3 PUSH2 0x2E3 JUMP JUMPDEST SWAP1 POP PUSH1 0x20 DUP2 ADD SWAP1 POP SWAP2 SWAP1 POP JUMP JUMPDEST PUSH0 PUSH2 0x40D PUSH2 0x408 DUP5 PUSH2 0x3CB JUMP JUMPDEST PUSH2 0x3B1 JUMP JUMPDEST SWAP1 POP DUP3 DUP2 MSTORE PUSH1 0x20 DUP2 ADD DUP5 DUP5 DUP5 ADD GT ISZERO PUSH2 0x429 JUMPI PUSH2 0x428 PUSH2 0x34F JUMP JUMPDEST JUMPDEST PUSH2 0x434 DUP5 DUP3 DUP6 PUSH2 0x2D5 JUMP JUMPDEST POP SWAP4 SWAP3 POP POP POP JUMP JUMPDEST PUSH0 DUP3 PUSH1 0x1F DUP4 ADD SLT PUSH2 0x450 JUMPI PUSH2 0x44F PUSH2 0x34B JUMP JUMPDEST JUMPDEST DUP2 MLOAD PUSH2 0x460 DUP5 DUP3 PUSH1 0x20 DUP7 ADD PUSH2 0x3FB JUMP JUMPDEST SWAP2 POP POP SWAP3 SWAP2 POP POP JUMP JUMPDEST PUSH0 PUSH1 0x20 DUP3 DUP5 SUB SLT ISZERO PUSH2 0x47E JUMPI PUSH2 0x47D PUSH2 0x22E JUMP JUMPDEST JUMPDEST PUSH0 DUP3 ADD MLOAD PUSH8 0xFFFFFFFFFFFFFFFF DUP2 GT ISZERO PUSH2 0x49B JUMPI PUSH2 0x49A PUSH2 0x232 JUMP JUMPDEST JUMPDEST PUSH2 0x4A7 DUP5 DUP3 DUP6 ADD PUSH2 0x43C JUMP JUMPDEST SWAP2 POP POP SWAP3 SWAP2 POP POP JUMP JUMPDEST PUSH32 0x4E487B7100000000000000000000000000000000000000000000000000000000 PUSH0 MSTORE PUSH1 0x22 PUSH1 0x4 MSTORE PUSH1 0x24 PUSH0 REVERT JUMPDEST PUSH0 PUSH1 0x2 DUP3 DIV SWAP1 POP PUSH1 0x1 DUP3 AND DUP1 PUSH2 0x4F4 JUMPI PUSH1 0x7F DUP3 AND SWAP2 POP JUMPDEST PUSH1 0x20 DUP3 LT DUP2 SUB PUSH2 0x507 JUMPI PUSH2 0x506 PUSH2 0x4B0 JUMP JUMPDEST JUMPDEST POP SWAP2 SWAP1 POP JUMP JUMPDEST PUSH0 DUP2 SWAP1 POP DUP2 PUSH0 MSTORE PUSH1 0x20 PUSH0 KECCAK256 SWAP1 POP SWAP2 SWAP1 POP JUMP JUMPDEST PUSH0 PUSH1 0x20 PUSH1 0x1F DUP4 ADD DIV SWAP1 POP SWAP2 SWAP1 POP JUMP JUMPDEST PUSH0 DUP3 DUP3 SHL SWAP1 POP SWAP3 SWAP2 POP POP JUMP JUMPDEST PUSH0 PUSH1 0x8 DUP4 MUL PUSH2 0x569 PUSH32 0xFFFFFFFFFFFFFFFFFFFFFFFFFFFFFFFFFFFFFFFFFFFFFFFFFFFFFFFFFFFFFFFF DUP3 PUSH2 0x52E JUMP JUMPDEST PUSH2 0x573 DUP7 DUP4 PUSH2 0x52E JUMP JUMPDEST SWAP6 POP DUP1 NOT DUP5 AND SWAP4 POP DUP1 DUP7 AND DUP5 OR SWAP3 POP POP POP SWAP4 SWAP3 POP POP POP JUMP JUMPDEST PUSH0 DUP2 SWAP1 POP SWAP2 SWAP1 POP JUMP JUMPDEST PUSH0 DUP2 SWAP1 POP SWAP2 SWAP1 POP JUMP JUMPDEST PUSH0 PUSH2 0x5B7 PUSH2 0x5B2 PUSH2 0x5AD DUP5 PUSH2 0x58B JUMP JUMPDEST PUSH2 0x594 JUMP JUMPDEST PUSH2 0x58B JUMP JUMPDEST SWAP1 POP SWAP2 SWAP1 POP JUMP JUMPDEST PUSH0 DUP2 SWAP1 POP SWAP2 SWAP1 POP JUMP JUMPDEST PUSH2 0x5D0 DUP4 PUSH2 0x59D JUMP JUMPDEST PUSH2 0x5E4 PUSH2 0x5DC DUP3 PUSH2 0x5BE JUMP JUMPDEST DUP5 DUP5 SLOAD PUSH2 0x53A JUMP JUMPDEST DUP3 SSTORE POP POP POP POP JUMP JUMPDEST PUSH0 SWAP1 JUMP JUMPDEST PUSH2 0x5F8 PUSH2 0x5EC JUMP JUMPDEST PUSH2 0x603 DUP2 DUP5 DUP5 PUSH2 0x5C7 JUMP JUMPDEST POP POP POP JUMP JUMPDEST JUMPDEST DUP2 DUP2 LT ISZERO PUSH2 0x626 JUMPI PUSH2 0x61B PUSH0 DUP3 PUSH2 0x5F0 JUMP JUMPDEST PUSH1 0x1 DUP2 ADD SWAP1 POP PUSH2 0x609 JUMP JUMPDEST POP POP JUMP JUMPDEST PUSH1 0x1F DUP3 GT ISZERO PUSH2 0x66B JUMPI PUSH2 0x63C DUP2 PUSH2 0x50D JUMP JUMPDEST PUSH2 0x645 DUP5 PUSH2 0x51F JUMP JUMPDEST DUP2 ADD PUSH1 0x20 DUP6 LT ISZERO PUSH2 0x654 JUMPI DUP2 SWAP1 POP JUMPDEST PUSH2 0x668 PUSH2 0x660 DUP6 PUSH2 0x51F JUMP JUMPDEST DUP4 ADD DUP3 PUSH2 0x608 JUMP JUMPDEST POP POP JUMPDEST POP POP POP JUMP JUMPDEST PUSH0 DUP3 DUP3 SHR SWAP1 POP SWAP3 SWAP2 POP POP JUMP JUMPDEST PUSH0 PUSH2 0x68B PUSH0 NOT DUP5 PUSH1 0x8 MUL PUSH2 0x670 JUMP JUMPDEST NOT DUP1 DUP4 AND SWAP2 POP POP SWAP3 SWAP2 POP POP JUMP JUMPDEST PUSH0 PUSH2 0x6A3 DUP4 DUP4 PUSH2 0x67C JUMP JUMPDEST SWAP2 POP DUP3 PUSH1 0x2 MUL DUP3 OR SWAP1 POP SWAP3 SWAP2 POP POP JUMP JUMPDEST PUSH2 0x6BC DUP3 PUSH2 0x2BB JUMP JUMPDEST PUSH8 0xFFFFFFFFFFFFFFFF DUP2 GT ISZERO PUSH2 0x6D5 JUMPI PUSH2 0x6D4 PUSH2 0x353 JUMP JUMPDEST JUMPDEST PUSH2 0x6DF DUP3 SLOAD PUSH2 0x4DD JUMP JUMPDEST PUSH2 0x6EA DUP3 DUP3 DUP6 PUSH2 0x62A JUMP JUMPDEST PUSH0 PUSH1 0x20 SWAP1 POP PUSH1 0x1F DUP4 GT PUSH1 0x1 DUP2 EQ PUSH2 0x71B JUMPI PUSH0 DUP5 ISZERO PUSH2 0x709 JUMPI DUP3 DUP8 ADD MLOAD SWAP1 POP JUMPDEST PUSH2 0x713 DUP6 DUP3 PUSH2 0x698 JUMP JUMPDEST DUP7 SSTORE POP PUSH2 0x77A JUMP JUMPDEST PUSH1 0x1F NOT DUP5 AND PUSH2 0x729 DUP7 PUSH2 0x50D JUMP JUMPDEST PUSH0 JUMPDEST DUP3 DUP2 LT ISZERO PUSH2 0x750 JUMPI DUP5 DUP10 ADD MLOAD DUP3 SSTORE PUSH1 0x1 DUP3 ADD SWAP2 POP PUSH1 0x20 DUP6 ADD SWAP5 POP PUSH1 0x20 DUP2 ADD SWAP1 POP PUSH2 0x72B JUMP JUMPDEST DUP7 DUP4 LT ISZERO PUSH2 0x76D JUMPI DUP5 DUP10 ADD MLOAD PUSH2 0x769 PUSH1 0x1F DUP10 AND DUP3 PUSH2 0x67C JUMP JUMPDEST DUP4 SSTORE POP JUMPDEST PUSH1 0x1 PUSH1 0x2 DUP9 MUL ADD DUP9 SSTORE POP POP POP JUMPDEST POP POP POP POP POP POP JUMP INVALID LOG2 PUSH5 0x6970667358 0x22 SLT KECCAK256 0xE6 0xAD 0xB1 PUSH16 0xAE8F8914A8877ED5ED9F8A989B8F73B6 DIV 0x21 SWAP9 0xAB 0xBA BLOBBASEFEE 0xD2 0xE9 CREATE 0xDB CODECOPY DELEGATECALL PUSH5 0x736F6C6343 STOP ADDMOD BYTE STOP CALLER "
				},
				"gasEstimates": {
					"creation": {
						"codeDepositCost": "395200",
						"executionCost": "428",
						"totalCost": "395628"
					},
					"external": {
						"GetNameTest(address)": "infinite",
						"Name_Test()": "infinite"
					}
				},
				"methodIdentifiers": {
					"GetNameTest(address)": "2083061a",
					"Name_Test()": "41fef47f"
				}
			},
			"storageLayout": {
				"storage": [
					{
						"astId": 25,
						"contract": "Contracts/Object2.sol:Object2",
						"label": "Name_Test",
						"offset": 0,
						"slot": "0",
						"type": "t_string_storage"
					}
				],
				"types": {
					"t_string_storage": {
						"encoding": "bytes",
						"label": "string",
						"numberOfBytes": "32"
					}
				}
			},
			"userdoc": {
				"kind": "user",
				"methods": {},
				"version": 1
			}
		}
	}
}