{
	"Contracts/Arrays.sol": {
		"Arrays": {
			"abi": [
				{
					"inputs": [
						{
							"internalType": "uint256",
							"name": "",
							"type": "uint256"
						}
					],
					"name": "Array1",
					"outputs": [
						{
							"internalType": "uint256",
							"name": "",
							"type": "uint256"
						}
					],
					"stateMutability": "view",
					"type": "function"
				},
				{
					"inputs": [
						{
							"internalType": "uint256",
							"name": "",
							"type": "uint256"
						},
						{
							"internalType": "uint256",
							"name": "",
							"type": "uint256"
						}
					],
					"name": "Array2",
					"outputs": [
						{
							"internalType": "uint256",
							"name": "",
							"type": "uint256"
						}
					],
					"stateMutability": "view",
					"type": "function"
				},
				{
					"inputs": [],
					"name": "GetTestArray1",
					"outputs": [
						{
							"internalType": "uint256[]",
							"name": "",
							"type": "uint256[]"
						}
					],
					"stateMutability": "view",
					"type": "function"
				},
				{
					"inputs": [],
					"name": "GetTestArray1Length",
					"outputs": [
						{
							"internalType": "uint256",
							"name": "",
							"type": "uint256"
						}
					],
					"stateMutability": "view",
					"type": "function"
				},
				{
					"inputs": [],
					"name": "GetTestArray1Push",
					"outputs": [
						{
							"internalType": "uint256[]",
							"name": "",
							"type": "uint256[]"
						}
					],
					"stateMutability": "nonpayable",
					"type": "function"
				},
				{
					"inputs": [],
					"name": "GetTestArray2",
					"outputs": [
						{
							"internalType": "uint256[][]",
							"name": "",
							"type": "uint256[][]"
						}
					],
					"stateMutability": "view",
					"type": "function"
				}
			],
			"devdoc": {
				"kind": "dev",
				"methods": {},
				"version": 1
			},
			"evm": {
				"assembly": "    /* \"Contracts/Arrays.sol\":60:612  contract Arrays{... */\n  mstore(0x40, 0x80)\n    /* \"Contracts/Arrays.sol\":82:118  uint[] public Array1 = [1,2,3,4,5,6] */\n  mload(0x40)\n  dup1\n  0xc0\n  add\n  0x40\n  mstore\n  dup1\n    /* \"Contracts/Arrays.sol\":106:107  1 */\n  0x01\n    /* \"Contracts/Arrays.sol\":82:118  uint[] public Array1 = [1,2,3,4,5,6] */\n  0xff\n  and\n  dup2\n  mstore\n  0x20\n  add\n    /* \"Contracts/Arrays.sol\":108:109  2 */\n  0x02\n    /* \"Contracts/Arrays.sol\":82:118  uint[] public Array1 = [1,2,3,4,5,6] */\n  0xff\n  and\n  dup2\n  mstore\n  0x20\n  add\n    /* \"Contracts/Arrays.sol\":110:111  3 */\n  0x03\n    /* \"Contracts/Arrays.sol\":82:118  uint[] public Array1 = [1,2,3,4,5,6] */\n  0xff\n  and\n  dup2\n  mstore\n  0x20\n  add\n    /* \"Contracts/Arrays.sol\":112:113  4 */\n  0x04\n    /* \"Contracts/Arrays.sol\":82:118  uint[] public Array1 = [1,2,3,4,5,6] */\n  0xff\n  and\n  dup2\n  mstore\n  0x20\n  add\n    /* \"Contracts/Arrays.sol\":114:115  5 */\n  0x05\n    /* \"Contracts/Arrays.sol\":82:118  uint[] public Array1 = [1,2,3,4,5,6] */\n  0xff\n  and\n  dup2\n  mstore\n  0x20\n  add\n    /* \"Contracts/Arrays.sol\":116:117  6 */\n  0x06\n    /* \"Contracts/Arrays.sol\":82:118  uint[] public Array1 = [1,2,3,4,5,6] */\n  0xff\n  and\n  dup2\n  mstore\n  pop\n  0x00\n  swap1\n  0x06\n  tag_1\n  swap3\n  swap2\n  swap1\n  tag_2\n  jump\t// in\ntag_1:\n  pop\n    /* \"Contracts/Arrays.sol\":125:168  uint[][] public Array2 = [[1,2,3], [4,5,6]] */\n  mload(0x40)\n  dup1\n  0x40\n  add\n  0x40\n  mstore\n  dup1\n  mload(0x40)\n  dup1\n  0x60\n  add\n  0x40\n  mstore\n  dup1\n    /* \"Contracts/Arrays.sol\":152:153  1 */\n  0x01\n    /* \"Contracts/Arrays.sol\":125:168  uint[][] public Array2 = [[1,2,3], [4,5,6]] */\n  0xff\n  and\n  dup2\n  mstore\n  0x20\n  add\n    /* \"Contracts/Arrays.sol\":154:155  2 */\n  0x02\n    /* \"Contracts/Arrays.sol\":125:168  uint[][] public Array2 = [[1,2,3], [4,5,6]] */\n  0xff\n  and\n  dup2\n  mstore\n  0x20\n  add\n    /* \"Contracts/Arrays.sol\":156:157  3 */\n  0x03\n    /* \"Contracts/Arrays.sol\":125:168  uint[][] public Array2 = [[1,2,3], [4,5,6]] */\n  0xff\n  and\n  dup2\n  mstore\n  pop\n  dup2\n  mstore\n  0x20\n  add\n  mload(0x40)\n  dup1\n  0x60\n  add\n  0x40\n  mstore\n  dup1\n    /* \"Contracts/Arrays.sol\":161:162  4 */\n  0x04\n    /* \"Contracts/Arrays.sol\":125:168  uint[][] public Array2 = [[1,2,3], [4,5,6]] */\n  0xff\n  and\n  dup2\n  mstore\n  0x20\n  add\n    /* \"Contracts/Arrays.sol\":163:164  5 */\n  0x05\n    /* \"Contracts/Arrays.sol\":125:168  uint[][] public Array2 = [[1,2,3], [4,5,6]] */\n  0xff\n  and\n  dup2\n  mstore\n  0x20\n  add\n    /* \"Contracts/Arrays.sol\":165:166  6 */\n  0x06\n    /* \"Contracts/Arrays.sol\":125:168  uint[][] public Array2 = [[1,2,3], [4,5,6]] */\n  0xff\n  and\n  dup2\n  mstore\n  pop\n  dup2\n  mstore\n  pop\n  0x01\n  swap1\n  0x02\n  tag_3\n  swap3\n  swap2\n  swap1\n  tag_4\n  jump\t// in\ntag_3:\n  pop\n    /* \"Contracts/Arrays.sol\":60:612  contract Arrays{... */\n  callvalue\n  dup1\n  iszero\n  tag_5\n  jumpi\n  0x00\n  dup1\n  revert\ntag_5:\n  pop\n  jump(tag_6)\ntag_2:\n  dup3\n  dup1\n  sload\n  dup3\n  dup3\n  sstore\n  swap1\n  0x00\n  mstore\n  keccak256(0x00, 0x20)\n  swap1\n  dup2\n  add\n  swap3\n  dup3\n  iszero\n  tag_7\n  jumpi\n  swap2\n  0x20\n  mul\n  dup3\n  add\ntag_8:\n  dup3\n  dup2\n  gt\n  iszero\n  tag_9\n  jumpi\n  dup3\n  mload\n  dup3\n  swap1\n  0xff\n  and\n  swap1\n  sstore\n  swap2\n  0x20\n  add\n  swap2\n  swap1\n  0x01\n  add\n  swap1\n  jump(tag_8)\ntag_9:\ntag_7:\n  pop\n  swap1\n  pop\n  tag_10\n  swap2\n  swap1\n  tag_11\n  jump\t// in\ntag_10:\n  pop\n  swap1\n  jump\t// out\ntag_4:\n  dup3\n  dup1\n  sload\n  dup3\n  dup3\n  sstore\n  swap1\n  0x00\n  mstore\n  keccak256(0x00, 0x20)\n  swap1\n  dup2\n  add\n  swap3\n  dup3\n  iszero\n  tag_12\n  jumpi\n  swap2\n  0x20\n  mul\n  dup3\n  add\ntag_13:\n  dup3\n  dup2\n  gt\n  iszero\n  tag_14\n  jumpi\n  dup3\n  mload\n  dup3\n  swap1\n  0x03\n  tag_15\n  swap3\n  swap2\n  swap1\n  tag_16\n  jump\t// in\ntag_15:\n  pop\n  swap2\n  0x20\n  add\n  swap2\n  swap1\n  0x01\n  add\n  swap1\n  jump(tag_13)\ntag_14:\ntag_12:\n  pop\n  swap1\n  pop\n  tag_17\n  swap2\n  swap1\n  tag_18\n  jump\t// in\ntag_17:\n  pop\n  swap1\n  jump\t// out\ntag_11:\ntag_19:\n  dup1\n  dup3\n  gt\n  iszero\n  tag_20\n  jumpi\n  0x00\n  dup2\n  0x00\n  swap1\n  sstore\n  pop\n  0x01\n  add\n  jump(tag_19)\ntag_20:\n  pop\n  swap1\n  jump\t// out\ntag_16:\n  dup3\n  dup1\n  sload\n  dup3\n  dup3\n  sstore\n  swap1\n  0x00\n  mstore\n  keccak256(0x00, 0x20)\n  swap1\n  dup2\n  add\n  swap3\n  dup3\n  iszero\n  tag_21\n  jumpi\n  swap2\n  0x20\n  mul\n  dup3\n  add\ntag_22:\n  dup3\n  dup2\n  gt\n  iszero\n  tag_23\n  jumpi\n  dup3\n  mload\n  dup3\n  swap1\n  0xff\n  and\n  swap1\n  sstore\n  swap2\n  0x20\n  add\n  swap2\n  swap1\n  0x01\n  add\n  swap1\n  jump(tag_22)\ntag_23:\ntag_21:\n  pop\n  swap1\n  pop\n  tag_24\n  swap2\n  swap1\n  tag_11\n  jump\t// in\ntag_24:\n  pop\n  swap1\n  jump\t// out\ntag_18:\ntag_25:\n  dup1\n  dup3\n  gt\n  iszero\n  tag_26\n  jumpi\n  0x00\n  dup2\n  dup2\n  tag_27\n  swap2\n  swap1\n  tag_28\n  jump\t// in\ntag_27:\n  pop\n  0x01\n  add\n  jump(tag_25)\ntag_26:\n  pop\n  swap1\n  jump\t// out\ntag_28:\n  pop\n  dup1\n  sload\n  0x00\n  dup3\n  sstore\n  swap1\n  0x00\n  mstore\n  keccak256(0x00, 0x20)\n  swap1\n  dup2\n  add\n  swap1\n  tag_30\n  swap2\n  swap1\n  tag_11\n  jump\t// in\ntag_30:\n  pop\n  jump\t// out\ntag_6:\n  dataSize(sub_0)\n  dup1\n  dataOffset(sub_0)\n  0x00\n  codecopy\n  0x00\n  return\nstop\n\nsub_0: assembly {\n        /* \"Contracts/Arrays.sol\":60:612  contract Arrays{... */\n      mstore(0x40, 0x80)\n      callvalue\n      dup1\n      iszero\n      tag_1\n      jumpi\n      0x00\n      dup1\n      revert\n    tag_1:\n      pop\n      jumpi(tag_2, lt(calldatasize, 0x04))\n      shr(0xe0, calldataload(0x00))\n      dup1\n      0x1de5fe09\n      eq\n      tag_3\n      jumpi\n      dup1\n      0x27362653\n      eq\n      tag_4\n      jumpi\n      dup1\n      0x5761edc3\n      eq\n      tag_5\n      jumpi\n      dup1\n      0xb74f3ac1\n      eq\n      tag_6\n      jumpi\n      dup1\n      0xcbc321e2\n      eq\n      tag_7\n      jumpi\n      dup1\n      0xce19c0c8\n      eq\n      tag_8\n      jumpi\n    tag_2:\n      0x00\n      dup1\n      revert\n        /* \"Contracts/Arrays.sol\":82:118  uint[] public Array1 = [1,2,3,4,5,6] */\n    tag_3:\n      tag_9\n      0x04\n      dup1\n      calldatasize\n      sub\n      dup2\n      add\n      swap1\n      tag_10\n      swap2\n      swap1\n      tag_11\n      jump\t// in\n    tag_10:\n      tag_12\n      jump\t// in\n    tag_9:\n      mload(0x40)\n      tag_13\n      swap2\n      swap1\n      tag_14\n      jump\t// in\n    tag_13:\n      mload(0x40)\n      dup1\n      swap2\n      sub\n      swap1\n      return\n        /* \"Contracts/Arrays.sol\":280:375  function GetTestArray2() public  view returns (uint[][] memory){... */\n    tag_4:\n      tag_15\n      tag_16\n      jump\t// in\n    tag_15:\n      mload(0x40)\n      tag_17\n      swap2\n      swap1\n      tag_18\n      jump\t// in\n    tag_17:\n      mload(0x40)\n      dup1\n      swap2\n      sub\n      swap1\n      return\n        /* \"Contracts/Arrays.sol\":389:485  function GetTestArray1Length() public  view returns(uint){... */\n    tag_5:\n      tag_19\n      tag_20\n      jump\t// in\n    tag_19:\n      mload(0x40)\n      tag_21\n      swap2\n      swap1\n      tag_14\n      jump\t// in\n    tag_21:\n      mload(0x40)\n      dup1\n      swap2\n      sub\n      swap1\n      return\n        /* \"Contracts/Arrays.sol\":125:168  uint[][] public Array2 = [[1,2,3], [4,5,6]] */\n    tag_6:\n      tag_22\n      0x04\n      dup1\n      calldatasize\n      sub\n      dup2\n      add\n      swap1\n      tag_23\n      swap2\n      swap1\n      tag_24\n      jump\t// in\n    tag_23:\n      tag_25\n      jump\t// in\n    tag_22:\n      mload(0x40)\n      tag_26\n      swap2\n      swap1\n      tag_14\n      jump\t// in\n    tag_26:\n      mload(0x40)\n      dup1\n      swap2\n      sub\n      swap1\n      return\n        /* \"Contracts/Arrays.sol\":179:272  function GetTestArray1() public  view  returns(uint[] memory){... */\n    tag_7:\n      tag_27\n      tag_28\n      jump\t// in\n    tag_27:\n      mload(0x40)\n      tag_29\n      swap2\n      swap1\n      tag_30\n      jump\t// in\n    tag_29:\n      mload(0x40)\n      dup1\n      swap2\n      sub\n      swap1\n      return\n        /* \"Contracts/Arrays.sol\":493:609  function GetTestArray1Push() public  returns(uint[] memory){... */\n    tag_8:\n      tag_31\n      tag_32\n      jump\t// in\n    tag_31:\n      mload(0x40)\n      tag_33\n      swap2\n      swap1\n      tag_30\n      jump\t// in\n    tag_33:\n      mload(0x40)\n      dup1\n      swap2\n      sub\n      swap1\n      return\n        /* \"Contracts/Arrays.sol\":82:118  uint[] public Array1 = [1,2,3,4,5,6] */\n    tag_12:\n      0x00\n      dup2\n      dup2\n      sload\n      dup2\n      lt\n      tag_34\n      jumpi\n      0x00\n      dup1\n      revert\n    tag_34:\n      swap1\n      0x00\n      mstore\n      keccak256(0x00, 0x20)\n      add\n      0x00\n      swap2\n      pop\n      swap1\n      pop\n      sload\n      dup2\n      jump\t// out\n        /* \"Contracts/Arrays.sol\":280:375  function GetTestArray2() public  view returns (uint[][] memory){... */\n    tag_16:\n        /* \"Contracts/Arrays.sol\":327:342  uint[][] memory */\n      0x60\n        /* \"Contracts/Arrays.sol\":361:367  Array2 */\n      0x01\n        /* \"Contracts/Arrays.sol\":354:367  return Array2 */\n      dup1\n      sload\n      dup1\n      0x20\n      mul\n      0x20\n      add\n      mload(0x40)\n      swap1\n      dup2\n      add\n      0x40\n      mstore\n      dup1\n      swap3\n      swap2\n      swap1\n      dup2\n      dup2\n      mstore\n      0x20\n      add\n      0x00\n      swap1\n    tag_37:\n      dup3\n      dup3\n      lt\n      iszero\n      tag_38\n      jumpi\n      dup4\n      dup3\n      swap1\n      0x00\n      mstore\n      keccak256(0x00, 0x20)\n      add\n      dup1\n      sload\n      dup1\n      0x20\n      mul\n      0x20\n      add\n      mload(0x40)\n      swap1\n      dup2\n      add\n      0x40\n      mstore\n      dup1\n      swap3\n      swap2\n      swap1\n      dup2\n      dup2\n      mstore\n      0x20\n      add\n      dup3\n      dup1\n      sload\n      dup1\n      iszero\n      tag_40\n      jumpi\n      0x20\n      mul\n      dup3\n      add\n      swap2\n      swap1\n      0x00\n      mstore\n      keccak256(0x00, 0x20)\n      swap1\n    tag_41:\n      dup2\n      sload\n      dup2\n      mstore\n      0x20\n      add\n      swap1\n      0x01\n      add\n      swap1\n      dup1\n      dup4\n      gt\n      tag_41\n      jumpi\n    tag_40:\n      pop\n      pop\n      pop\n      pop\n      pop\n      dup2\n      mstore\n      0x20\n      add\n      swap1\n      0x01\n      add\n      swap1\n      jump(tag_37)\n    tag_38:\n      pop\n      pop\n      pop\n      pop\n      swap1\n      pop\n        /* \"Contracts/Arrays.sol\":280:375  function GetTestArray2() public  view returns (uint[][] memory){... */\n      swap1\n      jump\t// out\n        /* \"Contracts/Arrays.sol\":389:485  function GetTestArray1Length() public  view returns(uint){... */\n    tag_20:\n        /* \"Contracts/Arrays.sol\":441:445  uint */\n      0x00\n        /* \"Contracts/Arrays.sol\":464:470  Array1 */\n      dup1\n        /* \"Contracts/Arrays.sol\":464:477  Array1.length */\n      dup1\n      sload\n      swap1\n      pop\n        /* \"Contracts/Arrays.sol\":457:477  return Array1.length */\n      swap1\n      pop\n        /* \"Contracts/Arrays.sol\":389:485  function GetTestArray1Length() public  view returns(uint){... */\n      swap1\n      jump\t// out\n        /* \"Contracts/Arrays.sol\":125:168  uint[][] public Array2 = [[1,2,3], [4,5,6]] */\n    tag_25:\n      0x01\n      dup3\n      dup2\n      sload\n      dup2\n      lt\n      tag_43\n      jumpi\n      0x00\n      dup1\n      revert\n    tag_43:\n      swap1\n      0x00\n      mstore\n      keccak256(0x00, 0x20)\n      add\n      dup2\n      dup2\n      sload\n      dup2\n      lt\n      tag_45\n      jumpi\n      0x00\n      dup1\n      revert\n    tag_45:\n      swap1\n      0x00\n      mstore\n      keccak256(0x00, 0x20)\n      add\n      0x00\n      swap2\n      pop\n      swap2\n      pop\n      pop\n      sload\n      dup2\n      jump\t// out\n        /* \"Contracts/Arrays.sol\":179:272  function GetTestArray1() public  view  returns(uint[] memory){... */\n    tag_28:\n        /* \"Contracts/Arrays.sol\":226:239  uint[] memory */\n      0x60\n        /* \"Contracts/Arrays.sol\":258:264  Array1 */\n      0x00\n        /* \"Contracts/Arrays.sol\":251:264  return Array1 */\n      dup1\n      sload\n      dup1\n      0x20\n      mul\n      0x20\n      add\n      mload(0x40)\n      swap1\n      dup2\n      add\n      0x40\n      mstore\n      dup1\n      swap3\n      swap2\n      swap1\n      dup2\n      dup2\n      mstore\n      0x20\n      add\n      dup3\n      dup1\n      sload\n      dup1\n      iszero\n      tag_48\n      jumpi\n      0x20\n      mul\n      dup3\n      add\n      swap2\n      swap1\n      0x00\n      mstore\n      keccak256(0x00, 0x20)\n      swap1\n    tag_49:\n      dup2\n      sload\n      dup2\n      mstore\n      0x20\n      add\n      swap1\n      0x01\n      add\n      swap1\n      dup1\n      dup4\n      gt\n      tag_49\n      jumpi\n    tag_48:\n      pop\n      pop\n      pop\n      pop\n      pop\n      swap1\n      pop\n        /* \"Contracts/Arrays.sol\":179:272  function GetTestArray1() public  view  returns(uint[] memory){... */\n      swap1\n      jump\t// out\n        /* \"Contracts/Arrays.sol\":493:609  function GetTestArray1Push() public  returns(uint[] memory){... */\n    tag_32:\n        /* \"Contracts/Arrays.sol\":538:551  uint[] memory */\n      0x60\n        /* \"Contracts/Arrays.sol\":563:569  Array1 */\n      0x00\n        /* \"Contracts/Arrays.sol\":575:576  7 */\n      0x07\n        /* \"Contracts/Arrays.sol\":563:577  Array1.push(7) */\n      swap1\n      dup1\n      0x01\n      dup2\n      sload\n      add\n      dup1\n      dup3\n      sstore\n      dup1\n      swap2\n      pop\n      pop\n      0x01\n      swap1\n      sub\n      swap1\n      0x00\n      mstore\n      keccak256(0x00, 0x20)\n      add\n      0x00\n      swap1\n      swap2\n      swap1\n      swap2\n      swap1\n      swap2\n      pop\n      sstore\n        /* \"Contracts/Arrays.sol\":595:601  Array1 */\n      0x00\n        /* \"Contracts/Arrays.sol\":588:601  return Array1 */\n      dup1\n      sload\n      dup1\n      0x20\n      mul\n      0x20\n      add\n      mload(0x40)\n      swap1\n      dup2\n      add\n      0x40\n      mstore\n      dup1\n      swap3\n      swap2\n      swap1\n      dup2\n      dup2\n      mstore\n      0x20\n      add\n      dup3\n      dup1\n      sload\n      dup1\n      iszero\n      tag_52\n      jumpi\n      0x20\n      mul\n      dup3\n      add\n      swap2\n      swap1\n      0x00\n      mstore\n      keccak256(0x00, 0x20)\n      swap1\n    tag_53:\n      dup2\n      sload\n      dup2\n      mstore\n      0x20\n      add\n      swap1\n      0x01\n      add\n      swap1\n      dup1\n      dup4\n      gt\n      tag_53\n      jumpi\n    tag_52:\n      pop\n      pop\n      pop\n      pop\n      pop\n      swap1\n      pop\n        /* \"Contracts/Arrays.sol\":493:609  function GetTestArray1Push() public  returns(uint[] memory){... */\n      swap1\n      jump\t// out\n        /* \"#utility.yul\":88:205   */\n    tag_55:\n        /* \"#utility.yul\":197:198   */\n      0x00\n        /* \"#utility.yul\":194:195   */\n      dup1\n        /* \"#utility.yul\":187:199   */\n      revert\n        /* \"#utility.yul\":334:411   */\n    tag_57:\n        /* \"#utility.yul\":371:378   */\n      0x00\n        /* \"#utility.yul\":400:405   */\n      dup2\n        /* \"#utility.yul\":389:405   */\n      swap1\n      pop\n        /* \"#utility.yul\":334:411   */\n      swap2\n      swap1\n      pop\n      jump\t// out\n        /* \"#utility.yul\":417:539   */\n    tag_58:\n        /* \"#utility.yul\":490:514   */\n      tag_82\n        /* \"#utility.yul\":508:513   */\n      dup2\n        /* \"#utility.yul\":490:514   */\n      tag_57\n      jump\t// in\n    tag_82:\n        /* \"#utility.yul\":483:488   */\n      dup2\n        /* \"#utility.yul\":480:515   */\n      eq\n        /* \"#utility.yul\":470:533   */\n      tag_83\n      jumpi\n        /* \"#utility.yul\":529:530   */\n      0x00\n        /* \"#utility.yul\":526:527   */\n      dup1\n        /* \"#utility.yul\":519:531   */\n      revert\n        /* \"#utility.yul\":470:533   */\n    tag_83:\n        /* \"#utility.yul\":417:539   */\n      pop\n      jump\t// out\n        /* \"#utility.yul\":545:684   */\n    tag_59:\n        /* \"#utility.yul\":591:596   */\n      0x00\n        /* \"#utility.yul\":629:635   */\n      dup2\n        /* \"#utility.yul\":616:636   */\n      calldataload\n        /* \"#utility.yul\":607:636   */\n      swap1\n      pop\n        /* \"#utility.yul\":645:678   */\n      tag_85\n        /* \"#utility.yul\":672:677   */\n      dup2\n        /* \"#utility.yul\":645:678   */\n      tag_58\n      jump\t// in\n    tag_85:\n        /* \"#utility.yul\":545:684   */\n      swap3\n      swap2\n      pop\n      pop\n      jump\t// out\n        /* \"#utility.yul\":690:1019   */\n    tag_11:\n        /* \"#utility.yul\":749:755   */\n      0x00\n        /* \"#utility.yul\":798:800   */\n      0x20\n        /* \"#utility.yul\":786:795   */\n      dup3\n        /* \"#utility.yul\":777:784   */\n      dup5\n        /* \"#utility.yul\":773:796   */\n      sub\n        /* \"#utility.yul\":769:801   */\n      slt\n        /* \"#utility.yul\":766:885   */\n      iszero\n      tag_87\n      jumpi\n        /* \"#utility.yul\":804:883   */\n      tag_88\n      tag_55\n      jump\t// in\n    tag_88:\n        /* \"#utility.yul\":766:885   */\n    tag_87:\n        /* \"#utility.yul\":924:925   */\n      0x00\n        /* \"#utility.yul\":949:1002   */\n      tag_89\n        /* \"#utility.yul\":994:1001   */\n      dup5\n        /* \"#utility.yul\":985:991   */\n      dup3\n        /* \"#utility.yul\":974:983   */\n      dup6\n        /* \"#utility.yul\":970:992   */\n      add\n        /* \"#utility.yul\":949:1002   */\n      tag_59\n      jump\t// in\n    tag_89:\n        /* \"#utility.yul\":939:1002   */\n      swap2\n      pop\n        /* \"#utility.yul\":895:1012   */\n      pop\n        /* \"#utility.yul\":690:1019   */\n      swap3\n      swap2\n      pop\n      pop\n      jump\t// out\n        /* \"#utility.yul\":1025:1143   */\n    tag_60:\n        /* \"#utility.yul\":1112:1136   */\n      tag_91\n        /* \"#utility.yul\":1130:1135   */\n      dup2\n        /* \"#utility.yul\":1112:1136   */\n      tag_57\n      jump\t// in\n    tag_91:\n        /* \"#utility.yul\":1107:1110   */\n      dup3\n        /* \"#utility.yul\":1100:1137   */\n      mstore\n        /* \"#utility.yul\":1025:1143   */\n      pop\n      pop\n      jump\t// out\n        /* \"#utility.yul\":1149:1371   */\n    tag_14:\n        /* \"#utility.yul\":1242:1246   */\n      0x00\n        /* \"#utility.yul\":1280:1282   */\n      0x20\n        /* \"#utility.yul\":1269:1278   */\n      dup3\n        /* \"#utility.yul\":1265:1283   */\n      add\n        /* \"#utility.yul\":1257:1283   */\n      swap1\n      pop\n        /* \"#utility.yul\":1293:1364   */\n      tag_93\n        /* \"#utility.yul\":1361:1362   */\n      0x00\n        /* \"#utility.yul\":1350:1359   */\n      dup4\n        /* \"#utility.yul\":1346:1363   */\n      add\n        /* \"#utility.yul\":1337:1343   */\n      dup5\n        /* \"#utility.yul\":1293:1364   */\n      tag_60\n      jump\t// in\n    tag_93:\n        /* \"#utility.yul\":1149:1371   */\n      swap3\n      swap2\n      pop\n      pop\n      jump\t// out\n        /* \"#utility.yul\":1377:1516   */\n    tag_61:\n        /* \"#utility.yul\":1469:1475   */\n      0x00\n        /* \"#utility.yul\":1503:1508   */\n      dup2\n        /* \"#utility.yul\":1497:1509   */\n      mload\n        /* \"#utility.yul\":1487:1509   */\n      swap1\n      pop\n        /* \"#utility.yul\":1377:1516   */\n      swap2\n      swap1\n      pop\n      jump\t// out\n        /* \"#utility.yul\":1522:1731   */\n    tag_62:\n        /* \"#utility.yul\":1646:1657   */\n      0x00\n        /* \"#utility.yul\":1680:1686   */\n      dup3\n        /* \"#utility.yul\":1675:1678   */\n      dup3\n        /* \"#utility.yul\":1668:1687   */\n      mstore\n        /* \"#utility.yul\":1720:1724   */\n      0x20\n        /* \"#utility.yul\":1715:1718   */\n      dup3\n        /* \"#utility.yul\":1711:1725   */\n      add\n        /* \"#utility.yul\":1696:1725   */\n      swap1\n      pop\n        /* \"#utility.yul\":1522:1731   */\n      swap3\n      swap2\n      pop\n      pop\n      jump\t// out\n        /* \"#utility.yul\":1737:1894   */\n    tag_63:\n        /* \"#utility.yul\":1829:1833   */\n      0x00\n        /* \"#utility.yul\":1852:1855   */\n      dup2\n        /* \"#utility.yul\":1844:1855   */\n      swap1\n      pop\n        /* \"#utility.yul\":1882:1886   */\n      0x20\n        /* \"#utility.yul\":1877:1880   */\n      dup3\n        /* \"#utility.yul\":1873:1887   */\n      add\n        /* \"#utility.yul\":1865:1887   */\n      swap1\n      pop\n        /* \"#utility.yul\":1737:1894   */\n      swap2\n      swap1\n      pop\n      jump\t// out\n        /* \"#utility.yul\":1900:2014   */\n    tag_64:\n        /* \"#utility.yul\":1967:1973   */\n      0x00\n        /* \"#utility.yul\":2001:2006   */\n      dup2\n        /* \"#utility.yul\":1995:2007   */\n      mload\n        /* \"#utility.yul\":1985:2007   */\n      swap1\n      pop\n        /* \"#utility.yul\":1900:2014   */\n      swap2\n      swap1\n      pop\n      jump\t// out\n        /* \"#utility.yul\":2020:2194   */\n    tag_65:\n        /* \"#utility.yul\":2109:2120   */\n      0x00\n        /* \"#utility.yul\":2143:2149   */\n      dup3\n        /* \"#utility.yul\":2138:2141   */\n      dup3\n        /* \"#utility.yul\":2131:2150   */\n      mstore\n        /* \"#utility.yul\":2183:2187   */\n      0x20\n        /* \"#utility.yul\":2178:2181   */\n      dup3\n        /* \"#utility.yul\":2174:2188   */\n      add\n        /* \"#utility.yul\":2159:2188   */\n      swap1\n      pop\n        /* \"#utility.yul\":2020:2194   */\n      swap3\n      swap2\n      pop\n      pop\n      jump\t// out\n        /* \"#utility.yul\":2200:2332   */\n    tag_66:\n        /* \"#utility.yul\":2267:2271   */\n      0x00\n        /* \"#utility.yul\":2290:2293   */\n      dup2\n        /* \"#utility.yul\":2282:2293   */\n      swap1\n      pop\n        /* \"#utility.yul\":2320:2324   */\n      0x20\n        /* \"#utility.yul\":2315:2318   */\n      dup3\n        /* \"#utility.yul\":2311:2325   */\n      add\n        /* \"#utility.yul\":2303:2325   */\n      swap1\n      pop\n        /* \"#utility.yul\":2200:2332   */\n      swap2\n      swap1\n      pop\n      jump\t// out\n        /* \"#utility.yul\":2338:2446   */\n    tag_67:\n        /* \"#utility.yul\":2415:2439   */\n      tag_101\n        /* \"#utility.yul\":2433:2438   */\n      dup2\n        /* \"#utility.yul\":2415:2439   */\n      tag_57\n      jump\t// in\n    tag_101:\n        /* \"#utility.yul\":2410:2413   */\n      dup3\n        /* \"#utility.yul\":2403:2440   */\n      mstore\n        /* \"#utility.yul\":2338:2446   */\n      pop\n      pop\n      jump\t// out\n        /* \"#utility.yul\":2452:2631   */\n    tag_68:\n        /* \"#utility.yul\":2521:2531   */\n      0x00\n        /* \"#utility.yul\":2542:2588   */\n      tag_103\n        /* \"#utility.yul\":2584:2587   */\n      dup4\n        /* \"#utility.yul\":2576:2582   */\n      dup4\n        /* \"#utility.yul\":2542:2588   */\n      tag_67\n      jump\t// in\n    tag_103:\n        /* \"#utility.yul\":2620:2624   */\n      0x20\n        /* \"#utility.yul\":2615:2618   */\n      dup4\n        /* \"#utility.yul\":2611:2625   */\n      add\n        /* \"#utility.yul\":2597:2625   */\n      swap1\n      pop\n        /* \"#utility.yul\":2452:2631   */\n      swap3\n      swap2\n      pop\n      pop\n      jump\t// out\n        /* \"#utility.yul\":2637:2750   */\n    tag_69:\n        /* \"#utility.yul\":2707:2711   */\n      0x00\n        /* \"#utility.yul\":2739:2743   */\n      0x20\n        /* \"#utility.yul\":2734:2737   */\n      dup3\n        /* \"#utility.yul\":2730:2744   */\n      add\n        /* \"#utility.yul\":2722:2744   */\n      swap1\n      pop\n        /* \"#utility.yul\":2637:2750   */\n      swap2\n      swap1\n      pop\n      jump\t// out\n        /* \"#utility.yul\":2786:3498   */\n    tag_70:\n        /* \"#utility.yul\":2895:2898   */\n      0x00\n        /* \"#utility.yul\":2924:2978   */\n      tag_106\n        /* \"#utility.yul\":2972:2977   */\n      dup3\n        /* \"#utility.yul\":2924:2978   */\n      tag_64\n      jump\t// in\n    tag_106:\n        /* \"#utility.yul\":2994:3070   */\n      tag_107\n        /* \"#utility.yul\":3063:3069   */\n      dup2\n        /* \"#utility.yul\":3058:3061   */\n      dup6\n        /* \"#utility.yul\":2994:3070   */\n      tag_65\n      jump\t// in\n    tag_107:\n        /* \"#utility.yul\":2987:3070   */\n      swap4\n      pop\n        /* \"#utility.yul\":3094:3150   */\n      tag_108\n        /* \"#utility.yul\":3144:3149   */\n      dup4\n        /* \"#utility.yul\":3094:3150   */\n      tag_66\n      jump\t// in\n    tag_108:\n        /* \"#utility.yul\":3173:3180   */\n      dup1\n        /* \"#utility.yul\":3204:3205   */\n      0x00\n        /* \"#utility.yul\":3189:3473   */\n    tag_109:\n        /* \"#utility.yul\":3214:3220   */\n      dup4\n        /* \"#utility.yul\":3211:3212   */\n      dup2\n        /* \"#utility.yul\":3208:3221   */\n      lt\n        /* \"#utility.yul\":3189:3473   */\n      iszero\n      tag_111\n      jumpi\n        /* \"#utility.yul\":3290:3296   */\n      dup2\n        /* \"#utility.yul\":3284:3297   */\n      mload\n        /* \"#utility.yul\":3317:3380   */\n      tag_112\n        /* \"#utility.yul\":3376:3379   */\n      dup9\n        /* \"#utility.yul\":3361:3374   */\n      dup3\n        /* \"#utility.yul\":3317:3380   */\n      tag_68\n      jump\t// in\n    tag_112:\n        /* \"#utility.yul\":3310:3380   */\n      swap8\n      pop\n        /* \"#utility.yul\":3403:3463   */\n      tag_113\n        /* \"#utility.yul\":3456:3462   */\n      dup4\n        /* \"#utility.yul\":3403:3463   */\n      tag_69\n      jump\t// in\n    tag_113:\n        /* \"#utility.yul\":3393:3463   */\n      swap3\n      pop\n        /* \"#utility.yul\":3249:3473   */\n      pop\n        /* \"#utility.yul\":3236:3237   */\n      0x01\n        /* \"#utility.yul\":3233:3234   */\n      dup2\n        /* \"#utility.yul\":3229:3238   */\n      add\n        /* \"#utility.yul\":3224:3238   */\n      swap1\n      pop\n        /* \"#utility.yul\":3189:3473   */\n      jump(tag_109)\n    tag_111:\n        /* \"#utility.yul\":3193:3207   */\n      pop\n        /* \"#utility.yul\":3489:3492   */\n      dup6\n        /* \"#utility.yul\":3482:3492   */\n      swap4\n      pop\n        /* \"#utility.yul\":2900:3498   */\n      pop\n      pop\n      pop\n        /* \"#utility.yul\":2786:3498   */\n      swap3\n      swap2\n      pop\n      pop\n      jump\t// out\n        /* \"#utility.yul\":3504:3760   */\n    tag_71:\n        /* \"#utility.yul\":3623:3633   */\n      0x00\n        /* \"#utility.yul\":3658:3754   */\n      tag_115\n        /* \"#utility.yul\":3750:3753   */\n      dup4\n        /* \"#utility.yul\":3742:3748   */\n      dup4\n        /* \"#utility.yul\":3658:3754   */\n      tag_70\n      jump\t// in\n    tag_115:\n        /* \"#utility.yul\":3644:3754   */\n      swap1\n      pop\n        /* \"#utility.yul\":3504:3760   */\n      swap3\n      swap2\n      pop\n      pop\n      jump\t// out\n        /* \"#utility.yul\":3766:3904   */\n    tag_72:\n        /* \"#utility.yul\":3861:3865   */\n      0x00\n        /* \"#utility.yul\":3893:3897   */\n      0x20\n        /* \"#utility.yul\":3888:3891   */\n      dup3\n        /* \"#utility.yul\":3884:3898   */\n      add\n        /* \"#utility.yul\":3876:3898   */\n      swap1\n      pop\n        /* \"#utility.yul\":3766:3904   */\n      swap2\n      swap1\n      pop\n      jump\t// out\n        /* \"#utility.yul\":3944:5055   */\n    tag_73:\n        /* \"#utility.yul\":4113:4116   */\n      0x00\n        /* \"#utility.yul\":4142:4221   */\n      tag_118\n        /* \"#utility.yul\":4215:4220   */\n      dup3\n        /* \"#utility.yul\":4142:4221   */\n      tag_61\n      jump\t// in\n    tag_118:\n        /* \"#utility.yul\":4237:4348   */\n      tag_119\n        /* \"#utility.yul\":4341:4347   */\n      dup2\n        /* \"#utility.yul\":4336:4339   */\n      dup6\n        /* \"#utility.yul\":4237:4348   */\n      tag_62\n      jump\t// in\n    tag_119:\n        /* \"#utility.yul\":4230:4348   */\n      swap4\n      pop\n        /* \"#utility.yul\":4374:4377   */\n      dup4\n        /* \"#utility.yul\":4419:4423   */\n      0x20\n        /* \"#utility.yul\":4411:4417   */\n      dup3\n        /* \"#utility.yul\":4407:4424   */\n      mul\n        /* \"#utility.yul\":4402:4405   */\n      dup6\n        /* \"#utility.yul\":4398:4425   */\n      add\n        /* \"#utility.yul\":4449:4530   */\n      tag_120\n        /* \"#utility.yul\":4524:4529   */\n      dup6\n        /* \"#utility.yul\":4449:4530   */\n      tag_63\n      jump\t// in\n    tag_120:\n        /* \"#utility.yul\":4553:4560   */\n      dup1\n        /* \"#utility.yul\":4584:4585   */\n      0x00\n        /* \"#utility.yul\":4569:5010   */\n    tag_121:\n        /* \"#utility.yul\":4594:4600   */\n      dup6\n        /* \"#utility.yul\":4591:4592   */\n      dup2\n        /* \"#utility.yul\":4588:4601   */\n      lt\n        /* \"#utility.yul\":4569:5010   */\n      iszero\n      tag_123\n      jumpi\n        /* \"#utility.yul\":4665:4674   */\n      dup5\n        /* \"#utility.yul\":4659:4663   */\n      dup5\n        /* \"#utility.yul\":4655:4675   */\n      sub\n        /* \"#utility.yul\":4650:4653   */\n      dup10\n        /* \"#utility.yul\":4643:4676   */\n      mstore\n        /* \"#utility.yul\":4716:4722   */\n      dup2\n        /* \"#utility.yul\":4710:4723   */\n      mload\n        /* \"#utility.yul\":4744:4858   */\n      tag_124\n        /* \"#utility.yul\":4853:4857   */\n      dup6\n        /* \"#utility.yul\":4838:4851   */\n      dup3\n        /* \"#utility.yul\":4744:4858   */\n      tag_71\n      jump\t// in\n    tag_124:\n        /* \"#utility.yul\":4736:4858   */\n      swap5\n      pop\n        /* \"#utility.yul\":4881:4966   */\n      tag_125\n        /* \"#utility.yul\":4959:4965   */\n      dup4\n        /* \"#utility.yul\":4881:4966   */\n      tag_72\n      jump\t// in\n    tag_125:\n        /* \"#utility.yul\":4871:4966   */\n      swap3\n      pop\n        /* \"#utility.yul\":4995:4999   */\n      0x20\n        /* \"#utility.yul\":4990:4993   */\n      dup11\n        /* \"#utility.yul\":4986:5000   */\n      add\n        /* \"#utility.yul\":4979:5000   */\n      swap10\n      pop\n        /* \"#utility.yul\":4629:5010   */\n      pop\n        /* \"#utility.yul\":4616:4617   */\n      0x01\n        /* \"#utility.yul\":4613:4614   */\n      dup2\n        /* \"#utility.yul\":4609:4618   */\n      add\n        /* \"#utility.yul\":4604:4618   */\n      swap1\n      pop\n        /* \"#utility.yul\":4569:5010   */\n      jump(tag_121)\n    tag_123:\n        /* \"#utility.yul\":4573:4587   */\n      pop\n        /* \"#utility.yul\":5026:5030   */\n      dup3\n        /* \"#utility.yul\":5019:5030   */\n      swap8\n      pop\n        /* \"#utility.yul\":5046:5049   */\n      dup8\n        /* \"#utility.yul\":5039:5049   */\n      swap6\n      pop\n        /* \"#utility.yul\":4118:5055   */\n      pop\n      pop\n      pop\n      pop\n      pop\n        /* \"#utility.yul\":3944:5055   */\n      swap3\n      swap2\n      pop\n      pop\n      jump\t// out\n        /* \"#utility.yul\":5061:5534   */\n    tag_18:\n        /* \"#utility.yul\":5254:5258   */\n      0x00\n        /* \"#utility.yul\":5292:5294   */\n      0x20\n        /* \"#utility.yul\":5281:5290   */\n      dup3\n        /* \"#utility.yul\":5277:5295   */\n      add\n        /* \"#utility.yul\":5269:5295   */\n      swap1\n      pop\n        /* \"#utility.yul\":5341:5350   */\n      dup2\n        /* \"#utility.yul\":5335:5339   */\n      dup2\n        /* \"#utility.yul\":5331:5351   */\n      sub\n        /* \"#utility.yul\":5327:5328   */\n      0x00\n        /* \"#utility.yul\":5316:5325   */\n      dup4\n        /* \"#utility.yul\":5312:5329   */\n      add\n        /* \"#utility.yul\":5305:5352   */\n      mstore\n        /* \"#utility.yul\":5369:5527   */\n      tag_127\n        /* \"#utility.yul\":5522:5526   */\n      dup2\n        /* \"#utility.yul\":5513:5519   */\n      dup5\n        /* \"#utility.yul\":5369:5527   */\n      tag_73\n      jump\t// in\n    tag_127:\n        /* \"#utility.yul\":5361:5527   */\n      swap1\n      pop\n        /* \"#utility.yul\":5061:5534   */\n      swap3\n      swap2\n      pop\n      pop\n      jump\t// out\n        /* \"#utility.yul\":5540:6014   */\n    tag_24:\n        /* \"#utility.yul\":5608:5614   */\n      0x00\n        /* \"#utility.yul\":5616:5622   */\n      dup1\n        /* \"#utility.yul\":5665:5667   */\n      0x40\n        /* \"#utility.yul\":5653:5662   */\n      dup4\n        /* \"#utility.yul\":5644:5651   */\n      dup6\n        /* \"#utility.yul\":5640:5663   */\n      sub\n        /* \"#utility.yul\":5636:5668   */\n      slt\n        /* \"#utility.yul\":5633:5752   */\n      iszero\n      tag_129\n      jumpi\n        /* \"#utility.yul\":5671:5750   */\n      tag_130\n      tag_55\n      jump\t// in\n    tag_130:\n        /* \"#utility.yul\":5633:5752   */\n    tag_129:\n        /* \"#utility.yul\":5791:5792   */\n      0x00\n        /* \"#utility.yul\":5816:5869   */\n      tag_131\n        /* \"#utility.yul\":5861:5868   */\n      dup6\n        /* \"#utility.yul\":5852:5858   */\n      dup3\n        /* \"#utility.yul\":5841:5850   */\n      dup7\n        /* \"#utility.yul\":5837:5859   */\n      add\n        /* \"#utility.yul\":5816:5869   */\n      tag_59\n      jump\t// in\n    tag_131:\n        /* \"#utility.yul\":5806:5869   */\n      swap3\n      pop\n        /* \"#utility.yul\":5762:5879   */\n      pop\n        /* \"#utility.yul\":5918:5920   */\n      0x20\n        /* \"#utility.yul\":5944:5997   */\n      tag_132\n        /* \"#utility.yul\":5989:5996   */\n      dup6\n        /* \"#utility.yul\":5980:5986   */\n      dup3\n        /* \"#utility.yul\":5969:5978   */\n      dup7\n        /* \"#utility.yul\":5965:5987   */\n      add\n        /* \"#utility.yul\":5944:5997   */\n      tag_59\n      jump\t// in\n    tag_132:\n        /* \"#utility.yul\":5934:5997   */\n      swap2\n      pop\n        /* \"#utility.yul\":5889:6007   */\n      pop\n        /* \"#utility.yul\":5540:6014   */\n      swap3\n      pop\n      swap3\n      swap1\n      pop\n      jump\t// out\n        /* \"#utility.yul\":6020:6204   */\n    tag_74:\n        /* \"#utility.yul\":6119:6130   */\n      0x00\n        /* \"#utility.yul\":6153:6159   */\n      dup3\n        /* \"#utility.yul\":6148:6151   */\n      dup3\n        /* \"#utility.yul\":6141:6160   */\n      mstore\n        /* \"#utility.yul\":6193:6197   */\n      0x20\n        /* \"#utility.yul\":6188:6191   */\n      dup3\n        /* \"#utility.yul\":6184:6198   */\n      add\n        /* \"#utility.yul\":6169:6198   */\n      swap1\n      pop\n        /* \"#utility.yul\":6020:6204   */\n      swap3\n      swap2\n      pop\n      pop\n      jump\t// out\n        /* \"#utility.yul\":6240:6972   */\n    tag_75:\n        /* \"#utility.yul\":6359:6362   */\n      0x00\n        /* \"#utility.yul\":6388:6442   */\n      tag_135\n        /* \"#utility.yul\":6436:6441   */\n      dup3\n        /* \"#utility.yul\":6388:6442   */\n      tag_64\n      jump\t// in\n    tag_135:\n        /* \"#utility.yul\":6458:6544   */\n      tag_136\n        /* \"#utility.yul\":6537:6543   */\n      dup2\n        /* \"#utility.yul\":6532:6535   */\n      dup6\n        /* \"#utility.yul\":6458:6544   */\n      tag_74\n      jump\t// in\n    tag_136:\n        /* \"#utility.yul\":6451:6544   */\n      swap4\n      pop\n        /* \"#utility.yul\":6568:6624   */\n      tag_137\n        /* \"#utility.yul\":6618:6623   */\n      dup4\n        /* \"#utility.yul\":6568:6624   */\n      tag_66\n      jump\t// in\n    tag_137:\n        /* \"#utility.yul\":6647:6654   */\n      dup1\n        /* \"#utility.yul\":6678:6679   */\n      0x00\n        /* \"#utility.yul\":6663:6947   */\n    tag_138:\n        /* \"#utility.yul\":6688:6694   */\n      dup4\n        /* \"#utility.yul\":6685:6686   */\n      dup2\n        /* \"#utility.yul\":6682:6695   */\n      lt\n        /* \"#utility.yul\":6663:6947   */\n      iszero\n      tag_140\n      jumpi\n        /* \"#utility.yul\":6764:6770   */\n      dup2\n        /* \"#utility.yul\":6758:6771   */\n      mload\n        /* \"#utility.yul\":6791:6854   */\n      tag_141\n        /* \"#utility.yul\":6850:6853   */\n      dup9\n        /* \"#utility.yul\":6835:6848   */\n      dup3\n        /* \"#utility.yul\":6791:6854   */\n      tag_68\n      jump\t// in\n    tag_141:\n        /* \"#utility.yul\":6784:6854   */\n      swap8\n      pop\n        /* \"#utility.yul\":6877:6937   */\n      tag_142\n        /* \"#utility.yul\":6930:6936   */\n      dup4\n        /* \"#utility.yul\":6877:6937   */\n      tag_69\n      jump\t// in\n    tag_142:\n        /* \"#utility.yul\":6867:6937   */\n      swap3\n      pop\n        /* \"#utility.yul\":6723:6947   */\n      pop\n        /* \"#utility.yul\":6710:6711   */\n      0x01\n        /* \"#utility.yul\":6707:6708   */\n      dup2\n        /* \"#utility.yul\":6703:6712   */\n      add\n        /* \"#utility.yul\":6698:6712   */\n      swap1\n      pop\n        /* \"#utility.yul\":6663:6947   */\n      jump(tag_138)\n    tag_140:\n        /* \"#utility.yul\":6667:6681   */\n      pop\n        /* \"#utility.yul\":6963:6966   */\n      dup6\n        /* \"#utility.yul\":6956:6966   */\n      swap4\n      pop\n        /* \"#utility.yul\":6364:6972   */\n      pop\n      pop\n      pop\n        /* \"#utility.yul\":6240:6972   */\n      swap3\n      swap2\n      pop\n      pop\n      jump\t// out\n        /* \"#utility.yul\":6978:7351   */\n    tag_30:\n        /* \"#utility.yul\":7121:7125   */\n      0x00\n        /* \"#utility.yul\":7159:7161   */\n      0x20\n        /* \"#utility.yul\":7148:7157   */\n      dup3\n        /* \"#utility.yul\":7144:7162   */\n      add\n        /* \"#utility.yul\":7136:7162   */\n      swap1\n      pop\n        /* \"#utility.yul\":7208:7217   */\n      dup2\n        /* \"#utility.yul\":7202:7206   */\n      dup2\n        /* \"#utility.yul\":7198:7218   */\n      sub\n        /* \"#utility.yul\":7194:7195   */\n      0x00\n        /* \"#utility.yul\":7183:7192   */\n      dup4\n        /* \"#utility.yul\":7179:7196   */\n      add\n        /* \"#utility.yul\":7172:7219   */\n      mstore\n        /* \"#utility.yul\":7236:7344   */\n      tag_144\n        /* \"#utility.yul\":7339:7343   */\n      dup2\n        /* \"#utility.yul\":7330:7336   */\n      dup5\n        /* \"#utility.yul\":7236:7344   */\n      tag_75\n      jump\t// in\n    tag_144:\n        /* \"#utility.yul\":7228:7344   */\n      swap1\n      pop\n        /* \"#utility.yul\":6978:7351   */\n      swap3\n      swap2\n      pop\n      pop\n      jump\t// out\n\n    auxdata: 0xa264697066735822122097ddb3d770e5d800c9dec73709d6f160844237c249b3fba9db2683149e2b09c964736f6c634300081a0033\n}\n",
				"bytecode": {
					"linkReferences": {},
					"object": "60806040526040518060c00160405280600160ff168152602001600260ff168152602001600360ff168152602001600460ff168152602001600560ff168152602001600660ff168152505f9060066100589291906100dc565b5060405180604001604052806040518060600160405280600160ff168152602001600260ff168152602001600360ff1681525081526020016040518060600160405280600460ff168152602001600560ff168152602001600660ff1681525081525060019060026100ca92919061012c565b503480156100d6575f80fd5b50610231565b828054828255905f5260205f2090810192821561011b579160200282015b8281111561011a578251829060ff169055916020019190600101906100fa565b5b5090506101289190610185565b5090565b828054828255905f5260205f20908101928215610174579160200282015b82811115610173578251829060036101639291906101a0565b509160200191906001019061014a565b5b50905061018191906101f0565b5090565b5b8082111561019c575f815f905550600101610186565b5090565b828054828255905f5260205f209081019282156101df579160200282015b828111156101de578251829060ff169055916020019190600101906101be565b5b5090506101ec9190610185565b5090565b5b8082111561020f575f81816102069190610213565b506001016101f1565b5090565b5080545f8255905f5260205f209081019061022e9190610185565b50565b6106228061023e5f395ff3fe608060405234801561000f575f80fd5b5060043610610060575f3560e01c80631de5fe091461006457806327362653146100945780635761edc3146100b2578063b74f3ac1146100d0578063cbc321e214610100578063ce19c0c81461011e575b5f80fd5b61007e6004803603810190610079919061033d565b61013c565b60405161008b9190610377565b60405180910390f35b61009c61015b565b6040516100a99190610502565b60405180910390f35b6100ba6101f5565b6040516100c79190610377565b60405180910390f35b6100ea60048036038101906100e59190610522565b610200565b6040516100f79190610377565b60405180910390f35b610108610236565b60405161011591906105cc565b60405180910390f35b61012661028b565b60405161013391906105cc565b60405180910390f35b5f818154811061014a575f80fd5b905f5260205f20015f915090505481565b60606001805480602002602001604051908101604052809291908181526020015f905b828210156101ec578382905f5260205f20018054806020026020016040519081016040528092919081815260200182805480156101d857602002820191905f5260205f20905b8154815260200190600101908083116101c4575b50505050508152602001906001019061017e565b50505050905090565b5f8080549050905090565b6001828154811061020f575f80fd5b905f5260205f20018181548110610224575f80fd5b905f5260205f20015f91509150505481565b60605f80548060200260200160405190810160405280929190818152602001828054801561028157602002820191905f5260205f20905b81548152602001906001019080831161026d575b5050505050905090565b60605f6007908060018154018082558091505060019003905f5260205f20015f90919091909150555f8054806020026020016040519081016040528092919081815260200182805480156102fc57602002820191905f5260205f20905b8154815260200190600101908083116102e8575b5050505050905090565b5f80fd5b5f819050919050565b61031c8161030a565b8114610326575f80fd5b50565b5f8135905061033781610313565b92915050565b5f6020828403121561035257610351610306565b5b5f61035f84828501610329565b91505092915050565b6103718161030a565b82525050565b5f60208201905061038a5f830184610368565b92915050565b5f81519050919050565b5f82825260208201905092915050565b5f819050602082019050919050565b5f81519050919050565b5f82825260208201905092915050565b5f819050602082019050919050565b6103eb8161030a565b82525050565b5f6103fc83836103e2565b60208301905092915050565b5f602082019050919050565b5f61041e826103b9565b61042881856103c3565b9350610433836103d3565b805f5b8381101561046357815161044a88826103f1565b975061045583610408565b925050600181019050610436565b5085935050505092915050565b5f61047b8383610414565b905092915050565b5f602082019050919050565b5f61049982610390565b6104a3818561039a565b9350836020820285016104b5856103aa565b805f5b858110156104f057848403895281516104d18582610470565b94506104dc83610483565b925060208a019950506001810190506104b8565b50829750879550505050505092915050565b5f6020820190508181035f83015261051a818461048f565b905092915050565b5f806040838503121561053857610537610306565b5b5f61054585828601610329565b925050602061055685828601610329565b9150509250929050565b5f82825260208201905092915050565b5f61057a826103b9565b6105848185610560565b935061058f836103d3565b805f5b838110156105bf5781516105a688826103f1565b97506105b183610408565b925050600181019050610592565b5085935050505092915050565b5f6020820190508181035f8301526105e48184610570565b90509291505056fea264697066735822122097ddb3d770e5d800c9dec73709d6f160844237c249b3fba9db2683149e2b09c964736f6c634300081a0033",
					"opcodes": "PUSH1 0x80 PUSH1 0x40 MSTORE PUSH1 0x40 MLOAD DUP1 PUSH1 0xC0 ADD PUSH1 0x40 MSTORE DUP1 PUSH1 0x1 PUSH1 0xFF AND DUP2 MSTORE PUSH1 0x20 ADD PUSH1 0x2 PUSH1 0xFF AND DUP2 MSTORE PUSH1 0x20 ADD PUSH1 0x3 PUSH1 0xFF AND DUP2 MSTORE PUSH1 0x20 ADD PUSH1 0x4 PUSH1 0xFF AND DUP2 MSTORE PUSH1 0x20 ADD PUSH1 0x5 PUSH1 0xFF AND DUP2 MSTORE PUSH1 0x20 ADD PUSH1 0x6 PUSH1 0xFF AND DUP2 MSTORE POP PUSH0 SWAP1 PUSH1 0x6 PUSH2 0x58 SWAP3 SWAP2 SWAP1 PUSH2 0xDC JUMP JUMPDEST POP PUSH1 0x40 MLOAD DUP1 PUSH1 0x40 ADD PUSH1 0x40 MSTORE DUP1 PUSH1 0x40 MLOAD DUP1 PUSH1 0x60 ADD PUSH1 0x40 MSTORE DUP1 PUSH1 0x1 PUSH1 0xFF AND DUP2 MSTORE PUSH1 0x20 ADD PUSH1 0x2 PUSH1 0xFF AND DUP2 MSTORE PUSH1 0x20 ADD PUSH1 0x3 PUSH1 0xFF AND DUP2 MSTORE POP DUP2 MSTORE PUSH1 0x20 ADD PUSH1 0x40 MLOAD DUP1 PUSH1 0x60 ADD PUSH1 0x40 MSTORE DUP1 PUSH1 0x4 PUSH1 0xFF AND DUP2 MSTORE PUSH1 0x20 ADD PUSH1 0x5 PUSH1 0xFF AND DUP2 MSTORE PUSH1 0x20 ADD PUSH1 0x6 PUSH1 0xFF AND DUP2 MSTORE POP DUP2 MSTORE POP PUSH1 0x1 SWAP1 PUSH1 0x2 PUSH2 0xCA SWAP3 SWAP2 SWAP1 PUSH2 0x12C JUMP JUMPDEST POP CALLVALUE DUP1 ISZERO PUSH2 0xD6 JUMPI PUSH0 DUP1 REVERT JUMPDEST POP PUSH2 0x231 JUMP JUMPDEST DUP3 DUP1 SLOAD DUP3 DUP3 SSTORE SWAP1 PUSH0 MSTORE PUSH1 0x20 PUSH0 KECCAK256 SWAP1 DUP2 ADD SWAP3 DUP3 ISZERO PUSH2 0x11B JUMPI SWAP2 PUSH1 0x20 MUL DUP3 ADD JUMPDEST DUP3 DUP2 GT ISZERO PUSH2 0x11A JUMPI DUP3 MLOAD DUP3 SWAP1 PUSH1 0xFF AND SWAP1 SSTORE SWAP2 PUSH1 0x20 ADD SWAP2 SWAP1 PUSH1 0x1 ADD SWAP1 PUSH2 0xFA JUMP JUMPDEST JUMPDEST POP SWAP1 POP PUSH2 0x128 SWAP2 SWAP1 PUSH2 0x185 JUMP JUMPDEST POP SWAP1 JUMP JUMPDEST DUP3 DUP1 SLOAD DUP3 DUP3 SSTORE SWAP1 PUSH0 MSTORE PUSH1 0x20 PUSH0 KECCAK256 SWAP1 DUP2 ADD SWAP3 DUP3 ISZERO PUSH2 0x174 JUMPI SWAP2 PUSH1 0x20 MUL DUP3 ADD JUMPDEST DUP3 DUP2 GT ISZERO PUSH2 0x173 JUMPI DUP3 MLOAD DUP3 SWAP1 PUSH1 0x3 PUSH2 0x163 SWAP3 SWAP2 SWAP1 PUSH2 0x1A0 JUMP JUMPDEST POP SWAP2 PUSH1 0x20 ADD SWAP2 SWAP1 PUSH1 0x1 ADD SWAP1 PUSH2 0x14A JUMP JUMPDEST JUMPDEST POP SWAP1 POP PUSH2 0x181 SWAP2 SWAP1 PUSH2 0x1F0 JUMP JUMPDEST POP SWAP1 JUMP JUMPDEST JUMPDEST DUP1 DUP3 GT ISZERO PUSH2 0x19C JUMPI PUSH0 DUP2 PUSH0 SWAP1 SSTORE POP PUSH1 0x1 ADD PUSH2 0x186 JUMP JUMPDEST POP SWAP1 JUMP JUMPDEST DUP3 DUP1 SLOAD DUP3 DUP3 SSTORE SWAP1 PUSH0 MSTORE PUSH1 0x20 PUSH0 KECCAK256 SWAP1 DUP2 ADD SWAP3 DUP3 ISZERO PUSH2 0x1DF JUMPI SWAP2 PUSH1 0x20 MUL DUP3 ADD JUMPDEST DUP3 DUP2 GT ISZERO PUSH2 0x1DE JUMPI DUP3 MLOAD DUP3 SWAP1 PUSH1 0xFF AND SWAP1 SSTORE SWAP2 PUSH1 0x20 ADD SWAP2 SWAP1 PUSH1 0x1 ADD SWAP1 PUSH2 0x1BE JUMP JUMPDEST JUMPDEST POP SWAP1 POP PUSH2 0x1EC SWAP2 SWAP1 PUSH2 0x185 JUMP JUMPDEST POP SWAP1 JUMP JUMPDEST JUMPDEST DUP1 DUP3 GT ISZERO PUSH2 0x20F JUMPI PUSH0 DUP2 DUP2 PUSH2 0x206 SWAP2 SWAP1 PUSH2 0x213 JUMP JUMPDEST POP PUSH1 0x1 ADD PUSH2 0x1F1 JUMP JUMPDEST POP SWAP1 JUMP JUMPDEST POP DUP1 SLOAD PUSH0 DUP3 SSTORE SWAP1 PUSH0 MSTORE PUSH1 0x20 PUSH0 KECCAK256 SWAP1 DUP2 ADD SWAP1 PUSH2 0x22E SWAP2 SWAP1 PUSH2 0x185 JUMP JUMPDEST POP JUMP JUMPDEST PUSH2 0x622 DUP1 PUSH2 0x23E PUSH0 CODECOPY PUSH0 RETURN INVALID PUSH1 0x80 PUSH1 0x40 MSTORE CALLVALUE DUP1 ISZERO PUSH2 0xF JUMPI PUSH0 DUP1 REVERT JUMPDEST POP PUSH1 0x4 CALLDATASIZE LT PUSH2 0x60 JUMPI PUSH0 CALLDATALOAD PUSH1 0xE0 SHR DUP1 PUSH4 0x1DE5FE09 EQ PUSH2 0x64 JUMPI DUP1 PUSH4 0x27362653 EQ PUSH2 0x94 JUMPI DUP1 PUSH4 0x5761EDC3 EQ PUSH2 0xB2 JUMPI DUP1 PUSH4 0xB74F3AC1 EQ PUSH2 0xD0 JUMPI DUP1 PUSH4 0xCBC321E2 EQ PUSH2 0x100 JUMPI DUP1 PUSH4 0xCE19C0C8 EQ PUSH2 0x11E JUMPI JUMPDEST PUSH0 DUP1 REVERT JUMPDEST PUSH2 0x7E PUSH1 0x4 DUP1 CALLDATASIZE SUB DUP2 ADD SWAP1 PUSH2 0x79 SWAP2 SWAP1 PUSH2 0x33D JUMP JUMPDEST PUSH2 0x13C JUMP JUMPDEST PUSH1 0x40 MLOAD PUSH2 0x8B SWAP2 SWAP1 PUSH2 0x377 JUMP JUMPDEST PUSH1 0x40 MLOAD DUP1 SWAP2 SUB SWAP1 RETURN JUMPDEST PUSH2 0x9C PUSH2 0x15B JUMP JUMPDEST PUSH1 0x40 MLOAD PUSH2 0xA9 SWAP2 SWAP1 PUSH2 0x502 JUMP JUMPDEST PUSH1 0x40 MLOAD DUP1 SWAP2 SUB SWAP1 RETURN JUMPDEST PUSH2 0xBA PUSH2 0x1F5 JUMP JUMPDEST PUSH1 0x40 MLOAD PUSH2 0xC7 SWAP2 SWAP1 PUSH2 0x377 JUMP JUMPDEST PUSH1 0x40 MLOAD DUP1 SWAP2 SUB SWAP1 RETURN JUMPDEST PUSH2 0xEA PUSH1 0x4 DUP1 CALLDATASIZE SUB DUP2 ADD SWAP1 PUSH2 0xE5 SWAP2 SWAP1 PUSH2 0x522 JUMP JUMPDEST PUSH2 0x200 JUMP JUMPDEST PUSH1 0x40 MLOAD PUSH2 0xF7 SWAP2 SWAP1 PUSH2 0x377 JUMP JUMPDEST PUSH1 0x40 MLOAD DUP1 SWAP2 SUB SWAP1 RETURN JUMPDEST PUSH2 0x108 PUSH2 0x236 JUMP JUMPDEST PUSH1 0x40 MLOAD PUSH2 0x115 SWAP2 SWAP1 PUSH2 0x5CC JUMP JUMPDEST PUSH1 0x40 MLOAD DUP1 SWAP2 SUB SWAP1 RETURN JUMPDEST PUSH2 0x126 PUSH2 0x28B JUMP JUMPDEST PUSH1 0x40 MLOAD PUSH2 0x133 SWAP2 SWAP1 PUSH2 0x5CC JUMP JUMPDEST PUSH1 0x40 MLOAD DUP1 SWAP2 SUB SWAP1 RETURN JUMPDEST PUSH0 DUP2 DUP2 SLOAD DUP2 LT PUSH2 0x14A JUMPI PUSH0 DUP1 REVERT JUMPDEST SWAP1 PUSH0 MSTORE PUSH1 0x20 PUSH0 KECCAK256 ADD PUSH0 SWAP2 POP SWAP1 POP SLOAD DUP2 JUMP JUMPDEST PUSH1 0x60 PUSH1 0x1 DUP1 SLOAD DUP1 PUSH1 0x20 MUL PUSH1 0x20 ADD PUSH1 0x40 MLOAD SWAP1 DUP2 ADD PUSH1 0x40 MSTORE DUP1 SWAP3 SWAP2 SWAP1 DUP2 DUP2 MSTORE PUSH1 0x20 ADD PUSH0 SWAP1 JUMPDEST DUP3 DUP3 LT ISZERO PUSH2 0x1EC JUMPI DUP4 DUP3 SWAP1 PUSH0 MSTORE PUSH1 0x20 PUSH0 KECCAK256 ADD DUP1 SLOAD DUP1 PUSH1 0x20 MUL PUSH1 0x20 ADD PUSH1 0x40 MLOAD SWAP1 DUP2 ADD PUSH1 0x40 MSTORE DUP1 SWAP3 SWAP2 SWAP1 DUP2 DUP2 MSTORE PUSH1 0x20 ADD DUP3 DUP1 SLOAD DUP1 ISZERO PUSH2 0x1D8 JUMPI PUSH1 0x20 MUL DUP3 ADD SWAP2 SWAP1 PUSH0 MSTORE PUSH1 0x20 PUSH0 KECCAK256 SWAP1 JUMPDEST DUP2 SLOAD DUP2 MSTORE PUSH1 0x20 ADD SWAP1 PUSH1 0x1 ADD SWAP1 DUP1 DUP4 GT PUSH2 0x1C4 JUMPI JUMPDEST POP POP POP POP POP DUP2 MSTORE PUSH1 0x20 ADD SWAP1 PUSH1 0x1 ADD SWAP1 PUSH2 0x17E JUMP JUMPDEST POP POP POP POP SWAP1 POP SWAP1 JUMP JUMPDEST PUSH0 DUP1 DUP1 SLOAD SWAP1 POP SWAP1 POP SWAP1 JUMP JUMPDEST PUSH1 0x1 DUP3 DUP2 SLOAD DUP2 LT PUSH2 0x20F JUMPI PUSH0 DUP1 REVERT JUMPDEST SWAP1 PUSH0 MSTORE PUSH1 0x20 PUSH0 KECCAK256 ADD DUP2 DUP2 SLOAD DUP2 LT PUSH2 0x224 JUMPI PUSH0 DUP1 REVERT JUMPDEST SWAP1 PUSH0 MSTORE PUSH1 0x20 PUSH0 KECCAK256 ADD PUSH0 SWAP2 POP SWAP2 POP POP SLOAD DUP2 JUMP JUMPDEST PUSH1 0x60 PUSH0 DUP1 SLOAD DUP1 PUSH1 0x20 MUL PUSH1 0x20 ADD PUSH1 0x40 MLOAD SWAP1 DUP2 ADD PUSH1 0x40 MSTORE DUP1 SWAP3 SWAP2 SWAP1 DUP2 DUP2 MSTORE PUSH1 0x20 ADD DUP3 DUP1 SLOAD DUP1 ISZERO PUSH2 0x281 JUMPI PUSH1 0x20 MUL DUP3 ADD SWAP2 SWAP1 PUSH0 MSTORE PUSH1 0x20 PUSH0 KECCAK256 SWAP1 JUMPDEST DUP2 SLOAD DUP2 MSTORE PUSH1 0x20 ADD SWAP1 PUSH1 0x1 ADD SWAP1 DUP1 DUP4 GT PUSH2 0x26D JUMPI JUMPDEST POP POP POP POP POP SWAP1 POP SWAP1 JUMP JUMPDEST PUSH1 0x60 PUSH0 PUSH1 0x7 SWAP1 DUP1 PUSH1 0x1 DUP2 SLOAD ADD DUP1 DUP3 SSTORE DUP1 SWAP2 POP POP PUSH1 0x1 SWAP1 SUB SWAP1 PUSH0 MSTORE PUSH1 0x20 PUSH0 KECCAK256 ADD PUSH0 SWAP1 SWAP2 SWAP1 SWAP2 SWAP1 SWAP2 POP SSTORE PUSH0 DUP1 SLOAD DUP1 PUSH1 0x20 MUL PUSH1 0x20 ADD PUSH1 0x40 MLOAD SWAP1 DUP2 ADD PUSH1 0x40 MSTORE DUP1 SWAP3 SWAP2 SWAP1 DUP2 DUP2 MSTORE PUSH1 0x20 ADD DUP3 DUP1 SLOAD DUP1 ISZERO PUSH2 0x2FC JUMPI PUSH1 0x20 MUL DUP3 ADD SWAP2 SWAP1 PUSH0 MSTORE PUSH1 0x20 PUSH0 KECCAK256 SWAP1 JUMPDEST DUP2 SLOAD DUP2 MSTORE PUSH1 0x20 ADD SWAP1 PUSH1 0x1 ADD SWAP1 DUP1 DUP4 GT PUSH2 0x2E8 JUMPI JUMPDEST POP POP POP POP POP SWAP1 POP SWAP1 JUMP JUMPDEST PUSH0 DUP1 REVERT JUMPDEST PUSH0 DUP2 SWAP1 POP SWAP2 SWAP1 POP JUMP JUMPDEST PUSH2 0x31C DUP2 PUSH2 0x30A JUMP JUMPDEST DUP2 EQ PUSH2 0x326 JUMPI PUSH0 DUP1 REVERT JUMPDEST POP JUMP JUMPDEST PUSH0 DUP2 CALLDATALOAD SWAP1 POP PUSH2 0x337 DUP2 PUSH2 0x313 JUMP JUMPDEST SWAP3 SWAP2 POP POP JUMP JUMPDEST PUSH0 PUSH1 0x20 DUP3 DUP5 SUB SLT ISZERO PUSH2 0x352 JUMPI PUSH2 0x351 PUSH2 0x306 JUMP JUMPDEST JUMPDEST PUSH0 PUSH2 0x35F DUP5 DUP3 DUP6 ADD PUSH2 0x329 JUMP JUMPDEST SWAP2 POP POP SWAP3 SWAP2 POP POP JUMP JUMPDEST PUSH2 0x371 DUP2 PUSH2 0x30A JUMP JUMPDEST DUP3 MSTORE POP POP JUMP JUMPDEST PUSH0 PUSH1 0x20 DUP3 ADD SWAP1 POP PUSH2 0x38A PUSH0 DUP4 ADD DUP5 PUSH2 0x368 JUMP JUMPDEST SWAP3 SWAP2 POP POP JUMP JUMPDEST PUSH0 DUP2 MLOAD SWAP1 POP SWAP2 SWAP1 POP JUMP JUMPDEST PUSH0 DUP3 DUP3 MSTORE PUSH1 0x20 DUP3 ADD SWAP1 POP SWAP3 SWAP2 POP POP JUMP JUMPDEST PUSH0 DUP2 SWAP1 POP PUSH1 0x20 DUP3 ADD SWAP1 POP SWAP2 SWAP1 POP JUMP JUMPDEST PUSH0 DUP2 MLOAD SWAP1 POP SWAP2 SWAP1 POP JUMP JUMPDEST PUSH0 DUP3 DUP3 MSTORE PUSH1 0x20 DUP3 ADD SWAP1 POP SWAP3 SWAP2 POP POP JUMP JUMPDEST PUSH0 DUP2 SWAP1 POP PUSH1 0x20 DUP3 ADD SWAP1 POP SWAP2 SWAP1 POP JUMP JUMPDEST PUSH2 0x3EB DUP2 PUSH2 0x30A JUMP JUMPDEST DUP3 MSTORE POP POP JUMP JUMPDEST PUSH0 PUSH2 0x3FC DUP4 DUP4 PUSH2 0x3E2 JUMP JUMPDEST PUSH1 0x20 DUP4 ADD SWAP1 POP SWAP3 SWAP2 POP POP JUMP JUMPDEST PUSH0 PUSH1 0x20 DUP3 ADD SWAP1 POP SWAP2 SWAP1 POP JUMP JUMPDEST PUSH0 PUSH2 0x41E DUP3 PUSH2 0x3B9 JUMP JUMPDEST PUSH2 0x428 DUP2 DUP6 PUSH2 0x3C3 JUMP JUMPDEST SWAP4 POP PUSH2 0x433 DUP4 PUSH2 0x3D3 JUMP JUMPDEST DUP1 PUSH0 JUMPDEST DUP4 DUP2 LT ISZERO PUSH2 0x463 JUMPI DUP2 MLOAD PUSH2 0x44A DUP9 DUP3 PUSH2 0x3F1 JUMP JUMPDEST SWAP8 POP PUSH2 0x455 DUP4 PUSH2 0x408 JUMP JUMPDEST SWAP3 POP POP PUSH1 0x1 DUP2 ADD SWAP1 POP PUSH2 0x436 JUMP JUMPDEST POP DUP6 SWAP4 POP POP POP POP SWAP3 SWAP2 POP POP JUMP JUMPDEST PUSH0 PUSH2 0x47B DUP4 DUP4 PUSH2 0x414 JUMP JUMPDEST SWAP1 POP SWAP3 SWAP2 POP POP JUMP JUMPDEST PUSH0 PUSH1 0x20 DUP3 ADD SWAP1 POP SWAP2 SWAP1 POP JUMP JUMPDEST PUSH0 PUSH2 0x499 DUP3 PUSH2 0x390 JUMP JUMPDEST PUSH2 0x4A3 DUP2 DUP6 PUSH2 0x39A JUMP JUMPDEST SWAP4 POP DUP4 PUSH1 0x20 DUP3 MUL DUP6 ADD PUSH2 0x4B5 DUP6 PUSH2 0x3AA JUMP JUMPDEST DUP1 PUSH0 JUMPDEST DUP6 DUP2 LT ISZERO PUSH2 0x4F0 JUMPI DUP5 DUP5 SUB DUP10 MSTORE DUP2 MLOAD PUSH2 0x4D1 DUP6 DUP3 PUSH2 0x470 JUMP JUMPDEST SWAP5 POP PUSH2 0x4DC DUP4 PUSH2 0x483 JUMP JUMPDEST SWAP3 POP PUSH1 0x20 DUP11 ADD SWAP10 POP POP PUSH1 0x1 DUP2 ADD SWAP1 POP PUSH2 0x4B8 JUMP JUMPDEST POP DUP3 SWAP8 POP DUP8 SWAP6 POP POP POP POP POP POP SWAP3 SWAP2 POP POP JUMP JUMPDEST PUSH0 PUSH1 0x20 DUP3 ADD SWAP1 POP DUP2 DUP2 SUB PUSH0 DUP4 ADD MSTORE PUSH2 0x51A DUP2 DUP5 PUSH2 0x48F JUMP JUMPDEST SWAP1 POP SWAP3 SWAP2 POP POP JUMP JUMPDEST PUSH0 DUP1 PUSH1 0x40 DUP4 DUP6 SUB SLT ISZERO PUSH2 0x538 JUMPI PUSH2 0x537 PUSH2 0x306 JUMP JUMPDEST JUMPDEST PUSH0 PUSH2 0x545 DUP6 DUP3 DUP7 ADD PUSH2 0x329 JUMP JUMPDEST SWAP3 POP POP PUSH1 0x20 PUSH2 0x556 DUP6 DUP3 DUP7 ADD PUSH2 0x329 JUMP JUMPDEST SWAP2 POP POP SWAP3 POP SWAP3 SWAP1 POP JUMP JUMPDEST PUSH0 DUP3 DUP3 MSTORE PUSH1 0x20 DUP3 ADD SWAP1 POP SWAP3 SWAP2 POP POP JUMP JUMPDEST PUSH0 PUSH2 0x57A DUP3 PUSH2 0x3B9 JUMP JUMPDEST PUSH2 0x584 DUP2 DUP6 PUSH2 0x560 JUMP JUMPDEST SWAP4 POP PUSH2 0x58F DUP4 PUSH2 0x3D3 JUMP JUMPDEST DUP1 PUSH0 JUMPDEST DUP4 DUP2 LT ISZERO PUSH2 0x5BF JUMPI DUP2 MLOAD PUSH2 0x5A6 DUP9 DUP3 PUSH2 0x3F1 JUMP JUMPDEST SWAP8 POP PUSH2 0x5B1 DUP4 PUSH2 0x408 JUMP JUMPDEST SWAP3 POP POP PUSH1 0x1 DUP2 ADD SWAP1 POP PUSH2 0x592 JUMP JUMPDEST POP DUP6 SWAP4 POP POP POP POP SWAP3 SWAP2 POP POP JUMP JUMPDEST PUSH0 PUSH1 0x20 DUP3 ADD SWAP1 POP DUP2 DUP2 SUB PUSH0 DUP4 ADD MSTORE PUSH2 0x5E4 DUP2 DUP5 PUSH2 0x570 JUMP JUMPDEST SWAP1 POP SWAP3 SWAP2 POP POP JUMP INVALID LOG2 PUSH5 0x6970667358 0x22 SLT KECCAK256 SWAP8 0xDD 0xB3 0xD7 PUSH17 0xE5D800C9DEC73709D6F160844237C249B3 0xFB 0xA9 0xDB 0x26 DUP4 EQ SWAP15 0x2B MULMOD 0xC9 PUSH5 0x736F6C6343 STOP ADDMOD BYTE STOP CALLER "
				},
				"gasEstimates": {
					"creation": {
						"codeDepositCost": "314000",
						"executionCost": "infinite",
						"totalCost": "infinite"
					},
					"external": {
						"Array1(uint256)": "infinite",
						"Array2(uint256,uint256)": "infinite",
						"GetTestArray1()": "infinite",
						"GetTestArray1Length()": "2462",
						"GetTestArray1Push()": "infinite",
						"GetTestArray2()": "infinite"
					}
				},
				"methodIdentifiers": {
					"Array1(uint256)": "1de5fe09",
					"Array2(uint256,uint256)": "b74f3ac1",
					"GetTestArray1()": "cbc321e2",
					"GetTestArray1Length()": "5761edc3",
					"GetTestArray1Push()": "ce19c0c8",
					"GetTestArray2()": "27362653"
				}
			},
			"storageLayout": {
				"storage": [
					{
						"astId": 11,
						"contract": "Contracts/Arrays.sol:Arrays",
						"label": "Array1",
						"offset": 0,
						"slot": "0",
						"type": "t_array(t_uint256)dyn_storage"
					},
					{
						"astId": 24,
						"contract": "Contracts/Arrays.sol:Arrays",
						"label": "Array2",
						"offset": 0,
						"slot": "1",
						"type": "t_array(t_array(t_uint256)dyn_storage)dyn_storage"
					}
				],
				"types": {
					"t_array(t_array(t_uint256)dyn_storage)dyn_storage": {
						"base": "t_array(t_uint256)dyn_storage",
						"encoding": "dynamic_array",
						"label": "uint256[][]",
						"numberOfBytes": "32"
					},
					"t_array(t_uint256)dyn_storage": {
						"base": "t_uint256",
						"encoding": "dynamic_array",
						"label": "uint256[]",
						"numberOfBytes": "32"
					},
					"t_uint256": {
						"encoding": "inplace",
						"label": "uint256",
						"numberOfBytes": "32"
					}
				}
			},
			"userdoc": {
				"kind": "user",
				"methods": {},
				"version": 1
			}
		}
	}
}