{
	"data": {
		"bytecode": {
			"linkReferences": {},
			"object": "6080604052607b5f556040518060400160405280600881526020017f4d6f68616d6d61640000000000000000000000000000000000000000000000008152506003908161004c9190610298565b50348015610058575f80fd5b50610367565b5f81519050919050565b7f4e487b71000000000000000000000000000000000000000000000000000000005f52604160045260245ffd5b7f4e487b71000000000000000000000000000000000000000000000000000000005f52602260045260245ffd5b5f60028204905060018216806100d957607f821691505b6020821081036100ec576100eb610095565b5b50919050565b5f819050815f5260205f209050919050565b5f6020601f8301049050919050565b5f82821b905092915050565b5f6008830261014e7fffffffffffffffffffffffffffffffffffffffffffffffffffffffffffffffff82610113565b6101588683610113565b95508019841693508086168417925050509392505050565b5f819050919050565b5f819050919050565b5f61019c61019761019284610170565b610179565b610170565b9050919050565b5f819050919050565b6101b583610182565b6101c96101c1826101a3565b84845461011f565b825550505050565b5f90565b6101dd6101d1565b6101e88184846101ac565b505050565b5b8181101561020b576102005f826101d5565b6001810190506101ee565b5050565b601f82111561025057610221816100f2565b61022a84610104565b81016020851015610239578190505b61024d61024585610104565b8301826101ed565b50505b505050565b5f82821c905092915050565b5f6102705f1984600802610255565b1980831691505092915050565b5f6102888383610261565b9150826002028217905092915050565b6102a18261005e565b67ffffffffffffffff8111156102ba576102b9610068565b5b6102c482546100c2565b6102cf82828561020f565b5f60209050601f831160018114610300575f84156102ee578287015190505b6102f8858261027d565b86555061035f565b601f19841661030e866100f2565b5f5b8281101561033557848901518255600182019150602085019450602081019050610310565b86831015610352578489015161034e601f891682610261565b8355505b6001600288020188555050505b505050505050565b6107ba806103745f395ff3fe608060405234801561000f575f80fd5b506004361061007b575f3560e01c806380cb9a691161005957806380cb9a69146100d7578063853255cc146100f3578063da54ba9814610111578063e5aa3d581461012d5761007b565b80630dbe671f1461007f578063433d97e41461009d5780634e70b1dc146100b9575b5f80fd5b61008761014b565b6040516100949190610441565b60405180910390f35b6100b760048036038101906100b2919061059e565b6101d7565b005b6100c16102c6565b6040516100ce91906105fd565b60405180910390f35b6100f160048036038101906100ec9190610640565b6102cb565b005b6100fb610383565b60405161010891906105fd565b60405180910390f35b61012b60048036038101906101269190610640565b610389565b005b6101356103bf565b6040516101429190610686565b60405180910390f35b60038054610158906106cc565b80601f0160208091040260200160405190810160405280929190818152602001828054610184906106cc565b80156101cf5780601f106101a6576101008083540402835291602001916101cf565b820191905f5260205f20905b8154815290600101906020018083116101b257829003601f168201915b505050505081565b5b600560015f9054906101000a900460ff1660ff1610156102495761138860015f9054906101000a900460ff1660ff1603156102495760015f81819054906101000a900460ff168092919061022b90610729565b91906101000a81548160ff021916908360ff160217905550506101d8565b5b60015f9054906101000a900460ff1660ff1660025f82825461026c9190610751565b9250508190555060015f81819054906101000a900460ff168092919061029190610729565b91906101000a81548160ff021916908360ff16021790555050600560015f9054906101000a900460ff1660ff161061024a5750565b5f5481565b600460015f6101000a81548160ff021916908360ff1602179055505b8060015f9054906101000a900460ff1660ff16101561038057600560015f9054906101000a900460ff1660ff1603156103445760015f9054906101000a900460ff1660ff1660025f82825461033c9190610751565b925050819055505b60015f81819054906101000a900460ff168092919061036290610729565b91906101000a81548160ff021916908360ff160217905550506102e7565b50565b60025481565b5f5481111561039d57805f819055506103bc565b5f5481036103b2576104b05f819055506103bb565b6111945f819055505b5b50565b60015f9054906101000a900460ff1681565b5f81519050919050565b5f82825260208201905092915050565b8281835e5f83830152505050565b5f601f19601f8301169050919050565b5f610413826103d1565b61041d81856103db565b935061042d8185602086016103eb565b610436816103f9565b840191505092915050565b5f6020820190508181035f8301526104598184610409565b905092915050565b5f604051905090565b5f80fd5b5f80fd5b5f80fd5b5f80fd5b7f4e487b71000000000000000000000000000000000000000000000000000000005f52604160045260245ffd5b6104b0826103f9565b810181811067ffffffffffffffff821117156104cf576104ce61047a565b5b80604052505050565b5f6104e1610461565b90506104ed82826104a7565b919050565b5f67ffffffffffffffff82111561050c5761050b61047a565b5b610515826103f9565b9050602081019050919050565b828183375f83830152505050565b5f61054261053d846104f2565b6104d8565b90508281526020810184848401111561055e5761055d610476565b5b610569848285610522565b509392505050565b5f82601f83011261058557610584610472565b5b8135610595848260208601610530565b91505092915050565b5f602082840312156105b3576105b261046a565b5b5f82013567ffffffffffffffff8111156105d0576105cf61046e565b5b6105dc84828501610571565b91505092915050565b5f819050919050565b6105f7816105e5565b82525050565b5f6020820190506106105f8301846105ee565b92915050565b61061f816105e5565b8114610629575f80fd5b50565b5f8135905061063a81610616565b92915050565b5f602082840312156106555761065461046a565b5b5f6106628482850161062c565b91505092915050565b5f60ff82169050919050565b6106808161066b565b82525050565b5f6020820190506106995f830184610677565b92915050565b7f4e487b71000000000000000000000000000000000000000000000000000000005f52602260045260245ffd5b5f60028204905060018216806106e357607f821691505b6020821081036106f6576106f561069f565b5b50919050565b7f4e487b71000000000000000000000000000000000000000000000000000000005f52601160045260245ffd5b5f6107338261066b565b915060ff8203610746576107456106fc565b5b600182019050919050565b5f61075b826105e5565b9150610766836105e5565b925082820190508082111561077e5761077d6106fc565b5b9291505056fea2646970667358221220905b9b5cc4e5928752e59c0efae63d8861847d8636a4e06ff2ecde18fba2af8b64736f6c634300081a0033",
			"opcodes": "PUSH1 0x80 PUSH1 0x40 MSTORE PUSH1 0x7B PUSH0 SSTORE PUSH1 0x40 MLOAD DUP1 PUSH1 0x40 ADD PUSH1 0x40 MSTORE DUP1 PUSH1 0x8 DUP2 MSTORE PUSH1 0x20 ADD PUSH32 0x4D6F68616D6D6164000000000000000000000000000000000000000000000000 DUP2 MSTORE POP PUSH1 0x3 SWAP1 DUP2 PUSH2 0x4C SWAP2 SWAP1 PUSH2 0x298 JUMP JUMPDEST POP CALLVALUE DUP1 ISZERO PUSH2 0x58 JUMPI PUSH0 DUP1 REVERT JUMPDEST POP PUSH2 0x367 JUMP JUMPDEST PUSH0 DUP2 MLOAD SWAP1 POP SWAP2 SWAP1 POP JUMP JUMPDEST PUSH32 0x4E487B7100000000000000000000000000000000000000000000000000000000 PUSH0 MSTORE PUSH1 0x41 PUSH1 0x4 MSTORE PUSH1 0x24 PUSH0 REVERT JUMPDEST PUSH32 0x4E487B7100000000000000000000000000000000000000000000000000000000 PUSH0 MSTORE PUSH1 0x22 PUSH1 0x4 MSTORE PUSH1 0x24 PUSH0 REVERT JUMPDEST PUSH0 PUSH1 0x2 DUP3 DIV SWAP1 POP PUSH1 0x1 DUP3 AND DUP1 PUSH2 0xD9 JUMPI PUSH1 0x7F DUP3 AND SWAP2 POP JUMPDEST PUSH1 0x20 DUP3 LT DUP2 SUB PUSH2 0xEC JUMPI PUSH2 0xEB PUSH2 0x95 JUMP JUMPDEST JUMPDEST POP SWAP2 SWAP1 POP JUMP JUMPDEST PUSH0 DUP2 SWAP1 POP DUP2 PUSH0 MSTORE PUSH1 0x20 PUSH0 KECCAK256 SWAP1 POP SWAP2 SWAP1 POP JUMP JUMPDEST PUSH0 PUSH1 0x20 PUSH1 0x1F DUP4 ADD DIV SWAP1 POP SWAP2 SWAP1 POP JUMP JUMPDEST PUSH0 DUP3 DUP3 SHL SWAP1 POP SWAP3 SWAP2 POP POP JUMP JUMPDEST PUSH0 PUSH1 0x8 DUP4 MUL PUSH2 0x14E PUSH32 0xFFFFFFFFFFFFFFFFFFFFFFFFFFFFFFFFFFFFFFFFFFFFFFFFFFFFFFFFFFFFFFFF DUP3 PUSH2 0x113 JUMP JUMPDEST PUSH2 0x158 DUP7 DUP4 PUSH2 0x113 JUMP JUMPDEST SWAP6 POP DUP1 NOT DUP5 AND SWAP4 POP DUP1 DUP7 AND DUP5 OR SWAP3 POP POP POP SWAP4 SWAP3 POP POP POP JUMP JUMPDEST PUSH0 DUP2 SWAP1 POP SWAP2 SWAP1 POP JUMP JUMPDEST PUSH0 DUP2 SWAP1 POP SWAP2 SWAP1 POP JUMP JUMPDEST PUSH0 PUSH2 0x19C PUSH2 0x197 PUSH2 0x192 DUP5 PUSH2 0x170 JUMP JUMPDEST PUSH2 0x179 JUMP JUMPDEST PUSH2 0x170 JUMP JUMPDEST SWAP1 POP SWAP2 SWAP1 POP JUMP JUMPDEST PUSH0 DUP2 SWAP1 POP SWAP2 SWAP1 POP JUMP JUMPDEST PUSH2 0x1B5 DUP4 PUSH2 0x182 JUMP JUMPDEST PUSH2 0x1C9 PUSH2 0x1C1 DUP3 PUSH2 0x1A3 JUMP JUMPDEST DUP5 DUP5 SLOAD PUSH2 0x11F JUMP JUMPDEST DUP3 SSTORE POP POP POP POP JUMP JUMPDEST PUSH0 SWAP1 JUMP JUMPDEST PUSH2 0x1DD PUSH2 0x1D1 JUMP JUMPDEST PUSH2 0x1E8 DUP2 DUP5 DUP5 PUSH2 0x1AC JUMP JUMPDEST POP POP POP JUMP JUMPDEST JUMPDEST DUP2 DUP2 LT ISZERO PUSH2 0x20B JUMPI PUSH2 0x200 PUSH0 DUP3 PUSH2 0x1D5 JUMP JUMPDEST PUSH1 0x1 DUP2 ADD SWAP1 POP PUSH2 0x1EE JUMP JUMPDEST POP POP JUMP JUMPDEST PUSH1 0x1F DUP3 GT ISZERO PUSH2 0x250 JUMPI PUSH2 0x221 DUP2 PUSH2 0xF2 JUMP JUMPDEST PUSH2 0x22A DUP5 PUSH2 0x104 JUMP JUMPDEST DUP2 ADD PUSH1 0x20 DUP6 LT ISZERO PUSH2 0x239 JUMPI DUP2 SWAP1 POP JUMPDEST PUSH2 0x24D PUSH2 0x245 DUP6 PUSH2 0x104 JUMP JUMPDEST DUP4 ADD DUP3 PUSH2 0x1ED JUMP JUMPDEST POP POP JUMPDEST POP POP POP JUMP JUMPDEST PUSH0 DUP3 DUP3 SHR SWAP1 POP SWAP3 SWAP2 POP POP JUMP JUMPDEST PUSH0 PUSH2 0x270 PUSH0 NOT DUP5 PUSH1 0x8 MUL PUSH2 0x255 JUMP JUMPDEST NOT DUP1 DUP4 AND SWAP2 POP POP SWAP3 SWAP2 POP POP JUMP JUMPDEST PUSH0 PUSH2 0x288 DUP4 DUP4 PUSH2 0x261 JUMP JUMPDEST SWAP2 POP DUP3 PUSH1 0x2 MUL DUP3 OR SWAP1 POP SWAP3 SWAP2 POP POP JUMP JUMPDEST PUSH2 0x2A1 DUP3 PUSH2 0x5E JUMP JUMPDEST PUSH8 0xFFFFFFFFFFFFFFFF DUP2 GT ISZERO PUSH2 0x2BA JUMPI PUSH2 0x2B9 PUSH2 0x68 JUMP JUMPDEST JUMPDEST PUSH2 0x2C4 DUP3 SLOAD PUSH2 0xC2 JUMP JUMPDEST PUSH2 0x2CF DUP3 DUP3 DUP6 PUSH2 0x20F JUMP JUMPDEST PUSH0 PUSH1 0x20 SWAP1 POP PUSH1 0x1F DUP4 GT PUSH1 0x1 DUP2 EQ PUSH2 0x300 JUMPI PUSH0 DUP5 ISZERO PUSH2 0x2EE JUMPI DUP3 DUP8 ADD MLOAD SWAP1 POP JUMPDEST PUSH2 0x2F8 DUP6 DUP3 PUSH2 0x27D JUMP JUMPDEST DUP7 SSTORE POP PUSH2 0x35F JUMP JUMPDEST PUSH1 0x1F NOT DUP5 AND PUSH2 0x30E DUP7 PUSH2 0xF2 JUMP JUMPDEST PUSH0 JUMPDEST DUP3 DUP2 LT ISZERO PUSH2 0x335 JUMPI DUP5 DUP10 ADD MLOAD DUP3 SSTORE PUSH1 0x1 DUP3 ADD SWAP2 POP PUSH1 0x20 DUP6 ADD SWAP5 POP PUSH1 0x20 DUP2 ADD SWAP1 POP PUSH2 0x310 JUMP JUMPDEST DUP7 DUP4 LT ISZERO PUSH2 0x352 JUMPI DUP5 DUP10 ADD MLOAD PUSH2 0x34E PUSH1 0x1F DUP10 AND DUP3 PUSH2 0x261 JUMP JUMPDEST DUP4 SSTORE POP JUMPDEST PUSH1 0x1 PUSH1 0x2 DUP9 MUL ADD DUP9 SSTORE POP POP POP JUMPDEST POP POP POP POP POP POP JUMP JUMPDEST PUSH2 0x7BA DUP1 PUSH2 0x374 PUSH0 CODECOPY PUSH0 RETURN INVALID PUSH1 0x80 PUSH1 0x40 MSTORE CALLVALUE DUP1 ISZERO PUSH2 0xF JUMPI PUSH0 DUP1 REVERT JUMPDEST POP PUSH1 0x4 CALLDATASIZE LT PUSH2 0x7B JUMPI PUSH0 CALLDATALOAD PUSH1 0xE0 SHR DUP1 PUSH4 0x80CB9A69 GT PUSH2 0x59 JUMPI DUP1 PUSH4 0x80CB9A69 EQ PUSH2 0xD7 JUMPI DUP1 PUSH4 0x853255CC EQ PUSH2 0xF3 JUMPI DUP1 PUSH4 0xDA54BA98 EQ PUSH2 0x111 JUMPI DUP1 PUSH4 0xE5AA3D58 EQ PUSH2 0x12D JUMPI PUSH2 0x7B JUMP JUMPDEST DUP1 PUSH4 0xDBE671F EQ PUSH2 0x7F JUMPI DUP1 PUSH4 0x433D97E4 EQ PUSH2 0x9D JUMPI DUP1 PUSH4 0x4E70B1DC EQ PUSH2 0xB9 JUMPI JUMPDEST PUSH0 DUP1 REVERT JUMPDEST PUSH2 0x87 PUSH2 0x14B JUMP JUMPDEST PUSH1 0x40 MLOAD PUSH2 0x94 SWAP2 SWAP1 PUSH2 0x441 JUMP JUMPDEST PUSH1 0x40 MLOAD DUP1 SWAP2 SUB SWAP1 RETURN JUMPDEST PUSH2 0xB7 PUSH1 0x4 DUP1 CALLDATASIZE SUB DUP2 ADD SWAP1 PUSH2 0xB2 SWAP2 SWAP1 PUSH2 0x59E JUMP JUMPDEST PUSH2 0x1D7 JUMP JUMPDEST STOP JUMPDEST PUSH2 0xC1 PUSH2 0x2C6 JUMP JUMPDEST PUSH1 0x40 MLOAD PUSH2 0xCE SWAP2 SWAP1 PUSH2 0x5FD JUMP JUMPDEST PUSH1 0x40 MLOAD DUP1 SWAP2 SUB SWAP1 RETURN JUMPDEST PUSH2 0xF1 PUSH1 0x4 DUP1 CALLDATASIZE SUB DUP2 ADD SWAP1 PUSH2 0xEC SWAP2 SWAP1 PUSH2 0x640 JUMP JUMPDEST PUSH2 0x2CB JUMP JUMPDEST STOP JUMPDEST PUSH2 0xFB PUSH2 0x383 JUMP JUMPDEST PUSH1 0x40 MLOAD PUSH2 0x108 SWAP2 SWAP1 PUSH2 0x5FD JUMP JUMPDEST PUSH1 0x40 MLOAD DUP1 SWAP2 SUB SWAP1 RETURN JUMPDEST PUSH2 0x12B PUSH1 0x4 DUP1 CALLDATASIZE SUB DUP2 ADD SWAP1 PUSH2 0x126 SWAP2 SWAP1 PUSH2 0x640 JUMP JUMPDEST PUSH2 0x389 JUMP JUMPDEST STOP JUMPDEST PUSH2 0x135 PUSH2 0x3BF JUMP JUMPDEST PUSH1 0x40 MLOAD PUSH2 0x142 SWAP2 SWAP1 PUSH2 0x686 JUMP JUMPDEST PUSH1 0x40 MLOAD DUP1 SWAP2 SUB SWAP1 RETURN JUMPDEST PUSH1 0x3 DUP1 SLOAD PUSH2 0x158 SWAP1 PUSH2 0x6CC JUMP JUMPDEST DUP1 PUSH1 0x1F ADD PUSH1 0x20 DUP1 SWAP2 DIV MUL PUSH1 0x20 ADD PUSH1 0x40 MLOAD SWAP1 DUP2 ADD PUSH1 0x40 MSTORE DUP1 SWAP3 SWAP2 SWAP1 DUP2 DUP2 MSTORE PUSH1 0x20 ADD DUP3 DUP1 SLOAD PUSH2 0x184 SWAP1 PUSH2 0x6CC JUMP JUMPDEST DUP1 ISZERO PUSH2 0x1CF JUMPI DUP1 PUSH1 0x1F LT PUSH2 0x1A6 JUMPI PUSH2 0x100 DUP1 DUP4 SLOAD DIV MUL DUP4 MSTORE SWAP2 PUSH1 0x20 ADD SWAP2 PUSH2 0x1CF JUMP JUMPDEST DUP3 ADD SWAP2 SWAP1 PUSH0 MSTORE PUSH1 0x20 PUSH0 KECCAK256 SWAP1 JUMPDEST DUP2 SLOAD DUP2 MSTORE SWAP1 PUSH1 0x1 ADD SWAP1 PUSH1 0x20 ADD DUP1 DUP4 GT PUSH2 0x1B2 JUMPI DUP3 SWAP1 SUB PUSH1 0x1F AND DUP3 ADD SWAP2 JUMPDEST POP POP POP POP POP DUP2 JUMP JUMPDEST JUMPDEST PUSH1 0x5 PUSH1 0x1 PUSH0 SWAP1 SLOAD SWAP1 PUSH2 0x100 EXP SWAP1 DIV PUSH1 0xFF AND PUSH1 0xFF AND LT ISZERO PUSH2 0x249 JUMPI PUSH2 0x1388 PUSH1 0x1 PUSH0 SWAP1 SLOAD SWAP1 PUSH2 0x100 EXP SWAP1 DIV PUSH1 0xFF AND PUSH1 0xFF AND SUB ISZERO PUSH2 0x249 JUMPI PUSH1 0x1 PUSH0 DUP2 DUP2 SWAP1 SLOAD SWAP1 PUSH2 0x100 EXP SWAP1 DIV PUSH1 0xFF AND DUP1 SWAP3 SWAP2 SWAP1 PUSH2 0x22B SWAP1 PUSH2 0x729 JUMP JUMPDEST SWAP2 SWAP1 PUSH2 0x100 EXP DUP2 SLOAD DUP2 PUSH1 0xFF MUL NOT AND SWAP1 DUP4 PUSH1 0xFF AND MUL OR SWAP1 SSTORE POP POP PUSH2 0x1D8 JUMP JUMPDEST JUMPDEST PUSH1 0x1 PUSH0 SWAP1 SLOAD SWAP1 PUSH2 0x100 EXP SWAP1 DIV PUSH1 0xFF AND PUSH1 0xFF AND PUSH1 0x2 PUSH0 DUP3 DUP3 SLOAD PUSH2 0x26C SWAP2 SWAP1 PUSH2 0x751 JUMP JUMPDEST SWAP3 POP POP DUP2 SWAP1 SSTORE POP PUSH1 0x1 PUSH0 DUP2 DUP2 SWAP1 SLOAD SWAP1 PUSH2 0x100 EXP SWAP1 DIV PUSH1 0xFF AND DUP1 SWAP3 SWAP2 SWAP1 PUSH2 0x291 SWAP1 PUSH2 0x729 JUMP JUMPDEST SWAP2 SWAP1 PUSH2 0x100 EXP DUP2 SLOAD DUP2 PUSH1 0xFF MUL NOT AND SWAP1 DUP4 PUSH1 0xFF AND MUL OR SWAP1 SSTORE POP POP PUSH1 0x5 PUSH1 0x1 PUSH0 SWAP1 SLOAD SWAP1 PUSH2 0x100 EXP SWAP1 DIV PUSH1 0xFF AND PUSH1 0xFF AND LT PUSH2 0x24A JUMPI POP JUMP JUMPDEST PUSH0 SLOAD DUP2 JUMP JUMPDEST PUSH1 0x4 PUSH1 0x1 PUSH0 PUSH2 0x100 EXP DUP2 SLOAD DUP2 PUSH1 0xFF MUL NOT AND SWAP1 DUP4 PUSH1 0xFF AND MUL OR SWAP1 SSTORE POP JUMPDEST DUP1 PUSH1 0x1 PUSH0 SWAP1 SLOAD SWAP1 PUSH2 0x100 EXP SWAP1 DIV PUSH1 0xFF AND PUSH1 0xFF AND LT ISZERO PUSH2 0x380 JUMPI PUSH1 0x5 PUSH1 0x1 PUSH0 SWAP1 SLOAD SWAP1 PUSH2 0x100 EXP SWAP1 DIV PUSH1 0xFF AND PUSH1 0xFF AND SUB ISZERO PUSH2 0x344 JUMPI PUSH1 0x1 PUSH0 SWAP1 SLOAD SWAP1 PUSH2 0x100 EXP SWAP1 DIV PUSH1 0xFF AND PUSH1 0xFF AND PUSH1 0x2 PUSH0 DUP3 DUP3 SLOAD PUSH2 0x33C SWAP2 SWAP1 PUSH2 0x751 JUMP JUMPDEST SWAP3 POP POP DUP2 SWAP1 SSTORE POP JUMPDEST PUSH1 0x1 PUSH0 DUP2 DUP2 SWAP1 SLOAD SWAP1 PUSH2 0x100 EXP SWAP1 DIV PUSH1 0xFF AND DUP1 SWAP3 SWAP2 SWAP1 PUSH2 0x362 SWAP1 PUSH2 0x729 JUMP JUMPDEST SWAP2 SWAP1 PUSH2 0x100 EXP DUP2 SLOAD DUP2 PUSH1 0xFF MUL NOT AND SWAP1 DUP4 PUSH1 0xFF AND MUL OR SWAP1 SSTORE POP POP PUSH2 0x2E7 JUMP JUMPDEST POP JUMP JUMPDEST PUSH1 0x2 SLOAD DUP2 JUMP JUMPDEST PUSH0 SLOAD DUP2 GT ISZERO PUSH2 0x39D JUMPI DUP1 PUSH0 DUP2 SWAP1 SSTORE POP PUSH2 0x3BC JUMP JUMPDEST PUSH0 SLOAD DUP2 SUB PUSH2 0x3B2 JUMPI PUSH2 0x4B0 PUSH0 DUP2 SWAP1 SSTORE POP PUSH2 0x3BB JUMP JUMPDEST PUSH2 0x1194 PUSH0 DUP2 SWAP1 SSTORE POP JUMPDEST JUMPDEST POP JUMP JUMPDEST PUSH1 0x1 PUSH0 SWAP1 SLOAD SWAP1 PUSH2 0x100 EXP SWAP1 DIV PUSH1 0xFF AND DUP2 JUMP JUMPDEST PUSH0 DUP2 MLOAD SWAP1 POP SWAP2 SWAP1 POP JUMP JUMPDEST PUSH0 DUP3 DUP3 MSTORE PUSH1 0x20 DUP3 ADD SWAP1 POP SWAP3 SWAP2 POP POP JUMP JUMPDEST DUP3 DUP2 DUP4 MCOPY PUSH0 DUP4 DUP4 ADD MSTORE POP POP POP JUMP JUMPDEST PUSH0 PUSH1 0x1F NOT PUSH1 0x1F DUP4 ADD AND SWAP1 POP SWAP2 SWAP1 POP JUMP JUMPDEST PUSH0 PUSH2 0x413 DUP3 PUSH2 0x3D1 JUMP JUMPDEST PUSH2 0x41D DUP2 DUP6 PUSH2 0x3DB JUMP JUMPDEST SWAP4 POP PUSH2 0x42D DUP2 DUP6 PUSH1 0x20 DUP7 ADD PUSH2 0x3EB JUMP JUMPDEST PUSH2 0x436 DUP2 PUSH2 0x3F9 JUMP JUMPDEST DUP5 ADD SWAP2 POP POP SWAP3 SWAP2 POP POP JUMP JUMPDEST PUSH0 PUSH1 0x20 DUP3 ADD SWAP1 POP DUP2 DUP2 SUB PUSH0 DUP4 ADD MSTORE PUSH2 0x459 DUP2 DUP5 PUSH2 0x409 JUMP JUMPDEST SWAP1 POP SWAP3 SWAP2 POP POP JUMP JUMPDEST PUSH0 PUSH1 0x40 MLOAD SWAP1 POP SWAP1 JUMP JUMPDEST PUSH0 DUP1 REVERT JUMPDEST PUSH0 DUP1 REVERT JUMPDEST PUSH0 DUP1 REVERT JUMPDEST PUSH0 DUP1 REVERT JUMPDEST PUSH32 0x4E487B7100000000000000000000000000000000000000000000000000000000 PUSH0 MSTORE PUSH1 0x41 PUSH1 0x4 MSTORE PUSH1 0x24 PUSH0 REVERT JUMPDEST PUSH2 0x4B0 DUP3 PUSH2 0x3F9 JUMP JUMPDEST DUP2 ADD DUP2 DUP2 LT PUSH8 0xFFFFFFFFFFFFFFFF DUP3 GT OR ISZERO PUSH2 0x4CF JUMPI PUSH2 0x4CE PUSH2 0x47A JUMP JUMPDEST JUMPDEST DUP1 PUSH1 0x40 MSTORE POP POP POP JUMP JUMPDEST PUSH0 PUSH2 0x4E1 PUSH2 0x461 JUMP JUMPDEST SWAP1 POP PUSH2 0x4ED DUP3 DUP3 PUSH2 0x4A7 JUMP JUMPDEST SWAP2 SWAP1 POP JUMP JUMPDEST PUSH0 PUSH8 0xFFFFFFFFFFFFFFFF DUP3 GT ISZERO PUSH2 0x50C JUMPI PUSH2 0x50B PUSH2 0x47A JUMP JUMPDEST JUMPDEST PUSH2 0x515 DUP3 PUSH2 0x3F9 JUMP JUMPDEST SWAP1 POP PUSH1 0x20 DUP2 ADD SWAP1 POP SWAP2 SWAP1 POP JUMP JUMPDEST DUP3 DUP2 DUP4 CALLDATACOPY PUSH0 DUP4 DUP4 ADD MSTORE POP POP POP JUMP JUMPDEST PUSH0 PUSH2 0x542 PUSH2 0x53D DUP5 PUSH2 0x4F2 JUMP JUMPDEST PUSH2 0x4D8 JUMP JUMPDEST SWAP1 POP DUP3 DUP2 MSTORE PUSH1 0x20 DUP2 ADD DUP5 DUP5 DUP5 ADD GT ISZERO PUSH2 0x55E JUMPI PUSH2 0x55D PUSH2 0x476 JUMP JUMPDEST JUMPDEST PUSH2 0x569 DUP5 DUP3 DUP6 PUSH2 0x522 JUMP JUMPDEST POP SWAP4 SWAP3 POP POP POP JUMP JUMPDEST PUSH0 DUP3 PUSH1 0x1F DUP4 ADD SLT PUSH2 0x585 JUMPI PUSH2 0x584 PUSH2 0x472 JUMP JUMPDEST JUMPDEST DUP2 CALLDATALOAD PUSH2 0x595 DUP5 DUP3 PUSH1 0x20 DUP7 ADD PUSH2 0x530 JUMP JUMPDEST SWAP2 POP POP SWAP3 SWAP2 POP POP JUMP JUMPDEST PUSH0 PUSH1 0x20 DUP3 DUP5 SUB SLT ISZERO PUSH2 0x5B3 JUMPI PUSH2 0x5B2 PUSH2 0x46A JUMP JUMPDEST JUMPDEST PUSH0 DUP3 ADD CALLDATALOAD PUSH8 0xFFFFFFFFFFFFFFFF DUP2 GT ISZERO PUSH2 0x5D0 JUMPI PUSH2 0x5CF PUSH2 0x46E JUMP JUMPDEST JUMPDEST PUSH2 0x5DC DUP5 DUP3 DUP6 ADD PUSH2 0x571 JUMP JUMPDEST SWAP2 POP POP SWAP3 SWAP2 POP POP JUMP JUMPDEST PUSH0 DUP2 SWAP1 POP SWAP2 SWAP1 POP JUMP JUMPDEST PUSH2 0x5F7 DUP2 PUSH2 0x5E5 JUMP JUMPDEST DUP3 MSTORE POP POP JUMP JUMPDEST PUSH0 PUSH1 0x20 DUP3 ADD SWAP1 POP PUSH2 0x610 PUSH0 DUP4 ADD DUP5 PUSH2 0x5EE JUMP JUMPDEST SWAP3 SWAP2 POP POP JUMP JUMPDEST PUSH2 0x61F DUP2 PUSH2 0x5E5 JUMP JUMPDEST DUP2 EQ PUSH2 0x629 JUMPI PUSH0 DUP1 REVERT JUMPDEST POP JUMP JUMPDEST PUSH0 DUP2 CALLDATALOAD SWAP1 POP PUSH2 0x63A DUP2 PUSH2 0x616 JUMP JUMPDEST SWAP3 SWAP2 POP POP JUMP JUMPDEST PUSH0 PUSH1 0x20 DUP3 DUP5 SUB SLT ISZERO PUSH2 0x655 JUMPI PUSH2 0x654 PUSH2 0x46A JUMP JUMPDEST JUMPDEST PUSH0 PUSH2 0x662 DUP5 DUP3 DUP6 ADD PUSH2 0x62C JUMP JUMPDEST SWAP2 POP POP SWAP3 SWAP2 POP POP JUMP JUMPDEST PUSH0 PUSH1 0xFF DUP3 AND SWAP1 POP SWAP2 SWAP1 POP JUMP JUMPDEST PUSH2 0x680 DUP2 PUSH2 0x66B JUMP JUMPDEST DUP3 MSTORE POP POP JUMP JUMPDEST PUSH0 PUSH1 0x20 DUP3 ADD SWAP1 POP PUSH2 0x699 PUSH0 DUP4 ADD DUP5 PUSH2 0x677 JUMP JUMPDEST SWAP3 SWAP2 POP POP JUMP JUMPDEST PUSH32 0x4E487B7100000000000000000000000000000000000000000000000000000000 PUSH0 MSTORE PUSH1 0x22 PUSH1 0x4 MSTORE PUSH1 0x24 PUSH0 REVERT JUMPDEST PUSH0 PUSH1 0x2 DUP3 DIV SWAP1 POP PUSH1 0x1 DUP3 AND DUP1 PUSH2 0x6E3 JUMPI PUSH1 0x7F DUP3 AND SWAP2 POP JUMPDEST PUSH1 0x20 DUP3 LT DUP2 SUB PUSH2 0x6F6 JUMPI PUSH2 0x6F5 PUSH2 0x69F JUMP JUMPDEST JUMPDEST POP SWAP2 SWAP1 POP JUMP JUMPDEST PUSH32 0x4E487B7100000000000000000000000000000000000000000000000000000000 PUSH0 MSTORE PUSH1 0x11 PUSH1 0x4 MSTORE PUSH1 0x24 PUSH0 REVERT JUMPDEST PUSH0 PUSH2 0x733 DUP3 PUSH2 0x66B JUMP JUMPDEST SWAP2 POP PUSH1 0xFF DUP3 SUB PUSH2 0x746 JUMPI PUSH2 0x745 PUSH2 0x6FC JUMP JUMPDEST JUMPDEST PUSH1 0x1 DUP3 ADD SWAP1 POP SWAP2 SWAP1 POP JUMP JUMPDEST PUSH0 PUSH2 0x75B DUP3 PUSH2 0x5E5 JUMP JUMPDEST SWAP2 POP PUSH2 0x766 DUP4 PUSH2 0x5E5 JUMP JUMPDEST SWAP3 POP DUP3 DUP3 ADD SWAP1 POP DUP1 DUP3 GT ISZERO PUSH2 0x77E JUMPI PUSH2 0x77D PUSH2 0x6FC JUMP JUMPDEST JUMPDEST SWAP3 SWAP2 POP POP JUMP INVALID LOG2 PUSH5 0x6970667358 0x22 SLT KECCAK256 SWAP1 JUMPDEST SWAP12 TLOAD 0xC4 0xE5 SWAP3 DUP8 MSTORE 0xE5 SWAP13 0xE STATICCALL 0xE6 RETURNDATASIZE DUP9 PUSH2 0x847D DUP7 CALLDATASIZE LOG4 0xE0 PUSH16 0xF2ECDE18FBA2AF8B64736F6C63430008 BYTE STOP CALLER "
		},
		"gasEstimates": {
			"creation": {
				"codeDepositCost": "395600",
				"executionCost": "infinite",
				"totalCost": "infinite"
			},
			"external": {
				"Cheack(uint256)": "26817",
				"Cheack2(uint256)": "infinite",
				"Cheack3(string)": "infinite",
				"a()": "infinite",
				"i()": "2532",
				"num()": "2469",
				"sum()": "2447"
			}
		},
		"methodIdentifiers": {
			"Cheack(uint256)": "da54ba98",
			"Cheack2(uint256)": "80cb9a69",
			"Cheack3(string)": "433d97e4",
			"a()": "0dbe671f",
			"i()": "e5aa3d58",
			"num()": "4e70b1dc",
			"sum()": "853255cc"
		}
	},
	"abi": [
		{
			"inputs": [
				{
					"internalType": "uint256",
					"name": "number",
					"type": "uint256"
				}
			],
			"name": "Cheack",
			"outputs": [],
			"stateMutability": "nonpayable",
			"type": "function"
		},
		{
			"inputs": [
				{
					"internalType": "uint256",
					"name": "number",
					"type": "uint256"
				}
			],
			"name": "Cheack2",
			"outputs": [],
			"stateMutability": "nonpayable",
			"type": "function"
		},
		{
			"inputs": [
				{
					"internalType": "string",
					"name": "",
					"type": "string"
				}
			],
			"name": "Cheack3",
			"outputs": [],
			"stateMutability": "nonpayable",
			"type": "function"
		},
		{
			"inputs": [],
			"name": "a",
			"outputs": [
				{
					"internalType": "string",
					"name": "",
					"type": "string"
				}
			],
			"stateMutability": "view",
			"type": "function"
		},
		{
			"inputs": [],
			"name": "i",
			"outputs": [
				{
					"internalType": "uint8",
					"name": "",
					"type": "uint8"
				}
			],
			"stateMutability": "view",
			"type": "function"
		},
		{
			"inputs": [],
			"name": "num",
			"outputs": [
				{
					"internalType": "uint256",
					"name": "",
					"type": "uint256"
				}
			],
			"stateMutability": "view",
			"type": "function"
		},
		{
			"inputs": [],
			"name": "sum",
			"outputs": [
				{
					"internalType": "uint256",
					"name": "",
					"type": "uint256"
				}
			],
			"stateMutability": "view",
			"type": "function"
		}
	]
}